:020000040800F2
:1000000000500020E9240008F51D0008FD1D00082F
:10001000051E00080D1E0008151E00080000000047
:100020000000000000000000000000001D1E00088D
:10003000291E000800000000351E0008411E0008AF
:100040003125000831250008312500083125000838
:100050003125000831250008312500083125000828
:100060003125000831250008312500083125000818
:100070004D1E0008611E000831250008751E00088D
:10008000891E00089D1E0008312500083125000842
:1000900031250008312500083125000831250008E8
:1000A00031250008B11E000831250008312500085F
:1000B000C51E00083125000831250008D91E00089A
:1000C000ED1E00083125000831250008011F000839
:1000D00031250008151F00083125000831250008CA
:1000E00031250008312500083125000800000000F6
:1000F0000000000000000000000000000000000000
:0C01000000000000000000005FF808F1A3
:10010C0010B5054C237833B9044B13B10448AFF345
:10011C0000800123237010BDB800002000000000F7
:10012C00C897000808B5034B1BB103490348AFF34C
:10013C00008008BD00000000BC000020C89700082B
:10014C0081F0004102E000BF83F0004330B54FEA7C
:10015C0041044FEA430594EA050F08BF90EA020FE9
:10016C001FBF54EA000C55EA020C7FEA645C7FEA7C
:10017C00655C00F0E2804FEA5454D4EB5555B8BF9F
:10018C006D420CDD2C4480EA020281EA030382EA10
:10019C00000083EA010180EA020281EA0303362DA2
:1001AC0088BF30BD11F0004F4FEA01314FF4801C75
:1001BC004CEA113102D0404261EB410113F0004F87
:1001CC004FEA03334CEA133302D0524263EB43033E
:1001DC0094EA050F00F0A780A4F10104D5F1200EDC
:1001EC000DDB02FA0EFC22FA05F2801841F1000137
:1001FC0003FA0EF2801843FA05F359410EE0A5F10B
:10020C0020050EF1200E012A03FA0EFC28BF4CF03B
:10021C00020C43FA05F3C01851EBE37101F00045F1
:10022C0007D54FF0000EDCF1000C7EEB00006EEBFE
:10023C000101B1F5801F1BD3B1F5001F0CD3490888
:10024C005FEA30004FEA3C0C04F101044FEA4452DF
:10025C0012F5800F80F09A80BCF1004F08BF5FEA66
:10026C00500C50F1000041EB045141EA050130BD46
:10027C005FEA4C0C404141EB0101013C28BFB1F558
:10028C00801FE9D291F0000F04BF01460020B1FAA3
:10029C0081F308BF2033A3F10B03B3F120020CDA76
:1002AC000C3208DD02F1140CC2F10C0201FA0CF054
:1002BC0021FA02F10CE002F11402D8BFC2F1200CB9
:1002CC0001FA02F120FA0CFCDCBF41EA0C0190406F
:1002DC00E41AA2BF01EB0451294330BD6FEA0404B8
:1002EC001F3C1CDA0C340EDC04F11404C4F12002A3
:1002FC0020FA04F001FA02F340EA030021FA04F3B5
:10030C0045EA030130BDC4F10C04C4F1200220FA0B
:10031C0002F001FA04F340EA0300294630BD21FA49
:10032C0004F0294630BD94F0000F83F4801306BF0F
:10033C0081F480110134013D4EE77FEA645C18BF03
:10034C007FEA655C29D094EA050F08BF90EA020F9A
:10035C0005D054EA000C04BF1946104630BD91EA92
:10036C00030F1EBF0021002030BD5FEA545C05D195
:10037C004000494128BF41F0004130BD14F58004D4
:10038C003CBF01F5801130BD01F0004545F0FE4148
:10039C0041F470014FF0000030BD7FEA645C1ABF7D
:1003AC00194610467FEA655C1CBF0B46024650EAB4
:1003BC00013406BF52EA033591EA030F41F40021E0
:1003CC0030BD00BF90F0000F04BF0021704730B566
:1003DC004FF4806404F132044FF000054FF000013B
:1003EC0050E700BF90F0000F04BF0021704730B5FC
:1003FC004FF4806404F1320410F0004548BF4042D1
:10040C004FF000013EE700BF42004FEAE2014FEA25
:10041C0031014FEA02701FBF12F07F4393F07F4F00
:10042C0081F06051704732F07F4208BF704793F003
:10043C007F4F04BF41F40021704730B54FF4607416
:10044C0001F0004521F000411CE700BF50EA010219
:10045C0008BF704730B54FF000050AE050EA0102C2
:10046C0008BF704730B511F0004502D5404261EB32
:10047C0041014FF4806404F132045FEA915C3FF473
:10048C00D8AE4FF003025FEADC0C18BF03325FEA10
:10049C00DC0C18BF033202EBDC02C2F1200300FAC1
:1004AC0003FC20FA02F001FA03FE40EA0E0021FAE6
:1004BC0002F11444BDE600BF4FEA410212F50012EE
:1004CC0015D211D56FF47873B3EB625212D94FEA8F
:1004DC00C12343F0004343EA505311F0004F23FA79
:1004EC0002F018BF404270474FF00000704750EACE
:1004FC00013005D111F0004008BF6FF0004070478B
:10050C004FF00000704700BF80F0004002E000BFD9
:10051C0081F0004142001FBF5FEA410392EA030FE2
:10052C007FEA226C7FEA236C6AD04FEA1262D2EB2C
:10053C001363C1BFD218414048404140B8BF5B4231
:10054C00192B88BF704710F0004F40F4000020F0CA
:10055C007F4018BF404211F0004F41F4000121F0E0
:10056C007F4118BF494292EA030F3FD0A2F101022A
:10057C0041FA03FC10EB0C00C3F1200301FA03F168
:10058C0000F0004302D5494260EB4000B0F5000F8B
:10059C0013D3B0F1807F06D340084FEA310102F14A
:1005AC000102FE2A51D2B1F1004F40EBC25008BFFC
:1005BC0020F0010040EA03007047490040EB0000C6
:1005CC00013A28BFB0F5000FEDD2B0FA80FCACF1C7
:1005DC00080CB2EB0C0200FA0CF0AABF00EBC250F4
:1005EC0052421843BCBFD0401843704792F0000FE2
:1005FC0081F4000106BF80F400000132013BB5E735
:10060C004FEA41037FEA226C18BF7FEA236C21D0AA
:10061C0092EA030F04D092F0000F08BF084670470F
:10062C0090EA010F1CBF0020704712F07F4F04D1DD
:10063C00400028BF40F00040704712F100723CBFF0
:10064C0000F50000704700F0004343F0FE4040F41A
:10065C00000070477FEA226216BF08467FEA2363D8
:10066C000146420206BF5FEA412390EA010F40F4C3
:10067C00800070474FF0000304E000BF10F000430F
:10068C0048BF40425FEA000C08BF704743F09643F6
:10069C0001464FF000001CE050EA010208BF704711
:1006AC004FF000030AE000BF50EA010208BF704798
:1006BC0011F0004302D5404261EB41015FEA010CAD
:1006CC0002BF84460146002043F0B64308BFA3F1A5
:1006DC008053A3F50003BCFA8CF2083AA3EBC25387
:1006EC0010DB01FA02FC634400FA02FCC2F12002A6
:1006FC00BCF1004F20FA02F243EB020008BF20F0DD
:10070C000100704702F1200201FA02FCC2F1200242
:10071C0050EA4C0021FA02F243EB020008BF20EA37
:10072C00DC7070474FF0FF0C1CEAD0521EBF1CEA65
:10073C00D15392EA0C0F93EA0C0F6FD01A4480EA53
:10074C00010C400218BF5FEA41211ED04FF000633C
:10075C0043EA501043EA5111A0FB01310CF0004068
:10076C00B1F5000F3EBF490041EAD3715B0040EA8E
:10077C00010062F17F02FD2A1DD8B3F1004F40EB5E
:10078C00C25008BF20F00100704790F0000F0CF031
:10079C00004C08BF49024CEA502040EA51207F3AF5
:1007AC00C2BFD2F1FF0340EAC250704740F40000D0
:1007BC004FF00003013A5DDC12F1190FDCBF00F0C1
:1007CC0000407047C2F10002410021FA02F1C2F16F
:1007DC00200200FA02FC5FEA310040F1000053EA0B
:1007EC004C0308BF20EADC70704792F0000F00F059
:1007FC00004C02BF400010F4000F013AF9D040EA5F
:10080C000C0093F0000F01F0004C02BF490011F4F2
:10081C00000F013BF9D041EA0C018FE70CEAD153F0
:10082C0092EA0C0F18BF93EA0C0F0AD030F0004C70
:10083C0018BF31F0004CD8D180EA010000F0004024
:10084C00704790F0000F17BF90F0004F084691F0E2
:10085C00000F91F0004F14D092EA0C0F01D142021C
:10086C000FD193EA0C0F03D14B0218BF084608D1E5
:10087C0080EA010000F0004040F0FE4040F400002F
:10088C00704740F0FE4040F4400070474FF0FF0CC2
:10089C001CEAD0521EBF1CEAD15392EA0C0F93EA09
:1008AC000C0F69D0A2EB030280EA010C49024FEA5B
:1008BC00402037D04FF0805343EA111143EA101314
:1008CC000CF000408B4238BF5B0042F17D024FF4CC
:1008DC00000C8B4224BF5B1A40EA0C00B3EB510FA7
:1008EC0024BFA3EB510340EA5C00B3EB910F24BF90
:1008FC00A3EB910340EA9C00B3EBD10F24BFA3EB15
:10090C00D10340EADC001B0118BF5FEA1C1CE0D1DC
:10091C00FD2A3FF650AF8B4240EBC25008BF20F08F
:10092C00010070470CF0004C4CEA50207F32C2BFE3
:10093C00D2F1FF0340EAC250704740F400004FF080
:10094C000003013A37E792F0000F00F0004C02BFB1
:10095C00400010F4000F013AF9D040EA0C0093F07B
:10096C00000F01F0004C02BF490011F4000F013BD5
:10097C00F9D041EA0C0195E70CEAD15392EA0C0F3D
:10098C0008D142027FF47DAF93EA0C0F7FF470AF75
:10099C00084676E793EA0C0F04D14B023FF44CAFB8
:1009AC0008466EE730F0004C18BF31F0004CCAD14D
:1009BC0030F000427FF45CAF31F000437FF43CAF89
:1009CC005FE700BF4FF0FF3C06E000BF4FF0010CAB
:1009DC0002E000BF4FF0010C4DF804CD4FEA40028D
:1009EC004FEA41037FEA226C18BF7FEA236C11D0D7
:1009FC0001B052EA530C18BF90EA010F58BFB2EB8A
:100A0C00030088BFC81738BF6FEAE17018BF40F009
:100A1C00010070477FEA226C02D15FEA402C05D1BD
:100A2C007FEA236CE4D15FEA412CE1D05DF8040B42
:100A3C00704700BF844608466146FFE70FB5FFF7D5
:100A4C00C9FF002848BF10F1000F0FBD4DF808ED8D
:100A5C00FFF7F4FF0CBF012000205DF808FB00BF7E
:100A6C004DF808EDFFF7EAFF34BF012000205DF8D8
:100A7C0008FB00BF4DF808EDFFF7E0FF94BF012025
:100A8C0000205DF808FB00BF4DF808EDFFF7D2FF22
:100A9C0094BF012000205DF808FB00BF4DF808ED65
:100AAC00FFF7C8FF34BF012000205DF808FB00BF32
:100ABC0080B582B000AF1C4B5B691B4A43F001034D
:100ACC005361194B5B6903F001037B607B68002267
:100ADC0000210C2001F085FE0C2001F09EFE00226E
:100AEC0000210D2001F07DFE0D2001F096FE00226C
:100AFC0000210F2001F075FE0F2001F08EFE002268
:100B0C000021102001F06DFE102001F086FE002265
:100B1C000021112001F065FE112001F07EFE00BFC6
:100B2C000837BD4680BD00BF0010024080B483B0C2
:100B3C0000AF786039603B687A681A607B68A3F50F
:100B4C00006313F1C80F09DB7B68A3F50063C82BA6
:100B5C0004DC3B684FF400621A6010E07B68B3F56C
:100B6C00967F03DC3B6800221A6008E07B6840F645
:100B7C00D362934203DD3B684FF480521A6000BF8E
:100B8C000C37BD4680BC704780B584B000AF786030
:100B9C007B6823F00043FB604FF00001F868FFF71F
:100BAC0069FF0346002B01D0002324E04FF07E5157
:100BBC00F868FFF7ADFC034611491846FFF766FECF
:100BCC00034610491846FFF7ADFD03460E4918467B
:100BDC00FFF7A0FC03461846FFF716FC02460B462F
:100BEC001046194608F0A4FD02460B46104619465D
:100BFC00FFF762FC034618461037BD4680BD00BFA8
:100C0C000000C64200008C4200C0144480B584B081
:100C1C0000AF786039603868FFF7B6FFF8604FF0C6
:100C2C0000013868FFF73AFF0346002B46D07B687B
:100C3C005B69002B05D17B681B691B6800225A631A
:100C4C0018E07B685B69042B05D17B681B691A680B
:100C5C00002393630EE07B685B69082B05D17B68EE
:100C6C001B691A680023D36304E07B681B691A684C
:100C7C00002313647B689B69002B05D17B681B697F
:100C8C001B68FA685A6360E07B689B69042B05D18A
:100C9C007B681B691A68FB68936356E07B689B69E9
:100CAC00082B05D17B681B691A68FB68D3634CE081
:100CBC007B681B691A68FB68136446E07B685B6998
:100CCC00002B05D17B681B691B6800225A6318E056
:100CDC007B685B69042B05D17B681B691A68002350
:100CEC0093630EE07B685B69082B05D17B681B69FD
:100CFC001A680023D36304E07B681B691A6800231D
:100D0C0013647B689B69002B05D17B681B691B688E
:100D1C0000225A6319E07B689B69042B05D17B6820
:100D2C001B691A68002393630FE07B689B69082B8F
:100D3C0005D17B681B691A680023D36305E07B68C7
:100D4C001B691A6800231364FFE700BF1037BD4608
:100D5C0080BD000080B58AB000AF78607B681B68EE
:100D6C0007F1100211461846FFF7E0FE7B680433CA
:100D7C001B6807F10C0211461846FFF7D7FE3B69BA
:100D8C00A3F500631846FFF779FC03464C49184657
:100D9C00FFF77CFD03463B62FB68A3F50063184636
:100DAC00FFF76CFC034646491846FFF76FFD0346F8
:100DBC00FB614FF07E51386A08F08BFC03464149C9
:100DCC00184608F071FC38624FF07E51F86908F053
:100DDC0080FC03463B49184608F066FCF8617B68CA
:100DEC000C331B68B3F5805F03DC4FF000037B62B0
:100DFC0023E07B680C331B68B3F57F6F02DB324B4F
:100E0C007B621AE07B680C331B68A3F50063184601
:100E1C00FFF734FC03464FF08A411846FFF736FDC6
:100E2C0003462A491846FFF77DFC03464FF07E51D6
:100E3C001846FFF76FFB03467B62396AF869FFF7C8
:100E4C0069FB0346796A1846FFF76CFC03461E499A
:100E5C001846FFF71BFD0346BB61396AF869FFF7BB
:100E6C0057FB0346796A1846FFF75CFC03461649A4
:100E7C001846FFF70BFD03467B614FF07E51B869B6
:100E8C0008F027FC03460F49184608F00DFCB86122
:100E9C004FF07E51786908F01CFC0346094918464E
:100EAC0008F002FC7861B9690948FFF7AFFE79696F
:100EBC000848FFF7ABFE00BF2837BD4680BD00BF1A
:100ECC000080DA44000080BF0000C8420000C64227
:100EDC00000000201C00002080B588B000AF07F196
:100EEC00100300221A605A609A60DA604B4B9B69BF
:100EFC004A4A43F010039361484B9B6903F010037B
:100F0C00FB60FB68454B9B69444A43F020039361AB
:100F1C00424B9B6903F02003BB60BB683F4B9B6952
:100F2C003E4A43F0040393613C4B9B6903F004037A
:100F3C007B607B68394B9B69384A43F008039361AB
:100F4C00364B9B6903F008033B603B6800224FF46F
:100F5C000051334802F0AEF801220321314802F06F
:100F6C00A9F800224FF4A0612E4802F0A3F84FF428
:100F7C0000533B6101237B610023BB610223FB61B6
:100F8C0007F110031946264801F010FF10233B61AE
:100F9C0000237B610123BB6107F110031946224832
:100FAC0001F004FF03233B6101237B610023BB6140
:100FBC000323FB6107F1100319461A4801F0F6FEF2
:100FCC004FF480633B6101237B610023BB610223EF
:100FDC00FB6107F110031946124801F0E7FE1823D4
:100FEC003B6100237B610123BB6107F110031946B0
:100FFC000C4801F0DBFE4FF480733B6111237B61E5
:10100C000123BB610223FB6107F11003194605485C
:10101C0001F0CCFE00BF2037BD4680BD0010024061
:10102C0000100140000C01400008014080B500AFE9
:10103C00124B134A1A60114B124A5A600F4B002282
:10104C009A600E4B0022DA600C4B4FF480421A610E
:10105C000A4B00225A61094B00229A61074B00226D
:10106C00DA61064B00221A62044802F055F8034676
:10107C00002B01D000F023FA00BF80BDD40000206B
:10108C0000540040801A060080B588B000AF78602C
:10109C0007F1100300221A605A609A60DA607B68CC
:1010AC001B68454A934240F08280444B9B69434AFB
:1010BC0043F008039361414B9B6903F00803FB6009
:1010CC00FB68C0233B6112237B610323FB6107F1A7
:1010DC00100319463A4801F069FE384BDB69374A70
:1010EC0043F40013D361354BDB6903F40013BB608D
:1010FC00BB68344B344A1A60324B00225A60314B75
:10110C0000229A602F4B8022DA602E4B00221A614B
:10111C002C4B00225A612B4B00229A61294B4FF425
:10112C008052DA61274801F093FB0346002B01D073
:10113C0000F0C5F97B68234A9A63224A7B685362A4
:10114C00224B234A1A60214B10225A601F4B00225B
:10115C009A601E4B8022DA601C4B00221A611B4BDA
:10116C0000225A61194B00229A61184B4FF480529D
:10117C00DA61164801F06CFB0346002B01D000F03D
:10118C009EF97B68114A5A63104A7B6853620022AD
:10119C0000211F2001F025FB1F2001F03EFB002247
:1011AC000021202001F01DFB202001F036FB00BFA8
:1011BC002037BD4680BD00BF0054004000100240E7
:1011CC00000C014028010020800002406C0100202E
:1011DC006C00024080B584B000AF786008461146C0
:1011EC001A4603467B800B467B7013463B707B781C
:1011FC003B733B787B737B885B0099B207F10C02E5
:10120C000223786802F0E0F800BF054802F07EFC8B
:10121C000346202BF9D100BF00BF1037BD4680BD5F
:10122C00D40000202DE9F04389B000AFF8607B605A
:10123C000B467B8113467B726B461E4697F84030FB
:10124C00591C4B1EBB610A460023904699464FF031
:10125C0000024FF000034FEAC90343EA58734FEA08
:10126C00C8020A46002314461D464FF000024FF0F8
:10127C000003EB0043EA5473E2000B460733DB0830
:10128C00DB00ADEB030D6B4600337B617B697A7A37
:10129C001A700023FB770AE0FB7F7A681A44FB7F05
:1012AC00013311787A69D154FB7F0133FB77FA7FD4
:1012BC0097F840309A42EFD37B895B0099B297F84C
:1012CC0040309BB201339BB27A69F86802F07CF82B
:1012DC0000BF064802F01AFC0346202BF9D1B54694
:1012EC0000BF2437BD46BDE8F08300BFD40000200A
:1012FC0090B585B000AF786039601149786807F017
:10130C00CFFAF8600023BB6010E0BB689B003A6822
:10131C00D418F86807F02DF903462360084900201B
:10132C0007F0BEFAF860BB680133BB60BB68032BE7
:10133C0002DCFB68002BE8D100BF1437BD4690BD22
:10134C00E097000880B584B002AF0023FB7101F078
:10135C00EBF800F06FF8FFF7BFFDFFF7A9FBFFF705
:10136C0065FE00F02FFC01F03BF800F09FFE00F052
:10137C00EFFE2B4805F02EFB00212A4805F0D4FB8C
:10138C000421284805F0D0FB0821264805F0CCFBA9
:10139C000C21244805F0C8FB224B1B6800225A6321
:1013AC00204B1B6800229A631E4B1B680022DA63D9
:1013BC001C4B1B6800221A6406F050FF00F080FBE7
:1013CC0000BF00F02FFA0346002BFAD000F094FB7C
:1013DC00012000F0C3FA144800F018FB0346002B60
:1013EC00F9D012491048FFF783FF1048FFF7B2FC01
:1013FC00FB790133FB7106F073FFF979002300933D
:10140C001023094A002007F06BF8FB79072B01D158
:10141C00FF23FB714FF40051054801F063FEDAE73E
:10142C00C002002008030020C0010020B0010020F1
:10143C000010014080B590B000AF07F118032822CE
:10144C000021184607F023FA3B1D00221A605A604F
:10145C009A60DA601A610123BB614FF48033FB613F
:10146C0000233B620123BB6202237B634FF4803376
:10147C00BB634FF4C013FB6307F11803184603F06A
:10148C00E5FE0346002B01D000F019F80F237B601A
:10149C000223BB600023FB604FF480633B6100239D
:1014AC007B613B1D0221184604F052F90346002BC8
:1014BC0001D000F004F800BF4037BD4680BD80B4B9
:1014CC0000AF72B600BF00BFFDE7000080B586B06C
:1014DC0002AF0346FB7107F10F02F91D4FF0FF330A
:1014EC0000930123034804F045FBFB7B184610379F
:1014FC00BD4680BDD401002080B584B000AF03464A
:10150C00FB7107F10E02F91D01230B4804F08EFD4F
:10151C000346FB73FB7B002B01D0FFF7D0FF00BF12
:10152C00054804F0A4FF0346012BF9D1BB7B1846F8
:10153C001037BD4680BD00BFD401002080B586B0F9
:10154C0000AFF860B9601346FB80FB88BA68F96895
:10155C00084804F06BFD0346FB7500BF054804F01A
:10156C0086FF0346012BF9D1FB7D18461837BD4683
:10157C0080BD00BFD401002080B584B000AF03460D
:10158C00FB71FB793B73FF237B7300233B810022B0
:10159C0002210E4801F08EFD07F1080207F10C0143
:1015AC0002230B4804F042FD00BF094804F05FFF22
:1015BC000346012BF9D101220221044801F07AFDE6
:1015CC007B7A18461037BD4680BD00BF000C014029
:1015DC00D401002080B592B000AF03463960FB7196
:1015EC001346BB71FB7987F82830BA7907F12803C9
:1015FC000133FF21184607F04AF9002202210F4857
:10160C0001F058FDBB799BB201339AB207F1080186
:10161C0007F128031846FFF791FFBA7907F1080381
:10162C0001331946386807F00AFA012202210348EF
:10163C0001F040FD00BF4837BD4680BD000C0140A5
:10164C0080B584B000AF03460A46FB711346BB71EC
:10165C00FB7943F02003DBB23B73BB797B73002235
:10166C0002210D4801F026FD07F10C030222194658
:10167C000A4804F029FC00BF084804F0F8FE0346B1
:10168C00012BF9D101220221034801F013FD00BF07
:10169C001037BD4680BD00BF000C0140D4010020B6
:1016AC0080B582B000AF00220221094801F002FD92
:1016BC000720FFF70BFF0346FB71012202210448B0
:1016CC0001F0F8FCFB7918460837BD4680BD00BF19
:1016DC00000C014080B584B000AF0346FB71FB7970
:1016EC0003F07003FB71FFF7DBFF0346FB73002273
:1016FC0002210C4801F0DEFC2720FFF7E7FEFA7B05
:10170C00FB791343DBB21846FFF7E0FE01220221FE
:10171C00044801F0CFFCFFF7C3FF0346184610370F
:10172C00BD4680BD000C014080B584B000AF786030
:10173C000B46FB70FB78052B28BF0523FB70302371
:10174C003B72FA7807F1080301337968184607F001
:10175C0076F9002202210E4801F0ACFCFB789BB21A
:10176C0001339AB207F1080319460A4804F0ACFB9E
:10177C0000BF084804F07BFE0346012BF9D101227F
:10178C000221034801F096FC00BF1037BD4680BD16
:10179C00000C0140D401002080B584B000AF03469A
:1017AC003960FB711346BB71BB79052B28BF052330
:1017BC00BB71FB79052B28BF0523FB71FB790A3321
:1017CC00DBB25BB243F020035BB2DBB23B72BA79A3
:1017DC0007F1080301333968184607F030F9002285
:1017EC0002210E4801F066FCBB799BB201339AB220
:1017FC0007F1080319460A4804F066FB00BF0848C5
:10180C0004F035FE0346012BF9D1012202210348D5
:10181C0001F050FC00BF1037BD4680BD000C0140EC
:10182C00D401002080B58AB000AF484A07F11803F4
:10183C0092E8030018600433197007F110030022BA
:10184C001A601A7100F0C8FE386230233B7207F13F
:10185C00090307F118021068186012791A71002236
:10186C0002213B4801F026FC07F108030622194629
:10187C00384804F029FB00BF364804F0F8FD034655
:10188C00012BF9D101220221314801F013FC102364
:10189C003B7207F1080301330522FF21184606F0BD
:1018AC00F6FF002202212A4801F004FC3A4607F117
:1018BC0008010623274804F0B9FB00BF254804F0B3
:1018CC00D6FD0346012BF9D101220221204801F05B
:1018DC00F1FB002387F8273013E097F827302833E3
:1018EC003B4413F8102C97F82730013328333B4432
:1018FC0013F8283C9A4209D197F82730013387F81E
:10190C00273097F82730042BE7D900E000BF97F871
:10191C002730052B01D1012313E000F05DFE0246B8
:10192C003B6AD31A41F28832934201D9002308E072
:10193C004FF40051084801F0D5FB642000F056FE2E
:10194C0083E718462837BD4680BD00BF00980008C5
:10195C00000C0140D40100200010014080B584B07F
:10196C0000AF0346FB7100233B73FF237B73002204
:10197C000221244801F09EFB07F1080207F10C013B
:10198C000223214804F052FB00BF1F4804F06FFDF6
:10199C000346012BF9D1012202211A4801F08AFBDE
:1019AC007B7AFB73FB79002B04D1FB7B23F00103C7
:1019BC00FB7306E0FB79012B03D1FB7B43F00103A6
:1019CC00FB7320233B73FB7B7B73002202210D48AE
:1019DC0001F070FB07F10C03022219460A4804F0CF
:1019EC0073FA00BF084804F042FD0346012BF9D1FD
:1019FC0001220221034801F05DFB00BF1037BD46F8
:101A0C0080BD00BF000C0140D401002080B586B021
:101A1C0000AF78600023FB7500F0DEFD3861002319
:101A2C00FB7300220221244801F044FBE220FFF763
:101A3C0063FD01220221204801F03CFB11E000F083
:101A4C00CBFD02463B69D31A642B07D900F038F85A
:101A5C0000F052F80120FFF781FF08E0012000F0B0
:101A6C00C5FD164B9B6803F01003102BE7D0072025
:101A7C00FFF782FD0346FB75FB7D19460720FFF738
:101A8C00DFFDFB7D03F04003002B10D06020FFF73F
:101A9C0073FD0346FB73FB7B1A4679686120FFF7E5
:101AAC0099FDFF21E220FFF7CBFDFB7B00E000233B
:101ABC0018461837BD4680BD000C01400008014097
:101ACC0080B500AF01220121094801F0F3FA01228F
:101ADC001021084801F0EEFA00220121044801F01F
:101AEC00E9FA01220221024801F0E4FA00BF80BDAC
:101AFC00000C01400008014080B584B000AF2D4AB5
:101B0C003B1D92E803001860043319700122012177
:101B1C00294801F0CFFA7020FFF7DCFD0023FB60B1
:101B2C0036E0264AFB6812F8133043F02003DBB290
:101B3C003B70224AFB685B0013445B787B7000228D
:101B4C0002211D4801F0B6FA3B46022219461C48F8
:101B5C0004F0BAF900BF1A4804F089FC0346012BC3
:101B6C00F9D101220221144801F0A4FA134AFB68AE
:101B7C0012F81330002B05D0104AFB6812F8133002
:101B8C00062B02D1012000F031FDFB680133FB6014
:101B9C00FB68082BC5D93B1D05211846FFF7C4FD72
:101BAC003B1D052219460020FFF7F6FD00BF10373C
:101BBC00BD4680BD08980008000C01401098000834
:101BCC00D401002080B500AF174B184A1A60164B91
:101BDC004FF482725A60144B00229A60124B00220E
:101BEC00DA60114B00221A610F4B00225A610E4B26
:101BFC004FF400729A610C4B1822DA610A4B0022E6
:101C0C001A62094B00225A62074B00229A62064B59
:101C1C000A22DA62044803F029FF0346002B01D0A4
:101C2C00FFF74DFC00BF80BDD40100200030014007
:101C3C0080B588B000AF786007F1100300221A60FD
:101C4C005A609A60DA607B681B68474A934240F09E
:101C5C008680464B9B69454A43F480539361434BC2
:101C6C009B6903F48053FB60FB68404B9B693F4AC4
:101C7C0043F0040393613D4B9B6903F00403BB6089
:101C8C00BB68A0233B6102237B610323FB6107F14B
:101C9C0010031946364801F089F840233B610023B4
:101CAC007B610023BB6107F110031946304801F03A
:101CBC007DF8304B304A1A602E4B00225A602D4B67
:101CCC0000229A602B4B8022DA602A4B00221A6188
:101CDC00284B00225A61274B00229A61254B4FF466
:101CEC000052DA61234800F0B3FD0346002B01D00B
:101CFC00FFF7E5FB7B681F4ADA641E4A7B68536278
:101D0C001E4B1F4A1A601D4B10225A601B4B00229F
:101D1C009A601A4B8022DA60184B00221A61174B1A
:101D2C0000225A61154B00229A61144B4FF4005259
:101D3C00DA61124800F08CFD0346002B01D0FFF74E
:101D4C00BEFB7B680D4A9A640C4A7B685362002286
:101D5C000021232000F045FD232000F05EFD00BF94
:101D6C002037BD4680BD00BF00300140001002404E
:101D7C00000801402C0200201C00024070020020D0
:101D8C003000024080B485B000AF154B9B69144AFB
:101D9C0043F001039361124B9B6903F00103BB6099
:101DAC00BB680F4BDB690E4A43F08053D3610C4B7D
:101DBC00DB6903F080537B607B680A4B5B68FB60DC
:101DCC00FB6823F0E063FB60FB6843F00073FB608F
:101DDC00044AFB68536000BF1437BD4680BC704793
:101DEC00001002400000014080B400AF00BFFDE7CE
:101DFC0080B400AF00BFFDE780B400AF00BFFDE7CB
:101E0C0080B400AF00BFFDE780B400AF00BFFDE7BA
:101E1C0080B400AF00BFBD4680BC704780B400AF3B
:101E2C0000BFBD4680BC704780B400AF00BFBD464C
:101E3C0080BC704780B500AF00F0BCFB00BF80BD1C
:101E4C0080B500AF024800F071FE00BF80BD00BF3E
:101E5C002C02002080B500AF024800F067FE00BFE6
:101E6C0080BD00BF7002002080B500AF024800F0BA
:101E7C005DFE00BF80BD00BF5003002080B500AFE9
:101E8C00024800F053FE00BF80BD00BF6C01002073
:101E9C0080B500AF024800F049FE00BF80BD00BF16
:101EAC002801002080B500AF024804F0DFFE00BF1F
:101EBC0080BD00BFC002002080B500AF024804F016
:101ECC00D5FE00BF80BD00BF0803002080B500AF69
:101EDC00024801F09DFB00BF80BD00BFD400002074
:101EEC0080B500AF024801F004FD00BF80BD00BF0B
:101EFC00D400002080B500AF024804F093F900BF75
:101F0C0080BD00BFD401002080B500AF024805F0B1
:101F1C00C3FC00BF80BD00BF9403002080B400AFA1
:101F2C0001231846BD4680BC704780B582B000AF17
:101F3C007860396006F056FD034616221A604FF0A1
:101F4C00FF3318460837BD4680BD80B582B000AF60
:101F5C0078604FF0FF317868FFF7E7FF00BFFDE7CF
:101F6C0080B586B000AFF860B9607A6000237B6101
:101F7C000AE0AFF300800146BB685A1CBA60CAB2D3
:101F8C001A707B6901337B617A697B689A42F0DB5A
:101F9C007B6818461837BD4680BD80B586B000AF4B
:101FAC00F860B9607A6000237B6109E0BB685A1C59
:101FBC00BA601B781846AFF300807B6901337B61F4
:101FCC007A697B689A42F1DB7B6818461837BD4604
:101FDC0080BD80B483B000AF78604FF0FF331846FB
:101FEC000C37BD4680BC704780B483B000AF7860BE
:101FFC0039603B684FF400525A60002318460C3786
:10200C00BD4680BC704780B483B000AF78600123BC
:10201C0018460C37BD4680BC704780B485B000AF05
:10202C00F860B9607A60002318461437BD4680BC4E
:10203C007047000080B586B000AF7860144A154B2D
:10204C00D31A7B617B693B61134B1B68002B02D15C
:10205C00114B124A1A60104B1A687B6813443A6988
:10206C009A4207D206F0BEFC03460C221A604FF0CF
:10207C00FF3309E0084B1B68FB60074B1A687B6851
:10208C001344054A1360FB6818461837BD4680BDDB
:10209C000050002000040000B40200203005002095
:1020AC0080B400AF00BFBD4680BC704780B586B021
:1020BC0000AF07F1080300221A605A609A60DA60D8
:1020CC003B4600221A605A601F4B204A1A601E4B76
:1020DC0041F6FF025A601C4B00229A601A4B42F2E6
:1020EC000F72DA60184B00221A61174B00225A61EA
:1020FC00154B80229A61144804F01DFC0346002BFA
:10210C0001D0FFF7DCF94FF48053BB6007F10803F3
:10211C0019460D4804F05CFF0346002B01D0FFF775
:10212C00CEF900233B6000237B603B4619460648F2
:10213C0005F0F2FA0346002B01D0FFF7C0F900BFFF
:10214C001837BD4680BD00BFC0020020002C0140E6
:10215C0080B58EB000AF07F1280300221A605A60D8
:10216C009A60DA6007F1200300221A605A603B1D66
:10217C0000221A605A609A60DA601A615A619A6198
:10218C00444B4FF080421A60424B00225A60414B44
:10219C0000229A603F4B40F67F42DA603D4B0022B2
:1021AC001A613C4B80229A613A4804F0C4FB034606
:1021BC00002B01D0FFF783F94FF48053BB6207F17A
:1021CC0028031946334804F003FF0346002B01D0C3
:1021DC00FFF775F92F4804F04FFC0346002B01D094
:1021EC00FFF76DF900233B6200237B6207F12003AC
:1021FC001946284805F090FA0346002B01D0FFF74A
:10220C005EF960237B60244B1B889BB2BB60002370
:10221C00FB6004237B613B1D002219461D4804F022
:10222C0015FE0346002B01D0FFF749F91B4B1B8809
:10223C009BB2BB603B1D04221946164804F006FEF7
:10224C000346002B01D0FFF73AF9154B1B889BB2C4
:10225C00BB603B1D082219460E4804F0F7FD0346EF
:10226C00002B01D0FFF72BF90E4B1B889BB2BB60E8
:10227C003B1D0C221946074804F0E8FD0346002BD1
:10228C0001D0FFF71CF9034800F07AF800BF38378B
:10229C00BD4680BD08030020B8020020BA02002011
:1022AC00BC020020BE02002080B584B000AF786074
:1022BC007B681B682E4A934214D12E4B9B692D4A86
:1022CC0043F4006393612B4B9B6903F40063FB6045
:1022DC00FB6800220021192000F083FA192000F07D
:1022EC009CFA40E07B681B68B3F1804F3BD1214BDB
:1022FC00DB69204A43F00103D3611E4BDB6903F019
:10230C000103BB60BB681C4B1C4A1A601A4B0022B1
:10231C005A60194B00229A60174B8022DA60164BD8
:10232C004FF480721A61144B4FF480625A61124B55
:10233C0000229A61104B0022DA610F4800F088FAF3
:10234C000346002B01D0FFF7BAF87B680A4A5A62A1
:10235C00094A7B685362002200211C2000F041FADC
:10236C001C2000F05AFA00BF1037BD4680BD00BFDC
:10237C00002C014000100240500300205800024085
:10238C0080B588B000AF786007F1100300221A60A6
:10239C005A609A60DA607B681B68B3F1804F17D182
:1023AC000D4B9B690C4A43F0040393610A4B9B69E8
:1023BC0003F00403FB60FB680F233B6102237B618A
:1023CC000223FB6107F110031946044800F0EEFCF0
:1023DC0000BF2037BD4680BD001002400008014000
:1023EC0080B500AF114B124A1A60104B4FF4E1321A
:1023FC005A600E4B00229A600C4B0022DA600B4B99
:10240C0000221A61094B0C225A61084B00229A6176
:10241C00064B0022DA61054805F0EEF90346002B65
:10242C0001D0FFF74CF800BF80BD00BF9403002023
:10243C000038014080B588B000AF786007F1100318
:10244C0000221A605A609A60DA607B681B68204A26
:10245C00934239D11F4B9B691E4A43F480439361CD
:10246C001C4B9B6903F48043FB60FB68194B9B6915
:10247C00184A43F004039361164B9B6903F0040361
:10248C00BB60BB684FF400733B6102237B61032389
:10249C00FB6107F1100319460F4800F087FC4FF45D
:1024AC0080633B6100237B610023BB6107F1100358
:1024BC001946094800F07AFC00220021252000F082
:1024CC0090F9252000F0A9F900BF2037BD4680BD4A
:1024DC00003801400010024000080140FFF7E0FD09
:1024EC000B480C490C4A002302E0D458C450043366
:1024FC00C4188C42F9D3094A094C002301E013603B
:10250C000432A242FBD306F073FAFEF71BFF7047AE
:10251C0000000020B800002044A20008B8000020F1
:10252C002C050020FEE7000080B500AF084B1B68AF
:10253C00074A43F010031360032000F047F90F2003
:10254C0000F008F8FFF71EFC0023184680BD00BF02
:10255C000020024080B582B000AF7860124B1A6840
:10256C00124B1B7819464FF47A73B3FBF1F3B2FBA1
:10257C00F3F3184600F05FF90346002B01D001235A
:10258C000EE07B680F2B0AD8002279684FF0FF30E1
:10259C0000F027F9064A7B681360002300E0012352
:1025AC0018460837BD4680BD38000020400000208A
:1025BC003C00002080B400AF054B1B781A46054B3D
:1025CC001B681344034A136000BFBD4680BC7047B0
:1025DC0040000020DC03002080B400AF024B1B68DD
:1025EC001846BD4680BC7047DC03002080B584B023
:1025FC0000AF7860FFF7F0FFB8607B68FB60FB68AA
:10260C00B3F1FF3F05D00A4B1B781A46FB68134405
:10261C00FB6000BFFFF7E0FF0246BB68D31AFA6805
:10262C009A42F7D800BF00BF1037BD4680BD00BF2F
:10263C004000002080B485B000AF78607B6803F068
:10264C000703FB600C4BDB68BB60BA684FF6FF03FB
:10265C001340BB60FB681A02BB68134343F0BF63B3
:10266C0043F40033BB60044ABB68D36000BF14372B
:10267C00BD4680BC704700BF00ED00E080B400AFE9
:10268C00044BDB681B0A03F007031846BD4680BCED
:10269C00704700BF00ED00E080B483B000AF03468C
:1026AC00FB7197F90730002B0BDBFB7903F01F0252
:1026BC00064997F907305B09012000FA02F241F84C
:1026CC00232000BF0C37BD4680BC704700E100E002
:1026DC0080B483B000AF03463960FB7197F90730C3
:1026EC00002B0ADB3B68DAB20C4997F90730120170
:1026FC00D2B20B4483F800230AE03B68DAB20849F3
:10270C00FB7903F00F03043B1201D2B20B441A768F
:10271C0000BF0C37BD4680BC704700BF00E100E035
:10272C0000ED00E080B489B000AFF860B9607A6069
:10273C00FB6803F00703FB61FB69C3F10703042B80
:10274C0028BF0423BB61FB690433062B02D9FB6948
:10275C00033B00E000237B614FF0FF32BB6902FAC0
:10276C0003F3DA43BB681A407B699A404FF0FF31A0
:10277C007B6901FA03F3D9437B680B40134318467A
:10278C002437BD4680BC704780B582B000AF7860FE
:10279C007B68013BB3F1807F01D301230FE00A4A30
:1027AC007B68013B53600F214FF0FF30FFF790FF28
:1027BC00054B00229A60044B07221A60002318462E
:1027CC000837BD4680BD00BF10E000E080B582B088
:1027DC0000AF78607868FFF72DFF00BF0837BD4663
:1027EC0080BD80B586B000AF0346B9607A60FB73DC
:1027FC0000237B61FFF742FF78617A68B9687869DA
:10280C00FFF790FF024697F90F3011461846FFF775
:10281C005FFF00BF1837BD4680BD80B582B000AFEA
:10282C000346FB7197F907301846FFF735FF00BFD9
:10283C000837BD4680BD80B582B000AF786078683F
:10284C00FFF7A2FF034618460837BD4680BD0000BF
:10285C0080B485B000AF78600023FB607B68002BF0
:10286C0001D1012343E07B681B681A46224B1344B9
:10287C00224AA2FB03231B099A007B681A647B681B
:10288C001F4ADA637B68022283F821207B681B686D
:10289C001B68FB60FB6823F47F5323F03003FB6061
:1028AC007B685A687B689B681A437B68DB681A43B1
:1028BC007B681B691A437B685B691A437B689B695D
:1028CC001A437B68DB691343FA681343FB607B682C
:1028DC001B68FA681A607B6800229A637B68012285
:1028EC0083F821207B68002283F8202000231846DF
:1028FC001437BD4680BC7047F8FFFDBFCDCCCCCCA7
:10290C000000024080B586B000AFF860B9607A6014
:10291C003B600023FB75FB6893F82030012B01D141
:10292C0002234BE0FB68012283F82020FB6893F81C
:10293C002130DBB2012B3AD1FB68022283F8212033
:10294C00FB6800229A63FB681B681A68FB681B68AB
:10295C0022F001021A603B687A68B968F86800F0E6
:10296C00F8F9FB68DB6A002B08D0FB681B681A6857
:10297C00FB681B6842F00E021A600FE0FB681B68D4
:10298C001A68FB681B6822F004021A60FB681B685B
:10299C001A68FB681B6842F00A021A60FB681B6825
:1029AC001A68FB681B6842F001021A6005E0FB68BC
:1029BC00002283F820200223FB75FB7D1846183774
:1029CC00BD4680BD80B485B000AF78600023FB733A
:1029DC007B6893F82130DBB2022B08D07B68042291
:1029EC009A637B68002283F82020012320E07B6817
:1029FC001B681A687B681B6822F00E021A607B68E1
:102A0C001B681A687B681B6822F001021A607B68DD
:102A1C001A6C7B68DB6B012101FA02F25A607B684D
:102A2C00012283F821207B68002283F82020FB7B85
:102A3C0018461437BD4680BC7047000080B584B082
:102A4C0000AF78600023FB737B6893F82130DBB216
:102A5C00022B05D07B6804229A630123FB7351E09F
:102A6C007B681B681A687B681B6822F00E021A6070
:102A7C007B681B681A687B681B6822F001021A606D
:102A8C007B681B68224A934229D07B681B68214AC9
:102A9C00934222D07B681B681F4A93421AD07B68F2
:102AAC001B681E4A934212D07B681B681C4A9342D7
:102ABC000AD07B681B681B4A934202D14FF48013E7
:102ACC000EE04FF080730BE04FF4803308E04FF4CE
:102ADC00805305E04FF4807302E0102300E00123E3
:102AEC00114A53607B68012283F821207B68002205
:102AFC0083F820207B685B6B002B03D07B685B6BBF
:102B0C0078689847FB7B18461037BD4680BD00BFE0
:102B1C00080002401C000240300002404400024009
:102B2C00580002406C0002400000024080B584B0A6
:102B3C0000AF78607B68DB6B1B68FB607B681B6895
:102B4C001B68BB607B681B6C04229A40FB681340BB
:102B5C00002B4FD0BB6803F00403002B4AD07B68DA
:102B6C001B681B6803F02003002B07D17B681B68D4
:102B7C001A687B681B6822F004021A607B681B6869
:102B8C00664A934229D07B681B68654A934222D0DF
:102B9C007B681B68634A93421AD07B681B68624A45
:102BAC00934212D07B681B68604A93420AD07B68C0
:102BBC001B685F4A934202D14FF480030EE04FF042
:102BCC0080630BE04FF4802308E04FF4804305E072
:102BDC004FF4806302E0402300E00423554A536025
:102BEC007B68DB6A002B00F094807B68DB6A78687A
:102BFC0098478EE07B681B6C02229A40FB6813405E
:102C0C00002B56D0BB6803F00203002B51D07B681D
:102C1C001B681B6803F02003002B0BD17B681B681F
:102C2C001A687B681B6822F00A021A607B68012212
:102C3C0083F821207B681B68384A934229D07B6833
:102C4C001B68374A934222D07B681B68354A9342F3
:102C5C001AD07B681B68344A934212D07B681B687D
:102C6C00324A93420AD07B681B68314A934202D1A4
:102C7C004FF400130EE04FF000730BE04FF40033F1
:102C8C0008E04FF4005305E04FF4007302E02023FA
:102C9C0000E00223274A53607B68002283F820203F
:102CAC007B689B6A002B34D07B689B6A786898475A
:102CBC002FE07B681B6C08229A40FB681340002BAA
:102CCC0028D0BB6803F00803002B23D07B681B685B
:102CDC001A687B681B6822F00E021A607B681A6CFB
:102CEC007B68DB6B012101FA02F25A607B680122DE
:102CFC009A637B68012283F821207B68002283F889
:102D0C0020207B681B6B002B04D07B681B6B7868C6
:102D1C00984700BF00BF1037BD4680BD0800024079
:102D2C001C000240300002404400024058000240A7
:102D3C006C0002400000024080B483B000AF7860A9
:102D4C007B6893F82130DBB218460C37BD4680BC4B
:102D5C00704780B485B000AFF860B9607A603B60B2
:102D6C00FB681A6CFB68DB6B012101FA02F25A60FA
:102D7C00FB681B683A685A60FB685B68102B08D1CB
:102D8C00FB681B687A689A60FB681B68BA68DA6033
:102D9C0007E0FB681B68BA689A60FB681B687A6876
:102DAC00DA6000BF1437BD4680BC704780B48BB06E
:102DBC0000AF7860396000237B6200233B6269E1DD
:102DCC0001227B6A02FA03F3FB613B681B68FA6918
:102DDC001340BB61BA69FB699A4240F058813B6869
:102DEC005B689A4A93425ED0984A934275D8984A47
:102DFC00934258D0964A93426FD8964A934252D0F7
:102E0C00944A934269D8944A93424CD0924A934242
:102E1C0063D8924A934246D0904A93425DD8122B83
:102E2C002AD8122B59D801A252F823F0B32E00083D
:102E3C008D2E00089F2E0008E12E0008E72E0008BA
:102E4C00E72E0008E72E0008E72E0008E72E000802
:102E5C00E72E0008E72E0008E72E0008E72E0008F2
:102E6C00E72E0008E72E0008E72E0008E72E0008E2
:102E7C00952E0008A92E0008794A934213D02CE015
:102E8C003B68DB683B6229E03B68DB6804333B62F0
:102E9C0024E03B68DB6808333B621FE03B68DB687F
:102EAC000C333B621AE03B689B68002B02D1042375
:102EBC003B6213E03B689B68012B05D108233B6206
:102ECC007B68FA691A6109E008233B627B68FA693E
:102EDC005A6103E000233B6200E000BFBB69FF2B9B
:102EEC0001D87B6801E07B6804337B61BB69FF2BF5
:102EFC0002D87B6A9B0002E07B6A083B9B003B612B
:102F0C007B691A680F213B6901FA03F3DB431A4012
:102F1C00396A3B6901FA03F31A437B691A603B680F
:102F2C005B6803F08053002B00F0B1804D4B9B6924
:102F3C004C4A43F0010393614A4B9B6903F0010334
:102F4C00BB60BB68484A7B6A9B08023352F823304B
:102F5C00FB607B6A03F003039B000F2202FA03F36E
:102F6C00DB43FA681340FB607B68404A934213D002
:102F7C007B683F4A93420DD07B683E4A934207D010
:102F8C007B683D4A934201D1032306E0042304E00D
:102F9C00022302E0012300E000237A6A02F003021C
:102FAC0092009340FA681343FB602F497B6A9B089D
:102FBC000233FA6841F823203B685B6803F4801302
:102FCC00002B06D02D4B9A682C49BB6913438B60A0
:102FDC0006E02A4B9A68BB69DB43284913408B6097
:102FEC003B685B6803F40013002B06D0234BDA68B4
:102FFC002249BB691343CB6006E0204BDA68BB69FE
:10300C00DB431E491340CB603B685B6803F4003321
:10301C00002B06D0194B5A681849BB6913434B60F7
:10302C0006E0164B5A68BB69DB43144913404B60EE
:10303C003B685B6803F48033002B21D00F4B1A687C
:10304C000E49BB6913430B6021E000BF0000321036
:10305C00000031100000221000002110000012109E
:10306C000000111000100240000001400008014057
:10307C00000C01400010014000140140000401400C
:10308C000B4B1A68BB69DB43094913400B607B6A25
:10309C0001337B623B681A687B6A22FA03F3002BCC
:1030AC007FF48EAE00BF00BF2C37BD4680BC70478E
:1030BC000004014080B483B000AF78600B467B8085
:1030CC0013467B707B78002B03D07A887B681A615F
:1030DC0003E07B881A047B681A6100BF0C37BD467D
:1030EC0080BC704780B485B000AF78600B467B80A5
:1030FC007B68DB68FB607A88FB6813401A04FB680A
:10310C00D9437B880B401A437B681A6100BF143784
:10311C00BD4680BC7047000080B584B000AF7860BD
:10312C007B68002B01D101232BE17B6893F83D30A8
:10313C00DBB2002B06D17B68002283F83C20786838
:10314C00FDF7A2FF7B68242283F83D207B681B6877
:10315C001A687B681B6822F001021A607B681B6886
:10316C001A687B681B6842F400421A607B681B6813
:10317C001A687B681B6822F400421A6002F030FC6B
:10318C00F8607B685B68814A934207D8FB68804A89
:10319C00934294BF01230023DBB206E0FB687D4A17
:1031AC00934294BF01230023DBB2002B01D00123F7
:1031BC00E7E0FB68784AA2FB03239B0CBB607B68AF
:1031CC001B685B6823F03F017B681B68BA680A4385
:1031DC005A607B681B681B6A23F03F017B685B6845
:1031EC006A4A934202D8BB68013309E0BB684FF4CA
:1031FC00967202FB03F3694AA2FB03239B0901337A
:10320C007A6812680B4313627B681B68DB6923F4D2
:10321C004F4222F0FF027B685B685C498B4219D8F5
:10322C00FB68591E7B685B685B00B1FBF3F3591CB0
:10323C0040F6FC730B40002B0AD0FB68591E7B68D0
:10324C005B685B00B1FBF3F30133C3F30B0351E099
:10325C0004234FE07B689B68002B11D1FB68581E40
:10326C007B6859680B465B000B44B0FBF3F30133EE
:10327C00C3F30B03002B0CBF01230023DBB212E0C2
:10328C00FB68581E7B6859680B469B000B449900E1
:10329C000B44B0FBF3F30133C3F30B03002B0CBF54
:1032AC0001230023DBB2002B01D0012322E07B6839
:1032BC009B68002B0ED1FB68581E7B6859680B4627
:1032CC005B000B44B0FBF3F30133C3F30B0343F488
:1032DC0000430FE0FB68581E7B6859680B469B0047
:1032EC000B4499000B44B0FBF3F30133C3F30B0312
:1032FC0043F44043796809681343CB617B681B68CE
:10330C001B6823F0C0017B68DA697B681B6A1A436F
:10331C007B681B680A431A607B681B689B6823F4F4
:10332C00034323F0FF037A6811697A68D26811436A
:10333C007A6812680B4393607B681B68DB6823F028
:10334C00FF017B685A697B689B691A437B681B6821
:10335C000A43DA607B681B681A687B681B6842F05A
:10336C0001021A607B6800221A647B68202283F8B1
:10337C003D207B6800221A637B68002283F83E2084
:10338C00002318461037BD4680BD00BFA086010043
:10339C007F841E00FF083D0083DE1B43D34D62106B
:1033AC0080B483B000AF78607B681B685B6903F006
:1033BC008003802B03D17B681B6800221A6100BF3D
:1033CC000C37BD4680BC704780B586B000AFF86046
:1033DC007A601A460B467B8113463B8100233B6186
:1033EC00FB6893F83D30DBB2202B40F00181834B1E
:1033FC001B68DB08824AA2FB03231A0A13469B00B4
:10340C0013449A0013443B613B69013B3B613B69AC
:10341C00002B12D1FB6800221A63FB68202283F870
:10342C003D20FB68002283F83E20FB681B6C43F0B8
:10343C002002FB681A640223DBE0FB681B689B69B3
:10344C0003F00203022BDFD0FB6893F83C30012B16
:10345C0001D10223CDE0FB68012283F83C20FB68FC
:10346C001B681B6803F00103012B07D0FB681B686A
:10347C001A68FB681B6842F001021A60FB681B6843
:10348C001A68FB681B6822F400621A60FB68212230
:10349C0083F83D20FB68102283F83E20FB68002255
:1034AC001A64FB687A685A62FB683A895A85FB6829
:1034BC005B8D9AB2FB681A85FB68524ADA627A898C
:1034CC00FB685A64FB681B8D002B73D0FB685B6B2D
:1034DC00002B22D0FB685B6B4B4A9A62FB685B6BE0
:1034EC004A4A1A63FB685B6B0022DA62FB685B6B0F
:1034FC0000225A63FB68586BFB685B6A1946FB68D1
:10350C001B6810331A46FB681B8DFFF7FBF903464B
:10351C00FB75FB7D002B39D113E0FB68202283F86F
:10352C003D20FB68002283F83E20FB681B6C43F0B7
:10353C008002FB681A64FB68002283F83C2001239C
:10354C0057E0FB68002283F83C20FB681B685A6834
:10355C00FB681B6842F440725A60FB681B685A682F
:10356C00FB681B6842F400625A60FB681B681A68AF
:10357C00FB681B6842F480621A60FB681B681A685F
:10358C00FB681B6842F480721A602FE0FB682022F3
:10359C0083F83D20FB68002283F83E20FB681B6CFF
:1035AC0043F01002FB681A64FB68002283F83C208D
:1035BC0001231EE0FB681B681A68FB681B6842F459
:1035CC0080621A60FB681B681A68FB681B6842F40F
:1035DC0080721A60FB68002283F83C20FB681B6831
:1035EC005A68FB681B6842F4E0625A60002300E0F2
:1035FC00022318461837BD4680BD00BF3800002096
:10360C0089B5F8140000FFFF454E00080350000870
:10361C0080B588B000AF78600023BB617B681B6805
:10362C005B687B617B68DB6A3B617B6893F83E304F
:10363C00FB737B6893F83D30BB73FB7B102B03D083
:10364C00FB7B402B40F0C1807B681B689B69BB6196
:10365C007B681B685B69FB61FB6903F00103002B52
:10366C000DD13B69B3F52A0F03D03B69B3F12A4F57
:10367C0001D1012300E00023012B00F03281FB6912
:10368C0003F00103002B0CD07B695B0A03F00103F0
:10369C00002B06D0786801F0BFFD786800F0A6FD1D
:1036AC0092E0FB69DB0803F00103002B09D07B6976
:1036BC005B0A03F00103002B03D0786800F01BFEBB
:1036CC0082E0FB695B0803F00103002B09D07B69E6
:1036DC005B0A03F00103002B03D0786800F034FE82
:1036EC0072E0BB699B0803F00103002B3BD07B68A5
:1036FC001B685B6803F40063B3F5006F00F0F380A4
:10370C00FB69DB0903F00103002B0FD07B699B0ADB
:10371C0003F00103002B09D0FB699B0803F00103A4
:10372C00002B03D1786800F0FEF94DE0FB699B0893
:10373C0003F00103002B00F0D6807B695B0A03F0D9
:10374C000103002B00F0CF80BB7B212B03D17868C9
:10375C0000F085FAC7E0FB7B402B40F0C480786812
:10376C0000F0F3FABFE07B681B685B6803F400634E
:10377C00B3F5006F00F0B780FB699B0903F0010300
:10378C00002B0FD07B699B0A03F00103002B09D09F
:10379C00FB699B0803F00103002B03D1786800F050
:1037AC006CFB11E0FB699B0803F00103002B00F09C
:1037BC009A807B695B0A03F00103002B00F0938075
:1037CC00786800F022FC8EE08DE07B681B6C002B8F
:1037DC0004D07B681B685B69FB6107E07B681B6836
:1037EC009B69BB617B681B685B69FB61FB695B0860
:1037FC0003F00103002B12D07B695B0A03F0010379
:10380C00002B0CD07B681B6C002B03D07B681B68D7
:10381C009B69BB61B969786800F0EDFF66E0FB69F4
:10382C001B0903F00103002B09D07B695B0A03F031
:10383C000103002B03D0786801F028F856E0BB7B1D
:10384C00212B02D0BB7B292B25D1FB69DB0903F093
:10385C000103002B0FD07B699B0A03F00103002BA3
:10386C0009D0FB699B0803F00103002B03D1786896
:10387C0000F005FF39E0FB699B0803F00103002B06
:10388C0033D07B695B0A03F00103002B2DD07868E1
:10389C0000F032FF29E0FB699B0903F00103002BC8
:1038AC000FD07B699B0A03F00103002B09D0FB6945
:1038BC009B0803F00103002B03D1786800F03CFF58
:1038CC0014E0FB699B0803F00103002B0ED07B690D
:1038DC005B0A03F00103002B08D0786800F06AFF44
:1038EC0004E000BF02E000BF00E000BF2037BD468F
:1038FC0080BD80B58AB000AF78607B681B685B695F
:10390C003B627B681B685B68FB6100237B627B68A6
:10391C0093F83E30FB763B6A1B0A03F00103002B45
:10392C0016D0FB691B0A03F00103002B10D07B6A35
:10393C0043F001037B627B681B686FF480725A61F1
:10394C007B681B681A687B681B6842F400421A602B
:10395C003B6A5B0A03F00103002B0ED0FB691B0AC8
:10396C0003F00103002B08D07B6A43F002037B6257
:10397C007B681B686FF400725A613B6A9B0A03F008
:10398C000103002B3FD0FB691B0A03F00103002B42
:10399C0039D0FB7EBB767B685B8D9BB27B617B6891
:1039AC0093F83D30FB747B681B6BFB60BB7E202B5C
:1039BC0012D17B69002B0FD1FB7C212B08D0FB7C17
:1039CC00292B05D0FB7C282B06D1FB68212B03D19E
:1039DC00786801F08BF816E07B681B686FF48062E6
:1039EC005A617B6A43F004037B62FB7E102B02D08E
:1039FC00FB7E402B07D17B681B681A687B681B68B1
:103A0C0042F400721A603B6ADB0A03F00103002BDC
:103A1C000ED0FB691B0A03F00103002B08D07B6A54
:103A2C0043F008037B627B681B686FF400625A6189
:103A3C007B6A002B08D07B681A6C7B6A1A437B6804
:103A4C001A64786801F0C6F800BF2837BD4680BDFF
:103A5C0080B483B000AF786000BF0C37BD4680BC2B
:103A6C00704780B483B000AF786000BF0C37BD46A0
:103A7C0080BC704780B483B000AF786000BF0C3757
:103A8C00BD4680BC704780B483B000AF786000BF87
:103A9C000C37BD4680BC704780B483B000AF7860F3
:103AAC000B46FB7013463B8000BF0C37BD4680BCF9
:103ABC00704780B483B000AF786000BF0C37BD4650
:103ACC0080BC704780B483B000AF786000BF0C3707
:103ADC00BD4680BC704780B483B000AF786000BF37
:103AEC000C37BD4680BC704780B483B000AF7860A3
:103AFC0000BF0C37BD4680BC704780B483B000AFAC
:103B0C00786000BF0C37BD4680BC704780B483B072
:103B1C0000AF78607B6893F83D30DBB218460C3709
:103B2C00BD4680BC704780B584B000AF78607B68C0
:103B3C0093F83D30FB737B6893F83E30BB737B6826
:103B4C00DB6ABB607B681B8D002B50D1FB7B212B70
:103B5C004DD1BB68082B1DD0BB68202B1AD0BB687D
:103B6C0013F5803F16D07B681B685A687B681B680E
:103B7C0022F4E0625A607B6811221A637B6800228F
:103B8C0083F83E207B68202283F83D207868FFF77D
:103B9C005FFF60E07B681B685A687B681B6822F4D7
:103BAC00E0625A607B681B681A687B681B6842F489
:103BBC0000721A607B6800221A637B68202283F8EB
:103BCC003D207B6893F83E30DBB2402B07D17B68FD
:103BDC00002283F83E207868FFF774FF3BE07B6897
:103BEC00002283F83E207868FFF732FF33E0FB7B3E
:103BFC00212B05D0BB7B402B2DD1FB7B222B2AD13B
:103C0C007B685B8D9BB2002B08D17B681B685A6864
:103C1C007B681B6822F480625A601CE07B6893F816
:103C2C003E30DBB2402B03D1786800F08EF812E006
:103C3C007B685B6A1A787B681B681A617B685B6AB5
:103C4C005A1C7B685A627B685B8D9BB2013B9AB2B3
:103C5C007B685A85FFE700BF1037BD4680BD80B535
:103C6C0084B000AF78607B68DB6AFB607B6893F89C
:103C7C003D30DBB2212B64D17B685B8D9BB2002B7A
:103C8C0012D07B685B6A1A787B681B681A617B6848
:103C9C005B6A5A1C7B685A627B685B8D9BB2013BEA
:103CAC009AB27B685A854CE0FB68082B1DD0FB68E8
:103CBC00202B1AD0FB6813F5803F16D07B681B684D
:103CCC005A687B681B6822F4E0625A607B68112298
:103CDC001A637B68002283F83E207B68202283F8DD
:103CEC003D207868FFF7B4FE2BE07B681B685A68B0
:103CFC007B681B6822F4E0625A607B681B681A6858
:103D0C007B681B6842F400721A607B6800221A639D
:103D1C007B68202283F83D207B6893F83E30DBB231
:103D2C00402B07D17B68002283F83E207868FFF790
:103D3C00C9FE06E07B68002283F83E207868FFF716
:103D4C0087FE00BF1037BD4680BD80B584B000AF84
:103D5C0078607B6893F83D30FB737B681B6D002BA0
:103D6C001DD17B68DB6C012B0BD17B689B6CDAB2B1
:103D7C007B681B681A617B681B6D9A1C7B681A65D3
:103D8C0077E07B689B6C9BB21B12DAB27B681B687A
:103D9C001A617B681B6D5A1C7B681A6569E07B682D
:103DAC001B6D012B0BD17B689B6CDAB27B681B689B
:103DBC001A617B681B6D5A1C7B681A6559E07B681D
:103DCC001B6D022B52D1FB7B222B0DD17B681B6808
:103DDC001A687B681B6842F480721A607B681B6DE2
:103DEC005A1C7B681A6544E07B685B8D9BB2002B88
:103DFC0015D0FB7B212B12D17B685B6A1A787B6810
:103E0C001B681A617B685B6A5A1C7B685A627B6808
:103E1C005B8D9BB2013B9AB27B685A8529E07B682B
:103E2C005B8D9BB2002B24D1FB7B212B21D17B689A
:103E3C001B685A687B681B6822F4E0625A607B68D6
:103E4C001B681A687B681B6842F400721A607B68F6
:103E5C0000221A637B68202283F83D207B680022B5
:103E6C0083F83E207868FFF72DFE02E07868FFF7B4
:103E7C0097FA00BF1037BD4680BD80B584B000AF47
:103E8C0078607B6893F83D30DBB2222B40F0B98030
:103E9C007B68DB6AFB607B685B8D9BB2BB60BB683D
:103EAC00032B21D97B681B681A697B685B6AD2B2C9
:103EBC001A707B685B6A5A1C7B685A627B685B8DE4
:103ECC009BB2013B9AB27B685A857B685B8D9BB237
:103EDC00032B40F096807B681B685A687B681B68D4
:103EEC0022F480625A608CE07B68DB6A022B7FD004
:103EFC00BB68012B02D0BB68002B79D1786801F02C
:103F0C0059F90346002B4CD17B681B681A687B68F7
:103F1C001B6822F480621A607B681B685A687B6895
:103F2C001B6822F4E0625A607B681B681A697B6824
:103F3C005B6AD2B21A707B685B6A5A1C7B685A62E5
:103F4C007B685B8D9BB2013B9AB27B685A857B6820
:103F5C00202283F83D207B6893F83E30DBB2402B67
:103F6C000AD17B68002283F83E207B6800221A630A
:103F7C007868FFF7B0FD44E07B68002283F83E20B0
:103F8C00FB68082B02D0FB68202B03D17B68002236
:103F9C001A6302E07B6812221A637868FFF761FDEE
:103FAC002FE07B681B685A687B681B6822F4E06210
:103FBC005A607B681B681A697B685B6AD2B21A709C
:103FCC007B685B6A5A1C7B685A627B685B8D9BB210
:103FDC00013B9AB27B685A857B68202283F83D208E
:103FEC007B68002283F83E207868FFF77DFD08E0AF
:103FFC007B681B685A687B681B6822F480625A6075
:10400C00FFE700BF1037BD4680BD80B584B000AF60
:10401C0078607B68DB6AFB607B685B8D9BB2042BF2
:10402C001BD17B681B685A687B681B6822F4806212
:10403C005A607B681B681A697B685B6AD2B21A701B
:10404C007B685B6A5A1C7B685A627B685B8D9BB28F
:10405C00013B9AB27B685A85C4E07B685B8D9BB24E
:10406C00032B29D17B681B685A687B681B6822F478
:10407C0080625A60FB68042B0AD0FB68022B07D0C5
:10408C007B681B681A687B681B6822F480621A6064
:10409C007B681B681A697B685B6AD2B21A707B6892
:1040AC005B6A5A1C7B685A627B685B8D9BB2013BD6
:1040BC009AB27B685A8595E07B685B8D9BB2022B2C
:1040CC007DD1FB68012B02D0FB68102B08D17B68DB
:1040DC001B681A687B681B6822F480621A6016E001
:1040EC00FB68042B02D0FB68022B08D17B681B6891
:1040FC001A687B681B6842F480621A6007E07B6870
:10410C001B681A687B681B6842F400721A607B6833
:10411C001B681A697B685B6AD2B21A707B685B6A2F
:10412C005A1C7B685A627B685B8D9BB2013B9AB2CE
:10413C007B685A857B681B681A697B685B6AD2B29C
:10414C001A707B685B6A5A1C7B685A627B685B8D51
:10415C009BB2013B9AB27B685A857B681B685A6894
:10416C007B681B6822F440725A607B68202283F8BB
:10417C003D207B6893F83E30DBB2402B0AD17B6844
:10418C00002283F83E207B6800221A637868FFF7D0
:10419C00A2FC27E07B68002283F83E20FB68082BFA
:1041AC0002D0FB68202B03D17B6800221A6302E04B
:1041BC007B6812221A637868FFF753FC12E07B6865
:1041CC001B681A697B685B6AD2B21A707B685B6A7F
:1041DC005A1C7B685A627B685B8D9BB2013B9AB21E
:1041EC007B685A8500BF1037BD4680BD80B483B054
:1041FC0000AF78607B6893F83E30DBB2402B17D170
:10420C007B681B6D002B09D17B685B6CDBB21A469B
:10421C007B681B6802F0FE021A6167E07B685B6CCE
:10422C00DBB243F00103DAB27B681B681A615DE014
:10423C007B681B69B3F5804F33D17B6893F83D30B5
:10424C00DBB2212B09D17B685B6CDBB21A467B6835
:10425C001B6802F0FE021A6108E07B685B6CDBB243
:10426C0043F00103DAB27B681B681A617B685B6BF5
:10427C00002B04D07B685B6B9B6A002B08D17B689E
:10428C009B6B002B32D07B689B6B9B6A002B2DD0D9
:10429C007B681B685A687B681B6842F400625A6032
:1042AC0024E07B681B6D002B0ED17B685B6C9BB292
:1042BC00DB11DBB203F00603DBB263F00F03DAB2FF
:1042CC007B681B681A6111E07B681B6D012B0DD19B
:1042DC007B685B6C9BB2DB11DBB203F00603DBB2D9
:1042EC0063F00E03DAB27B681B681A6100BF0C37EF
:1042FC00BD4680BC704780B483B000AF78607B68EB
:10430C005B6CDAB27B681B681A617B685B6B002B99
:10431C0004D07B685B6B9B6A002B08D17B689B6B22
:10432C00002B0CD07B689B6B9B6A002B07D07B68A7
:10433C001B685A687B681B6842F400625A6000BFB5
:10434C000C37BD4680BC704780B491B000AF78602C
:10435C007B6893F83E3087F83F307B68DB6ABB6341
:10436C007B681B6B7B637B6893F83D30DBB2222B45
:10437C0040F074817B681B6D002B0FD197F83F3098
:10438C00402B0BD100233B637B681B685B693B6351
:10439C007B681B689B693B633B6B6BE17B681B6DAC
:1043AC00002B1DD17B681B69B3F5404F18D100233E
:1043BC00FB627B681B685B69FB627B681B689B69A3
:1043CC00FB62FB6A7B681B681A687B681B6842F49B
:1043DC0080721A607B681B6D5A1C7B681A6549E1F8
:1043EC007B685B8D9BB2002B13D10023BB627B6877
:1043FC001B685B69BB627B681B689B69BB62BB6AA1
:10440C007B681B681A687B681B6842F400721A6030
:10441C0020E17B685B8D9BB2012B40F08A80BB6BEB
:10442C0013F5803F37D17B681B681A687B681B6863
:10443C0022F480621A607B681B685B6803F400637B
:10444C00B3F5006F13D17B681B681A687B681B6817
:10445C0022F480621A6000237B627B681B685B69B4
:10446C007B627B681B689B697B627B6AF2E0002342
:10447C003B627B681B685B693B627B681B689B6962
:10448C003B623B6A7B681B681A687B681B6842F45A
:10449C0000721A60DEE0BB6B082B2ED0BB6B202B9E
:1044AC002BD07B6B122B02D1BB6B012B25D1BB6BA1
:1044BC00042B0ED0BB6B022B0BD0BB6B102B08D07C
:1044CC007B681B681A687B681B6822F480621A6020
:1044DC0007E07B681B681A687B681B6842F4806283
:1044EC001A600023FB617B681B685B69FB617B685E
:1044FC001B689B69FB61FB69ACE07B681B681A68F5
:10450C007B681B6822F480621A600023BB617B68A5
:10451C001B685B69BB617B681B689B69BB61BB6982
:10452C007B681B681A687B681B6842F400721A600F
:10453C0090E07B685B8D9BB2022B58D1BB6B042B3C
:10454C0021D0BB6B022B1ED0BB6B102B1BD07B68FE
:10455C001B681A687B681B6842F400621A600023AF
:10456C007B617B681B685B697B617B681B689B69F3
:10457C007B617B697B681B681A687B681B6822F40B
:10458C0080621A6012E07B681B681A687B681B6883
:10459C0042F480621A6000233B617B681B685B6994
:1045AC003B617B681B689B693B613B697B681B6853
:1045BC005B6803F40063B3F5006F4BD1BB6B13F571
:1045CC00803F0BD0BB6B012B08D0BB6B082B05D0ED
:1045DC00BB6B102B02D0BB6B202B3BD17B681B68B9
:1045EC005A687B681B6842F480525A6032E07B68E0
:1045FC001B681A687B681B6842F480621A607B68CF
:10460C001B685B6803F40063B3F5006F17D1BB6BD9
:10461C0013F5803F0BD0BB6B012B08D0BB6B082B69
:10462C0005D0BB6B102B02D0BB6B202B07D17B684A
:10463C001B685A687B681B6842F480525A600023DE
:10464C00FB607B681B685B69FB607B681B689B6914
:10465C00FB60FB687B6800221A650BE00023BB60E3
:10466C007B681B685B69BB607B681B689B69BB6074
:10467C00BB68FFE700BF4437BD4680BC704780B5C0
:10468C0084B000AF78607B6893F83D30FB737B6837
:10469C005B8D9BB2002B2BD07B685B6A1A787B6896
:1046AC001B681A617B685B6A5A1C7B685A627B6860
:1046BC005B8D9BB2013B9AB27B685A857B685B8DA4
:1046CC009BB2002B14D1FB7B292B11D17B681B686F
:1046DC005A687B681B6822F480625A607B682122CE
:1046EC001A637B68282283F83D207868FFF7C2F9AB
:1046FC0000BF1037BD4680BD80B483B000AF78607A
:10470C007B685B8D9BB2002B11D07B685B6A1A783F
:10471C007B681B681A617B685B6A5A1C7B685A62EF
:10472C007B685B8D9BB2013B9AB27B685A8500BF5C
:10473C000C37BD4680BC704780B584B000AF786044
:10474C007B6893F83D30FB737B685B8D9BB2002BD1
:10475C002CD07B681B681A697B685B6AD2B21A70B2
:10476C007B685B6A5A1C7B685A627B685B8D9BB268
:10477C00013B9AB27B685A857B685B8D9BB2002BA0
:10478C0014D1FB7B2A2B11D17B681B685A687B6880
:10479C001B6822F480625A607B6822221A637B6851
:1047AC00282283F83D207868FFF76DF900BF103799
:1047BC00BD4680BD80B483B000AF78607B685B8DF4
:1047CC009BB2002B12D07B681B681A697B685B6AF2
:1047DC00D2B21A707B685B6A5A1C7B685A627B681F
:1047EC005B8D9BB2013B9AB27B685A8500BF0C373C
:1047FC00BD4680BC704780B584B000AF786039602E
:10480C000023FB737B6893F83D30DBB203F0280385
:10481C00282B27D17B681B685A687B681B6822F49D
:10482C0080625A603B689B0803F00103002B01D1A6
:10483C000123FB733B68DB0903F00103002B03D15D
:10484C007B68DB68BB8102E07B689B69BB817B6812
:10485C00002283F83C20BA89FB7B19467868FFF765
:10486C001BF90EE00023BB607B681B685B69BB60B7
:10487C007B681B689B69BB60BB687B68002283F804
:10488C003C2000BF1037BD4680BD000080B584B011
:10489C0000AF78607B6893F83D30FB737B681B68D6
:1048AC005A687B681B6822F4E0625A600023BB6084
:1048BC007B681B685B69BB607B681B681A687B68DC
:1048CC001B6842F001021A60BB687B681B681A689F
:1048DC007B681B6822F480621A607B681B685B68CB
:1048EC0003F40063B3F5006F72D1FB7B222B02D073
:1048FC00FB7B2A2B35D17B689B6B1B685B689AB260
:10490C007B685A857B685B8D9BB2002B05D07B68DE
:10491C001B6C43F004027B681A647B681B685A6842
:10492C007B681B6822F400625A607B689B6B18469C
:10493C00FEF702FA0346012B49D07B689B6B694A50
:10494C005A637B689B6B1846FEF778F80346002B7E
:10495C003DD07B689B6B5B6B7A68926B104698477B
:10496C0035E07B685B6B1B685B689AB27B685A8529
:10497C007B685B8D9BB2002B05D07B681B6C43F076
:10498C0004027B681A647B681B685A687B681B6826
:10499C0022F400625A607B685B6B1846FEF7CCF918
:1049AC000346012B14D07B685B6B4E4A5A637B68C1
:1049BC005B6B1846FEF742F80346002B08D07B6869
:1049CC005B6B5B6B7A68526B1046984700E000BFDC
:1049DC007B685B8D9BB2002B3ED07B681B685B6950
:1049EC0003F00403042B12D17B681B681A697B68E3
:1049FC005B6AD2B21A707B685B6A5A1C7B685A621B
:104A0C007B685B8D9BB2013B9AB27B685A857B6855
:104A1C001B685B6903F04003402B12D17B681B6859
:104A2C001A697B685B6AD2B21A707B685B6A5A1C23
:104A3C007B685A627B685B8D9BB2013B9AB27B6848
:104A4C005A857B685B8D9BB2002B05D07B681B6CF9
:104A5C0043F004027B681A647B681B6C002B03D048
:104A6C00786800F0B7F839E0FB7B2A2B09D17B681A
:104A7C0000221A637B68282283F83D207868FFF7B0
:104A8C0002F87B6893F83D30DBB2282B11D17B68A0
:104A9C00154ADA627B6800221A637B68202283F84D
:104AAC003D207B68002283F83E207868FFF701F8F0
:104ABC0014E07B681B6B222B02D0FB7B222B0DD1CD
:104ACC007B6800221A637B68202283F83D207B6878
:104ADC00002283F83E207868FEF7D5FF00BF103720
:104AEC00BD4680BD715000080000FFFF80B584B04A
:104AFC0000AF78607B6893F83D30FB737B68DB6AB2
:104B0C00BB60BB68082B02D0BB68202B29D1FB7B78
:104B1C00282B26D17B682E4ADA627B681B685A6880
:104B2C007B681B6822F4E0625A607B681B686FF438
:104B3C0080625A617B681B681A687B681B6822F468
:104B4C0080621A607B6800221A637B68202283F8DB
:104B5C003D207B68002283F83E207868FEF7A9FF91
:104B6C0031E0FB7B212B29D17B68194ADA627B6807
:104B7C0021221A637B68202283F83D207B68002267
:104B8C0083F83E207B681B685A687B681B6822F49C
:104B9C00E0625A607B681B686FF480625A617B68C4
:104BAC001B681A687B681B6822F480621A6078683C
:104BBC00FEF7F6FB7868FEF75DFF04E07B681B6888
:104BCC006FF480625A6100BF1037BD4680BD00BFD4
:104BDC000000FFFF80B584B000AF78607B6893F86D
:104BEC003D30FB737B6893F83E30BB73BB7B102B63
:104BFC0002D0BB7B402B0AD1FB7B222B07D17B68DD
:104C0C001B681A687B681B6822F400621A60FB7BC5
:104C1C0003F02803282B07D17B6800221A637B68DA
:104C2C00282283F83D2015E07B681B685B6803F441
:104C3C000063B3F5006F0AD0FB7B602B07D07B6859
:104C4C00202283F83D207B68002283F83E207B687D
:104C5C0000221A637B681B685B6803F40063B3F57E
:104C6C00006F62D17B681B685A687B681B6822F4F2
:104C7C0000625A607B685B6B93F82130DBB2012BCE
:104C8C0020D07B685B6B6A4A5A637B685B6B184607
:104C9C00FDF7D4FE0346002B00F089807B681B686F
:104CAC001A687B681B6822F001021A607B6820225C
:104CBC0083F83D207B685B6B5B6B7A68526B1046AC
:104CCC00984774E07B689B6B594A5A637B689B6B73
:104CDC001846FDF7B3FE0346002B68D07B681B68B3
:104CEC005B6903F04003402B0BD17B681B681A698E
:104CFC007B685B6AD2B21A707B685B6A5A1C7B68F1
:104D0C005A627B681B681A687B681B6822F0010278
:104D1C001A607B68202283F83D207B689B6B5B6B61
:104D2C007A68926B1046984741E07B6893F83D3067
:104D3C00DBB2602B25D17B68202283F83D207B6879
:104D4C0000221A647B681B685B6903F04003402BEC
:104D5C000BD17B681B681A697B685B6AD2B21A70CC
:104D6C007B685B6A5A1C7B685A627B681B681A6892
:104D7C007B681B6822F001021A607868FEF7BDFEA2
:104D8C0015E07B681B685B6903F04003402B0BD17B
:104D9C007B681B681A697B685B6AD2B21A707B6885
:104DAC005B6A5A1C7B685A627868FEF79DFE7B68CA
:104DBC001B6CBB60BB6803F00103002B0ED1BB68FE
:104DCC0003F00203002B09D1BB6803F00403002B92
:104DDC0004D1BB6803F00803002B07D07B681B6869
:104DEC005A687B681B6822F4E0625A607B6893F80F
:104DFC003D30FB737B681B6C03F00403042B13D155
:104E0C00FB7B282B10D17B680A4ADA627B68002274
:104E1C001A637B68202283F83D207B68002283F88C
:104E2C003E207868FEF745FE00BF1037BD4680BDBA
:104E3C00715000080000FFFF80B586B000AF7860AD
:104E4C007B685B6A7B617B6993F83D30FB747B69A3
:104E5C0093F83E30BB747B69DB6AFB607B691B6833
:104E6C005A687B691B6822F440725A607B695B6BE1
:104E7C00002B03D07B695B6B00229A627B699B6B76
:104E8C00002B03D07B699B6B00229A62FB7C03F0A6
:104E9C002103212B07D0FB7C03F02203222B31D1E1
:104EAC00BB7C202B2ED17B691B685A687B691B68E5
:104EBC0022F400625A607B6900225A85FB7C292B04
:104ECC000AD17B6921221A637B69282283F83D2051
:104EDC007869FEF7CFFD0CE0FB7C2A2B09D17B69AE
:104EEC0022221A637B69282283F83D207869FEF719
:104EFC00CAFD7B691B685A687B691B6842F4407267
:104F0C005A6074E07B6993F83E30DBB2002B6ED0B4
:104F1C007B695B8D9BB2012B07D17B691B681A687F
:104F2C007B691B6822F480621A607B691B685A6873
:104F3C007B691B6822F440725A60FB6813F5803F52
:104F4C0009D0FB68082B06D0FB68B3F12A4F02D0BE
:104F5C00FB68202B07D17B691B681A687B691B686F
:104F6C0042F400721A607B691B685A687B691B6883
:104F7C0022F480525A607B691B685A687B691B68F3
:104F8C0022F400625A607B6900225A857B691B6C93
:104F9C00002B03D07869FEF7A7FD28E07B6920225F
:104FAC0083F83D207B6993F83E30DBB2402B0AD16D
:104FBC007B69002283F83E207B6900221A637869A2
:104FCC00FEF789FD13E07B69002283F83E20FB6825
:104FDC00082B02D0FB68202B03D17B6900221A63BB
:104FEC0002E07B6912221A637869FEF73AFD00BF72
:104FFC001837BD4680BD80B584B000AF78607B6843
:10500C005B6AFB60FB685B6B002B03D0FB685B6B24
:10501C0000229A62FB689B6B002B03D0FB689B6B96
:10502C0000229A62FB681B681A68FB681B6822F4F2
:10503C0080621A60FB6800225A85FB68202283F884
:10504C003D20FB68002283F83E20FB681B6C43F07C
:10505C001002FB681A64F868FEF746FD00BF1037B3
:10506C00BD4680BD80B586B000AF78600023FB6084
:10507C007B685B6A7B617B6993F83D30FB744B4BBF
:10508C001B68DB084A4AA2FB03231A0A13469B003F
:10509C001344DA00D31AFB60FB68002B06D17B6942
:1050AC001B6C43F020027B691A640AE0FB68013B2D
:1050BC00FB607B691B681B6803F40073B3F5007F0E
:1050CC00EAD07B695B6B002B03D07B695B6B0022A6
:1050DC009A627B699B6B002B03D07B699B6B0022D4
:1050EC009A627B691B681A687B691B6822F4806270
:1050FC001A607B6900225A857B695B6B002B03D09D
:10510C007B695B6B00225A637B699B6B002B03D022
:10511C007B699B6B00225A637B691B681A687B69ED
:10512C001B6822F001021A607B6993F83D30DBB2F8
:10513C00602B0ED17B69202283F83D207B690022F5
:10514C0083F83E207B6900221A647869FEF7D5FC4F
:10515C0027E0FB7C03F02803282B17D17B691B6805
:10516C001A687B691B6842F001021A607B691B6834
:10517C001A687B691B6842F480621A607B690022A2
:10518C001A637B69282283F83D2007E07B69202283
:10519C0083F83D207B69002283F83E207869FEF776
:1051AC00A3FC00BF1837BD4680BD00BF38000020EF
:1051BC0089B5F81480B485B000AF78600023FB602B
:1051CC00134B1B68DB08134AA2FB03231A0A134672
:1051DC009B001344FB60FB68013BFB60FB68002BEE
:1051EC0007D17B681B6C43F020027B681A64012397
:1051FC0008E07B681B681B6803F40073B3F5007F41
:10520C00E9D0002318461437BD4680BC704700BF58
:10521C003800002089B5F81480B483B000AF7860F2
:10522C007B68DB6AB3F52A0F03D17B680122DA6253
:10523C0007E07B68DB6AB3F12A4F02D17B68082256
:10524C00DA6200BF0C37BD4680BC704780B586B0B3
:10525C0000AF78607B68002B01D1012372E27B6880
:10526C001B6803F00103002B00F08780924B5B68F6
:10527C0003F00C03042B0CD08F4B5B6803F00C0376
:10528C00082B12D18C4B5B6803F48033B3F5803F51
:10529C000BD1894B1B6803F40033002B6CD07B685B
:1052AC005B68002B68D101234CE27B685B68B3F52B
:1052BC00803F06D1804B1B687F4A43F480331360D8
:1052CC002EE07B685B68002B0CD17B4B1B687A4A09
:1052DC0023F480331360784B1B68774A23F48023C4
:1052EC0013601DE07B685B68B3F5A02F0CD1724B8B
:1052FC001B68714A43F4802313606F4B1B686E4A22
:10530C0043F4803313600BE06B4B1B686A4A23F445
:10531C0080331360684B1B68674A23F48023136047
:10532C007B685B68002B13D0FDF756F9386108E0F9
:10533C00FDF752F902463B69D31A642B01D90323BA
:10534C0000E25D4B1B6803F40033002BF0D014E03B
:10535C00FDF742F9386108E0FDF73EF902463B697A
:10536C00D31A642B01D90323ECE1534B1B6803F4D0
:10537C000033002BF0D100E000BF7B681B6803F00A
:10538C000203002B63D04C4B5B6803F00C03002B27
:10539C000BD0494B5B6803F00C03082B1CD1464B1C
:1053AC005B6803F48033002B16D1434B1B6803F06E
:1053BC000203002B05D07B681B69012B01D0012354
:1053CC00C0E13D4B1B6823F0F8027B685B69DB0096
:1053DC00394913430B603AE07B681B69002B20D0E2
:1053EC00364B01221A60FDF7F7F8386108E0FDF73B
:1053FC00F3F802463B69D31A022B01D90323A1E12E
:10540C002D4B1B6803F00203002BF0D02A4B1B68BA
:10541C0023F0F8027B685B69DB00274913430B60C0
:10542C0015E0264B00221A60FDF7D6F8386108E02B
:10543C00FDF7D2F802463B69D31A022B01D903239C
:10544C0080E11D4B1B6803F00203002BF0D17B683D
:10545C001B6803F00803002B3AD07B689B69002B78
:10546C0019D0174B01221A60FDF7B6F8386108E025
:10547C00FDF7B2F802463B69D31A022B01D903237C
:10548C0060E10D4B5B6A03F00203002BF0D00120AE
:10549C0000F0CEFA1CE00A4B00221A60FDF79CF8D3
:1054AC0038610FE0FDF798F802463B69D31A022BDE
:1054BC0008D9032346E100BF00100240000042421D
:1054CC0080044242924B5B6A03F00203002BE9D149
:1054DC007B681B6803F00403002B00F0A6800023FC
:1054EC00FB758B4BDB6903F08053002B0DD1884B84
:1054FC00DB69874A43F08053D361854BDB6903F04A
:10550C008053BB60BB680123FB75824B1B6803F4A3
:10551C008073002B18D17F4B1B687E4A43F4807339
:10552C001360FDF759F8386108E0FDF755F80246AD
:10553C003B69D31A642B01D9032303E1754B1B6818
:10554C0003F48073002BF0D07B68DB68012B06D151
:10555C006F4B1B6A6E4A43F0010313622DE07B68AC
:10556C00DB68002B0CD16A4B1B6A694A23F00103E0
:10557C001362674B1B6A664A23F0040313621CE038
:10558C007B68DB68052B0CD1614B1B6A604A43F0CE
:10559C00040313625E4B1B6A5D4A43F00103136202
:1055AC000BE05B4B1B6A5A4A23F001031362584B06
:1055BC001B6A574A23F0040313627B68DB68002BD9
:1055CC0015D0FDF709F838610AE0FDF705F8024639
:1055DC003B69D31A41F28832934201D90323B1E0DB
:1055EC004B4B1B6A03F00203002BEED014E0FCF7CC
:1055FC00F3FF38610AE0FCF7EFFF02463B69D31A70
:10560C0041F28832934201D903239BE0404B1B6A41
:10561C0003F00203002BEED1FB7D012B05D13C4B9B
:10562C00DB693B4A23F08053D3617B68DB69002B39
:10563C0000F08780364B5B6803F00C03082B61D0BD
:10564C007B68DB69022B46D1334B00221A60FCF7D6
:10565C00C3FF386108E0FCF7BFFF02463B69D31A71
:10566C00022B01D903236DE0294B1B6803F0007357
:10567C00002BF0D17B681B6AB3F5803F08D1244B1B
:10568C005B6823F400327B689B68214913434B60B1
:10569C001F4B5B6823F474127B68196A7B685B6A26
:1056AC000B431B4913434B601B4B01221A60FCF745
:1056BC0093FF386108E0FCF78FFF02463B69D31A71
:1056CC00022B01D903233DE0114B1B6803F000733F
:1056DC00002BF0D035E0104B00221A60FCF77CFF59
:1056EC00386108E0FCF778FF02463B69D31A022BBD
:1056FC0001D9032326E0064B1B6803F00073002B33
:10570C00F0D11EE07B68DB69012B07D1012319E086
:10571C000010024000700040600042420B4B5B687E
:10572C00FB60FB6803F480327B681B6A9A4206D1EB
:10573C00FB6803F470127B685B6A9A4201D0012308
:10574C0000E0002318461837BD4680BD001002400B
:10575C0080B584B000AF786039607B68002B01D1D4
:10576C000123D0E06A4B1B6803F007033A689A42A6
:10577C0010D9674B1B6823F0070265493B6813433C
:10578C000B60634B1B6803F007033A689A4201D025
:10579C000123B8E07B681B6803F00203002B20D0C8
:1057AC007B681B6803F00403002B05D0594B5B6826
:1057BC00584A43F4E06353607B681B6803F00803AA
:1057CC00002B05D0534B5B68524A43F46053536033
:1057DC00504B5B6823F0F0027B689B684D49134388
:1057EC004B607B681B6803F00103002B40D07B6887
:1057FC005B68012B07D1474B1B6803F40033002B6C
:10580C0015D101237FE07B685B68022B07D1414BEC
:10581C001B6803F00073002B09D1012373E03D4B8F
:10582C001B6803F00203002B01D101236BE0394B01
:10583C005B6823F003027B685B68364913434B605B
:10584C00FCF7CAFEF8600AE0FCF7C6FE0246FB68ED
:10585C00D31A41F28832934201D9032353E02D4BE2
:10586C005B6803F00C027B685B689B009A42EBD18F
:10587C00274B1B6803F007033A689A4210D2244B5B
:10588C001B6823F0070222493B6813430B60204B33
:10589C001B6803F007033A689A4201D0012332E0F7
:1058AC007B681B6803F00403002B08D0194B5B6862
:1058BC0023F4E0627B68DB68164913434B607B681A
:1058CC001B6803F00803002B09D0124B5B6823F410
:1058DC0060527B681B69DB000E4913434B6000F080
:1058EC0021F802460B4B5B681B0903F00F030A49B6
:1058FC00CB5C22FA03F3094A1360094B1B68184668
:10590C00FCF728FE002318461037BD4680BD00BFAB
:10591C0000200240001002402498000838000020AB
:10592C003C00002080B487B000AF0023FB60002354
:10593C00BB6000237B6100237B6000233B611E4B1B
:10594C005B68FB60FB6803F00C03042B02D0082B94
:10595C0003D027E0194B3B6127E0FB689B0C03F05D
:10596C000F03174AD35C7B60FB6803F48033002B76
:10597C0010D0114B5B685B0C03F00103114AD35C34
:10598C00BB607B680D4A03FB02F2BB68B2FBF3F30E
:10599C007B6104E07B680C4A02FB03F37B617B694F
:1059AC003B6102E0054B3B6100BF3B6918461C376D
:1059BC00BD4680BC704700BF0010024000127A0048
:1059CC003C9800084C98000800093D0080B400AFDA
:1059DC00024B1B681846BD4680BC7047380000203F
:1059EC0080B500AFFFF7F2FF0246054B5B681B0A60
:1059FC0003F007030349CB5C22FA03F3184680BD7E
:105A0C00001002403498000880B500AFFFF7DEFFAD
:105A1C000246054B5B68DB0A03F007030349CB5CCA
:105A2C0022FA03F3184680BD001002403498000897
:105A3C0080B485B000AF78600A4B1B680A4AA2FBA1
:105A4C0003235B0A7A6802FB03F3FB6000BFFB686D
:105A5C005A1EFA60002BF9D100BF00BF1437BD46A7
:105A6C0080BC704738000020D34D621080B582B0E6
:105A7C0000AF78607B68002B01D1012376E07B6856
:105A8C005B6A002B08D17B685B68B3F5827F09D019
:105A9C007B680022DA6105E07B6800221A617B6872
:105AAC0000225A617B6800229A627B6893F851301D
:105ABC00DBB2002B06D17B68002283F8502078687B
:105ACC00FCF7B6F87B68022283F851207B681B68D0
