:020000040800F2
:1000000000500020F1240008FD1D0008051E000816
:100010000D1E0008151E00081D1E0008000000002F
:10002000000000000000000000000000251E000885
:10003000311E0008000000003D1E0008491E000897
:100040003925000839250008392500083925000818
:100050003925000839250008392500083925000808
:1000600039250008392500083925000839250008F8
:10007000551E0008691E0008392500087D1E00086D
:10008000911E0008A51E0008392500083925000822
:1000900039250008392500083925000839250008C8
:1000A00039250008B91E000839250008392500083F
:1000B000CD1E00083925000839250008E11E00087A
:1000C000F51E00083925000839250008091F000819
:1000D000392500081D1F00083925000839250008AA
:1000E00039250008392500083925000800000000DE
:1000F0000000000000000000000000000000000000
:0C01000000000000000000005FF808F1A3
:10010C0010B5054C237833B9044B13B10448AFF345
:10011C0000800123237010BDA0000020000000000F
:10012C001490000808B5034B1BB103490348AFF307
:10013C00008008BD00000000A400002014900008FE
:10014C0081F0004102E000BF83F0004330B54FEA7C
:10015C0041044FEA430594EA050F08BF90EA020FE9
:10016C001FBF54EA000C55EA020C7FEA645C7FEA7C
:10017C00655C00F0E2804FEA5454D4EB5555B8BF9F
:10018C006D420CDD2C4480EA020281EA030382EA10
:10019C00000083EA010180EA020281EA0303362DA2
:1001AC0088BF30BD11F0004F4FEA01314FF4801C75
:1001BC004CEA113102D0404261EB410113F0004F87
:1001CC004FEA03334CEA133302D0524263EB43033E
:1001DC0094EA050F00F0A780A4F10104D5F1200EDC
:1001EC000DDB02FA0EFC22FA05F2801841F1000137
:1001FC0003FA0EF2801843FA05F359410EE0A5F10B
:10020C0020050EF1200E012A03FA0EFC28BF4CF03B
:10021C00020C43FA05F3C01851EBE37101F00045F1
:10022C0007D54FF0000EDCF1000C7EEB00006EEBFE
:10023C000101B1F5801F1BD3B1F5001F0CD3490888
:10024C005FEA30004FEA3C0C04F101044FEA4452DF
:10025C0012F5800F80F09A80BCF1004F08BF5FEA66
:10026C00500C50F1000041EB045141EA050130BD46
:10027C005FEA4C0C404141EB0101013C28BFB1F558
:10028C00801FE9D291F0000F04BF01460020B1FAA3
:10029C0081F308BF2033A3F10B03B3F120020CDA76
:1002AC000C3208DD02F1140CC2F10C0201FA0CF054
:1002BC0021FA02F10CE002F11402D8BFC2F1200CB9
:1002CC0001FA02F120FA0CFCDCBF41EA0C0190406F
:1002DC00E41AA2BF01EB0451294330BD6FEA0404B8
:1002EC001F3C1CDA0C340EDC04F11404C4F12002A3
:1002FC0020FA04F001FA02F340EA030021FA04F3B5
:10030C0045EA030130BDC4F10C04C4F1200220FA0B
:10031C0002F001FA04F340EA0300294630BD21FA49
:10032C0004F0294630BD94F0000F83F4801306BF0F
:10033C0081F480110134013D4EE77FEA645C18BF03
:10034C007FEA655C29D094EA050F08BF90EA020F9A
:10035C0005D054EA000C04BF1946104630BD91EA92
:10036C00030F1EBF0021002030BD5FEA545C05D195
:10037C004000494128BF41F0004130BD14F58004D4
:10038C003CBF01F5801130BD01F0004545F0FE4148
:10039C0041F470014FF0000030BD7FEA645C1ABF7D
:1003AC00194610467FEA655C1CBF0B46024650EAB4
:1003BC00013406BF52EA033591EA030F41F40021E0
:1003CC0030BD00BF90F0000F04BF0021704730B566
:1003DC004FF4806404F132044FF000054FF000013B
:1003EC0050E700BF90F0000F04BF0021704730B5FC
:1003FC004FF4806404F1320410F0004548BF4042D1
:10040C004FF000013EE700BF42004FEAE2014FEA25
:10041C0031014FEA02701FBF12F07F4393F07F4F00
:10042C0081F06051704732F07F4208BF704793F003
:10043C007F4F04BF41F40021704730B54FF4607416
:10044C0001F0004521F000411CE700BF50EA010219
:10045C0008BF704730B54FF000050AE050EA0102C2
:10046C0008BF704730B511F0004502D5404261EB32
:10047C0041014FF4806404F132045FEA915C3FF473
:10048C00D8AE4FF003025FEADC0C18BF03325FEA10
:10049C00DC0C18BF033202EBDC02C2F1200300FAC1
:1004AC0003FC20FA02F001FA03FE40EA0E0021FAE6
:1004BC0002F11444BDE600BF4FEA410212F50012EE
:1004CC0015D211D56FF47873B3EB625212D94FEA8F
:1004DC00C12343F0004343EA505311F0004F23FA79
:1004EC0002F018BF404270474FF00000704750EACE
:1004FC00013005D111F0004008BF6FF0004070478B
:10050C004FF00000704700BF80F0004002E000BFD9
:10051C0081F0004142001FBF5FEA410392EA030FE2
:10052C007FEA226C7FEA236C6AD04FEA1262D2EB2C
:10053C001363C1BFD218414048404140B8BF5B4231
:10054C00192B88BF704710F0004F40F4000020F0CA
:10055C007F4018BF404211F0004F41F4000121F0E0
:10056C007F4118BF494292EA030F3FD0A2F101022A
:10057C0041FA03FC10EB0C00C3F1200301FA03F168
:10058C0000F0004302D5494260EB4000B0F5000F8B
:10059C0013D3B0F1807F06D340084FEA310102F14A
:1005AC000102FE2A51D2B1F1004F40EBC25008BFFC
:1005BC0020F0010040EA03007047490040EB0000C6
:1005CC00013A28BFB0F5000FEDD2B0FA80FCACF1C7
:1005DC00080CB2EB0C0200FA0CF0AABF00EBC250F4
:1005EC0052421843BCBFD0401843704792F0000FE2
:1005FC0081F4000106BF80F400000132013BB5E735
:10060C004FEA41037FEA226C18BF7FEA236C21D0AA
:10061C0092EA030F04D092F0000F08BF084670470F
:10062C0090EA010F1CBF0020704712F07F4F04D1DD
:10063C00400028BF40F00040704712F100723CBFF0
:10064C0000F50000704700F0004343F0FE4040F41A
:10065C00000070477FEA226216BF08467FEA2363D8
:10066C000146420206BF5FEA412390EA010F40F4C3
:10067C00800070474FF0000304E000BF10F000430F
:10068C0048BF40425FEA000C08BF704743F09643F6
:10069C0001464FF000001CE050EA010208BF704711
:1006AC004FF000030AE000BF50EA010208BF704798
:1006BC0011F0004302D5404261EB41015FEA010CAD
:1006CC0002BF84460146002043F0B64308BFA3F1A5
:1006DC008053A3F50003BCFA8CF2083AA3EBC25387
:1006EC0010DB01FA02FC634400FA02FCC2F12002A6
:1006FC00BCF1004F20FA02F243EB020008BF20F0DD
:10070C000100704702F1200201FA02FCC2F1200242
:10071C0050EA4C0021FA02F243EB020008BF20EA37
:10072C00DC7070474FF0FF0C1CEAD0521EBF1CEA65
:10073C00D15392EA0C0F93EA0C0F6FD01A4480EA53
:10074C00010C400218BF5FEA41211ED04FF000633C
:10075C0043EA501043EA5111A0FB01310CF0004068
:10076C00B1F5000F3EBF490041EAD3715B0040EA8E
:10077C00010062F17F02FD2A1DD8B3F1004F40EB5E
:10078C00C25008BF20F00100704790F0000F0CF031
:10079C00004C08BF49024CEA502040EA51207F3AF5
:1007AC00C2BFD2F1FF0340EAC250704740F40000D0
:1007BC004FF00003013A5DDC12F1190FDCBF00F0C1
:1007CC0000407047C2F10002410021FA02F1C2F16F
:1007DC00200200FA02FC5FEA310040F1000053EA0B
:1007EC004C0308BF20EADC70704792F0000F00F059
:1007FC00004C02BF400010F4000F013AF9D040EA5F
:10080C000C0093F0000F01F0004C02BF490011F4F2
:10081C00000F013BF9D041EA0C018FE70CEAD153F0
:10082C0092EA0C0F18BF93EA0C0F0AD030F0004C70
:10083C0018BF31F0004CD8D180EA010000F0004024
:10084C00704790F0000F17BF90F0004F084691F0E2
:10085C00000F91F0004F14D092EA0C0F01D142021C
:10086C000FD193EA0C0F03D14B0218BF084608D1E5
:10087C0080EA010000F0004040F0FE4040F400002F
:10088C00704740F0FE4040F4400070474FF0FF0CC2
:10089C001CEAD0521EBF1CEAD15392EA0C0F93EA09
:1008AC000C0F69D0A2EB030280EA010C49024FEA5B
:1008BC00402037D04FF0805343EA111143EA101314
:1008CC000CF000408B4238BF5B0042F17D024FF4CC
:1008DC00000C8B4224BF5B1A40EA0C00B3EB510FA7
:1008EC0024BFA3EB510340EA5C00B3EB910F24BF90
:1008FC00A3EB910340EA9C00B3EBD10F24BFA3EB15
:10090C00D10340EADC001B0118BF5FEA1C1CE0D1DC
:10091C00FD2A3FF650AF8B4240EBC25008BF20F08F
:10092C00010070470CF0004C4CEA50207F32C2BFE3
:10093C00D2F1FF0340EAC250704740F400004FF080
:10094C000003013A37E792F0000F00F0004C02BFB1
:10095C00400010F4000F013AF9D040EA0C0093F07B
:10096C00000F01F0004C02BF490011F4000F013BD5
:10097C00F9D041EA0C0195E70CEAD15392EA0C0F3D
:10098C0008D142027FF47DAF93EA0C0F7FF470AF75
:10099C00084676E793EA0C0F04D14B023FF44CAFB8
:1009AC0008466EE730F0004C18BF31F0004CCAD14D
:1009BC0030F000427FF45CAF31F000437FF43CAF89
:1009CC005FE700BF4FF0FF3C06E000BF4FF0010CAB
:1009DC0002E000BF4FF0010C4DF804CD4FEA40028D
:1009EC004FEA41037FEA226C18BF7FEA236C11D0D7
:1009FC0001B052EA530C18BF90EA010F58BFB2EB8A
:100A0C00030088BFC81738BF6FEAE17018BF40F009
:100A1C00010070477FEA226C02D15FEA402C05D1BD
:100A2C007FEA236CE4D15FEA412CE1D05DF8040B42
:100A3C00704700BF844608466146FFE70FB5FFF7D5
:100A4C00C9FF002848BF10F1000F0FBD4DF808ED8D
:100A5C00FFF7F4FF0CBF012000205DF808FB00BF7E
:100A6C004DF808EDFFF7EAFF34BF012000205DF8D8
:100A7C0008FB00BF4DF808EDFFF7E0FF94BF012025
:100A8C0000205DF808FB00BF4DF808EDFFF7D2FF22
:100A9C0094BF012000205DF808FB00BF4DF808ED65
:100AAC00FFF7C8FF34BF012000205DF808FB00BF32
:100ABC0080B582B000AF1C4B5B691B4A43F001034D
:100ACC005361194B5B6903F001037B607B68002267
:100ADC0000210C2001F089FE0C2001F0A2FE002266
:100AEC0000210D2001F081FE0D2001F09AFE002264
:100AFC0000210F2001F079FE0F2001F092FE002260
:100B0C000021102001F071FE102001F08AFE00225D
:100B1C000021112001F069FE112001F082FE00BFBE
:100B2C000837BD4680BD00BF0010024080B483B0C2
:100B3C0000AF786039603B687A681A607B68A3F50F
:100B4C00006313F1C80F09DB7B68A3F50063C82BA6
:100B5C0004DC3B684FF400621A600FE07B68142BD6
:100B6C0003DC3B6800221A6008E07B6840F6EB72FD
:100B7C00934203DD3B684FF480521A6000BF0C3780
:100B8C00BD4680BC7047000080B584B000AF786073
:100B9C007B6823F00043FB604FF00001F868FFF71F
:100BAC0069FF0346002B01D0002324E04FF07E5157
:100BBC00F868FFF7ADFC034611491846FFF766FECF
:100BCC00034610491846FFF7ADFD03460E4918467B
:100BDC00FFF7A0FC03461846FFF716FC02460B462F
:100BEC001046194608F0CAF902460B46104619463B
:100BFC00FFF762FC034618461037BD4680BD00BFA8
:100C0C000000C64200008C4200C0144480B584B081
:100C1C0000AF786039603868FFF7B6FFF8607A4B40
:100C2C001B684FF000011846FFF738FF0346002BF6
:100C3C0000F09F804FF000013868FFF725FF034656
:100C4C00002B46D07B685B69002B05D17B681B6948
:100C5C001B6800225A6318E07B685B69042B05D182
:100C6C007B681B691A68002393630EE07B685B69E1
:100C7C00082B05D17B681B691A680023D36304E039
:100C8C007B681B691A68002313647B689B69002BC3
:100C9C0005D17B681B691B68FA685A63B0E07B68F6
:100CAC009B69042B05D17B681B691A68FB689363ED
:100CBC00A6E07B689B69082B05D17B681B691A68C9
:100CCC00FB68D3639CE07B681B691A68FB68136440
:100CDC0096E04FF000013868FFF7CCFE0346002B7E
:100CEC0000D18DE07B685B69002B05D17B681B69AB
:100CFC001B68FA685A6318E07B685B69042B05D1A2
:100D0C007B681B691A68FB6893630EE07B685B6900
:100D1C00082B05D17B681B691A68FB68D36304E058
:100D2C007B681B691A68FB6813647B689B69002BE2
:100D3C0005D17B681B691B6800225A6360E07B68E5
:100D4C009B69042B05D17B681B691A68002393638C
:100D5C0056E07B689B69082B05D17B681B691A6878
:100D6C000023D3634CE07B681B691A68002313646F
:100D7C0046E07B685B69002B05D17B681B691B68AF
:100D8C0000225A6318E07B685B69042B05D17B68F1
:100D9C001B691A68002393630EE07B685B69082B60
:100DAC0005D17B681B691A680023D36304E07B6858
:100DBC001B691A68002313647B689B69002B05D19F
:100DCC007B681B691B6800225A6319E07B689B696E
:100DDC00042B05D17B681B691A68002393630FE011
:100DEC007B689B69082B05D17B681B691A680023FB
:100DFC00D36305E07B681B691A6800231364FFE763
:100E0C0000BF1037BD4680BDBC00002080B588B047
:100E1C0000AF78607B681B6807F10C02114618461E
:100E2C00FFF784FE7B6804331B6807F10802114648
:100E3C001846FFF77BFEFB68A3F500631846FFF727
:100E4C001DFC03465F491846FFF720FD0346FB6176
:100E5C00BB68A3F500631846FFF710FC034659491D
:100E6C001846FFF713FD0346BB614FF07E51F8693E
:100E7C0008F055F803465449184608F03BF8F86159
:100E8C004FF07E51B86908F04AF803464E491846AF
:100E9C0008F030F8B8617B6808331B68B3F5006F55
:100EAC0024DD7B6808331B6840F6EB7293421DDC33
:100EBC007B6808331B68A3F500631846FFF7DEFB5D
:100ECC0003464FF08A411846FFF7E0FC03463F49C2
:100EDC001846FFF727FC03464FF07E511846FFF7E4
:100EEC0019FB03461A463A4B1A6014E07B68083328
:100EFC001B6840F6EB72934203DD354B354A1A60A2
:100F0C0009E07B6808331B68B3F5006F03DC304BDA
:100F1C004FF000021A602E4B1B682E49184607F042
:100F2C00FEFF03464FF00001184607F0E3FF0346AF
:100F3C00274A1360F969B869FFF7ECFA03461A46B9
:100F4C00234B1B6819461046FFF7ECFB034621495F
:100F5C001846FFF79BFC03467B61F969B869FFF7FC
:100F6C00D7FA03461A461A4B1B6819461046FFF768
:100F7C00D9FB034617491846FFF788FC03463B612B
:100F8C004FF07E51786907F0CAFF03460E491846A8
:100F9C0007F0B0FF78614FF07E51386907F0BFFF62
:100FAC0003460949184607F0A5FF386179690A48D4
:100FBC00FFF72CFE39690948FFF728FE00BF2037E0
:100FCC00BD4680BD0080FD44000080BF0000C642CD
:100FDC00BC0000200000C842000000201C000020C3
:100FEC0080B500AF4FF000010448FFF70FFE4FF043
:100FFC0000010348FFF70AFE00BF80BD000000207F
:10100C001C00002080B588B000AF07F1100300224F
:10101C001A605A609A60DA60454B9B69444A43F007
:10102C0010039361424B9B6903F01003FB60FB6858
:10103C003F4B9B693E4A43F0200393613C4B9B69B9
:10104C0003F02003BB60BB68394B9B69384A43F003
:10105C0004039361364B9B6903F004037B607B684C
:10106C00334B9B69324A43F008039361304B9B69C5
:10107C0003F008033B603B6800224FF400512D48FD
:10108C0002F01CF8012203212B4802F017F8002271
:10109C004FF4EA41284802F011F84FF400533B6139
:1010AC0001237B610023BB610223FB6107F1100369
:1010BC001946204801F07EFE10233B6100237B6122
:1010CC000123BB6107F1100319461C4801F072FEA5
:1010DC0003233B6101237B610023BB610323FB6181
:1010EC0007F110031946144801F064FE4FF4E8436D
:1010FC003B6101237B610023BB610223FB6107F190
:10110C00100319460C4801F055FE4FF480733B61F7
:10111C0011237B610123BB610223FB6107F11003E7
:10112C001946054801F046FE00BF2037BD4680BD7C
:10113C000010024000100140000C0140000801406A
:10114C0080B483B000AF78607B681B68054A93421B
:10115C0002D1054B01221A7000BF0C37BD4680BC72
:10116C00704700BF00380140C000002080B500AFC0
:10117C00124B134A1A60114B124A5A600F4B002241
:10118C009A600E4B0022DA600C4B4FF480421A61CD
:10119C000A4B00225A61094B00229A61074B00222C
:1011AC00DA61064B00221A62044801F0B9FF0346CB
:1011BC00002B01D000F093F900BF80BDC4000020CB
:1011CC0000540040801A060080B588B000AF7860EB
:1011DC0007F1100300221A605A609A60DA607B688B
:1011EC001B68454A934240F08280444B9B69434ABA
:1011FC0043F008039361414B9B6903F00803FB60C8
:10120C00FB68C0233B6112237B610323FB6107F165
:10121C00100319463A4801F0CDFD384BDB69374ACB
:10122C0043F40013D361354BDB6903F40013BB604B
:10123C00BB68344B344A1A60324B00225A60314B33
:10124C0000229A602F4B8022DA602E4B00221A610A
:10125C002C4B00225A612B4B00229A61294B4FF4E4
:10126C008052DA61274801F0F7FA0346002B01D0CF
:10127C0000F035F97B68234A9A63224A7B685362F3
:10128C00224B234A1A60214B10225A601F4B00221A
:10129C009A601E4B8022DA601C4B00221A611B4B99
:1012AC0000225A61194B00229A61184B4FF480525C
:1012BC00DA61164801F0D0FA0346002B01D000F099
:1012CC000EF97B68114A5A63104A7B6853620022FC
:1012DC0000211F2001F089FA1F2001F0A2FA002240
:1012EC000021202001F081FA202001F09AFA00BFA1
:1012FC002037BD4680BD00BF0054004000100240A6
:10130C00000C014018010020800002405C0100200C
:10131C006C00024090B585B000AF7860396011491F
:10132C00786806F0E3FEF8600023BB6010E0BB6851
:10133C009B003A68D418F86806F042FD0346236017
:10134C000849002006F0D2FEF860BB680133BB6090
:10135C00BB68032B02DCFB68002BE8D100BF143701
:10136C00BD4690BD2C90000880B582B000AF002324
:10137C00FB7101F0DDF800F06DF8FFF743FEFFF7AD
:10138C0097FBFFF7F3FE00F021FC01F02DF800F0C5
:10139C0091FE00F0E1FE294805F0D8F8002128481C
:1013AC0005F07EF90421264805F07AF90821244835
:1013BC0005F076F90C21224805F072F9204B1B68D8
:1013CC0000225A631E4B1B6800229A631C4B1B683D
:1013DC000022DA631A4B1B6800221A6400F074FBBB
:1013EC0000BF00F02FFA0346002BFAD000F088FB68
:1013FC00012000F0B7FA134800F00CFB0346002B59
:10140C0012D011490F48FFF785FF0F48FFF7FEFC7C
:10141C000E4B1B780133DAB20C4B1A704FF400519F
:10142C000B4801F063FEE6E7064800F0F3FA0346CA
:10143C00002BE0D1FFF7D4FDDDE700BFB4020020A4
:10144C00FC020020B0010020A0010020C4010020FB
:10145C000010014080B590B000AF07F118032822AE
:10146C000021184606F039FE3B1D00221A605A6016
:10147C009A60DA601A610123BB614FF48033FB611F
:10148C0000233B620123BB6202237B634FF4803356
:10149C00BB634FF4C013FB6307F11803184603F04A
:1014AC0091FC0346002B01D000F019F80F237B6050
:1014BC000223BB600023FB604FF480633B6100237D
:1014CC007B613B1D0221184603F0FEFE0346002BF8
:1014DC0001D000F004F800BF4037BD4680BD80B499
:1014EC0000AF72B600BF00BFFDE7000080B586B04C
:1014FC0002AF0346FB7107F10F02F91D4FF0FF33EA
:10150C0000930123034804F0F1F8FB7B18461037D5
:10151C00BD4680BDC801002080B584B000AF034635
:10152C00FB7107F10E02F91D01230B4804F03AFB85
:10153C000346FB73FB7B002B01D0FFF7D0FF00BFF2
:10154C00054804F050FD0346012BF9D1BB7B18462E
:10155C001037BD4680BD00BFC801002080B586B0E5
:10156C0000AFF860B9601346FB80FB88BA68F96875
:10157C00084804F017FB0346FB7500BF054804F050
:10158C0032FD0346012BF9D1FB7D18461837BD46B9
:10159C0080BD00BFC801002080B584B000AF0346F9
:1015AC00FB71FB793B73FF237B7300233B81002290
:1015BC0002210E4801F082FD07F1080207F10C012F
:1015CC0002230B4804F0EEFA00BF094804F00BFDAF
:1015DC000346012BF9D101220221044801F06EFDD2
:1015EC007B7A18461037BD4680BD00BF000C014009
:1015FC00C801002080B592B000AF03463960FB7182
:10160C001346BB71FB7987F82830BA7907F12803A8
:10161C000133FF21184606F060FD002202210F481D
:10162C0001F04CFDBB799BB201339AB207F1080172
:10163C0007F128031846FFF791FFBA7907F1080361
:10164C0001331946386806F020FE012202210348B6
:10165C0001F034FD00BF4837BD4680BD000C014091
:10166C0080B584B000AF03460A46FB711346BB71CC
:10167C00FB7943F02003DBB23B73BB797B73002215
:10168C0002210D4801F01AFD07F10C030222194644
:10169C000A4804F0D5F900BF084804F0A4FC03463E
:1016AC00012BF9D101220221034801F007FD00BFF3
:1016BC001037BD4680BD00BF000C0140C8010020A2
:1016CC0080B582B000AF00220221094801F0F6FC7F
:1016DC000720FFF70BFF0346FB7101220221044890
:1016EC0001F0ECFCFB7918460837BD4680BD00BF05
:1016FC00000C014080B584B000AF0346FB71FB7950
:10170C0003F07003FB71FFF7DBFF0346FB73002252
:10171C0002210C4801F0D2FC2720FFF7E7FEFA7BF0
:10172C00FB791343DBB21846FFF7E0FE01220221DE
:10173C00044801F0C3FCFFF7C3FF034618461037FB
:10174C00BD4680BD000C014080B584B000AF786010
:10175C000B46FB70FB78052B28BF0523FB70302351
:10176C003B72FA7807F1080301337968184606F0E2
:10177C008CFD002202210E4801F0A0FCFB789BB2EC
:10178C0001339AB207F1080319460A4804F058F9D4
:10179C0000BF084804F027FC0346012BF9D10122B5
:1017AC000221034801F08AFC00BF1037BD4680BD02
:1017BC00000C0140C801002080B584B000AF034686
:1017CC003960FB711346BB71BB79052B28BF052310
:1017DC00BB71FB79052B28BF0523FB71FB790A3301
:1017EC00DBB25BB243F020035BB2DBB23B72BA7983
:1017FC0007F1080301333968184606F046FD00224C
:10180C0002210E4801F05AFCBB799BB201339AB20B
:10181C0007F1080319460A4804F012F900BF0848FA
:10182C0004F0E1FB0346012BF9D10122022103480C
:10183C0001F044FC00BF1037BD4680BD000C0140D8
:10184C00C801002080B588B000AF424A07F11003F0
:10185C0092E8030018600433197000F0C1FEB861FF
:10186C0030233B7207F1090307F11002106818606E
:10187C0012791A7100220221374801F01FFC07F17E
:10188C00080306221946354804F0DAF800BF33483D
:10189C0004F0A9FB0346012BF9D1012202212E48A9
:1018AC0001F00CFC10233B7207F1080301330522F5
:1018BC00FF21184606F011FC00220221264801F0F7
:1018CC00FDFB3A4607F108010623244804F06AF9A7
:1018DC0000BF224804F087FB0346012BF9D10122FB
:1018EC0002211D4801F0EAFB0023FB770FE0FB7F90
:1018FC0020333B4413F8102CFB7F013320333B4443
:10190C0013F8203C9A4206D1FB7F0133FB77FB7F17
:10191C00042BECD900E000BFFB7F052B01D1012388
:10192C0013E000F05DFE0246BB69D31A41F2883227
:10193C00934201D9002308E04FF40051084801F00C
:10194C00D5FB642000F056FE8AE718462037BD46CA
:10195C0080BD00BF4C900008000C0140C801002065
:10196C000010014080B584B000AF0346FB7100232A
:10197C003B73FF237B7300220221244801F09EFB62
:10198C0007F1080207F10C010223214804F00AF9BF
:10199C0000BF1F4804F027FB0346012BF9D101229D
:1019AC0002211A4801F08AFB7B7AFB73FB79002B2E
:1019BC0004D1FB7B23F00103FB7306E0FB79012BC5
:1019CC0003D1FB7B43F00103FB7320233B73FB7BB5
:1019DC007B73002202210D4801F070FB07F10C0310
:1019EC00022219460A4804F02BF800BF084804F0FC
:1019FC00FAFA0346012BF9D101220221034801F026
:101A0C005DFB00BF1037BD4680BD00BF000C014020
:101A1C00C801002080B586B000AF78600023FB754C
:101A2C0000F0DEFD38610023FB7300220221244804
:101A3C0001F044FBE220FFF76FFD01220221204858
:101A4C0001F03CFB11E000F0CBFD02463B69D31AE0
:101A5C00642B07D900F038F800F052F80120FFF79A
:101A6C0081FF08E0012000F0C5FD164B9B6803F0D8
:101A7C001003102BE7D00720FFF78EFD0346FB75F4
:101A8C00FB7D19460720FFF7EBFDFB7D03F04003C0
:101A9C00002B10D06020FFF77FFD0346FB73FB7B10
:101AAC001A4679686120FFF7A5FDFF21E220FFF7B8
:101ABC00D7FDFB7B00E0002318461837BD4680BDE0
:101ACC00000C01400008014080B500AF012201214B
:101ADC00094801F0F3FA01221021084801F0EEFA4E
:101AEC0000220121044801F0E9FA012202210248F6
:101AFC0001F0E4FA00BF80BD000C01400008014079
:101B0C0080B584B000AF2D4A3B1D92E803001860ED
:101B1C000433197001220121294801F0CFFA7020F9
:101B2C00FFF7E8FD0023FB6036E0264AFB6812F85D
:101B3C00133043F02003DBB23B70224AFB685B009E
:101B4C0013445B787B70002202211D4801F0B6FA29
:101B5C003B46022219461C4803F072FF00BF1A488C
:101B6C0004F041FA0346012BF9D101220221144859
:101B7C0001F0A4FA134AFB6812F81330002B05D0BD
:101B8C00104AFB6812F81330062B02D1012000F02A
:101B9C0031FDFB680133FB60FB68082BC5D93B1D8D
:101BAC0005211846FFF7D0FD3B1D052219460020E4
:101BBC00FFF702FE00BF1037BD4680BD54900008F1
:101BCC00000C01405C900008C801002080B500AFFB
:101BDC00174B184A1A60164B4FF482725A60144B0A
:101BEC0000229A60124B0022DA60114B00221A611B
:101BFC000F4B00225A610E4B4FF400729A610C4B42
:101C0C001822DA610A4B00221A62094B00225A622E
:101C1C00074B00229A62064B0A22DA62044803F050
:101C2C00E1FC0346002B01D0FFF759FC00BF80BD3F
:101C3C00C80100200030014080B588B000AF78604A
:101C4C0007F1100300221A605A609A60DA607B6810
:101C5C001B68474A934240F08680464B9B69454A35
:101C6C0043F480539361434B9B6903F48053FB60B3
:101C7C00FB68404B9B693F4A43F0040393613D4B27
:101C8C009B6903F00403BB60BB68A0233B61022388
:101C9C007B610323FB6107F110031946364801F001
:101CAC0089F840233B6100237B610023BB6107F172
:101CBC0010031946304801F07DF8304B304A1A6059
:101CCC002E4B00225A602D4B00229A602B4B802207
:101CDC00DA602A4B00221A61284B00225A61274BEA
:101CEC0000229A61254B4FF40052DA61234800F030
:101CFC00B3FD0346002B01D0FFF7F1FB7B681F4AB5
:101D0C00DA641E4A7B6853621E4B1F4A1A601D4BD5
:101D1C0010225A601B4B00229A601A4B8022DA6008
:101D2C00184B00221A61174B00225A61154B0022E6
:101D3C009A61144B4FF40052DA61124800F08CFD9A
:101D4C000346002B01D0FFF7CAFB7B680D4A9A644F
:101D5C000C4A7B68536200220021232000F045FDD1
:101D6C00232000F05EFD00BF2037BD4680BD00BFC4
:101D7C000030014000100240000801402002002009
:101D8C001C000240640200203000024080B485B088
:101D9C0000AF154B9B69144A43F001039361124B3E
:101DAC009B6903F00103BB60BB680F4BDB690E4AF8
:101DBC0043F08053D3610C4BDB6903F080537B60A1
:101DCC007B680A4B5B68FB60FB6823F0E063FB609D
:101DDC00FB6843F00073FB60044AFB68536000BF70
:101DEC001437BD4680BC7047001002400000014013
:101DFC0080B400AF00BFFDE780B400AF00BFFDE7CB
:101E0C0080B400AF00BFFDE780B400AF00BFFDE7BA
:101E1C0080B400AF00BFFDE780B400AF00BFBD468B
:101E2C0080BC704780B400AF00BFBD4680BC70471B
:101E3C0080B400AF00BFBD4680BC704780B500AF1A
:101E4C0000F0BCFB00BF80BD80B500AF024800F0C5
:101E5C0071FE00BF80BD00BF2002002080B500AF26
:101E6C00024800F067FE00BF80BD00BF6402002086
:101E7C0080B500AF024800F05DFE00BF80BD00BF22
:101E8C004403002080B500AF024800F053FE00BFB1
:101E9C0080BD00BF5C01002080B500AF024800F09F
:101EAC0049FE00BF80BD00BF1801002080B500AF07
:101EBC00024804F097FC00BF80BD00BFB4020020B4
:101ECC0080B500AF024804F08DFC00BF80BD00BFA0
:101EDC00FC02002080B500AF024801F079FA00BF87
:101EEC0080BD00BFC400002080B500AF024801F0E7
:101EFC00E0FB00BF80BD00BFC400002080B500AF78
:101F0C00024803F04BFF00BF80BD00BFC80100209A
:101F1C0080B500AF024805F07BFA00BF80BD00BF62
:101F2C008803002080B400AF01231846BD4680BC56
:101F3C00704780B582B000AF7860396006F078F9F0
:101F4C00034616221A604FF0FF3318460837BD4679
:101F5C0080BD80B582B000AF78604FF0FF317868FB
:101F6C00FFF7E7FF00BFFDE780B586B000AFF86074
:101F7C00B9607A6000237B610AE0AFF30080014610
:101F8C00BB685A1CBA60CAB21A707B6901337B6198
:101F9C007A697B689A42F0DB7B6818461837BD4635
:101FAC0080BD80B586B000AFF860B9607A60002360
:101FBC007B6109E0BB685A1CBA601B781846AFF30A
:101FCC0000807B6901337B617A697B689A42F1DB23
:101FDC007B6818461837BD4680BD80B483B000AF0F
:101FEC0078604FF0FF3318460C37BD4680BC704705
:101FFC0080B483B000AF786039603B684FF4005216
:10200C005A60002318460C37BD4680BC704780B41C
:10201C0083B000AF7860012318460C37BD4680BCF6
:10202C00704780B485B000AFF860B9607A60002367
:10203C0018461437BD4680BC7047000080B586B08A
:10204C0000AF7860144A154BD31A7B617B693B61F6
:10205C00134B1B68002B02D1114B124A1A60104B08
:10206C001A687B6813443A699A4207D206F0E0F882
:10207C0003460C221A604FF0FF3309E0084B1B6833
:10208C00FB60074B1A687B681344054A1360FB68B6
:10209C0018461837BD4680BD0050002000040000D3
:1020AC00A80200202005002080B400AF00BFBD4670
:1020BC0080BC704780B586B000AF07F108030022E2
:1020CC001A605A609A60DA603B4600221A605A60C5
:1020DC001F4B204A1A601E4B41F6FF025A601C4BE4
:1020EC0000229A601A4B42F20F72DA60184B0022EF
:1020FC001A61174B00225A61154B80229A611448C1
:10210C0004F0D5F90346002B01D0FFF7E8F94FF4A2
:10211C008053BB6007F1080319460D4804F014FD09
:10212C000346002B01D0FFF7DAF900233B600023B4
:10213C007B603B461946064805F0AAF80346002B7F
:10214C0001D0FFF7CCF900BF1837BD4680BD00BFEA
:10215C00B4020020002C014080B58EB000AF07F116
:10216C00280300221A605A609A60DA6007F1200393
:10217C0000221A605A603B1D00221A605A609A6055
:10218C00DA601A615A619A61444B4FF080421A60CE
:10219C00424B00225A60414B00229A603F4B40F662
:1021AC007F42DA603D4B00221A613C4B80229A61DF
:1021BC003A4804F07CF90346002B01D0FFF78FF965
:1021CC004FF48053BB6207F128031946334804F0DF
:1021DC00BBFC0346002B01D0FFF781F92F4804F01C
:1021EC0007FA0346002B01D0FFF779F900233B6275
:1021FC0000237B6207F120031946284805F048F8B4
:10220C000346002B01D0FFF76AF960237B60244B57
:10221C001B889BB2BB600023FB6004237B613B1DCE
:10222C00002219461D4804F0CDFB0346002B01D0BB
:10223C00FFF755F91B4B1B889BB2BB603B1D04225F
:10224C001946164804F0BEFB0346002B01D0FFF7DD
:10225C0046F9154B1B889BB2BB603B1D08221946E7
:10226C000E4804F0AFFB0346002B01D0FFF737F903
:10227C000E4B1B889BB2BB603B1D0C2219460748BA
:10228C0004F0A0FB0346002B01D0FFF728F903480C
:10229C0000F07AF800BF3837BD4680BDFC02002044
:1022AC00AC020020AE020020B0020020B2020020DE
:1022BC0080B584B000AF78607B681B682E4A93426F
:1022CC0014D12E4B9B692D4A43F4006393612B4B25
:1022DC009B6903F40063FB60FB680022002119205A
:1022EC0000F083FA192000F09CFA40E07B681B6830
:1022FC00B3F1804F3BD1214BDB69204A43F0010302
:10230C00D3611E4BDB6903F00103BB60BB681C4B44
:10231C001C4A1A601A4B00225A60194B00229A6010
:10232C00174B8022DA60164B4FF480721A61144BF3
:10233C004FF480625A61124B00229A61104B0022BA
:10234C00DA610F4800F088FA0346002B01D0FFF742
:10235C00C6F87B680A4A5A62094A7B6853620022B3
:10236C0000211C2000F041FA1C2000F05AFA00BF9A
:10237C001037BD4680BD00BF002C0140001002404C
:10238C00440300205800024080B588B000AF78604C
:10239C0007F1100300221A605A609A60DA607B68B9
:1023AC001B68B3F1804F17D10D4B9B690C4A43F05E
:1023BC00040393610A4B9B6903F00403FB60FB6805
:1023CC000F233B6102237B610223FB6107F11003A6
:1023DC001946044800F0EEFC00BF2037BD4680BD16
:1023EC00001002400008014080B500AF114B124AAA
:1023FC001A60104B4FF4E1325A600E4B00229A6077
:10240C000C4B0022DA600B4B00221A61094B0C2298
:10241C005A61084B00229A61064B0022DA6105488A
:10242C0004F0A6FF0346002B01D0FFF758F800BFBD
:10243C0080BD00BF880300200038014080B588B003
:10244C0000AF786007F1100300221A605A609A609E
:10245C00DA607B681B68204A934239D11F4B9B6919
:10246C001E4A43F4804393611C4B9B6903F48043E5
:10247C00FB60FB68194B9B69184A43F0040393619A
:10248C00164B9B6903F00403BB60BB684FF40073ED
:10249C003B6102237B610323FB6107F110031946A7
:1024AC000F4800F087FC4FF480633B6100237B6195
:1024BC000023BB6107F110031946094800F07AFCB0
:1024CC0000220021252000F090F9252000F0A9F928
:1024DC0000BF2037BD4680BD0038014000100240CF
:1024EC0000080140FFF7E0FD0B480C490C4A0023A3
:1024FC0002E0D458C4500433C4188C42F9D3094AAE
:10250C00094C002301E013600432A242FBD305F016
:10251C0095FEFEF729FF704700000020A000002068
:10252C0084920008A000002020050020FEE7000097
:10253C0080B500AF084B1B68074A43F010031360CB
:10254C00032000F047F90F2000F008F8FFF71EFCFD
:10255C000023184680BD00BF0020024080B582B029
:10256C0000AF7860124B1A68124B1B7819464FF467
:10257C007A73B3FBF1F3B2FBF3F3184600F05FF997
:10258C000346002B01D001230EE07B680F2B0AD8E9
:10259C00002279684FF0FF3000F027F9064A7B687B
:1025AC001360002300E0012318460837BD4680BDA8
:1025BC0038000020400000203C00002080B400AF18
:1025CC00054B1B781A46054B1B681344034A1360D2
:1025DC0000BFBD4680BC704740000020D0030020E7
:1025EC0080B400AF024B1B681846BD4680BC7047D8
:1025FC00D003002080B584B000AF7860FFF7F0FF07
:10260C00B8607B68FB60FB68B3F1FF3F05D00A4BF9
:10261C001B781A46FB681344FB6000BFFFF7E0FF12
:10262C000246BB68D31AFA689A42F7D800BF00BFBB
:10263C001037BD4680BD00BF4000002080B485B07F
:10264C0000AF78607B6803F00703FB600C4BDB6822
:10265C00BB60BA684FF6FF031340BB60FB681A02FD
:10266C00BB68134343F0BF6343F40033BB60044ABD
:10267C00BB68D36000BF1437BD4680BC704700BF39
:10268C0000ED00E080B400AF044BDB681B0A03F0E4
:10269C0007031846BD4680BC704700BF00ED00E044
:1026AC0080B483B000AF0346FB7197F90730002B61
:1026BC000BDBFB7903F01F02064997F907305B0926
:1026CC00012000FA02F241F8232000BF0C37BD466E
:1026DC0080BC704700E100E080B483B000AF0346DB
:1026EC003960FB7197F90730002B0ADB3B68DAB2D3
:1026FC000C4997F907301201D2B20B4483F800232E
:10270C000AE03B68DAB20849FB7903F00F03043B9B
:10271C001201D2B20B441A7600BF0C37BD4680BCF6
:10272C00704700BF00E100E000ED00E080B489B02C
:10273C0000AFF860B9607A60FB6803F00703FB61D7
:10274C00FB69C3F10703042B28BF0423BB61FB699E
:10275C000433062B02D9FB69033B00E000237B61A9
:10276C004FF0FF32BB6902FA03F3DA43BB681A403D
:10277C007B699A404FF0FF317B6901FA03F3D9432F
:10278C007B680B40134318462437BD4680BC70470A
:10279C0080B582B000AF78607B68013BB3F1807F7D
:1027AC0001D301230FE00A4A7B68013B53600F21E0
:1027BC004FF0FF30FFF790FF054B00229A60044B5F
:1027CC0007221A60002318460837BD4680BD00BF9B
:1027DC0010E000E080B582B000AF78607868FFF759
:1027EC002DFF00BF0837BD4680BD80B586B000AF59
:1027FC000346B9607A60FB7300237B61FFF742FFED
:10280C0078617A68B9687869FFF790FF024697F9A2
:10281C000F3011461846FFF75FFF00BF1837BD4653
:10282C0080BD80B582B000AF0346FB7197F90730CD
:10283C001846FFF735FF00BF0837BD4680BD80B591
:10284C0082B000AF78607868FFF7A2FF03461846A5
:10285C000837BD4680BD000080B485B000AF7860FD
:10286C000023FB607B68002B01D1012343E07B68D4
:10287C001B681A46224B1344224AA2FB03231B0952
:10288C009A007B681A647B681F4ADA637B680222B1
:10289C0083F821207B681B681B68FB60FB6823F4B2
:1028AC007F5323F03003FB607B685A687B689B681E
:1028BC001A437B68DB681A437B681B691A437B6885
:1028CC005B691A437B689B691A437B68DB6913431A
:1028DC00FA681343FB607B681B68FA681A607B68B4
:1028EC0000229A637B68012283F821207B680022F6
:1028FC0083F82020002318461437BD4680BC70474F
:10290C00F8FFFDBFCDCCCCCC0000024080B586B02A
:10291C0000AFF860B9607A603B600023FB75FB6820
:10292C0093F82030012B01D102234BE0FB680122EC
:10293C0083F82020FB6893F82130DBB2012B3AD1CD
:10294C00FB68022283F82120FB6800229A63FB6853
:10295C001B681A68FB681B6822F001021A603B684E
:10296C007A68B968F86800F0F8F9FB68DB6A002B44
:10297C0008D0FB681B681A68FB681B6842F00E02E3
:10298C001A600FE0FB681B681A68FB681B6822F072
:10299C0004021A60FB681B681A68FB681B6842F02B
:1029AC000A021A60FB681B681A68FB681B6842F015
:1029BC0001021A6005E0FB68002283F82020022344
:1029CC00FB75FB7D18461837BD4680BD80B485B0BD
:1029DC0000AF78600023FB737B6893F82130DBB287
:1029EC00022B08D07B6804229A637B68002283F850
:1029FC002020012320E07B681B681A687B681B6819
:102A0C0022F00E021A607B681B681A687B681B68D0
:102A1C0022F001021A607B681A6C7B68DB6B012167
:102A2C0001FA02F25A607B68012283F821207B684C
:102A3C00002283F82020FB7B18461437BD4680BC4F
:102A4C007047000080B584B000AF78600023FB7342
:102A5C007B6893F82130DBB2022B05D07B68042213
:102A6C009A630123FB7351E07B681B681A687B68CF
:102A7C001B6822F00E021A607B681B681A687B6860
:102A8C001B6822F001021A607B681B68224A934281
:102A9C0029D07B681B68214A934222D07B681B6833
:102AAC001F4A93421AD07B681B681E4A934212D06D
:102ABC007B681B681C4A93420AD07B681B681B4AC4
:102ACC00934202D14FF480130EE04FF080730BE071
:102ADC004FF4803308E04FF4805305E04FF48073DB
:102AEC0002E0102300E00123114A53607B680122AD
:102AFC0083F821207B68002283F820207B685B6BA5
:102B0C00002B03D07B685B6B78689847FB7B18467F
:102B1C001037BD4680BD00BF080002401C000240BB
:102B2C003000024044000240580002406C00024059
:102B3C000000024080B584B000AF78607B68DB6B2E
:102B4C001B68FB607B681B681B68BB607B681B6C2D
:102B5C0004229A40FB681340002B4FD0BB6803F053
:102B6C000403002B4AD07B681B681B6803F020030E
:102B7C00002B07D17B681B681A687B681B6822F0E6
:102B8C0004021A607B681B68664A934229D07B68F2
:102B9C001B68654A934222D07B681B68634A934248
:102BAC001AD07B681B68624A934212D07B681B6800
:102BBC00604A93420AD07B681B685F4A934202D1F9
:102BCC004FF480030EE04FF080630BE04FF4802352
:102BDC0008E04FF4804305E04FF4806302E04023AB
:102BEC0000E00423554A53607B68DB6A002B00F03D
:102BFC0094807B68DB6A786898478EE07B681B6CF6
:102C0C0002229A40FB681340002B56D0BB6803F09D
:102C1C000203002B51D07B681B681B6803F0200358
:102C2C00002B0BD17B681B681A687B681B6822F031
:102C3C000A021A607B68012283F821207B681B68DA
:102C4C00384A934229D07B681B68374A934222D07A
:102C5C007B681B68354A93421AD07B681B68344AE0
:102C6C00934212D07B681B68324A93420AD07B682D
:102C7C001B68314A934202D14FF400130EE04FF01F
:102C8C0000730BE04FF4003308E04FF4005305E001
:102C9C004FF4007302E0202300E00223274A536024
:102CAC007B68002283F820207B689B6A002B34D041
:102CBC007B689B6A786898472FE07B681B6C0822BE
:102CCC009A40FB681340002B28D0BB6803F0080324
:102CDC00002B23D07B681B681A687B681B6822F06A
:102CEC000E021A607B681A6C7B68DB6B012101FA9F
:102CFC0002F25A607B6801229A637B68012283F896
:102D0C0021207B68002283F820207B681B6B002B22
:102D1C0004D07B681B6B7868984700BF00BF1037E6
:102D2C00BD4680BD080002401C000240300002403D
:102D3C0044000240580002406C0002400000024077
:102D4C0080B483B000AF78607B6893F82130DBB23D
:102D5C0018460C37BD4680BC704780B485B000AFB8
:102D6C00F860B9607A603B60FB681A6CFB68DB6BDF
:102D7C00012101FA02F25A60FB681B683A685A603A
:102D8C00FB685B68102B08D1FB681B687A689A603B
:102D9C00FB681B68BA68DA6007E0FB681B68BA68F6
:102DAC009A60FB681B687A68DA6000BF1437BD460E
:102DBC0080BC704780B48BB000AF78603960002362
:102DCC007B6200233B6269E101227B6A02FA03F316
:102DDC00FB613B681B68FA691340BB61BA69FB690C
:102DEC009A4240F058813B685B689A4A93425ED0A5
:102DFC00984A934275D8984A934258D0964A93422F
:102E0C006FD8964A934252D0944A934269D8944AC6
:102E1C0093424CD0924A934263D8924A934246D002
:102E2C00904A93425DD8122B2AD8122B59D801A262
:102E3C0052F823F0BB2E0008952E0008A72E000890
:102E4C00E92E0008EF2E0008EF2E0008EF2E0008E8
:102E5C00EF2E0008EF2E0008EF2E0008EF2E0008D2
:102E6C00EF2E0008EF2E0008EF2E0008EF2E0008C2
:102E7C00EF2E0008EF2E00089D2E0008B12E000842
:102E8C00794A934213D02CE03B68DB683B6229E023
:102E9C003B68DB6804333B6224E03B68DB68083347
:102EAC003B621FE03B68DB680C333B621AE03B681B
:102EBC009B68002B02D104233B6213E03B689B68A8
:102ECC00012B05D108233B627B68FA691A6109E082
:102EDC0008233B627B68FA695A6103E000233B627A
:102EEC0000E000BFBB69FF2B01D87B6801E07B6869
:102EFC0004337B61BB69FF2B02D87B6A9B0002E029
:102F0C007B6A083B9B003B617B691A680F213B691C
:102F1C0001FA03F3DB431A40396A3B6901FA03F304
:102F2C001A437B691A603B685B6803F08053002B83
:102F3C0000F0B1804D4B9B694C4A43F00103936107
:102F4C004A4B9B6903F00103BB60BB68484A7B6A30
:102F5C009B08023352F82330FB607B6A03F00303B7
:102F6C009B000F2202FA03F3DB43FA681340FB6069
:102F7C007B68404A934213D07B683F4A93420DD002
:102F8C007B683E4A934207D07B683D4A934201D10D
:102F9C00032306E0042304E0022302E0012300E003
:102FAC0000237A6A02F0030292009340FA681343FA
:102FBC00FB602F497B6A9B080233FA6841F8232097
:102FCC003B685B6803F48013002B06D02D4B9A688A
:102FDC002C49BB6913438B6006E02A4B9A68BB698A
:102FEC00DB43284913408B603B685B6803F4001398
:102FFC00002B06D0234BDA682249BB691343CB6004
:10300C0006E0204BDA68BB69DB431E491340CB60FA
:10301C003B685B6803F40033002B06D0194B5A68ED
:10302C001849BB6913434B6006E0164B5A68BB69E1
:10303C00DB43144913404B603B685B6803F48033FB
:10304C00002B21D00F4B1A680E49BB6913430B6040
:10305C0021E000BF000032100000311000002210EF
:10306C00000021100000121000001110001002408E
:10307C000000014000080140000C0140001001401C
:10308C0000140140000401400B4B1A68BB69DB4380
:10309C00094913400B607B6A01337B623B681A68F9
:1030AC007B6A22FA03F3002B7FF48EAE00BF00BFC5
:1030BC002C37BD4680BC70470004014080B483B0FF
:1030CC0000AF78600B467B8013467B707B78002BBF
:1030DC0003D07A887B681A6103E07B881A047B68CA
:1030EC001A6100BF0C37BD4680BC704780B485B0F8
:1030FC0000AF78600B467B807B68DB68FB607A886E
:10310C00FB6813401A04FB68D9437B880B401A43B5
:10311C007B681A6100BF1437BD4680BC7047000045
:10312C0080B584B000AF78607B68002B01D101239F
:10313C002BE17B6893F83D30DBB2002B06D17B682A
:10314C00002283F83C207868FEF73EF87B68242246
:10315C0083F83D207B681B681A687B681B6822F02B
:10316C0001021A607B681B681A687B681B6842F452
:10317C0000421A607B681B681A687B681B6822F423
:10318C0000421A6002F0E8F9F8607B685B68814ADB
:10319C00934207D8FB68804A934294BF01230023D3
:1031AC00DBB206E0FB687D4A934294BF0123002307
:1031BC00DBB2002B01D00123E7E0FB68784AA2FBCD
:1031CC0003239B0CBB607B681B685B6823F03F018F
:1031DC007B681B68BA680A435A607B681B681B6A69
:1031EC0023F03F017B685B686A4A934202D8BB6854
:1031FC00013309E0BB684FF4967202FB03F3694A92
:10320C00A2FB03239B0901337A6812680B431362F8
:10321C007B681B68DB6923F44F4222F0FF027B685A
:10322C005B685C498B4219D8FB68591E7B685B68EC
:10323C005B00B1FBF3F3591C40F6FC730B40002B05
:10324C000AD0FB68591E7B685B685B00B1FBF3F32B
:10325C000133C3F30B0351E004234FE07B689B68FD
:10326C00002B11D1FB68581E7B6859680B465B001C
:10327C000B44B0FBF3F30133C3F30B03002B0CBF74
:10328C0001230023DBB212E0FB68581E7B685968EF
:10329C000B469B000B4499000B44B0FBF3F301333A
:1032AC00C3F30B03002B0CBF01230023DBB2002B59
:1032BC0001D0012322E07B689B68002B0ED1FB68B8
:1032CC00581E7B6859680B465B000B44B0FBF3F34C
:1032DC000133C3F30B0343F400430FE0FB68581EA8
:1032EC007B6859680B469B000B4499000B44B0FB60
:1032FC00F3F30133C3F30B0343F4404379680968D8
:10330C001343CB617B681B681B6823F0C0017B688F
:10331C00DA697B681B6A1A437B681B680A431A606C
:10332C007B681B689B6823F4034323F0FF037A68D4
:10333C0011697A68D26811437A6812680B439360FA
:10334C007B681B68DB6823F0FF017B685A697B682C
:10335C009B691A437B681B680A43DA607B681B68AD
:10336C001A687B681B6842F001021A607B680022B5
:10337C001A647B68202283F83D207B6800221A6344
:10338C007B68002283F83E20002318461037BD4688
:10339C0080BD00BFA08601007F841E00FF083D0099
:1033AC0083DE1B43D34D621080B483B000AF7860D2
:1033BC007B681B685B6903F08003802B03D17B68FF
:1033CC001B6800221A6100BF0C37BD4680BC7047D9
:1033DC0080B588B000AF78600023BB617B681B6848
:1033EC005B687B617B68DB6A3B617B6893F83E3092
:1033FC00FB737B6893F83D30BB73FB7B102B03D0C6
:10340C00FB7B402B40F0C1807B681B689B69BB61D8
:10341C007B681B685B69FB61FB6903F00103002B94
:10342C000DD13B69B3F52A0F03D03B69B3F12A4F99
:10343C0001D1012300E00023012B00F03281FB6954
:10344C0003F00103002B0CD07B695B0A03F0010332
:10345C00002B06D0786801F09BFC786800F099FD91
:10346C0092E0FB69DB0803F00103002B09D07B69B8
:10347C005B0A03F00103002B03D0786800F00EFE0A
:10348C0082E0FB695B0803F00103002B09D07B6928
:10349C005B0A03F00103002B03D0786800F027FED1
:1034AC0072E0BB699B0803F00103002B3BD07B68E7
:1034BC001B685B6803F40063B3F5006F00F0F380E6
:1034CC00FB69DB0903F00103002B0FD07B699B0A1E
:1034DC0003F00103002B09D0FB699B0803F00103E7
:1034EC00002B03D1786800F0F1F94DE0FB699B08E3
:1034FC0003F00103002B00F0D6807B695B0A03F01C
:10350C000103002B00F0CF80BB7B212B03D178680B
:10351C0000F078FAC7E0FB7B402B40F0C480786861
:10352C0000F0E6FABFE07B681B685B6803F400639D
:10353C00B3F5006F00F0B780FB699B0903F0010342
:10354C00002B0FD07B699B0A03F00103002B09D0E1
:10355C00FB699B0803F00103002B03D1786800F092
:10356C005FFB11E0FB699B0803F00103002B00F0EB
:10357C009A807B695B0A03F00103002B00F09380B7
:10358C00786800F015FC8EE08DE07B681B6C002BDE
:10359C0004D07B681B685B69FB6107E07B681B6878
:1035AC009B69BB617B681B685B69FB61FB695B08A2
:1035BC0003F00103002B12D07B695B0A03F00103BB
:1035CC00002B0CD07B681B6C002B03D07B681B681A
:1035DC009B69BB61B969786800F0E0FF66E0FB6944
:1035EC001B0903F00103002B09D07B695B0A03F074
:1035FC000103002B03D0786801F01AF856E0BB7B6E
:10360C00212B02D0BB7B292B25D1FB69DB0903F0D5
:10361C000103002B0FD07B699B0A03F00103002BE5
:10362C0009D0FB699B0803F00103002B03D17868D8
:10363C0000F0F8FE39E0FB699B0803F00103002B56
:10364C0033D07B695B0A03F00103002B2DD0786823
:10365C0000F025FF29E0FB699B0903F00103002B17
:10366C000FD07B699B0A03F00103002B09D0FB6987
:10367C009B0803F00103002B03D1786800F02FFFA7
:10368C0014E0FB699B0803F00103002B0ED07B694F
:10369C005B0A03F00103002B08D0786800F05DFF93
:1036AC0004E000BF02E000BF00E000BF2037BD46D1
:1036BC0080BD80B58AB000AF78607B681B685B69A1
:1036CC003B627B681B685B68FB6100237B627B68E9
:1036DC0093F83E30FB763B6A1B0A03F00103002B88
:1036EC0016D0FB691B0A03F00103002B10D07B6A78
:1036FC0043F001037B627B681B686FF480725A6134
:10370C007B681B681A687B681B6842F400421A606D
:10371C003B6A5B0A03F00103002B0ED0FB691B0A0A
:10372C0003F00103002B08D07B6A43F002037B6299
:10373C007B681B686FF400725A613B6A9B0A03F04A
:10374C000103002B3FD0FB691B0A03F00103002B84
:10375C0039D0FB7EBB767B685B8D9BB27B617B68D3
:10376C0093F83D30FB747B681B6BFB60BB7E202B9E
:10377C0012D17B69002B0FD1FB7C212B08D0FB7C59
:10378C00292B05D0FB7C282B06D1FB68212B03D1E0
:10379C00786801F07DF816E07B681B686FF4806236
:1037AC005A617B6A43F004037B62FB7E102B02D0D0
:1037BC00FB7E402B07D17B681B681A687B681B68F3
:1037CC0042F400721A603B6ADB0A03F00103002B1F
:1037DC000ED0FB691B0A03F00103002B08D07B6A97
:1037EC0043F008037B627B681B686FF400625A61CC
:1037FC007B6A002B08D07B681A6C7B6A1A437B6847
:10380C001A64786801F0B8F800BF2837BD4680BD4F
:10381C0080B483B000AF786000BF0C37BD4680BC6D
:10382C00704780B483B000AF786000BF0C37BD46E2
:10383C0080BC704780B483B000AF786000BF0C3799
:10384C00BD4680BC704780B483B000AF786000BFC9
:10385C000C37BD4680BC704780B483B000AF786035
:10386C000B46FB7013463B8000BF0C37BD4680BC3B
:10387C00704780B483B000AF786000BF0C37BD4692
:10388C0080BC704780B483B000AF786000BF0C3749
:10389C00BD4680BC704780B483B000AF786000BF79
:1038AC000C37BD4680BC704780B483B000AF7860E5
:1038BC0000BF0C37BD4680BC704780B483B000AFEE
:1038CC00786000BF0C37BD4680BC704780B584B0B3
:1038DC0000AF78607B6893F83D30FB737B6893F89E
:1038EC003E30BB737B68DB6ABB607B681B8D002B37
:1038FC0050D1FB7B212B4DD1BB68082B1DD0BB6855
:10390C00202B1AD0BB6813F5803F16D07B681B6840
:10391C005A687B681B6822F4E0625A607B6811224B
:10392C001A637B68002283F83E207B68202283F890
:10393C003D207868FFF76CFF60E07B681B685A6875
:10394C007B681B6822F4E0625A607B681B681A680B
:10395C007B681B6842F400721A607B6800221A6351
:10396C007B68202283F83D207B6893F83E30DBB2E5
:10397C00402B07D17B68002283F83E207868FFF744
:10398C0081FF3BE07B68002283F83E207868FFF7DC
:10399C003FFF33E0FB7B212B05D0BB7B402B2DD194
:1039AC00FB7B222B2AD17B685B8D9BB2002B08D131
:1039BC007B681B685A687B681B6822F480625A60BB
:1039CC001CE07B6893F83E30DBB2402B03D1786867
:1039DC0000F08EF812E07B685B6A1A787B681B68D3
:1039EC001A617B685B6A5A1C7B685A627B685B8DC8
:1039FC009BB2013B9AB27B685A85FFE700BF103738
:103A0C00BD4680BD80B584B000AF78607B68DB6A52
:103A1C00FB607B6893F83D30DBB2212B64D17B6873
:103A2C005B8D9BB2002B12D07B685B6A1A787B682B
:103A3C001B681A617B685B6A5A1C7B685A627B68DC
:103A4C005B8D9BB2013B9AB27B685A854CE0FB685C
:103A5C00082B1DD0FB68202B1AD0FB6813F5803F78
:103A6C0016D07B681B685A687B681B6822F4E0627E
:103A7C005A607B6811221A637B68002283F83E200F
:103A8C007B68202283F83D207868FFF7C1FE2BE08D
:103A9C007B681B685A687B681B6822F4E0625A607A
:103AAC007B681B681A687B681B6842F400721A609A
:103ABC007B6800221A637B68202283F83D207B6898
:103ACC0093F83E30DBB2402B07D17B68002283F8A1
:103ADC003E207868FFF7D6FE06E07B68002283F86C
:103AEC003E207868FFF794FE00BF1037BD4680BDBE
:103AFC0080B584B000AF78607B6893F83D30FB7381
:103B0C007B681B6D002B1DD17B68DB6C012B0BD1F3
:103B1C007B689B6CDAB27B681B681A617B681B6DD7
:103B2C009A1C7B681A6577E07B689B6C9BB21B12B6
:103B3C00DAB27B681B681A617B681B6D5A1C7B6848
:103B4C001A6569E07B681B6D012B0BD17B689B6C44
:103B5C00DAB27B681B681A617B681B6D5A1C7B6828
:103B6C001A6559E07B681B6D022B52D1FB7B222B13
:103B7C000DD17B681B681A687B681B6842F48072E5
:103B8C001A607B681B6D5A1C7B681A6544E07B6865
:103B9C005B8D9BB2002B15D0FB7B212B12D17B684C
:103BAC005B6A1A787B681B681A617B685B6A5A1CB3
:103BBC007B685A627B685B8D9BB2013B9AB27B68D7
:103BCC005A8529E07B685B8D9BB2002B24D1FB7B53
:103BDC00212B21D17B681B685A687B681B6822F4F7
:103BEC00E0625A607B681B681A687B681B6842F449
:103BFC0000721A607B6800221A637B68202283F8AB
:103C0C003D207B68002283F83E207868FFF73AFE5F
:103C1C0002E07868FFF7C8FB00BF1037BD4680BDD7
:103C2C0080B584B000AF78607B6893F83D30DBB230
:103C3C00222B40F0B9807B68DB6AFB607B685B8D74
:103C4C009BB2BB60BB68032B21D97B681B681A69CC
:103C5C007B685B6AD2B21A707B685B6A5A1C7B68A1
:103C6C005A627B685B8D9BB2013B9AB27B685A852A
:103C7C007B685B8D9BB2032B40F096807B681B6846
:103C8C005A687B681B6822F480625A608CE07B68FF
:103C9C00DB6A022B7FD0BB68012B02D0BB68002BE8
:103CAC0079D1786801F042F80346002B4CD17B683F
:103CBC001B681A687B681B6822F480621A607B6838
:103CCC001B685A687B681B6822F4E0625A607B6848
:103CDC001B681A697B685B6AD2B21A707B685B6A74
:103CEC005A1C7B685A627B685B8D9BB2013B9AB213
:103CFC007B685A857B68202283F83D207B6893F88B
:103D0C003E30DBB2402B0AD17B68002283F83E2088
:103D1C007B6800221A637868FFF7BDFD44E07B687E
:103D2C00002283F83E20FB68082B02D0FB68202B76
:103D3C0003D17B6800221A6302E07B6812221A63AB
:103D4C007868FFF76EFD2FE07B681B685A687B680C
:103D5C001B6822F4E0625A607B681B681A697B68F6
:103D6C005B6AD2B21A707B685B6A5A1C7B685A62B7
:103D7C007B685B8D9BB2013B9AB27B685A857B68F2
:103D8C00202283F83D207B68002283F83E2078684F
:103D9C00FFF78AFD08E07B681B685A687B681B6824
:103DAC0022F480625A60FFE700BF1037BD4680BD29
:103DBC0080B584B000AF78607B68DB6AFB607B68A1
:103DCC005B8D9BB2042B1BD17B681B685A687B688C
:103DDC001B6822F480625A607B681B681A697B68D6
:103DEC005B6AD2B21A707B685B6A5A1C7B685A6237
:103DFC007B685B8D9BB2013B9AB27B685A85C4E0B1
:103E0C007B685B8D9BB2032B29D17B681B685A683E
:103E1C007B681B6822F480625A60FB68042B0AD012
:103E2C00FB68022B07D07B681B681A687B681B68D1
:103E3C0022F480621A607B681B681A697B685B6A73
:103E4C00D2B21A707B685B6A5A1C7B685A627B68B8
:103E5C005B8D9BB2013B9AB27B685A8595E07B687F
:103E6C005B8D9BB2022B7DD1FB68012B02D0FB68D2
:103E7C00102B08D17B681B681A687B681B6822F4BE
:103E8C0080621A6016E0FB68042B02D0FB68022BE0
:103E9C0008D17B681B681A687B681B6842F48062D7
:103EAC001A6007E07B681B681A687B681B6842F421
:103EBC0000721A607B681B681A697B685B6AD2B2F5
:103ECC001A707B685B6A5A1C7B685A627B685B8DD4
:103EDC009BB2013B9AB27B685A857B681B681A6956
:103EEC007B685B6AD2B21A707B685B6A5A1C7B680F
:103EFC005A627B685B8D9BB2013B9AB27B685A8598
:103F0C007B681B685A687B681B6822F440725A6095
:103F1C007B68202283F83D207B6893F83E30DBB22F
:103F2C00402B0AD17B68002283F83E207B6800225C
:103F3C001A637868FFF7AFFC27E07B68002283F8F0
:103F4C003E20FB68082B02D0FB68202B03D17B683A
:103F5C0000221A6302E07B6812221A637868FFF76A
:103F6C0060FC12E07B681B681A697B685B6AD2B2E2
:103F7C001A707B685B6A5A1C7B685A627B685B8D23
:103F8C009BB2013B9AB27B685A8500BF1037BD4685
:103F9C0080BD80B483B000AF78607B6893F83E300E
:103FAC00DBB2402B17D17B681B6D002B09D17B68D2
:103FBC005B6CDBB21A467B681B6802F0FE021A616E
:103FCC0067E07B685B6CDBB243F00103DAB27B68C1
:103FDC001B681A615DE07B681B69B3F5804F33D1B8
:103FEC007B6893F83D30DBB2212B09D17B685B6C8D
:103FFC00DBB21A467B681B6802F0FE021A6108E00D
:10400C007B685B6CDBB243F00103DAB27B681B6844
:10401C001A617B685B6B002B04D07B685B6B9B6AC3
:10402C00002B08D17B689B6B002B32D07B689B6B81
:10403C009B6A002B2DD07B681B685A687B681B68B9
:10404C0042F400625A6024E07B681B6D002B0ED199
:10405C007B685B6C9BB2DB11DBB203F00603DBB25B
:10406C0063F00F03DAB27B681B681A6111E07B689E
:10407C001B6D012B0DD17B685B6C9BB2DB11DBB232
:10408C0003F00603DBB263F00E03DAB27B681B6845
:10409C001A6100BF0C37BD4680BC704780B483B03A
:1040AC0000AF78607B685B6CDAB27B681B681A6166
:1040BC007B685B6B002B04D07B685B6B9B6A002B73
:1040CC0008D17B689B6B002B0CD07B689B6B9B6A2D
:1040DC00002B07D07B681B685A687B681B6842F40E
:1040EC0000625A6000BF0C37BD4680BC704780B47C
:1040FC0091B000AF78607B6893F83E3087F83F3022
:10410C007B68DB6ABB637B681B6B7B637B6893F8A8
:10411C003D30DBB2222B40F074817B681B6D002B91
:10412C000FD197F83F30402B0BD100233B637B68BA
:10413C001B685B693B637B681B689B693B633B6BE0
:10414C006BE17B681B6D002B1DD17B681B69B3F584
:10415C00404F18D10023FB627B681B685B69FB62D4
:10416C007B681B689B69FB62FB6A7B681B681A682F
:10417C007B681B6842F480721A607B681B6D5A1C4A
:10418C007B681A6549E17B685B8D9BB2002B13D170
:10419C000023BB627B681B685B69BB627B681B6826
:1041AC009B69BB62BB6A7B681B681A687B681B686F
:1041BC0042F400721A6020E17B685B8D9BB2012B8C
:1041CC0040F08A80BB6B13F5803F37D17B681B684E
:1041DC001A687B681B6822F480621A607B681B6813
:1041EC005B6803F40063B3F5006F13D17B681B6845
:1041FC001A687B681B6822F480621A6000237B6259
:10420C007B681B685B697B627B681B689B697B6254
:10421C007B6AF2E000233B627B681B685B693B6254
:10422C007B681B689B693B623B6A7B681B681A68EE
:10423C007B681B6842F400721A60DEE0BB6B082BD3
:10424C002ED0BB6B202B2BD07B6B122B02D1BB6BDC
:10425C00012B25D1BB6B042B0ED0BB6B022B0BD0CF
:10426C00BB6B102B08D07B681B681A687B681B68BB
:10427C0022F480621A6007E07B681B681A687B680E
:10428C001B6842F480621A600023FB617B681B6828
:10429C005B69FB617B681B689B69FB61FB69ACE03C
:1042AC007B681B681A687B681B6822F480621A6042
:1042BC000023BB617B681B685B69BB617B681B6807
:1042CC009B69BB61BB697B681B681A687B681B6850
:1042DC0042F400721A6090E07B685B8D9BB2022BFB
:1042EC0058D1BB6B042B21D0BB6B022B1ED0BB6BEC
:1042FC00102B1BD07B681B681A687B681B6842F408
:10430C0000621A6000237B617B681B685B697B61C0
:10431C007B681B689B697B617B697B681B681A687F
:10432C007B681B6822F480621A6012E07B681B6851
:10433C001A687B681B6842F480621A6000233B6138
:10434C007B681B685B693B617B681B689B693B6195
:10435C003B697B681B685B6803F40063B3F5006F13
:10436C004BD1BB6B13F5803F0BD0BB6B012B08D033
:10437C00BB6B082B05D0BB6B102B02D0BB6B202B5F
:10438C003BD17B681B685A687B681B6842F480527F
:10439C005A6032E07B681B681A687B681B6842F4C1
:1043AC0080621A607B681B685B6803F40063B3F57A
:1043BC00006F17D1BB6B13F5803F0BD0BB6B012B80
:1043CC0008D0BB6B082B05D0BB6B102B02D0BB6B82
:1043DC00202B07D17B681B685A687B681B6842F4EA
:1043EC0080525A600023FB607B681B685B69FB6032
:1043FC007B681B689B69FB60FB687B6800221A6505
:10440C000BE00023BB607B681B685B69BB607B684F
:10441C001B689B69BB60BB68FFE700BF4437BD46A8
:10442C0080BC704780B584B000AF78607B6893F82F
:10443C003D30FB737B685B8D9BB2002B2BD07B6874
:10444C005B6A1A787B681B681A617B685B6A5A1C0A
:10445C007B685A627B685B8D9BB2013B9AB27B682E
:10446C005A857B685B8D9BB2002B14D1FB7B292B6F
:10447C0011D17B681B685A687B681B6822F48062C8
:10448C005A607B6821221A637B68282283F83D20BE
:10449C007868FFF7CFF900BF1037BD4680BD80B4F8
:1044AC0083B000AF78607B685B8D9BB2002B11D022
:1044BC007B685B6A1A787B681B681A617B685B6A2D
:1044CC005A1C7B685A627B685B8D9BB2013B9AB22B
:1044DC007B685A8500BF0C37BD4680BC704780B5E1
:1044EC0084B000AF78607B6893F83D30FB737B68D9
:1044FC005B8D9BB2002B2CD07B681B681A697B6888
:10450C005B6AD2B21A707B685B6A5A1C7B685A620F
:10451C007B685B8D9BB2013B9AB27B685A857B684A
:10452C005B8D9BB2002B14D1FB7B2A2B11D17B68AA
:10453C001B685A687B681B6822F480625A607B682F
:10454C0022221A637B68282283F83D207868FFF7C3
:10455C007AF900BF1037BD4680BD80B483B000AF80
:10456C0078607B685B8D9BB2002B12D07B681B68DC
:10457C001A697B685B6AD2B21A707B685B6A5A1CD8
:10458C007B685A627B685B8D9BB2013B9AB27B68FD
:10459C005A8500BF0C37BD4680BC704780B584B0CF
:1045AC0000AF786039600023FB737B6893F83D3073
:1045BC00DBB203F02803282B27D17B681B685A68D1
:1045CC007B681B6822F480625A603B689B0803F08E
:1045DC000103002B01D10123FB733B68DB0903F0C2
:1045EC000103002B03D17B68DB68BB8102E07B6895
:1045FC009B69BB817B68002283F83C20BA89FB7BDA
:10460C0019467868FFF728F90EE00023BB607B6839
:10461C001B685B69BB607B681B689B69BB60BB6884
:10462C007B68002283F83C2000BF1037BD4680BD5C
:10463C0080B584B000AF78607B6893F83D30FB7335
:10464C007B681B685A687B681B6822F4E0625A60BE
:10465C000023BB607B681B685B69BB607B681B6865
:10466C001A687B681B6842F001021A60BB687B68A1
:10467C001B681A687B681B6822F480621A607B686E
:10468C001B685B6803F40063B3F5006F72D1FB7BAE
:10469C00222B02D0FB7B2A2B35D17B689B6B1B68B2
:1046AC005B689AB27B685A857B685B8D9BB2002BEA
:1046BC0005D07B681B6C43F004027B681A647B6832
:1046CC001B685A687B681B6822F400625A607B681E
:1046DC009B6B1846FEF734FB0346012B49D07B68D5
:1046EC009B6B694A5A637B689B6B1846FEF7AAF969
:1046FC000346002B3DD07B689B6B5B6B7A68926B9F
:10470C001046984735E07B685B6B1B685B689AB218
:10471C007B685A857B685B8D9BB2002B05D07B68D0
:10472C001B6C43F004027B681A647B681B685A6834
:10473C007B681B6822F400625A607B685B6B1846CE
:10474C00FEF7FEFA0346012B14D07B685B6B4E4AD6
:10475C005A637B685B6B1846FEF774F90346002BB3
:10476C0008D07B685B6B5B6B7A68526B1046984722
:10477C0000E000BF7B685B8D9BB2002B3ED07B685A
:10478C001B685B6903F00403042B12D17B681B6864
:10479C001A697B685B6AD2B21A707B685B6A5A1CB6
:1047AC007B685A627B685B8D9BB2013B9AB27B68DB
:1047BC005A857B681B685B6903F04003402B12D160
:1047CC007B681B681A697B685B6AD2B21A707B685B
:1047DC005B6A5A1C7B685A627B685B8D9BB2013B9F
:1047EC009AB27B685A857B685B8D9BB2002B05D097
:1047FC007B681B6C43F004027B681A647B681B6C3F
:10480C00002B03D0786800F0B7F839E0FB7B2A2B3B
:10481C0009D17B6800221A637B68282283F83D202B
:10482C007868FFF710F87B6893F83D30DBB2282BE3
:10483C0011D17B68154ADA627B6800221A637B68A7
:10484C00202283F83D207B68002283F83E20786884
:10485C00FFF70FF814E07B681B6B222B02D0FB7B5D
:10486C00222B0DD17B6800221A637B68202283F8EF
:10487C003D207B68002283F83E207868FEF7E3FF3A
:10488C0000BF1037BD4680BDE94B00080000FFFF9C
:10489C0080B584B000AF78607B6893F83D30FB73D3
:1048AC007B68DB6ABB60BB68082B02D0BB68202B23
:1048BC0029D1FB7B282B26D17B682E4ADA627B68B8
:1048CC001B685A687B681B6822F4E0625A607B683C
:1048DC001B686FF480625A617B681B681A687B687E
:1048EC001B6822F480621A607B6800221A637B6862
:1048FC00202283F83D207B68002283F83E207868D4
:10490C00FEF7B7FF31E0FB7B212B29D17B68194ADD
:10491C00DA627B6821221A637B68202283F83D20AF
:10492C007B68002283F83E207B681B685A687B6892
:10493C001B6822F4E0625A607B681B686FF480622B
:10494C005A617B681B681A687B681B6822F480625A
:10495C001A607868FEF728FD7868FEF76BFF04E0B4
:10496C007B681B686FF480625A6100BF1037BD46CC
:10497C0080BD00BF0000FFFF80B584B000AF786041
:10498C007B6893F83D30FB737B6893F83E30BB73C8
:10499C00BB7B102B02D0BB7B402B0AD1FB7B222B89
:1049AC0007D17B681B681A687B681B6822F400625D
:1049BC001A60FB7B03F02803282B07D17B680022AD
:1049CC001A637B68282283F83D2015E07B681B68FE
:1049DC005B6803F40063B3F5006F0AD0FB7B602BBC
:1049EC0007D07B68202283F83D207B68002283F867
:1049FC003E207B6800221A637B681B685B6803F4AB
:104A0C000063B3F5006F62D17B681B685A687B68E2
:104A1C001B6822F400625A607B685B6B93F8213050
:104A2C00DBB2012B20D07B685B6B6A4A5A637B68D4
:104A3C005B6B1846FEF706F80346002B00F08980E6
:104A4C007B681B681A687B681B6822F001021A607D
:104A5C007B68202283F83D207B685B6B5B6B7A68FC
:104A6C00526B1046984774E07B689B6B594A5A63AB
:104A7C007B689B6B1846FDF7E5FF0346002B68D05F
:104A8C007B681B685B6903F04003402B0BD17B6890
:104A9C001B681A697B685B6AD2B21A707B685B6AA6
:104AAC005A1C7B685A627B681B681A687B681B6897
:104ABC0022F001021A607B68202283F83D207B687B
:104ACC009B6B5B6B7A68926B1046984741E07B68F6
:104ADC0093F83D30DBB2602B25D17B68202283F824
:104AEC003D207B6800221A647B681B685B6903F0BD
:104AFC004003402B0BD17B681B681A697B685B6A8F
:104B0C00D2B21A707B685B6A5A1C7B685A627B68EB
:104B1C001B681A687B681B6822F001021A607868AF
:104B2C00FEF7CBFE15E07B681B685B6903F0400366
:104B3C00402B0BD17B681B681A697B685B6AD2B20D
:104B4C001A707B685B6A5A1C7B685A627868FEF73D
:104B5C00ABFE7B681B6CBB60BB6803F00103002BD6
:104B6C000ED1BB6803F00203002B09D1BB6803F024
:104B7C000403002B04D1BB6803F00803002B07D0FF
:104B8C007B681B685A687B681B6822F4E0625A6079
:104B9C007B6893F83D30FB737B681B6C03F004035C
:104BAC00042B13D1FB7B282B10D17B680A4ADA62C9
:104BBC007B6800221A637B68202283F83D207B6887
:104BCC00002283F83E207868FEF753FE00BF1037B2
:104BDC00BD4680BDE94B00080000FFFF80B586B0E4
:104BEC0000AF78600023FB607B685B6A7B617B694C
:104BFC0093F83D30FB744B4B1B68DB084A4AA2FB15
:104C0C0003231A0A13469B001344DA00D31AFB60E1
:104C1C00FB68002B06D17B691B6C43F020027B697F
:104C2C001A640AE0FB68013BFB607B691B681B682C
:104C3C0003F40073B3F5007FEAD07B695B6B002B48
:104C4C0003D07B695B6B00229A627B699B6B002BA8
:104C5C0003D07B699B6B00229A627B691B681A6884
:104C6C007B691B6822F480621A607B6900225A857A
:104C7C007B695B6B002B03D07B695B6B00225A63F7
:104C8C007B699B6B002B03D07B699B6B00225A6367
:104C9C007B691B681A687B691B6822F001021A6029
:104CAC007B6993F83D30DBB2602B0ED17B692022FF
:104CBC0083F83D207B69002283F83E207B6900222B
:104CCC001A647869FEF7F9FD27E0FB7C03F02803F2
:104CDC00282B17D17B691B681A687B691B6842F00B
:104CEC0001021A607B691B681A687B691B6842F4B5
:104CFC0080621A607B6900221A637B69282283F820
:104D0C003D2007E07B69202283F83D207B6900224F
:104D1C0083F83E207869FEF7C7FD00BF1837BD4603
:104D2C0080BD00BF3800002089B5F81480B485B070
:104D3C0000AF78600023FB60134B1B68DB08134A41
:104D4C00A2FB03231A0A13469B001344FB60FB6867
:104D5C00013BFB60FB68002B07D17B681B6C43F0AD
:104D6C0020027B681A64012308E07B681B681B68BF
:104D7C0003F40073B3F5007FE9D000231846143711
:104D8C00BD4680BC704700BF3800002089B5F814C0
:104D9C0080B483B000AF78607B68DB6AB3F52A0F10
:104DAC0003D17B680122DA6207E07B68DB6AB3F12E
:104DBC002A4F02D17B680822DA6200BF0C37BD464D
:104DCC0080BC704780B586B000AF78607B68002BE4
:104DDC0001D1012372E27B681B6803F00103002BF5
:104DEC0000F08780924B5B6803F00C03042B0CD013
:104DFC008F4B5B6803F00C03082B12D18C4B5B6858
:104E0C0003F48033B3F5803F0BD1894B1B6803F45B
:104E1C000033002B6CD07B685B68002B68D10123BE
:104E2C004CE27B685B68B3F5803F06D1804B1B6816
:104E3C007F4A43F4803313602EE07B685B68002B61
:104E4C000CD17B4B1B687A4A23F480331360784B6C
:104E5C001B68774A23F4802313601DE07B685B6832
:104E6C00B3F5A02F0CD1724B1B68714A43F480230D
:104E7C0013606F4B1B686E4A43F4803313600BE076
:104E8C006B4B1B686A4A23F480331360684B1B68B6
:104E9C00674A23F4802313607B685B68002B13D074
:104EAC00FDF79EFB386108E0FDF79AFB02463B6973
:104EBC00D31A642B01D9032300E25D4B1B6803F466
:104ECC000033002BF0D014E0FDF78AFB386108E0CA
:104EDC00FDF786FB02463B69D31A642B01D90323E9
:104EEC00ECE1534B1B6803F40033002BF0D100E0D2
:104EFC0000BF7B681B6803F00203002B63D04C4B94
:104F0C005B6803F00C03002B0BD0494B5B6803F080
:104F1C000C03082B1CD1464B5B6803F48033002B2D
:104F2C0016D1434B1B6803F00203002B05D07B68A2
:104F3C001B69012B01D00123C0E13D4B1B6823F001
:104F4C00F8027B685B69DB00394913430B603AE07C
:104F5C007B681B69002B20D0364B01221A60FDF7B1
:104F6C003FFB386108E0FDF73BFB02463B69D31A77
:104F7C00022B01D90323A1E12D4B1B6803F0020383
:104F8C00002BF0D02A4B1B6823F0F8027B685B697E
:104F9C00DB00274913430B6015E0264B00221A60F7
:104FAC00FDF71EFB386108E0FDF71AFB02463B6972
:104FBC00D31A022B01D9032380E11D4B1B6803F08C
:104FCC000203002BF0D17B681B6803F00803002B55
:104FDC003AD07B689B69002B19D0174B01221A60C1
:104FEC00FDF7FEFA386108E0FDF7FAFA02463B6974
:104FFC00D31A022B01D9032360E10D4B5B6A03F03A
:10500C000203002BF0D0012000F0CEFA1CE00A4B7A
:10501C0000221A60FDF7E4FA38610FE0FDF7E0FAC0
:10502C0002463B69D31A022B08D9032346E100BF81
:10503C00001002400000424280044242924B5B6AE4
:10504C0003F00203002BE9D17B681B6803F0040317
:10505C00002B00F0A6800023FB758B4BDB6903F063
:10506C008053002B0DD1884BDB69874A43F080536A
:10507C00D361854BDB6903F08053BB60BB680123B4
:10508C00FB75824B1B6803F48073002B18D17F4B8C
:10509C001B687E4A43F480731360FDF7A1FA3861F4
:1050AC0008E0FDF79DFA02463B69D31A642B01D93F
:1050BC00032303E1754B1B6803F48073002BF0D0C2
:1050CC007B68DB68012B06D16F4B1B6A6E4A43F081
:1050DC00010313622DE07B68DB68002B0CD16A4B5B
:1050EC001B6A694A23F001031362674B1B6A664A09
:1050FC0023F0040313621CE07B68DB68052B0CD1E6
:10510C00614B1B6A604A43F0040313625E4B1B6ADB
:10511C005D4A43F0010313620BE05B4B1B6A5A4A76
:10512C0023F001031362584B1B6A574A23F0040304
:10513C0013627B68DB68002B15D0FDF751FA3861E0
:10514C000AE0FDF74DFA02463B69D31A41F2883268
:10515C00934201D90323B1E04B4B1B6A03F00203CA
:10516C00002BEED014E0FDF73BFA38610AE0FDF7B6
:10517C0037FA02463B69D31A41F28832934201D97D
:10518C0003239BE0404B1B6A03F00203002BEED180
:10519C00FB7D012B05D13C4BDB693B4A23F0805353
:1051AC00D3617B68DB69002B00F08780364B5B6832
:1051BC0003F00C03082B61D07B68DB69022B46D112
:1051CC00334B00221A60FDF70BFA386108E0FDF74B
:1051DC0007FA02463B69D31A022B01D903236DE06F
:1051EC00294B1B6803F00073002BF0D17B681B6A02
:1051FC00B3F5803F08D1244B5B6823F400327B6805
:10520C009B68214913434B601F4B5B6823F474125A
:10521C007B68196A7B685B6A0B431B4913434B60C1
:10522C001B4B01221A60FDF7DBF9386108E0FDF732
:10523C00D7F902463B69D31A022B01D903233DE06F
:10524C00114B1B6803F00073002BF0D035E0104BB2
:10525C0000221A60FDF7C4F9386108E0FDF7C0F9C7
:10526C0002463B69D31A022B01D9032326E0064BD5
:10527C001B6803F00073002BF0D11EE07B68DB6928
:10528C00012B07D1012319E00010024000700040EF
:10529C00600042420B4B5B68FB60FB6803F480329E
:1052AC007B681B6A9A4206D1FB6803F470127B6818
:1052BC005B6A9A4201D0012300E00023184618379C
:1052CC00BD4680BD0010024080B584B000AF786050
:1052DC0039607B68002B01D10123D0E06A4B1B683D
:1052EC0003F007033A689A4210D9674B1B6823F006
:1052FC00070265493B6813430B60634B1B6803F063
:10530C0007033A689A4201D00123B8E07B681B6816
:10531C0003F00203002B20D07B681B6803F004030E
:10532C00002B05D0594B5B68584A43F4E06353603B
:10533C007B681B6803F00803002B05D0534B5B689C
:10534C00524A43F460535360504B5B6823F0F002B5
:10535C007B689B684D4913434B607B681B6803F06B
:10536C000103002B40D07B685B68012B07D1474BB6
:10537C001B6803F40033002B15D101237FE07B68FD
:10538C005B68022B07D1414B1B6803F00073002BA9
:10539C0009D1012373E03D4B1B6803F00203002B82
:1053AC0001D101236BE0394B5B6823F003027B686E
:1053BC005B68364913434B60FDF712F9F8600AE05D
:1053CC00FDF70EF90246FB68D31A41F2883293427C
:1053DC0001D9032353E02D4B5B6803F00C027B686F
:1053EC005B689B009A42EBD1274B1B6803F00703C9
:1053FC003A689A4210D2244B1B6823F007022249C8
:10540C003B6813430B60204B1B6803F007033A689F
:10541C009A4201D0012332E07B681B6803F004033D
:10542C00002B08D0194B5B6823F4E0627B68DB68C7
:10543C00164913434B607B681B6803F00803002B71
:10544C0009D0124B5B6823F460527B681B69DB004C
:10545C000E4913434B6000F021F802460B4B5B687E
:10546C001B0903F00F030A49CB5C22FA03F3094A28
:10547C001360094B1B681846FDF770F8002318469B
:10548C001037BD4680BD00BF002002400010024016
:10549C0070900008380000203C00002080B487B0D9
:1054AC0000AF0023FB600023BB6000237B61002363
:1054BC007B6000233B611E4B5B68FB60FB6803F069
:1054CC000C03042B02D0082B03D027E0194B3B61B3
:1054DC0027E0FB689B0C03F00F03174AD35C7B603F
:1054EC00FB6803F48033002B10D0114B5B685B0C12
:1054FC0003F00103114AD35CBB607B680D4A03FBCC
:10550C0002F2BB68B2FBF3F37B6104E07B680C4AEC
:10551C0002FB03F37B617B693B6102E0054B3B6162
:10552C0000BF3B6918461C37BD4680BC704700BFA6
:10553C000010024000127A00889000089890000831
:10554C0000093D0080B400AF024B1B681846BD46F5
:10555C0080BC70473800002080B500AFFFF7F2FF29
:10556C000246054B5B681B0A03F007030349CB5C3F
:10557C0022FA03F3184680BD001002408090000808
:10558C0080B500AFFFF7DEFF0246054B5B68DB0A18
:10559C0003F007030349CB5C22FA03F3184680BDE2
:1055AC00001002408090000880B485B000AF786095
:1055BC000A4B1B680A4AA2FB03235B0A7A6802FBAC
:1055CC0003F3FB6000BFFB685A1EFA60002BF9D195
:1055DC0000BF00BF1437BD4680BC704738000020A8
:1055EC00D34D621080B582B000AF78607B68002B21
:1055FC0001D1012376E07B685B6A002B08D17B68C4
:10560C005B68B3F5827F09D07B680022DA6105E024
:10561C007B6800221A617B6800225A617B68002239
:10562C009A627B6893F85130DBB2002B06D17B6811
:10563C00002283F850207868FCF7FEFA7B6802227F
:10564C0083F851207B681B681A687B681B6822F002
:10565C0040021A607B685B6803F482727B689B680B
:10566C0003F404431A437B68DB6803F400631A43B6
:10567C007B681B6903F002031A437B685B6903F0C8
:10568C0001031A437B689B6903F400731A437B681C
:10569C00DB6903F038031A437B681B6A03F0800351
:1056AC0042EA03017B689B6A03F400527B681B6827
:1056BC000A431A607B689B691A0C7B681B6802F0B2
:1056CC0004025A607B681B68DA697B681B6822F4E9
:1056DC000062DA617B6800225A657B68012283F8DC
:1056EC005120002318460837BD4680BD80B58AB0CE
:1056FC0000AFF860B9607A607B8001237B62FCF7B5
:10570C006FFF3862FB6893F85130FB77FB685B687E
:10571C00BB617B88FB82FB7F012B0CD0BB69B3F593
:10572C00827F06D1FB689B68002B02D1FB7F042B88
:10573C0001D002237FE1BB68002B05D07B68002BD6
:10574C0002D07B88002B01D1012374E1FB6893F814
:10575C005030012B01D102236DE1FB68012283F84B
:10576C005020FB6893F85130DBB2042B03D0FB685C
:10577C00052283F85120FB6800225A65FB687A6881
:10578C009A63FB687A88DA87FB687A889A87FB6861
:10579C00BA681A63FB687A88DA86FB687A889A8614
:1057AC00FB6800221A64FB6800225A64FB681B68C1
:1057BC001B6803F04003402B07D0FB681B681A687A
:1057CC00FB681B6842F040021A60FB68DB68B3F5AB
:1057DC00006F7ED1FB685B68002B02D0FB8A012B2B
:1057EC006CD1FB681B6B1A88FB681B68DA60FB6862
:1057FC001B6B9A1CFB681A63FB68DB8E9BB2013B2C
:10580C009AB2FB68DA8659E0FB681B689B6803F068
:10581C000203022B1BD1FB68DB8E9BB2002B16D034
:10582C007B6A012B13D1FB681B6B1A88FB681B6806
:10583C00DA60FB681B6B9A1CFB681A63FB68DB8ED7
:10584C009BB2013B9AB2FB68DA8600237B62FB6851
:10585C001B689B6803F00103012B19D1FB68DB8FDC
:10586C009BB2002B14D0FB681B68DA68FB689B6B3F
:10587C0092B21A80FB689B6B9A1CFB689A63FB685C
:10588C00DB8F9BB2013B9AB2FB68DA8701237B6208
:10589C00FCF7A6FE02463B6AD31A3A6B9A420DD825
:1058AC003B6BB3F1FF3F09D0FB68012283F8512019
:1058BC00FB68002283F850200323BCE0FB68DB8EDE
:1058CC009BB2002BA0D1FB68DB8F9BB2002B9BD132
:1058DC0082E0FB685B68002B02D0FB8A012B71D144
:1058EC00FB681A6BFB681B680C3312781A70FB6828
:1058FC001B6B5A1CFB681A63FB68DB8E9BB2013B6B
:10590C009AB2FB68DA865DE0FB681B689B6803F063
:10591C000203022B1CD1FB68DB8E9BB2002B17D031
:10592C007B6A012B14D1FB681A6BFB681B680C3368
:10593C0012781A70FB681B6B5A1CFB681A63FB68A5
:10594C00DB8E9BB2013B9AB2FB68DA8600237B624A
:10595C00FB681B689B6803F00103012B19D1FB68E2
:10596C00DB8F9BB2002B14D0FB681B68DA68FB68DA
:10597C009B6BD2B21A70FB689B6B5A1CFB689A63C8
:10598C00FB68DB8F9BB2013B9AB2FB68DA87012381
:10599C007B62FCF725FE02463B6AD31A3A6B9A42AD
:1059AC0003D83B6BB3F1FF3F02D13B6B002B09D10A
:1059BC00FB68012283F85120FB68002283F85020F9
:1059CC00032338E0FB68DB8E9BB2002B9CD1FB6879
:1059DC00DB8F9BB2002B97D13A6A396BF86800F0D9
:1059EC0035FD0346002B08D0FB6820225A65FB6866
:1059FC00002283F8502001231DE0FB689B68002BDC
:105A0C000AD100233B61FB681B68DB683B61FB68C8
:105A1C001B689B683B613B69FB68012283F8512042
:105A2C00FB68002283F85020FB685B6D002B01D0D3
:105A3C00012300E0002318462837BD4680BD000036
:105A4C0080B584B000AFF860B9601346FB80FB688A
:105A5C0093F85130DBB2012B01D0022397E0BB68E5
:105A6C00002B02D0FB88002B01D101238FE0FB68B7
:105A7C0093F85030012B01D1022388E0FB680122FE
:105A8C0083F85020FB68032283F85120FB68002226
:105A9C005A65FB68BA681A63FB68FA889A86FB68D1
:105AAC00FA88DA86FB6800229A63FB6800225A6443
:105ABC00FB6800221A64FB6800229A87FB680022AC
:105ACC00DA87FB689B68B3F5004F0FD1FB681B6846
