:020000040800F2
:10000000380A0020050100081B3F00089D31000848
:10001000193F00080B100008C94D0008000000003F
:1000200000000000000000000000000089470008F8
:100030007310000800000000894300088B47000887
:100040001F0100081F0100081F0100081F01000810
:100050001F0100081F0100081F0100081F01000800
:100060001F0100081F0100081F0100081F010008F0
:100070000D100008191000081F01000825100008C5
:10008000311000083D1000081F0100081F01000882
:100090001F0100081F0100081F0100081F010008C0
:1000A0001F010008F14700081F0100081F01000898
:1000B000FD4700081F0100081F010008AD310008BE
:1000C000A13100081F0100081F010008BD440008FD
:1000D0001F010008BD4D00081F0100081F01000896
:1000E0001F0100081F0100081F010008DFF810D0E1
:1000F00000F032FD0048004729510008AFF30080AE
:10010000380A00200648804706480047FEE7FEE719
:10011000FEE7FEE7FEE7FEE7FEE7FEE7FEE7FEE7B7
:10012000ED470008ED000008202A04DB203A21FA00
:1001300002F00021704721FA02F3D040C2F1200200
:10014000914008431946704740EA01039B0703D0DA
:1001500009E008C9121F08C0042AFAD203E011F806
:10016000013B00F8013B521EF9D27047D2B201E0C8
:1001700000F8012B491EFBD270470022F6E710B5AC
:1001800013460A4604461946FFF7F0FF204610BD05
:1001900030B505462A460B4612F8010B13F8014B01
:1001A00008B1A042F8D01CB1002802D06D1CF1E7C4
:1001B000284630BD10B5044604E00B7800F8013B3A
:1001C00003B1491C521EF8D2204610BD421C10F843
:1001D000011B0029FBD1801A7047000070B50F4D3C
:1001E00000B92868002412E00A4602E09E4203D0CB
:1001F000521C1378002BF9D1DAB2224305D02BB16F
:1002000024B1002100F8011B04E00446401C0678DC
:10021000002EE9D12860204670BD00005C0000205F
:1002200070B5064604F0FCFD046805460A2200216C
:10023000304600F035FB2C6070BDF0B480EA01025E
:10024000D40F4200B2EB410F02D2024608461146DB
:100250004A0042D0C30DDDB2C1F3C752AD1A202D02
:1002600035DAC1F3160141F4000204B15242C5F17E
:10027000200602FA06F12A411044B3EBD05F23D0E6
:10028000C4B1012DA0EBC35009DCF0BC4FF000421B
:1002900002EAC352DBB200F5000000F042BB4000AE
:1002A00000F1807000EBC350A0F1807040EAD17083
:1002B000490009E0490841EAC071A0EBC35000F5CC
:1002C0000000400800EBC350F0BC00F021BB6142CD
:1002D000012202EB4101001BF6E7F0BC704781F000
:1002E0000041AAE780F00040A7E780EA010210B5CC
:1002F00002F00043400022D04A001FD0010E01EB63
:100300001261C0F35600C2F3560240F4000042F4FA
:100310000002A0FB022000047F39140400D0401C1E
:1003200050EA124001D44000491EC2B20C0604EB50
:10033000D010401C4008802A02D003E0002010BDED
:1003400020F00100002900DA0020184310BD30B46D
:1003500080EA010202F0004530F0004221F0004046
:1003600013D090B1C30DD40DC2F31601C0F3160023
:10037000E41A41F4000140F400027D34914201D3BB
:10038000641C00E04900002C02DA30BC00207047F9
:100390004FF400000023914201D3891A034340081F
:1003A0004FEA4101F7D151B1914202D14FF00041E2
:1003B00005E002D24FF0010101E06FF0010103EB13
:1003C000C450284430BC00F0A3BA420005D0C0F3AA
:1003D000C7525242914201DC0020704700EBC150ED
:1003E00070472DE9FE4F804681EA0300C00F0C469E
:1003F000009021F0004123F00045B8EB0200A94134
:1004000005D24046214690461C460B46024623F044
:100410000040104347D0270DC7F30A00C3F30A5129
:100420000290401A019040286BDAC3F3130040F4A5
:10043000801B0098924620B10023D2EB030A63EBA5
:100440000B0B01985946C0F14002504600F0B9F933
:1004500006460D4650465946019A00F0C1F910EB88
:1004600008006141002487EA115284EAE7731A43C5
:1004700040D0009A62B3019A012A4FEA075215DC74
:10048000001B61EB02014FF0004202EA0752CDE986
:100490000042001C41F5801132462B4600F07EFAE6
:1004A00003B0BDE8F08F40462146F9E7001B61EB41
:1004B0000201001C41F5801300185B412018A2F5D1
:1004C000001747EB030140EAD570B6196D4111E002
:1004D0006D084FEA360645EAC0754FEA0752001B21
:1004E00061EB0201001C41F5801149084FEA300020
:1004F0000019514132462B4603B0BDE8F04F00F0E1
:100500003EBA0098012240000023D0EB020263EBC8
:10051000E073009821464FEAE074B8EB000061EB0D
:100520000401E9E783F000435BE781F0004158E70D
:100530002DE9FE4F81EA030404F0004421F000415C
:1005400000944FF0000B23F0004350EA01045ED00A
:1005500052EA03045BD0C3F30A54C1F30A552C4496
:10056000A4F2F3340194A0FB0254C1F3130141F44B
:100570008011C3F3130343F4801301FB024400FB17
:10058000034E840A970A44EA815447EA8357A4FB3E
:10059000076802958D0A05FB07854FEA932C04FB3B
:1005A0000C542705029D4FEA065847EA1637B5EB6B
:1005B00008056EEB070C870E920E47EA811742EA98
:1005C0008312A7FB0201B6EB0B0164EB00042B0DB9
:1005D00043EA0C335E1844EB1C50DA465146E7FB05
:1005E0000201C5F313044FEA0B3343EA14534FEAF5
:1005F0000432019C43EA0603A4F10C040294009C1B
:10060000CDE900B400F0CAF903B0BDE8F08F0020D6
:100610000146F9E72DE9F04D81EA030404F0004BAF
:1006200021F0004514464FF0000A23F0004150EA43
:10063000050220D054EA01021DD0C5F30A57024634
:10064000C5F31303C1F31300C1F30A5640F4801538
:1006500043F48013A7EB0608101BD64608F2FD38BA
:1006600073EB050002D308F1010801E092185B4129
:10067000B8F1000F03DA00200146BDE8F08D00203C
:100680004FF48011064684460EE0171B73EB0507F6
:1006900005D3121B63EB050306434CEA010C490822
:1006A0004FEA300092185B4150EA0107EDD152EA5F
:1006B000030012D082EA040083EA0501084305D052
:1006C000101BAB4106D20122002306E000224FF0AE
:1006D000004302E06FF0010253101AEB06004CEBEE
:1006E000085110EB0A0041EB0B01BDE8F04D00F0A2
:1006F00046B9C10F80EAE0700844CA07962300217A
:1007000000F00FB90EB5C10F80EAE0700844CA07C7
:10071000002140F233438DE80E000A460B4600F0FC
:100720003DF903B000BD70B5C1F30A5201F00045B8
:100730000024C1F3130140F2FF3341F480119A42C7
:1007400001DA002070BD40F233439A42A2F23342F4
:1007500003DC5242FFF7E8FC00E090402C43F1D06C
:10076000404270BD00F0004230F000400AD0C10DA0
:1007700001F56071C0F3160042EA0151C20840075A
:100780001143704700200146704701F0004330B428
:1007900021F0004150EA010206D00A0DA2F5607274
:1007A000C1F31301002A02DC30BC00207047440F63
:1007B00044EAC104C100E01830BC00EBC25000F0B4
:1007C000A7B8202A04DB203A00FA02F10020704783
:1007D0009140C2F1200320FA03F31943904070477F
:1007E000202A06DBCB17203A41FA02F043EAE073F5
:1007F00006E041FA02F3D040C2F1200291400843E2
:10080000194670470FB4002300B589B00CA90091B8
:100810000B996FF00042CB601E4B06931E4B079363
:100820000423CDE901321D4A089202466B4600209E
:1008300000F046FA09B05DF814FB70B586B00646C4
:100840004FF0FF300091CDE90101002015460C4624
:1008500004903246694604A8FFF7D4FF0246049884
:10086000211825B108B1084600E020462860049808
:1008700000280DD0002A02DD0098884208D0081B0D
:100880000094CDE901043246694604A8FFF7BAFF97
:1008900006B070BDF90E0008170F0008850B0008A0
:1008A0002DE9F04791460F4680460446002614F88D
:1008B000015B2DB100F062F90068405DC007F6D120
:1008C0002B2D02D02D2D18D0641E4A4639462046C5
:1008D00000F032FB27B13968A14201D1C7F800808E
:1008E00071054FF002040BD54042002803DD04F0EF
:1008F00097FA0460A007BDE8F08746F48066E4E755
:100900000028F8DA04F08CFA04606FF00040F2E797
:100910000029A8BF7047401C490008BF20F0010013
:10092000704710B4B0FA80FC00FA0CF050EA0104F1
:1009300004BF10BC704749B1CCF1200421FA04F483
:1009400011FA0CF118BF012121430843A3EB0C015C
:10095000CB1D4FEA00614FEA102042BF002010BCBF
:10096000704700EBC35010440029A4BF10BC70476F
:10097000401C490008BF20F0010010BC704710B5B2
:10098000141E73F1000408DA401C41F100019218B2
:100990005B411A4301D120F0010010BD2DE9F04D5B
:1009A00092469B4611B1B1FA81F202E0B0FA80F2B0
:1009B00020329046FFF705FF04460F4640EA0A0042
:1009C00041EA0B0153465A46084313D0114653EAF5
:1009D000010019D0C8F140025046FFF7A5FB0546BB
:1009E0000E46504659464246FFF7EBFE084305D0F7
:1009F000012004E020463946BDE8F08D0020054383
:100A000046EAE0762C4337430A986305E40AA0EBF4
:100A100008000022FD0A44EA47540A3002D50020AB
:100A20000146E9E7010510196941DDE908450019AA
:100A30006941BDE8F04DA2E72DE9F041054621F0FE
:100A400000400C46284309D0C4F30A5040F2334119
:100A5000884205DD28462146BDE8F0812846FBE7AF
:100A600040F2FE31884210DC0CDB4FEA043040EAF1
:100A7000155050EA053105D0104804F000410143FB
:100A80000020E9E700200146E6E7A0F233404642B5
:100A9000C6F1400228462146FFF793FE07468846E6
:100AA000284621463246FFF73FFB43463A46FFF7CA
:100AB00066FF3246BDE8F041FFF783BE0000F03F1D
:100AC00030B5041E71F1000404DB4FF000444042D5
:100AD00064EB0101141E73F1000405DB1C464FF0AA
:100AE0000043524263EB04038B4208BF824230BD95
:100AF00030B5041E71F1000404DB4FF000444042A5
:100B000064EB0101141E73F1000405DB1C464FF079
:100B10000043524263EB0403994208BF904230BD48
:100B2000002801DBC0F10040002901DBC1F10041D8
:100B3000814202D24FF0004004E04FF0005001D15A
:100B40004FF0C0404FEA2062EFF3008162F31F6173
:100B500081F3008870470000064C074D06E0E0680E
:100B600040F0010394E8070098471034AC42F6D3F4
:100B7000FFF7C0FA7C5800089C58000800487047EE
:100B80007858000810B50446FFF7F8FF0068005DCC
:100B900000F0010010BD00002DE9FF4F087883B080
:100BA0009946FF2805D0491C2D2804D00024002098
:100BB00008E000200BE00124F9E700EB800003EBE4
:100BC0004000491C0B78FF2BF7D104B140420023B1
:100BD0000293147819461D462D2C01D02B2C04D1DC
:100BE000521C2D2C13D000240294AA461478FF2CFA
:100BF0000FD00A25A3FB057801FB05814FF0000CFF
:100C000003FB0C11521CE3194AEB0101EEE701242E
:100C1000EAE7814453EA010002D019F5C87F06DAF9
:100C200003980021C0E9001107B0BDE8F08F00254E
:100C3000AE4E2F46DFF8B882184600F0DAF9CDE95B
:100C40000001B9F1000002DAC9F1000400E0044635
:100C50000023A74A1AEB030B42EB045A12E0E00709
:100C600007D02A46334638464146FFF761FC07461F
:100C700088462A46334610461946FFF759FC054672
:100C80000E466410002CEAD1DDE90001B9F1000F35
:100C90005A46534606DAFFF7BDFC3A464346FFF78D
:100CA000B9FC05E0FFF744FC3A464346FFF740FC39
:100CB000029A0AB181F00041039AC2E90001B3E748
:100CC0002DE9FF4F1F468DB0D7E901464FF0FF38A1
:100CD0002E2045464FF000090B90B9696D1C0E9807
:100CE0008847396A824688470028F6D1BAF1FF3F23
:100CF0000AD024F4D064002E11DDBAF12B0F08D0F5
:100D0000BAF12D0F0BD102E0404611B08DE744F44B
:100D10008064B9696D1C0E9888478246761E6946C4
:100D2000600501D52D2000E02B208DF8000001F199
:100D3000010B0DF1200809E0B9696D1C0E98884778
:100D400082460F9844F40074761E0560002E02DD82
:100D5000BAF1300FF0D00B998A453ED144F08004AF
:100D600006E00F99681CA9F1010944F400740860B9
:100D7000B9696D1C761E0E98884782463028F0D0DF
:100D80002BE00B998A4505D1200603D444F080045A
:100D9000761E18E0504604F063F808B30DF1130115
:100DA000761E44F400748B4508D2AAF130000BF88B
:100DB000010B200607D5A9F1010003E0200602D4AB
:100DC00009F101008146A00502D50F99681C086051
:100DD000B9696D1C0E9888478246002ED1DC53E01D
:100DE000002E51DDBAF1650F02D0BAF1450F4BD19B
:100DF000A00549D5B9696D1C24F44074761E0E987F
:100E000088478246002E0CDD2B2804D0BAF12D0F26
:100E100007D144F48074B9696D1C0E9888478246E6
:100E2000761EE00501D52D2100E02B2108F8011BDD
:100E3000CDF82C8021E00DF12901761E44F40074D8
:100E400088450CD2AAF1300010F0FF0088F80000AD
:100E500002D10B99884509D908F1010806E0E0059F
:100E600001D5244801E042F20F708146B9696D1C3A
:100E70000E98884782460F980560002E04DD504684
:100E800003F0EEFF0028D6D1F9690E988847FF20BD
:100E90008BF8000088F800000020069007904B4671
:100EA0006A4608A906A8FFF777FEA00502D46FF0EE
:100EB00001002AE714F0240F0AD0E00714D1DDE97D
:100EC00006123868031D3B600068C0E900120BE0A1
:100ED000DDE90601FFF759FC0146E00704D1386857
:100EE000021D3A600068016028460EE700001440C9
:100EF0000000F03FF1D8FFFF426842B1016811F8ED
:100F0000013B23B1521EC0E900121846704701216F
:100F1000C160881E704742685AB1C368016843B90E
:100F200083688B4205D0491E521CC0E90012002084
:100F300070474FF0FF3070472DE9F05F8246007830
:100F4000002715468B460AF10104B946302801D026
:100F50009DB113E014F8010B0127782803D058281D
:100F600001D045B10AE00DB1102D07D100271025A1
:100F700014F8010B02E0082500E00A250026B0461F
:100F80000EE005FB080005FB06F1012701EB10460A
:100F90001FFA80F8B6F5803F00D3B94614F8010B6C
:100FA000294600F018F80028EBDABBF1000F05D055
:100FB0000FB1641E00E05446CBF80040B9F1000FB9
:100FC00006D003F02DFF02210160C81EBDE8F09F8E
:100FD00048EA0640FAE73A2800D2303820F02002EA
:100FE000412A01D3A2F13700884201D34FF0FF30EC
:100FF00070470EB540F2334202920022CDE9002242
:101000001346FFF7CBFC03B000BDFEE7014800F03C
:10101000BFB8000020020020014800F0B9B800006D
:1010200064020020014800F0B3B8000080030020F3
:10103000014800F0ADB8000084010020014800F034
:10104000A7B800004001002030B590F840500124BE
:10105000AC40C56B6C60046863604368102B036828
:1010600003D099600068C26030BD9A600068C160BA
:1010700030BD704772B6FEE710B501220649074839
:1010800002F03CF84FF400710548FFF776F8054987
:101090000020087010BD00007400002038030020FC
:1010A000180400204800002010B590F821100022FC
:1010B000022905D00421816380F82020012010BD81
:1010C00001680B6823F00E030B6001680B6823F0C6
:1010D00001030B6090F84030C46B012101FA03F367
:1010E000636080F8211080F82020104610BD0000B9
:1010F00010B590F821100024022903D00421816347
:1011000001243DE001680A6822F00E020A600168CD
:101110000A6822F001020A601A4A0168914201D16C
:10112000012121E0174A1432914201D110211BE024
:10113000144A2832914201D1891515E0114A3C32F6
:10114000914201D189140FE00E4A5032914202D1EE
:101150004FF4803108E00B4A6432914202D14FF4DF
:10116000801101E04FF08071064A083A5160012178
:1011700080F82110002180F82010416B01B18847D0
:10118000204610BD0800024090F821007047000082
:101190002DE9F05FC16B0C6801680B68D0F840C0A6
:1011A000042202FA0CF2494DDFF824A1494E4A4FBD
:1011B000DFF828B1DFF828E122422CD05A072AD5DF
:1011C0000A68920603D40A6822F004020A600168E1
:1011D000A94201D1042219E0514501D1402215E074
:1011E000B14202D14FF4806210E0B94202D14FF413
:1011F00080420BE0594502D14FF4802206E0714550
:1012000002D14FF4800201E04FF080622F4908398B
:101210004A60C16A3BE04FF0020808FA0CF818EA8D
:10122000040F4FF000094FF0010235D05FEA8378D8
:1012300032D50B689B0605D40B6823F00A030B60BC
:1012400080F821200168A94201D1022219E051450C
:1012500001D1202215E0B14202D14FF4007210E01A
:10126000B94202D14FF400520BE0594502D14FF47C
:10127000003206E0714502D14FF4001201E04FF058
:101280000072124908394A6080F82090816A00296A
:101290001AD0BDE8F05F0847082505FA0CF525428D
:1012A00012D01B0710D50B6823F00E030B6090F8CB
:1012B0004010C36B02FA01F15960826380F821206B
:1012C00080F82090016BE2E7BDE8F09F0800024043
:1012D0001C0002403000024044000240580002401E
:1012E0006C00024030B528B308C8134914221944D1
:1012F000B1FBF2F18900C16310498163022141779A
:101300001A6843F6F0718A43D0E900142143D0E90A
:1013100002452C43214304692143446921438469E4
:101320002143114319600021416301224277017773
:10133000084630BD012030BDF8FFFDBF000002406F
:1013400070B5044690F82000002501280CD001203B
:1013500084F8200094F821600020012E06D084F843
:1013600020000225284670BD022070BD022684F8A8
:101370002160A0632068066826F00106066020460A
:10138000FFF762FEE06A00282068016802D041F0A1
:101390000E0106E021F0040101602068016841F0BF
:1013A0000A0101602068016841F001010160D9E78C
:1013B00070B5044600F00CF90546601C02D00448E4
:1013C0000078044400F004F9401BA042FAD370BD39
:1013D0004C0000202DE9F84FDFF8B8910024A9F166
:1013E000040B23460F2709F1040AABF1040EC9E0F0
:1013F0000125A5402A40AA427DD1674ED1F804C0FC
:10140000ACEB0608B44532D014DCBCF1030F3AD083
:1014100009DCBCF1000F2AD0BCF1010F1CD0BCF1DB
:10142000020F31D11DE0BCF1110F17D0BCF1120F2A
:101430002AD119E0B8F5881F19D006DCB8F5803F2D
:1014400015D0B8F5801F1FD111E0B8F5001F0ED0E0
:10145000B8F5041F18D10AE0CB6815E0CB681B1D56
:1014600012E0CB6808330FE0CB680C330CE08B68DC
:101470002BB1012B4FF0080303D0456104E0042396
:1014800002E0056100E00023FF2A01D8064601E0E2
:1014900000F104064FEA840501D9A5F12005D6F82C
:1014A000008007FA05FC28EA0C0803FA05F548EA6B
:1014B0000508C6F800804D68ED0062D5374DAE696D
:1014C00046F00106AE61AD6924F0030605F00105A2
:1014D0000095334D06EB050CDCF80850A607360FD7
:1014E00007FA06F825EA0805DFF8B880404503D179
:1014F0004FF0000817E044E0DFF8AC80404502D12F
:101500004FF001080FE0DFF8A480404502D14FF012
:10151000020808E0DFF89880404502D14FF0030848
:1015200001E04FF0040808FA06F848EA0508CCF88C
:1015300008804D68D9F80060ED024D4601D516438C
:1015400000E096432E604D68DAF80060AD02554623
:1015500001D5164300E096432E604D68DBF800602D
:10156000AD035D4601D5164300E096432E604D68FD
:10157000DEF80060ED03754601D5164300E09643A2
:101580002E60641C0D682A46E5407FF431AFBDE84B
:10159000F88F000008040140000011100010024004
:1015A0000000014000080140000C01400010014013
:1015B00000140140C26821EA02030A4043EA0241E2
:1015C000016170470AB1016170470904FBE700003F
:1015D00001488068704700004C0000207047704749
:1015E0002DE9F041016804464A694E6890F83E00D2
:1015F0000025D743FA050BD4F243D20508D46FF483
:10160000807201254A6121680A6842F400420A603A
:10161000B90508D4F143C90505D422686FF40071F7
:1016200045F002055161790525D4F143C90522D45D
:10163000638D94F83D10226B202808D13BB92129F5
:1016400010D029290ED0282901D1212A0AD02268B8
:101650006FF48061516145F00405102806D04028E0
:1016600004D008E0204602F0A9F904E020680168EF
:1016700041F400710160380508D4F043C00505D479
:1016800021686FF4006045F008054861002D07D01F
:10169000206C284320642046BDE8F04101F0F2BDF3
:1016A000BDE8F0812DE9F047026800215368C66A61
:1016B00090F83E4090F83D50102C12D0402C10D0A5
:1016C000046C002C7DD05469E443A6077AD4DE4331
:1016D000B60577D4036C03B19169BDE8F04702F019
:1016E00049B9976951694FF42A0CC9435FEAC17837
:1016F0004FF02A4904D066452AD04E4528D010E044
:10170000DE43B6050DD4C16A614501D1012103E074
:10171000C16A494501D10821C162BDE8F04702F024
:101720008FB80E0716D4DE43B60513D4416CC9B288
:101730001161416B09B1896A29B9816B002907D010
:10174000896A002904D00068416841F40061416061
:10175000BDE8F0878E0706D4DE43B60503D4BDE8A6
:10176000F04701F0C1BFFE43526876074FEA0252CC
:101770001DD4002AECDB0A0608D4DA43520505D44E
:10178000490705D5BDE8F04701F052BF4907DFD44E
:10179000D9438905DCD4212D05D0402CD8D1BDE812
:1017A000F04702F093B8BDE8F04701F0FFBE002A11
:1017B000CEDB4A060BD4DA43520508D4490708D5D4
:1017C00001E00DE00EE0BDE8F04701F075BE49070D
:1017D000BED4D9438905BBD4BDE8F04701F0FEBDB6
:1017E000916970E7E10606D4D943890503D4BDE8C1
:1017F000F04702F02BB92821212D27D0292D25D003
:10180000650655D4DD436D0552D4640752D590F872
:101810003D30448D002C9BD01269446A2270426A8C
:10182000521C4262428D521E4285428D002A8FD147
:101830002A2B8DD10268536823F4806353602222DF
:10184000026380F83D1000F07DF981E7250623D47E
:10185000DD436D0520D4640720D590F83D30448DDC
:10186000002CF2D0446A24781461426A521C42620D
:10187000428D521E4285428D002AE6D1292BE4D1A9
:101880000268536823F4806353602122026380F866
:101890003D1000F058F95BE76107D6D4D9438905BC
:1018A000D3D4418D0029D0D0416A097811610AE072
:1018B0006107CAD4D9438905C7D4418D0029C4D052
:1018C0001169426A1170416A491C4162418D491E89
:1018D00041853DE77047000070B5040025D094F8BD
:1018E0003D00002520B984F83C50204600F0BEF8A9
:1018F000242084F83D002068016821F00101016086
:101900002068016841F4004101602068016821F409
:101910000041016000F046FA4D4A6168914201D8E9
:101920004C4900E04C49884201D2012070BD4B492E
:101930002368B0FBF1F15E6826F03F060E435E605F
:101940006368934206D94FF4967359434FF47A7300
:10195000B1FBF3F12368491C1E6A26F03F063143B0
:1019600019626168914210D84900401EB0FBF1F243
:10197000521CC2F30B02042A01D2042022E0B0FB65
:10198000F1F0401CC0F30B001CE0A268F2B301EBC5
:10199000C10303EB0116431EB3FBF6F35B1C43F4D8
:1019A00080431B0549D092B301EBC10202EB011148
:1019B000401EB0FBF1F0401CC0F30B0040F480402F
:1019C00040F400402168CA694CF6FF739A43104303
:1019D000C861D4E9071001432068026822F0C00200
:1019E00011430160D4E9030101432068826848F291
:1019F000FF339A4311438160D4E90501084321680C
:101A0000CA6822F0FF021043C86001E00EE016E051
:101A10002068016841F0010101602564202084F8FC
:101A20003D00256384F83E50002070BD01EB410667
:101A3000431EB3FBF6F35B1CB3E70120C2E701EBE7
:101A40004101401EB0FBF1F0401CC0F30B00B7E7B2
:101A5000A086010080841E0000093D0040420F0066
:101A6000704770477047704770470000F0B585B009
:101A700000240646009401940294039400682C49C3
:101A8000884252D12B4DA86940F00800A861A8698E
:101A9000694600F008000490C020009012200190D8
:101AA000032003902448FFF795FCE86940F40010F8
:101AB000E861E869224D00F4001004901F48C5E970
:101AC00000048027C5E902472C616C61AC6128469F
:101AD000EC61FFF707FC08B1FFF7CCFAB5636E6263
:101AE000174D16484435143801C5102091C51448C7
:101AF00045F8104944306C61AC61EC61FFF7F2FBD2
:101B000008B1FFF7B7FA7563002211461F206E6215
:101B100000F080F81F2000F06FF80022114620200E
:101B200000F078F8202000F067F805B0F0BD000064
:101B30000054004000100240000C014080000240B0
:101B400040010020704770470248816802781144C4
:101B5000816070474C000020074810B5016841F0D3
:101B600010010160032000F075F80F2000F006F866
:101B700000F024F8002010BD0020024070B50D4D8B
:101B800004464FF47A712878B1FBF0F00A490968ED
:101B9000B1FBF0F000F008FE48B9102C07D200228B
:101BA0002146501E00F036F800206C6070BD012008
:101BB00070BD00004C000020580000200C4808B503
:101BC000816941F001018161816901F001010091A8
:101BD000C16941F08051C161C06900F0805000903E
:101BE0000448416821F0E06141F00071416008BDA6
:101BF0000010024000000140002809DB00F01F0235
:101C0000012191404009800000F1E020C0F800115E
:101C100070470000F0B40E4B1B680C46C3F3022360
:101C2000C3F10705042D00D90425191D072901D288
:101C3000002300E0DB1E012606FA05F1491E2140C3
:101C400099409E40761E16403143F0BC03F0D8B850
:101C50000CED00E0064900F0070208684FF6FF03AC
:101C6000184040EA0220034A104308607047000011
:101C70000CED00E00000FA052DE9F0470F460500E5
:101C800061D0434E306800F00700B84209D2306896
:101C900020F0070038433060306800F00700B84299
:101CA00051D128683B4C810712D5400703D56068A5
:101CB00040F4E06060602878000703D5606840F475
:101CC000605060606068A96820F0F00008436060C0
:101CD0002878C00728D06868012810D02168022819
:101CE00010D0890700292EDA616821F00301014331
:101CF0006160FFF76DFC804641F288390DE0216894
:101D00008903EFE78901EDE7FFF762FCA0EB08012B
:101D1000494502D90320BDE8F0876068696800F092
:101D20000C00B0EB810FEFD1306800F00700B84233
:101D30000BD9306820F0070038433060306800F07D
:101D40000700B84201D00120E5E72878400705D513
:101D50006068E96820F4E060084360602878000764
:101D600006D56068296920F4605040EAC1006060CF
:101D700000F038F86168084AC1F30311515CC840AB
:101D80000649086006480068FFF7F8FE0020C2E731
:101D90000020024000100240DC57000858000020DC
:101DA000500000200448054900684968044AC1F30E
:101DB0000221515CC84070475800002000100240CA
:101DC000EC5700080448054900684968044AC1F313
:101DD000C221515CC84070475800002000100240EA
:101DE000EC5700080E4A51680E4801F00C03042B12
:101DF00011D0082B0FD10C48C1F38343C903C05C39
:101E00000AD55168084AC1F34041921E515C054A07
:101E10005043B0FBF1F0704704494843704700005D
:101E20000010024000127A00CC57000800093D0063
:101E30002DE9F84F040070D02078C04DC00749D07C
:101E40006868C0F38100012807D06868C0F381008A
:101E5000022809D16868C00306D52868800339D5EF
:101E600060680028E7D035E06068B0F5803F0BD0AF
:101E700010B1B0F5A02F11D0286820F48030286070
:101E8000286820F4802002E0286840F48030286030
:101E9000606890B1FFF79CFB06460AE0286840F4B2
:101EA00080202860F0E700BFFFF792FB801B6428CA
:101EB00073D828688003F7D50CE0FFF789FB064646
:101EC00005E000BFFFF784FB801B6428F0D828687A
:101ED0008003F7D420789A4E80074FF001094FF025
:101EE000000839D5686810F00C0F07D06868C0F397
:101EF0008100022809D16868C00306D428688007D9
:101F000014D52069012808D110E02069B0B1C6F8C5
:101F10000090FFF75DFB074605E00AE1FFF758FB7D
:101F2000C01B0228C4D828688007F7D528686169D3
:101F300020F0F80040EAC10028600DE0C6F80080FB
:101F4000FFF746FB074604E0FFF742FBC01B0228F1
:101F500023D828688007F7D4207800072CD5794843
:101F6000A169D9B1C0F80090FFF732FB074604E041
:101F7000FFF72EFBC01B02280FD8686A8007F7D531
:101F800071484FF4FA510068B0FBF1F0009000BFC7
:101F90000098411E0091FAD20EE080E0C0F8008067
:101FA000FFF716FB074604E0FFF712FBC01B0228F1
:101FB00075D8686A8007F7D42078400760D5E8694B
:101FC0000027C00008D4E86940F08050E861E86963
:101FD000012700F0805000905C480168C90513D4C7
:101FE0000168834641F480710160FFF7F1FA82468F
:101FF00006E000BFFFF7ECFAA0EB0A0064284ED819
:10200000DBF80000C005F5D5E06801280AD008B16A
:10201000052813D0286A20F001002862286A20F0E1
:10202000040002E0286A40F001002862E06841F202
:10203000883B98B1FFF7CCFA82460BE0286A40F063
:1020400004002862EEE700BFFFF7C2FAA0EB0A0126
:1020500059455AD8286A8007F6D50CE0FFF7B8FA38
:10206000824605E0FFF7B4FAA0EB0A0159454CD8C7
:10207000286A8007F6D41FB1E86920F08050E86133
:10208000E06988B36968C1F38101022944D002285C
:10209000C6F8608004D0FFF79BFA044638E034E0CD
:1020A000FFF796FA074604E0FFF792FAC01B0228F2
:1020B0002BD828688001F7D4206AB0F5803F05D17D
:1020C0006868A16820F4003008436860D4E908011A
:1020D0000843696821F4741108436860C6F8609089
:1020E000FFF776FA044606E025E000BFFFF770FA36
:1020F000001B022809D828688001F7D51BE000BF23
:10210000FFF766FA001B022802D90320BDE8F88F0A
:1021100028688001F4D40EE00128F7D06868226AAC
:1021200000F48031914204D1616A00F47010884259
:1021300001D00120EAE70020E8E70000001002409B
:1021400000004242800442425800002000700040DB
:10215000704790F85100704738B5044600684268EF
:102160008168C9434B0606D5CB0704D1D3435B0630
:1021700001D4216C05E08B0708D4D3431B0605D49A
:10218000616C01B02046BDE8304008478B0601D5A0
:102190004B0646D4D3439B0643D44B060AD494F84B
:1021A0005130032B3ED0636D43F004036365C36875
:1021B00083680093890609D4616D41F0010161656E
:1021C00081680091016821F040010160606D002884
:1021D00027D02068416821F0E0014160012084F8A7
:1021E0005100900722D02068416821F0030141602E
:1021F000104DE06C40B14563E06CFEF779FF18B11B
:10220000606D40F040006065A06C002809D0456317
:10221000A06CFEF76DFF002803D0606D40F0400019
:10222000606538BDC1688068009038BD2046FFF702
:102230008FFF38BDC944000870B5040009D0606A3A
:10224000002540B125616561A56294F8510040B157
:102250000CE0012070BD6068B0F5827FF4D0E561CC
:10226000F2E784F85050204600F040F8022084F84D
:1022700051002068016821F040010160A088218997
:1022800000F4827001F404410843A18901F4006163
:102290000843217C01F002010843217D01F0010186
:1022A0000843218B01F400710843217F01F03801BC
:1022B000084394F8201001F080010843218D01F4B7
:1022C0000051084321680860A069042101EA104018
:1022D000216848602068C16921F40061C1616565B9
:1022E000012084F85100002070BD00002DE9F0416C
:1022F00086B000240646009401940294039400687A
:102300002E49884257D12E48816941F4805181611C
:10231000816901F480510491816941F00401816176
:102320008069284D00F004000490A0200090022055
:1023300001900320039069462846FFF74BF84020A0
:10234000CDE90004694628460294FFF743F81F4D83
:102350001D484FF08008C5E90004C5E902482C611A
:102360004FF400576C61C5E906472846FEF7BAFFEF
:1023700008B1FEF77FFEF5646E62144D12484435D5
:10238000143001C51020A5E81101104845F8104986
:1023900044306C61C5E90647FEF7A4FF08B1FEF7BB
:1023A00069FEB5640022114623206E62FFF732FCFD
:1023B0002320FFF721FC06B0BDE8F081003001408A
:1023C00000100240000801401C00024020020020D2
:1023D000704770472DE9FF4F81B01D469346044674
:1023E0004FF001090E9EFFF7F3F8074694F85100ED
:1023F0006168012806D0B1F5827F3CD1A168C9BBD4
:10240000042838D10298002871D0BBF1000FFBD00E
:10241000002DF9D094F8500001282CD04FF0010A7B
:1024200084F850A094F85100042802D0052084F8C4
:1024300051004FF00008C4F85480C4F838B0E58764
:10244000A58702992163E586A586C4F84080C4F873
:10245000448020680168490603D4016841F04001C6
:102460000160E068B0F5006F606808D0F0B3012D3E
:1024700049D081E0FFE7022005B0BDE8F08F08B148
:10248000012D39D1206B21680088C860206B801C29
:102490002063E08E401EE0862EE020688168890778
:1024A0000FD5E18E69B1B9F1010F0AD1216B09880D
:1024B000C160206B801C2063E08E401EE0864FF0E0
:1024C000000920688168C9070CD0E18F51B1C0684C
:1024D000A16B0880A06B801CA063E08F401EE0878A
:1024E0004FF00109FFF774F8C01B01E00BE067E053
:1024F000B04201D3701C50D1E08E0028CDD1E08FC6
:102500000028CAD13EE0206B216800780873206B58
:10251000401C2063E08E401EE0862DE0206881682C
:1025200089070FD5E18E69B1B9F1010F0AD1216B8D
:1025300009780173206B401C2063E08E401EE0860A
:102540004FF0000920688168C9070CD0E18F51B1B4
:10255000C068A16B0870A06B401CA063E08F401E98
:10256000E0874FF00109FFF733F8C01BB04202D3F8
:10257000701C01D011E086B1E08E0028CED1E08F32
:102580000028CBD13A463146204602F087F850B1B8
:102590002020606584F8508012E084F851A084F80F
:1025A0005080032068E7A06818B92068C168806877
:1025B000009084F851A084F85080606D0028F1D01C
:1025C000012059E770B5044690F85100656801286C
:1025D00006D0B5F5827F3AD1A568A5BB042836D1CF
:1025E00091B38AB383B394F8500001282FD001200F
:1025F00084F8500094F85100042802D0052084F893
:102600005100002565652163A386E386A263A38745
:10261000E3872564656494F85100042819D0E16CBF
:102620002748C8622748E16C8862E16C2648086345
:10263000E06C4563E38F2168A26B0C31E06CFEF720
:102640007FFE00BB0AE002E0FFE7012070BD022030
:1026500070BDE16C1D48C8621D48E4E72068416810
:1026600041F001014160A06CC562A06C8562A06C64
:102670000563A06C4563E38E2268216B0C32A06C6D
:10268000FEF75EFE30B1606D40F01000606584F8CA
:102690005050DAE720680168490603D4016841F028
:1026A0004001016084F850502068416841F02001E9
:1026B00041602068416841F002014160002070BD26
:1026C0000F450008E7450008D9440008FB4400080E
:1026D0001945000870B5044690F8510001281CD136
:1026E000C9B1C2B194F85000012816D0012084F875
:1026F0005000032084F85100002565652163A286FF
:10270000E286A56365642564A587E587A068B0F5C2
:10271000004F04D00DE0012070BD022070BD206884
:10272000016821F0400101602068016841F48041A6
:102730000160A16C1748C862A16C17488862A16C3F
:1027400016480863A06C4563E38E2268216B0C3247
:10275000A06CFEF7F5FD30B1606D40F010006065D3
:1027600084F85050D7E720680168490603D401680F
:1027700041F04001016084F850502068416841F008
:10278000200141602068416841F002014160002061
:1027900070BD00000545000883450008D9440008C5
:1027A000704770477047704710B5401EB0F1807F8A
:1027B00001D3012010BD4FF0E02460610F216017AC
:1027C00002F01EFB0020A06107202061002010BD48
:1027D0007047704770B590F83C20012A26D001243C
:1027E00080F83C40022280F83D2003685A689D68CA
:1027F00022F070060A6832435A600D4B02689A4212
:1028000008D0B2F1804F05D00A4B9A4202D00A4B51
:102810009A4204D1496825F080031943916080F8F9
:102820003D40002180F83C10084670BD022070BD7C
:10283000002C0140000400400008004010B50400D6
:1028400003D094F83D0010B107E0012010BD002036
:1028500084F83C00204600F01FF8022084F83D0078
:10286000211D206801F0D0FF012084F8460084F883
:102870003E0084F83F0084F8400084F8410084F86A
:10288000420084F8430084F8440084F8450084F84A
:102890003D00002010BD000008B5154A016815482C
:1028A00091420ED1816941F4006181618069002209
:1028B00000F40060009011461920FFF7ABF91920D1
:1028C00010E0B1F1804F11D1C16941F00101C16146
:1028D000C069002200F00100009011461C20FFF7A3
:1028E00099F91C20BDE80840FFF786B908BD000033
:1028F000002C01400010024090F83D10012901D049
:1029000001207047022180F83D100168CA6842F03A
:102910000102CA6000680B49884208D0B0F1804FBC
:1029200005D00949884202D00849884204D181680B
:1029300001F00701062903D0016841F0010101609F
:1029400000207047002C01400004004000080040B7
:1029500070B5044690F83C000025012817D00126E8
:1029600084F83C60022084F83D002068826822F0F0
:10297000770222F47F4282600868502838D00DDC4C
:1029800020284FD005DC90B3102811D14AE0022056
:1029900070BD302846D040280AD13BE060282FD0B7
:1029A00070280DD0B0F5805F03D0B0F5005F12D075
:1029B000012584F83D60002084F83C00284670BD65
:1029C000CB68D1E90121206801F067FF20688168A8
:1029D00041F0770109E0CB68D1E90121206801F0DD
:1029E0005CFF2068816841F480418160E1E719E083
:1029F000CA684968206802F005F85021206806E09E
:102A0000CA684968206802F00EF86021206801F069
:102A10004EFFCEE7CA684968206801F0F3FF402105
:102A20002068F4E7226801461046F0E770472DE978
:102A3000F04104460068C66805694FF00007A90721
:102A400013D5B10711D5F91E016101202077206847
:102A500080698007204602D0FFF7E8FF04E000F01D
:102A6000A3F8204600F035F92777680716D57007D8
:102A700014D521686FF004000861022020772068D7
:102A8000806910F4407F204602D0FFF7CFFF04E0BA
:102A900000F08AF8204600F01CF92777280715D5A2
:102AA000300713D521686FF00800086104202077F3
:102AB0002068C0698007204602D0FFF7B7FF04E016
:102AC00000F072F8204600F004F92777E80616D5E2
:102AD000F00614D521686FF01000086108202077F7
:102AE0002068C06910F4407F204602D0FFF79EFFA7
:102AF00004E000F059F8204600F0EBF82777E807EB
:102B000008D0F00706D021686FF001000861204668
:102B100000F02EF9280608D5300606D521686FF09A
:102B2000800008612046FFF753FE680608D570064E
:102B300006D521686FF040000861204600F019F9C1
:102B4000A8060AD5B00608D521686FF020000861F4
:102B50002046BDE8F041FFF73CBEBDE8F081000033
:102B600000B585B0002100910191029103910068A8
:102B7000B0F1804F11D10A48816941F004018161AF
:102B80008069694600F0040004900F200090022044
:102B9000019003900348FEF71DFC05B000BD000046
:102BA0000010024000080140704770B5044690F8DC
:102BB0003C0000260D4601280FD0012084F83C007F
:102BC0006AB1042A1DD0082A2FD00C2A3FD0012632
:102BD000002084F83C00304670BD022070BD2068A3
:102BE00001F06EFE2068816941F008018161206872
:102BF000816921F004018161206881692A6911439A
:102C000011E0206801F084FE2068816941F40061D0
:102C100081612068816921F4806181612068816916
:102C20002A6941EA02218161D2E7206801F09CFE15
:102C30002068C16941F00801C1612068C16921F0C3
:102C40000401C1612068C1692A69114311E020684B
:102C500001F0B6FE2068C16941F40061C1612068DD
:102C6000C16921F48061C1612068C1692A6941EAB2
:102C70000221C161ACE710B5040003D094F83D0017
:102C800010B107E0012010BD002084F83C00204670
:102C900000F01EF8022084F83D00211D206801F09C
:102CA000B3FD012084F8460084F83E0084F83F001C
:102CB00084F8400084F8410084F8420084F843001E
:102CC00084F8440084F8450084F83D00002010BDDD
:102CD0007047704710B50446022249B104290ED04E
:102CE000082913D094F84100012816D0012010BD06
:102CF00094F83E000128F9D184F83E200FE094F8C2
:102D00003F000128F2D184F83F2008E094F8400009
:102D10000128EBD184F8402001E084F84120012211
:102D2000206801F0ADFD0F492068884203D1426C54
:102D300042F4004242642068884208D0B0F1804FDB
:102D400005D00949884202D00849884204D18168E7
:102D500001F00701062903D0016841F0010101607B
:102D6000002010BD002C014000040040000800407D
:102D70007047704770477047F8B5016804460868A7
:102D8000CA684B6910F00F0F4FF0000559D003F0DF
:102D9000010602F49077374365D0C10705D0D1050D
:102DA00003D5616C41F001016164410705D5D90784
:102DB00003D0616C41F002016164810705D5D90738
:102DC00003D0616C41F004016164010707D502F092
:102DD0002001314303D0616C41F008016164616CF2
:102DE00000293AD0800604D5900602D5204601F08D
:102DF000E0FE20684069616CC0F38010090700D4D0
:102E000060B3204601F0A0FE20684069400621D54D
:102E10002068143050E8001F21F0400140E8001203
:102E2000002AF5D1E06BA8B16D494163E06BFEF774
:102E30005FF9002811D0E06B416B01B0BDE8F040B4
:102E4000084783060FD593060DD52046BDE8F84008
:102E500001F0AFBE2046FFF78EFFF8BD2046FFF71A
:102E60008AFF6564F8BD266B2023012E7CD1C6063F
:102E70007AD5D60678D508684868009048694FF03A
:102E80000206400640D5E16B086840680004000C6B
:102E9000E8D0A28D8242E5D9E085886920282DD02E
:102EA00020680C3050E8001F21F4807140E80012C7
:102EB000002AF5D12068143050E8001F21F00101EC
:102EC00040E80012002AF5D12068143050E8001FB5
:102ED00021F0400140E80012002AF5D184F8423088
:102EE000256320680C3050E8001F21F0100140E8F5
:102EF0000012002AF5D1E06BFEF7D6F86663A08DCC
:102F0000E18D401A81B22AE0A08DE18D401A81B294
:102F1000E08D0028A6D00029A4D022680C3252E807
:102F2000000F20F4907042E80007002FF5D12068D0
:102F3000143050E8002F22F0010240E80027002F53
:102F4000F5D184F84230256320680C3050E8002F1A
:102F500022F0100240E80023002BF5D166632046E2
:102F6000FFF708FFF8BDFFE705062BD5150629D5A5
:102F700094F841002128F5D1A068B0F5805F01D117
:102F80002069B0B1206A411C216221680078486044
:102F9000E08C401E0004000CE084E3D12068C1688E
:102FA00021F08001C1602068C16841F04001C1602A
:102FB000D8E7206A0088C0F308004860206A801CB7
:102FC0002062E5E74006CDD55006CBD5CA6820463D
:102FD00022F04002CA6084F8413000F0DEF8C1E718
:102FE0004B4A000870B5040004D094F84100002555
:102FF00010B106E0012070BD84F84050204600F07A
:1030000023F8242084F841002068C16821F400518D
:10301000C160204601F02EFE2068016921F4904134
:1030200001612068416921F02A0141612068C1687D
:1030300041F40051C1606564202084F8410084F8A7
:1030400042006563002070BD70B586B0002506465D
:10305000009501950295039500682349884240D167
:103060002249886940F480408861886900F4804082
:103070000490886940F00400886188691C4C00F065
:103080000400049048150090022001900320039052
:1030900069462046FEF79EF92015CDE900056946F0
:1030A00020460295FEF796F9134C1248C4E9000534
:1030B0008020C4E9025025614FF440506561C4E9A5
:1030C00006502046FEF70EF908B1FDF7D3FFF46372
:1030D0000022114625206662FEF79CFD2520FEF7A2
:1030E0008BFD06B070BD00000038014000100240AA
:1030F00000080140580002408003002090F8423050
:10310000202B01D00220704721B11AB100230363A4
:1031100001F00CBE0120704770B500681649884266
:1031200028D11648174C1649027820780A54401CBA
:10313000C0B22070062816D30A2A14D10A1812F831
:10314000022C0D2A0FD100250D540FA10C48FDF7BC
:103150001FF838B10E490A4802F0FEF80C49012068
:1031600081F84D002570BDE87040012203490948EF
:10317000FFF7C4BF70BD000000380140740000209C
:10318000180400204800002024474E524D43000000
:10319000C80300203803002070477047FEE7000096
:1031A0000148FEF71DBA0000EC0000200148FEF7C0
:1031B00079BA0000EC00002038B5406A002190F890
:1031C0003D202B4B46F2A8141B68B3FBF4F3C3EB72
:1031D000C30303EB830300933BB15B1E00930368BF
:1031E0001B689B0505D5009BF6E7036C43F02003A5
:1031F0000364436B03B19962836B03B19962036803
:103200001C6824F480641C604185436B03B15963DE
:10321000836B03B1596303681C6824F001041C60CC
:1032200090F83D402023602C0BD0282434EA020281
:103230000FD080F83D3080F83E1000BFFEF74AFB0B
:1032400038BD80F83D3080F83E100164FEF7C6F9C5
:1032500038BD0268136843F0010313600268136805
:1032600043F480631360016380F83D40E6E70000AB
:103270005800002000684169C943090601D40021B3
:103280000161704770B5044690F83D0094F83E1017
:10329000102901D0402906D1222804D121680A68CA
:1032A00022F400620A60282131EA00024FF0000592
:1032B0004FF0200626D021684968090505D460280A
:1032C00003D084F83D6084F83E502563206841684F
:1032D000090537D5416821F400614160606B90F8C1
:1032E00021203C49012A11D04163606BFDF700FFAA
:1032F00038B32068016821F00101016084F83D6065
:10330000606B1CE0256384F83D10DFE7A06B416330
:10331000A06BFDF7EDFEA0B120684169C9434906E5
:1033200005D40069616A0870606A401C60622068A8
:10333000016821F00101016084F83D60A06B416BE0
:10334000884710E094F83D10602910D04169C943C6
:10335000490605D40069616A0870606A401C6062B1
:103360002046FEF7B7FA206CC1071CD115E084F89F
:103370003D6025644169C943490605D40069616A15
:103380000870606A401C60622068016821F00101D9
:1033900001602046FEF722F9E5E7810703D44107E3
:1033A00001D4000704D52068416821F4E061416040
:1033B00094F83D00216C49070BD5282809D106480F
:1033C000E062256384F83D6084F83E502046FEF7B5
:1033D00047FB70BDB93100080000FFFF10B5C26A9D
:1033E000438D0168042B06D0438D032B08D0438DF9
:1033F000022B1DD012E04A6822F480624A600CE081
:103400004B6823F480634B60042A06D0022A04D060
:1034100001680A6822F480620A6001680969426AE8
:103420001170416A491C4162418D491E418510BDA0
:10343000012A34D0102A32D0042A34D0022A32D0C1
:103440000B6843F400730B6001680969436A1970E3
:10345000416A491C4162438D5B1E438503681B69B9
:103460000B70416A491C4162418D491E41850168CA
:103470004B6823F440734B60202180F83D1090F896
:103480003E300021402B80F83E1010D0082A02D098
:10349000202A00D012210163FEF7E3FA10BD0B6869
:1034A00023F48063CFE70B6843F48063CBE70163C9
:1034B000FEF7D9FA10BD000038B590F83D1022296A
:1034C00010D1C36A418D03290DD901680969426A87
:1034D0001170416A491C4162418D491E4185418DEF
:1034E000032906D038BDC26A022A02D0012906D0BB
:1034F00029B10068416821F48061416038BD2A4AE1
:1035000046F2A81400211268B2FBF4F202EB820228
:10351000009202682024009D6D1E009526D015683B
:10352000AD05F8D4156825F4806515600268556806
:1035300025F4E065556002681269456A2A70426A9E
:10354000521C4262428D521E428580F83D4090F8E6
:103550003E2080F83E10402A21D0082B02D0202B9C
:1035600000D012210163FEF77CFA38BD036C43F0F2
:1035700020030364536823F4E06353600268126914
:10358000436A1A70426A521C4262428D521E428540
:1035900080F83D4080F83E10FEF79CF938BD01638D
:1035A000FEF761FA38BD00005800002010B5C26A6D
:1035B00090F83D1021290BD1418D51B1416A02682B
:1035C00009781161416A491C4162418D491E41855A
:1035D00010BD20230021082A13D0202A11D012F573
:1035E000803F0ED00268546824F4E06454601122D5
:1035F000026380F83E1080F83D3000BFFEF732FADB
:1036000010BD0268546824F4E064546002681468D1
:1036100044F400741460016380F83D3090F83E205B
:1036200080F83E10402AE9D1FEF71EFA10BD0000D6
:1036300010B590F83D1090F83E30C26A048DB4B1D8
:10364000212903D0402B11D122290FD1418DE1B383
:1036500090F83E10402942D0416A02680978116111
:10366000416A491C4162418D491E418510BD212995
:10367000E8D120230021082A13D0202A11D012F5E6
:10368000803F0ED00268546824F4E0645460112234
:10369000026380F83E1080F83D3000BFFEF7E2F98B
:1036A00010BD0268546824F4E06454600268146831
:1036B00044F400741460016380F83D3090F83E20BB
:1036C00080F83E10402AE9D100E002E0FEF7CCF994
:1036D00010BD0068416821F48061416010BDBDE803
:1036E000104000F0F3B8000078B590F83E50C26A80
:1036F000046B90F83D6000230168222E73D1066DA3
:103700000EB9402D6FD0056D1DB90569B5F5404F57
:103710001BD0458D95B3468D484D012E20D0448D4C
:10372000022C4DD00C6844F480640C6001684C6835
:10373000240579D5AA4273D0012A71D0082A6FD006
:10374000102A6DD0202A6BD06EE04A698A690092F7
:103750000A6842F480720A60016D491C016578BDF7
:10376000AA4214D10A6822F480620A6001684A6899
:10377000120504D50A6822F4806217E0FFE74A695F
:103780008A6900920A6842F400720A6050E0082ACE
:1037900010D0202A0ED0122C0AD0042A03D0022ADC
:1037A00001D0102AE6D10A6842F480620A603BE048
:1037B000012ADFD00A6822F480620A600168DEE72D
:1037C000042A11D0022A0FD0102A0DD00C6844F41C
:1037D00000640C6001684C698C6900940C6824F4E6
:1037E00080640C6008E025E00C6844F480640C60A0
:1037F00001684C698969009101684C68240517D5F6
:10380000AA4207D0012A05D0082A03D0102A01D0E5
:10381000202A0DD14A6842F480524A6008E0FFE74E
:103820004A6842F480524A6001684A698969009195
:10383000036578BD48698869009078BD0000FFFF86
:1038400090F83E10402910D00169B1F5804F19D091
:10385000016DA9B3016D012910D1416C5FF0F10236
:1038600001F4407142EAD11106E0016D0029416C7A
:1038700005D0C9B241F0010100680161704701F053
:10388000FE01F9E790F83D102129416C09D0C9B239
:1038900041F0010102681161416B29B1896A49B99E
:1038A00002E001F0FE01F5E7816B0029E6D0896AAC
:1038B0000029E3D00068416841F40061416070472D
:1038C000FFE7416CF02201F44071CBE710B590F8AE
:1038D0003D10026D4AB1026D012A14D0026D022A18
:1038E00016D0BDE81040FFF7C5BCC16C0129816C42
:1038F00002D0C1F3072108E00268C9B21161016D6D
:10390000891C016510BD816CC9B20268116123E098
:1039100022291CD0428D0AB1212920D0428D002AB3
:10392000F0D12129EED101684A6822F4E0624A60B0
:1039300001680A6842F400720A60002101632022D3
:1039400080F83D2080F83E10FEF78EF810BD01682B
:103950000A6842F480720A60016D491CD1E7416A2D
:10396000026809781161416A491C4162418D491E12
:10397000418510BD38B50C4690F83D200021282522
:10398000954302680B4605D051699169009180F812
:103990003C3038BD556825F480655560E2435407D6
:1039A00000D50121120601D5828900E0028B80F842
:1039B0003C3092B2FDF713FE38BD00002DE9F04116
:1039C00090F83D300446C26A002120261E4F006850
:1039D0006FF48065082A01D0202A01D1282B04D059
:1039E000212B17D04561BDE8F081E762426822F4DF
:1039F000E0624260206845612068026822F48062CB
:103A00000260216384F83D6084F83E102046FEF792
:103A100027F8E8E7E7622122226384F83D6084F812
:103A20003E10416821F4E0614160206845612068F2
:103A3000016821F4806101602046FFF71BFC2046ED
:103A4000FEF781F8CFE700000000FFFFF8B590F81F
:103A50003D6004460068416821F4E06141602068EF
:103A6000002541690091016841F001010160206871
:103A7000016821F48061016020684168090520D552
:103A8000474F222E48D02A2E46D0616B09684968DC
:103A90006185618D19B1216C41F004012164416897
:103AA00021F400614160606BFDF76EFB012808D0D6
:103AB000606B4763606BFDF71BFB10B1606B416B84
:103AC0008847608D08B320684169C943490708D415
:103AD0000069616A0870606A401C6062608D401E07
:103AE000608520684169C943490608D40069616A54
:103AF0000870606A401C6062608D401E6085608D49
:103B000018B1206C40F004002064206C00B3204603
:103B1000BDE8F840FFF7B6BBA16B0968496861854D
:103B2000618D19B1216C41F004012164416821F4D7
:103B300000614160A06BFDF727FB0128C1D0A06B9D
:103B40004763A06BFDF7D4FA0028BAD0A06BB6E7A4
:103B50002A2E06D12563282084F83D002046FDF753
:103B6000F1FF94F83D10202028290DD0216B222947
:103B700001D0222E07D1256384F83D0084F83E5001
:103B80002046FDF7DFFFF8BD0649E162256384F8B2
:103B90003D0084F83E502046FDF762FFF8BD00006E
:103BA000B93100080000FFFF194808B5416941F02C
:103BB000010141614069002200F0010000901146BE
:103BC0000C20FEF727F80C20FEF716F8002211460D
:103BD0000D20FEF71FF80D20FEF70EF8002211460B
:103BE0000F20FEF717F80F20FEF706F80022114607
:103BF0001020FEF70FF81020FDF7FEFF00221146FF
:103C00001120FEF707F8BDE808401120FDF7F4BFCA
:103C1000001002402DE9F04186B00025384800959B
:103C2000019502950395816941F0100181618169D7
:103C300001F010010491816941F0200181618169E5
:103C400001F020010491816941F0040181618169E1
:103C500001F004010491816941F0080181618069EA
:103C6000284F00F008004FF4005404900022214631
:103C70003846FDF7A7FCDFF8908001220B21404673
:103C8000FDF7A0FC002247F230514046FDF79AFCB8
:103C9000009401AA0124022682E870006946384691
:103CA000FDF798FB1020CDE90005694602941748FE
:103CB000FDF790FB03208DE83100039069464046F4
:103CC000FDF788FB47F230408DE8710069464046B9
:103CD000FDF780FB0820CDE90004CDE902466946E6
:103CE0004046FDF777FB2002009001AA112082E8F0
:103CF000510069464046FDF76DFB06B0BDE8F08116
:103D00000010024000100140000C0140000801407A
:103D10000D4810B50B4901600C49416000214FF47A
:103D200080428160C0E9031241618161C161016229
:103D3000FDF7D2FD002803D0BDE81040FDF79AB989
:103D400010BD000000540040EC000020801A060066
:103D5000104810B50E4901604FF482714160002196
:103D60008160C1604FF400720161C0E90512182240
:103D7000C0E90721416281620A21C162FEF75CFA53
:103D8000002803D0BDE81040FDF774B910BD000055
:103D900000300140C801002010B586B0002418484A
:103DA00000940194029403940494144905940160CE
:103DB00041F6FF01C0E9011442F20F71C0E903149A
:103DC0008021C0E90541FEF739FD08B1FDF752F940
:103DD0004FF48050009069460948FEF7B9FD08B1DC
:103DE000FDF748F9049404A905480594FEF7F2FC90
:103DF000002801D0FDF73EF906B010BD002C0140AF
:103E0000A802002030B58DB00024079408940994CE
:103E10000A940B941C2168460C94FCF7AEF92E48CA
:103E20004FF08041C0E9001440F67F41C0E90241F3
:103E3000802104618161FEF701FD08B1FDF71AF9E7
:103E40004FF48050079007A92348FEF781FD08B181
:103E5000FDF710F92048FEF70EFF08B1FDF70AF94B
:103E60000B940BA91C480C94FEF7B4FC08B1FDF7A9
:103E700001F91A4D602000902888CDE90104042042
:103E80000490002269461448FEF78FFE08B1FDF742
:103E9000F1F868880190042269460F48FEF785FE14
:103EA00008B1FDF7E7F8A8880190082269460A489A
:103EB000FEF77BFE08B1FDF7DDF8E88801900C22E3
:103EC00069460548FEF771FE08B1FDF7D3F80248D0
:103ED000FEF746FE0DB030BDF002002002000020CB
:103EE0000C4810B50A4901604FF416514160002199
:103EF00081600C22C160C0E904128161C161FFF7D9
:103F000071F8002803D0BDE81040FDF7B3B810BD2C
:103F10000038014038030020FEE7FEE770B500F0EE
:103F2000700400F083F80B4E054600220221304653
:103F3000FDF748FB272001F0A9F845EA040001F04D
:103F4000A5F8012202213046FDF73CFBBDE8704098
:103F500000F06CB8000C014010B50B4C012211466A
:103F60002046FDF72FFB012210210848FDF72AFB10
:103F7000002201212046FDF725FB20460122BDE855
:103F800010400221FDF71EBB000C0140000801405B
:103F900070B590B014460D468DF80000FF22214602
:103FA0000DF10100FCF7E2F80B4E00220221304631
:103FB000FDF708FB621C08A9684601F055F8224687
:103FC0000DF121012846FCF7BFF8012202213046FD
:103FD000FDF7F8FA10B070BD000C01401CB510A13F
:103FE000104C096800918DF80000002002460190F5
:103FF00002212046FDF7E6FA022301AA69460A4893
:10400000FEF7E0FA0848FEF7A4F80128FAD10122E9
:1040100002212046FDF7D6FA9DF805001CBD0000E0
:1040200000FF0000000C0140C801002070B5084DE1
:10403000002202212846FDF7C5FA072001F026F8E4
:104040000446012202212846FDF7BCFA204670BD35
:10405000000C014070B50546FDF7BAFA1F4E044644
:10406000002202213046FDF7ADFAE22001F01EF8F1
:10407000012202213046FDF7A5FA194E10E000BFDB
:10408000FDF7A6FA001B642807D9FFF765FF00F0CB
:104090007DF9012000F0CAF905E00120FDF788F95B
:1040A0003068C006ECD40720FFF798FF04460146AD
:1040B000072000F0D3F860060ED56020FFF78EFFD2
:1040C0000446024629466120FFF762FFFF21E220F5
:1040D00000F0C4F8204670BD002070BD000C014007
:1040E000080801407CB5052A00D905221446052898
:1040F00000D905200A3040F020008DF800000DF1B5
:104100000100FCF721F80B4D002202212846FDF7A3
:1041100059FA621C69460848FEF7DCFA0648FEF7C1
:1041200018F80128FAD1012202212846FDF74AFA9F
:104130007CBD0000000C0140C80100207CB50529B1
:1041400000D905210C4630218DF800100146224689
:104150000DF10100FBF7F8FF0A4D0022022128466D
:10416000FDF730FA621C69460748FEF7B3FA0648C5
:10417000FDF7EFFF0128FAD1012202212846FDF7C1
:1041800021FA7CBD000C0140C80100202DE9F0415E
:104190000E460746FDF71CFA2D4C8046A02500224E
:1041A00002212046FDF70EFAE12000F07FFF0122F8
:1041B00002212046FDF706FA002201212046FDF7E4
:1041C00001FA002202212046FDF7FCF9284600F002
:1041D0006DFF324639461F48FEF77CFA1D48FDF751
:1041E000B8FF0128FAD1012202212046FDF7EAF9A1
:1041F000012211462046FDF7E5F9174C0EE000BFFD
:10420000FDF7E6F9A0EB0800642807D9FFF7A4FE44
:1042100000F0BCF8002000F009F902E02068C006B8
:10422000EED40720FFF7DAFE04460146072000F02F
:1042300015F8E00606D5FF21E12000F00FF8102068
:10424000BDE8F081A00601D52020F9E7FF20F7E7BF
:10425000000C0140C80100200808014038B540F0BA
:1042600020008DF800000C4C8DF801100022022176
:104270002046FDF7A7F9022269460848FEF72AFA08
:104280000648FDF766FF0128FAD1012202212046E7
:10429000FDF798F938BD0000000C0140C80100206E
:1042A000F0B534A187B0D1E90001CDE90201FDF7F5
:1042B0008FF9324C054630268DF800600298CDF813
:1042C00001009DF80C008DF8050000220221204617
:1042D000FDF778F9062269462948FEF7FBF92848D8
:1042E000FDF737FF0128FAD1012202212046FDF710
:1042F00069F910208DF80000FF2205210DF1010061
:10430000FBF734FF002202212046FDF75BF906236C
:1043100004AA69461A48FEF755F91948FDF719FF2E
:104320000128FAD1012202212046FDF74BF9002095
:1043300002A904AA17180B5C7F78BB4203D1401C6A
:10434000C0B20528F6D3052809D0FDF741F9401B76
:1043500041F28831884204D9002007B0F0BD012025
:10436000FBE74FF400510748FDF724F96420FDF7FF
:104370001FF8A1E7A5A5A5A5A5000000000C014018
:10438000C80100200010014070470000FEB522A1C6
:10439000234ED1E90001CDE900010122114630464A
:1043A000FDF710F97020FFF7B9FD1E4D002400BF86
:1043B00015F81400002240F020008DF8080005EBED
:1043C0004400022140788DF809003046FDF7FAF8E4
:1043D000022202A91448FEF77DF91348FDF7B9FE41
:1043E0000128FAD1012202213046FDF7EBF815F839
:1043F000140008B1062802D10120FCF7D9FF641C83
:10440000092CD5D305216846FFF798FE0522694699
:104410000020FFF767FEFEBD3443101001000000CE
:10442000000C0140B8570008C80100207CB50446C4
:1044300000208DF80000FF201E4D8DF801000022A5
:1044400002212846FDF7BEF8022301AA69461A4850
:10445000FEF7B8F81848FDF77CFE0128FAD10122D2
:1044600002212846FDF7AEF89DF8051014B1012C85
:1044700003D004E021F0010101E041F0010120201E
:104480008DF800008DF80110002202212846FDF76A
:1044900099F8022269460848FEF71CF90648FDF71C
:1044A00058FE0128FAD1012202212846FDF78AF898
:1044B0007CBD0000000C0140C80100200148FDF750
:1044C0004BBE0000C801002010B5406A0021C18722
:1044D000C186FDF73DFE10BD10B5406A01684A680F
:1044E00022F003024A60416D41F010014165012153
:1044F00080F85110FDF72CFE10BD10B5406AFDF795
:1045000068FF10BD10B5406AFEF74BF910BD10B53D
:10451000406AFEF748F910BD70B50546446AFDF7DC
:1045200057F8024628680068800626D4206841684B
:1045300021F020014160A06818B96068B0F5827F61
:1045400016D02068416821F00101416064212046B5
:1045500000F076F808B1202060650020E087012097
:1045600084F85100606D40B12046FDF7F1FD70BD4B
:104570002068416821F00301E7E72046FDF728FFA6
:1045800070BD38B50546446AFDF722F80246286832
:104590000068800623D42068416821F02001416032
:1045A0002068416821F0020141606421204600F04A
:1045B00075F818B1606D40F020006065A0680021BA
:1045C00018B92068C26880680090E186012084F8EC
:1045D0005100606D18B12046FDF7BAFD38BD204688
:1045E000FEF7DEF838BD70B50546446AFCF7F0FF0B
:1045F00002462868006880061ED42068416821F0C1
:10460000200141606421204600F048F818B1606D37
:1046100040F0200060652068416821F0030141609E
:104620000020E086E087012084F85100606D18B119
:104630002046FDF78DFD70BD2046FEF7B3F870BD36
:10464000F8B5044640684FF48273984217D1A068C9
:104650004FF48065B0F5004F01D0A8420FD120681B
:10466000066826F0400606606068984207D1A06898
:10467000A84204D100920B460022012103E00092DF
:104680000B4600228021204600F022F8002804D0AA
:10469000606D40F0200060650320F8BDF8B5154658
:1046A0000E460B46009204460122022100F010F84B
:1046B00040B93346002280212046009500F008F8DA
:1046C000002804D0606D40F0200060650320F8BD34
:1046D0002DE9F8431E46914688460446089DFCF79E
:1046E00077FF401B351AFCF773FF07462548006823
:1046F000C0F3CB30684338E0701C37D0FCF768FF5C
:10470000C01BA84203D215B1009860B32CE020680A
:10471000416821F0E00141606068B0F5827F0BD113
:10472000A068B0F5004F02D0B0F5806F04D12068CA
:10473000016821F040010160A06AB0F5005F09D175
:104740002068016821F4005101602068016841F48B
:1047500000510160012084F85100002084F85000CD
:104760000320BDE8F8830025401E00902068816882
:1047700038EA010004D000214945BDD10020F0E70E
:104780000121F9E7580000207047FDF7DDB930B589
:104790008FB028216846FBF7F0FC14210AA8FBF72C
:1047A000ECFC01210804CDE900100024029402254C
:1047B0000491CDE907504FF4C01009906846FDF709
:1047C00037FB08B172B6FEE70F20CDE90A054FF4BA
:1047D0008060CDE90C4002210AA80E94FDF74CFA46
:1047E000002801D072B6FEE70FB030BD7047000060
:1047F0000148FEF71CB90000A80200200148FEF79E
:1048000016B90000F0020020F0B50268194B1A4CEE
:104810001A4D4FF08047984205D0B84203D0A042CD
:1048200001D0A84203D122F070064A683243984270
:1048300005D0B84203D0A04201D0A84203D122F44F
:104840004074CA6822434C6922F08002224302600D
:104850008A68C2620A688262984201D1096901636A
:10486000012141610169C90703D0016921F00101FA
:104870000161F0BD002C0140000400400008004030
:1048800010B501F01F030121046A99408C430462B2
:10489000016A9A401143016210BD10B5846842EA72
:1048A000032224F47F440A432243826010BD8268BD
:1048B00022F070020A4342F0070181607047000055
:1048C00030B5036A026A22F001020262426884691A
:1048D00024F073050C682C4323F002058B682B43EE
:1048E0000A4DA8420BD123F00805CB6822F4407290
:1048F0002B434D6923F0040315438A692A43426020
:10490000846149684163036230BD0000002C0140AE
:1049100030B5026A036A23F01003036243688469B6
:104920000D6824F4E64444EA05248D6822F0200250
:1049300042EA05120B4DA8420ED1CD6822F080024A
:1049400042EA05124D6923F4406343EA85038D6909
:1049500022F0400243EA8503436084614968816331
:10496000026230BD002C014030B5036A026A22F4B5
:10497000807202624268C46923F4007324F07305F4
:104980000C682C438D6843EA05230C4DA8420ED1D8
:10499000CD6823F4006343EA05234D6922F44052B5
:1049A00042EA05128D6923F4806342EA05124260EF
:1049B000C4614968C163036230BD0000002C01403E
:1049C00030B5046A026A22F4805202624268C36906
:1049D0000D6823F4E64343EA05238D6824F400546C
:1049E00044EA0534064DA84204D14D6922F48042C0
:1049F00042EA85124260C36149680164046230BDC5
:104A0000002C014010B5036A046A24F0010404621A
:104A1000846924F0F00444EA021423F00A020A43F1
:104A20008461026210BD10B5036A046A24F01004A8
:104A30000462846923F0A00324F4704444EA02323F
:104A400043EA01118261016210BD10B5406A002184
:104A5000C185C184FEF78FF910BD70B5446A206826
:104A6000406994F84110C0F3C0100025212904D1F9
:104A700018B1E584204600F08EF82068406994F86B
:104A80004210C0F38010222904D118B1E5852046D8
:104A900000F05AF8606C40F0100060642046FEF7A9
:104AA0006AF970BD10B50146406A096809684FF09F
:104AB000000289062ED4C28501680C3151E8003FFE
:104AC00023F4807341E80034002CF5D101681431DF
:104AD00051E8003F23F0010341E80034002CF5D1F8
:104AE0000168143151E8003F23F0400341E80034ED
:104AF000002CF5D1202180F84210016B012909D149
:104B000001680C3151E8003F23F0100341E8003404
:104B1000002CF5D14263016B012902D0FEF7FCFAAB
:104B200010BD818DFEF726F910BD10B5406A012138
:104B30004163016B012902D0FEF72EFB10BD818D70
:104B40004908FEF717F910BD01680C3151E8002F34
:104B500022F4907241E80023002BF5D10168143152
:104B600051E8002F22F0010241E80023002BF5D18B
:104B7000016B012909D101680C3151E8002F22F0A5
:104B8000100241E80023002BF5D1202180F84210CB
:104B900000210163704701680C3151E8002F22F0B9
:104BA000C00241E80023002BF5D1202180F84110FC
:104BB000704708B590F84210222901D0022008BDA4
:104BC00082684FF480539A4201D1016921B1816A10
:104BD0009A421BD04AB10AE00268816A5268C2F365
:104BE00008020A80816A891C08E0026972B10268C1
:104BF000526802F07F020A70816A491C8162C18D8D
:104C0000491E0904090CC18503D01BE002685268E3
:104C1000F1E70168CA6822F02002CA600168CA6828
:104C200022F48072CA6001684A6922F001024A6176
:104C3000202180F8421000214163026B012A03D039
:104C4000FEF76AFA002008BD016301680C3151E8E3
:104C5000002F22F0100241E80023002BF5D101685B
:104C60000A68D20602D50A6849680091818DFEF76C
:104C700081F8E7E770B5044600680169E26821F44D
:104C80004051114301612169A068084361690843EB
:104C90002168CA6841F20C639A430243CA602068E3
:104CA0004169A26921F44071114341611E492068A4
:104CB000884202D1FDF786F801E0FDF773F800EBBA
:104CC000C00101EB0012606864218000B2FBF0F3C8
:104CD000B3FBF1F36FF018067343B2FBF0F5B2FBD0
:104CE000F0F605EB8305322303EB0515B5FBF1F573
:104CF000B6FBF1F605F0F00505EB0615B2FBF0F694
:104D0000B2FBF0F0B0FBF1F06FF01802504306EB8D
:104D1000800003EB0010B0FBF1F0216800F00F0001
:104D20002844886070BD00000038014038B58162B9
:104D300004468285002013466064222284F84220C3
:104D4000E56B1B4AAA62E56B1A4AEA62E56B1A4AEE
:104D50002A63E26B50630A462168E06B091DFCF789
:104D6000EFFA2068016840680090206948B1206827
:104D70000C3050E8001F41F4807140E80012002A16
:104D8000F5D12068143050E8001F41F0010140E8DF
:104D90000012002AF5D12068143050E8001F41F0BD
:104DA000400140E80012002AF5D1002038BD000083
:104DB000A54A00082B4B00085B4A00080148FDF794
:104DC000DBBF000038030020FEE700000FB47CB515
:104DD0000C0009AD01D0611E00E00021CDE9000109
:104DE000064B6A462946089800F041F8002C02D08C
:104DF000009A002111707CBC5DF814FB454F00083F
:104E00000907090E002804DB00F1E02080F80014F7
:104E1000704700F00F0000F1E02080F8141D70478B
:104E2000004870476000002001480068704700009B
:104E30006000002002E008C8121F08C1002AFAD151
:104E400070477047002001E001C1121F002AFBD10A
:104E500070470000014908607047000060000020B2
:104E600030380A2801D201207047002070472DE910
:104E7000F84F9946924688460546002706E02528C1
:104E80000AD051464A4690476D1C7F1C287800285E
:104E9000F5D13846BDE8F88F002315F8011F1846F4
:104EA0002E2915D115F8011F04232A290DD06FF0E2
:104EB0002F022978A1F13004092C09D800EB8000D9
:104EC00002EB400008446D1CF3E758F8040B6D1C1E
:104ED0002A78002ADDD0632A07D0732A0FD0104623
:104EE00051464A4690477F1C2AE018F8042B8DF85B
:104EF000002000218DF801106E46012103E058F8D2
:104F0000046B4FF0FF315A074FF0000401D409E061
:104F1000641C84420BDA8C42FADB325D002AF7D142
:104F200005E0641C8C42FCDB305D0028F9D127448D
:104F300004E016F8010B51464A469047641EF8D229
:104F40006D1CA3E74A68002A06D00A68531C0B6050
:104F500010704868401E486070470860B0F50062F5
:104F600000D55242C82A02DC4FF4006002E0142847
:104F700002DC00200860704740F6EC729042FADBD9
:104F80004FF48050F6E730B583B00446FFF74CFF8E
:104F900005460020CDE90000024621466846FBF7A1
:104FA0004CFC2846FFF756FFDDE9000103B030BD99
:104FB00000B5C27910F8061FD023303901EB81010A
:104FC00003EB410111440831C9B287B0182901D35C
:104FD0001839C9B20A23B1FBF3F230320270B1FBC7
:104FE000F3F203FB12113031417018480021049193
:104FF00082798DF81020C2798DF811200591017AFF
:105000008DF81410417A12A28DF81510D2E9001211
:10501000CDE90212817A8DF80810C17A8DF8091055
:10502000417B8DF80B10817B8DF80C10C07B8DF8C7
:105030000D0002A905A8CDE9000104AB06A22021BC
:105040000848FFF7C3FE07B000BD0000C8030020FA
:1050500000002E000000000025733A25733A2573E6
:105060000D0A00001806002013460A4610B5014636
:105070000548FDF7A7FA04460348FDF76AF801283A
:10508000FAD1204610BD0000C801002001B582B051
:105090004FF0FF300090012301AA02A90248FDF75A
:1050A00099F99DF804000EBDC801002001B582B039
:1050B00001236A4602A90748FDF784FA08B1FBF705
:1050C000D9FF0448FDF745F80128FAD19DF8000002
:1050D0000EBD0000C801002070B50C460546FBF768
:1050E0001FFD00F07040B0F1005F07D024F00040D9
:1050F000C0F1FF40C00F04BF204670BD284670BD00
:1051000070B50C460546FBF70BFD00F07040B0F1A2
:10511000004F07D024F00040C0F1FF40C00F04BF93
:10512000204670BD284670BD0024FCF715FDFFF732
:105130002EFBFEF76FFDFEF737FDFEF7E9FDFEF7EC
:1051400007FEFEF7CDFEFEF727FEFEF75BFE2548C5
:10515000FDF7D2FB00212448FDF7BCFD04212248C5
:10516000FDF7B8FD08212048FDF7B4FD0C211E48CD
:10517000FDF7B0FD1C4900200A6850630A6890637F
:105180000A68D06309680864FEF7E6FEFFF788F84E
:105190000028FBD0FFF7FAF80020FFF747F9FBF7EC
:1051A0006BFF124D1248FEF755FF50B110491048E1
:1051B000743900F0F3F90E48743800F05FFA0024F7
:1051C000F0E72878641C401CE4B228700A2C02D353
:1051D00000F0FCF9002428780328E3D900F00AF84D
:1051E000E0E70000A8020020F002002000000020FC
:1051F000D800002010B50020FFF718F91421084846
:10520000FEF7C4FF202805D1064900200870064992
:1052100081F84D00BDE810400120FFF707B90000FC
:105220001806002000000020C80300202DE9F041EE
:10523000044621F000404FF4000700250E46B84216
:1052400001DA284612E04FF07E51FBF748F83E495C
:10525000FBF77DF83D49FBF748F83D49FAF7EDFFCC
:10526000FBF780FA00F0C0F9FBF75DFA39490968ED
:10527000B94252DB16F1FF4F27D2616989B1042987
:1052800013D008292169096813D00D64A16991B16F
:10529000042914D008292169096814D00864BDE8DC
:1052A000F081216909684D63F0E7216909688D6320
:1052B000ECE7CD63EAE7216909684863EFE7216914
:1052C00009688863EBE7C863E9E7BE42E7DA61692A
:1052D00039B1042909D008292169096809D008646D
:1052E00024E021690968486320E02169096888632E
:1052F0001CE0C8631AE0206900684563CFE7042812
:1053000005D008282069006805D00564C7E7206932
:1053100000688563C3E7C563C1E7606950B10428CD
:105320000CD00828206900680CD00564A06900280A
:10533000E5D1E0E7206900684563F7E72069006888
:105340008563F3E7C563F1E70000C64200008C42C5
:1053500000C014440C0000202DE9F04F0C46A1B011
:10536000054687A1FAF714FF00287DD07F22294641
:105370006846FAF71FFF00258DF87F5082A1684626
:10538000FAF72CFF010070D005222046FAF712FF31
:1053900065717DA10020FAF721FF0100F3D00922F9
:1053A000A01DFAF707FFA846E5732046FFF700FEA9
:1053B00075A10020FAF712FF0028E4D000784128F8
:1053C00001D0562851D120746FA10020FAF706FFB2
:1053D000002849D0FFF7D7FDDFF8B09100224B46F7
:1053E000FBF718F905460E46FBF79DF9FBF78AF91E
:1053F0008A4607462A463346FBF797F800224B4673
:10540000FBF796F8DFF888B100225B46FBF702F95C
:105410003A465346FAF7E5FFC4E906015AA10020CF
:10542000FAF7DCFE00285BD000784E2801D0532824
:1054300056D184F8200054A10020FAF7CFFE0028AE
:105440004FD0FFF7A0FD00224B46FBF7E3F80546DF
:105450000E46FBF768F9FBF755F98A4607462A46D8
:105460003346FBF762F801E03BE039E000224B46AF
:10547000FBF75EF800225B46FBF7CCF83A46534652
:10548000FAF7AFFFC4E90A013FA10020FAF7A6FE30
:1054900030B30078452801D0572821D184F8300056
:1054A00039A10020FAF79AFE00281AD0FFF76BFD09
:1054B000FBF76BF9606334A10020FAF78FFE002838
:1054C0000FD0FFF760FDFBF760F9A0632EA100206D
:1054D000FAF784FE050003D0FAF778FE062803D019
:1054E000002021B0BDE8F08F0522294604F13C00E0
:1054F000FAF760FE24A10020FAF770FE98B3FFF7D8
:1055000042FDFBF742F960641FA10020FAF766FE36
:1055100005002ED0FAF75AFE012808D128784E2827
:1055200022D0412820D044281ED045281CD04E200F
:1055300084F8490017A12846FAF72AFE30B115A1D0
:105540004FEA0500FAF74AFE050012D011A12846DD
:10555000FAF71EFEA8420CD10222691C04F14A008F
:10556000FAF728FE07E004E084F8490009A10020CA
:10557000E8E784F84A800849012081F84D00B0E747
:10558000474E524D430000002C00000000005940DF
:1055900000004E402A000000C803002070B50D46F0
:1055A00009A1FAF71BFE00240BE000BFFAF738FE52
:1055B00045F8240004A10020FAF710FE641C042C16
:1055C00001DA0028F2D170BD2C00000010B50021D6
:1055D0000448FFF72BFE03480021BDE810401C30B3
:1055E000FFF724BE100000202DE9F04D07460E46BF
:1055F000FBF722FA04460D463A463346FAF795FF82
:10560000DFF86CA0DFF86CB01B4B0746884616F03D
:10561000004F4FF000020AD0FBF752FA0AD90022DD
:105620005B4638464146FBF763FA1BD212E0FBF7B4
:1056300047FA08D20022534620462946FAF772FF5D
:1056400004460D460EE000225B4638464146FBF715
:105650004FFA07D80022534620462946FAF7C1FEE2
:1056600004460D463146204665F31E01BDE8F08D27
:105670000000F03F0000E03F0000E0BF2DE9FC47E4
:10568000044600686946FFF768FC01A96068FFF7F7
:1056900064FC0098A0F50060FBF72BF8414E314602
:1056A000FAF755FE05460198A0F50060FBF721F8D2
:1056B0003146FAF74CFE294606464FF07E552846FD
:1056C000FFF71EFD384F01463846FFF705FD8246BD
:1056D00031462846FFF714FD01463846FFF7FCFC2B
:1056E0008146A06840F2EB72A0F601012F4E304CCB
:1056F00091420DD2481CFAF7FCFF6FF00A01FAF74D
:1057000064FE2C49FAF7F1FD2946FAF796FD09E007
:1057100040F6EC71884201DB266004E0B0F5006FD2
:1057200001DC00202060B04630462168FFF7E8FC2D
:1057300001460020FFF7D0FC06462060514648464F
:10574000FAF77BFD3146FAF7D0FD4146FAF7FFFD47
:10575000044651464846FAF7C2FD3146FAF7C5FD00
:105760004146FAF7F4FD064621462846FFF7C8FCF5
:1057700001463846FFF7B0FC044631462846FFF79D
:10578000BFFC01463846FFF7A7FC054608482146FE
:10579000001DFFF74BFD064829462030FFF746FD68
:1057A000BDE8FC870080FD44000080BF0000C842C7
:1057B0000C0000200000C6421C011D07000A010168
:1057C0000201030304FF053C06260102020304054F
:1057D000060708090A0B0C0D0E0F10100000000040
:1057E0000000000001020304060708090000000091
:1057F00001020304004040404040404040404141DD
:105800004141414040404040404040404040404095
:10581000404040404005020202020202020202022F
:10582000020202020220202020202020202020022C
:1058300002020202020290909090909010101010BC
:105840001010101010101010101010101010101058
:1058500002020202020288888888888808080808EC
:1058600008080808080808080808080808080808B8
:105870000202020240000000F55700089C58000890
:105880000000002064000000344E000800590008A9
:1058900064000020D4090000444E0008000000000D
:1058A00000000000000000000000000000080140AF
:1058B000010000000008014002000000F00200208A
:1058C0000000000004000000000801400400000087
:1058D0000008014008000000F0020020080000005D
:1058E0000C0000000000000001000000100000009B
:1058F0000000000000127A0000000000000000001C
:04000005080000ED02
:00000001FF
