:020000040800F2
:1000000058070020050100088B3700080D2A00085A
:10001000893700083D090008D143000800000000AE
:10002000000000000000000000000000293F000860
:10003000A709000800000000293B00082B3F00082A
:100040001F0100081F0100081F0100081F01000810
:100050001F0100081F0100081F0100081F01000800
:100060001F0100081F0100081F0100081F010008F0
:10007000410900084D0900081F010008590900083E
:1000800065090008710900081F0100081F01000828
:100090001F0100081F0100081F0100081F010008C0
:1000A0001F010008913F00081F0100081F01000800
:1000B0009D3F00081F0100081F0100081D2A0008BD
:1000C000112A00081F0100081F0100085D3C0008FC
:1000D0001F010008C54300081F0100081F01000898
:1000E0001F0100081F0100081F010008DFF810D0E1
:1000F00000F032FB0048004709450008AFF30080DC
:10010000580700200648804706480047FEE7FEE7FC
:10011000FEE7FEE7FEE7FEE7FEE7FEE7FEE7FEE7B7
:100120008D3F0008ED000008202A04DB203A21FA68
:1001300002F00021704721FA02F3D040C2F1200200
:10014000914008431946704740EA01039B0703D0DA
:1001500009E008C9121F08C0042AFAD203E011F806
:10016000013B00F8013B521EF9D27047D2B201E0C8
:1001700000F8012B491EFBD270470022F6E710B5AC
:1001800013460A4604461946FFF7F0FF204610BD05
:1001900070B50F4D00B92868002412E00A4602E04D
:1001A0009E4203D0521C1378002BF9D1DAB22243BD
:1001B00005D02BB124B1002100F8011B04E0044656
:1001C000401C0678002EE9D12860204670BD000052
:1001D0005400002070B5064604F00CF9046805468A
:1001E0000A220021304600F011F92C6070BDF0B4F5
:1001F00080EA0102D40F4200B2EB410F02D2024664
:10020000084611464A0042D0C30DDDB2C1F3C752C1
:10021000AD1A202D35DAC1F3160141F4000204B104
:100220005242C5F1200602FA06F12A411044B3EB0E
:10023000D05F23D0C4B1012DA0EBC35009DCF0BCCA
:100240004FF0004202EAC352DBB200F5000000F0BA
:100250001EB9400000F1807000EBC350A0F1807027
:1002600040EAD170490009E0490841EAC071A0EBB9
:10027000C35000F50000400800EBC350F0BC00F094
:10028000FDB86142012202EB4101001BF6E7F0BC20
:10029000704781F00041AAE780F00040A7E780EABC
:1002A000010210B502F00043400022D04A001FD0E6
:1002B000010E01EB1261C0F35600C2F3560240F486
:1002C000000042F40002A0FB022000047F39140465
:1002D00000D0401C50EA124001D44000491EC2B276
:1002E0000C0604EBD010401C4008802A02D003E02A
:1002F000002010BD20F00100002900DA0020184382
:1003000010BD30B480EA010202F0004530F0004236
:1003100021F0004013D090B1C30DD40DC2F31601EB
:10032000C0F31600E41A41F4000140F400027D34E9
:10033000914201D3641C00E04900002C02DA30BC79
:10034000002070474FF400000023914201D3891A26
:10035000034340084FEA4101F7D151B1914202D124
:100360004FF0004105E002D24FF0010101E06FF0D3
:10037000010103EBC450284430BC00F07FB84200B8
:1003800005D0C0F3C7525242914201DC00207047B1
:1003900000EBC1507047C10F80EAE0700844CA0703
:1003A0009623002100F073B870B5C1F30A5201F032
:1003B00000450024C1F3130140F2FF3341F48011E2
:1003C0009A4201DA002070BD40F233439A42A2F211
:1003D000334203DC5242FFF7A7FE00E090402C437B
:1003E000F1D0404270BD00F0004230F000400AD031
:1003F000C10D01F56071C0F3160042EA0151C20857
:100400004007114370470020014670472DE9F0472F
:1004100091460F4680460446002614F8015B2DB134
:1004200000F0CEF90068405DC007F6D12B2D02D058
:100430002D2D18D0641E4A463946204600F0C4F9D6
:1004400027B13968A14201D1C7F8008071054FF08A
:1004500002040BD54042002803DD03F0CBFF04600B
:10046000A007BDE8F08746F48066E4E70028F8DAE4
:1004700003F0C0FF04606FF00040F2E70029A8BF5E
:100480007047401C490008BF20F00100704710B4BD
:10049000B0FA80FC00FA0CF050EA010404BF10BC72
:1004A000704749B1CCF1200421FA04F411FA0CF19F
:1004B00018BF012121430843A3EB0C01CB1D4FEAD8
:1004C00000614FEA102042BF002010BC704700EBD3
:1004D000C35010440029A4BF10BC7047401C490001
:1004E00008BF20F0010010BC70472DE9FE4F804688
:1004F00081EA0300C00F0C46009021F0004123F078
:100500000045B8EB0200A94105D24046214690467D
:100510001C460B46024623F00040104347D0270DEF
:10052000C7F30A00C3F30A510290401A0190402811
:100530006BDAC3F3130040F4801B0098924620B19D
:100540000023D2EB030A63EB0B0B01985946C0F171
:100550004002504600F012F906460D4650465946F4
:10056000019A00F01AF910EB08006141002487EAB3
:10057000115284EAE7731A4340D0009A62B3019A99
:10058000012A4FEA075215DC001B61EB02014FF014
:10059000004202EA0752CDE90042001C41F58011F9
:1005A00032462B4600F06EF903B0BDE8F08F4046AE
:1005B0002146F9E7001B61EB0201001C41F58013A5
:1005C00000185B412018A2F5001747EB030140EA31
:1005D000D570B6196D4111E06D084FEA360645EA4F
:1005E000C0754FEA0752001B61EB0201001C41F588
:1005F000801149084FEA30000019514132462B461C
:1006000003B0BDE8F04F00F02EB900980122400081
:100610000023D0EB020263EBE073009821464FEA1F
:10062000E074B8EB000061EB0401E9E783F00043FC
:100630005BE781F0004158E72DE9F041054621F0E4
:1006400000400C46284309D0C4F30A5040F233411D
:10065000884205DD28462146BDE8F0812846FBE7B3
:1006600040F2FE31884210DC0CDB4FEA043040EAF5
:10067000155050EA053105D0104804F000410143FF
:100680000020E9E700200146E6E7A0F233404642B9
:10069000C6F140022846214600F070F80746884619
:1006A000284621463246FFF73FFD43463A4600F0D2
:1006B000DAF83246BDE8F04100F060B80000F03FE3
:1006C00030B5041E71F1000404DB4FF000444042D9
:1006D00064EB0101141E73F1000405DB1C464FF0AE
:1006E0000043524263EB04038B4208BF824230BD99
:1006F00030B5041E71F1000404DB4FF000444042A9
:1007000064EB0101141E73F1000405DB1C464FF07D
:100710000043524263EB0403994208BF904230BD4C
:10072000002801DBC0F10040002901DBC1F10041DC
:10073000814202D24FF0004004E04FF0005001D15E
:100740004FF0C0404FEA2062EFF3008162F31F6177
:1007500081F3008870470000064C074D06E0E06812
:1007600040F0010394E8070098471034AC42F6D3F8
:10077000FFF7C0FCCC490008EC490008202A04DB44
:10078000203A00FA02F1002070479140C2F12003A4
:1007900020FA03F3194390407047202A06DBCB1759
:1007A000203A41FA02F043EAE07306E041FA02F32C
:1007B000D040C2F120029140084319467047000022
:1007C00000487047C84900082DE9F05F824600786C
:1007D000002715468B460AF10104B946302801D09E
:1007E0009DB113E014F8010B0127782803D0582895
:1007F00001D045B10AE00DB1102D07D10027102519
:1008000014F8010B02E0082500E00A250026B04696
:100810000EE005FB080005FB06F1012701EB104681
:100820001FFA80F8B6F5803F00D3B94614F8010BE3
:10083000294600F075F80028EBDABBF1000F05D06F
:100840000FB1641E00E05446CBF80040B9F1000F30
:1008500006D003F0CFFD02210160C81EBDE8F09F65
:1008600048EA0640FAE710B5141E73F1000408DAEE
:10087000401C41F1000192185B411A4301D120F064
:10088000010010BD2DE9F04D92469B4611B1B1FA21
:1008900081F202E0B0FA80F220329046FFF76EFF5C
:1008A00004460F4640EA0A0041EA0B0153465A4605
:1008B000084313D0114653EA010019D0C8F1400291
:1008C0005046FFF731FC05460E4650465946424613
:1008D000FFF754FF084305D0012004E020463946C5
:1008E000BDE8F08D0020054346EAE0762C4337430F
:1008F0000A986305E40AA0EB08000022FD0A44EA16
:1009000047540A3002D500200146E9E701051019D5
:100910006941DDE9084500196941BDE8F04DA2E7EC
:100920003A2800D2303820F02002412A01D3A2F127
:100930003700884201D34FF0FF307047FEE70000D8
:10094000014800F0A7B80000B4010020014800F001
:10095000A1B80000F8010020014800F09BB8000099
:10096000CC020020014800F095B8000018010020DA
:10097000014800F08FB80000D400002030B590F896
:1009800040500124AC40C56B6C60046863604368F0
:10099000102B036803D099600068C26030BD9A6074
:1009A0000068C16030BD704772B6FEE710B590F8C0
:1009B00021100022022905D00421816380F8202023
:1009C000012010BD01680B6823F00E030B60016865
:1009D0000B6823F001030B6090F84030C46B0121D9
:1009E00001FA03F3636080F8211080F8202010469C
:1009F00010BD000010B590F821100024022903D08A
:100A00000421816301243DE001680A6822F00E029E
:100A10000A6001680A6822F001020A601A4A016845
:100A2000914201D1012121E0174A1432914201D1B2
:100A300010211BE0144A2832914201D1891515E09A
:100A4000114A3C32914201D189140FE00E4A5032D2
:100A5000914202D14FF4803108E00B4A6432914256
:100A600002D14FF4801101E04FF08071064A083A3C
:100A70005160012180F82110002180F82010416B85
:100A800001B18847204610BD0800024090F82100BF
:100A9000704700002DE9F05FC16B0C6801680B68BE
:100AA000D0F840C0042202FA0CF2494DDFF824A12C
:100AB000494E4A4FDFF828B1DFF828E122422CD016
:100AC0005A072AD50A68920603D40A6822F004025B
:100AD0000A600168A94201D1042219E0514501D1FF
:100AE000402215E0B14202D14FF4806210E0B942D9
:100AF00002D14FF480420BE0594502D14FF48022DD
:100B000006E0714502D14FF4800201E04FF08062AF
:100B10002F4908394A60C16A3BE04FF0020808FAE1
:100B20000CF818EA040F4FF000094FF0010235D01D
:100B30005FEA837832D50B689B0605D40B6823F0F7
:100B40000A030B6080F821200168A94201D102222A
:100B500019E0514501D1202215E0B14202D14FF4F4
:100B6000007210E0B94202D14FF400520BE0594537
:100B700002D14FF4003206E0714502D14FF4001269
:100B800001E04FF00072124908394A6080F8209065
:100B9000816A00291AD0BDE8F05F0847082505FAE8
:100BA0000CF5254212D01B0710D50B6823F00E035D
:100BB0000B6090F84010C36B02FA01F15960826338
:100BC00080F8212080F82090016BE2E7BDE8F09FDB
:100BD000080002401C000240300002404400024075
:100BE000580002406C00024030B528B308C81349D1
:100BF00014221944B1FBF2F18900C16310498163E9
:100C0000022141771A6843F6F0718A43D0E9001453
:100C10002143D0E902452C4321430469214344691F
:100C2000214384692143114319600021416301225A
:100C300042770177084630BD012030BDF8FFFDBF87
:100C40000000024070B5044690F8200000250128FD
:100C50000CD0012084F8200094F821600020012E9F
:100C600006D084F820000225284670BD022070BD01
:100C7000022684F82160A0632068066826F0010639
:100C800006602046FFF77AFEE06A002820680168C7
:100C900002D041F00E0106E021F00401016020685D
:100CA000016841F00A0101602068016841F001011A
:100CB0000160D9E770B5044600F00CF90546601CE8
:100CC00002D004480078044400F004F9401BA0421C
:100CD000FAD370BD440000202DE9F84FDFF8B89139
:100CE0000024A9F1040B23460F2709F1040AABF1F4
:100CF000040EC9E00125A5402A40AA427DD1674ED5
:100D0000D1F804C0ACEB0608B44532D014DCBCF119
:100D1000030F3AD009DCBCF1000F2AD0BCF1010F5F
:100D20001CD0BCF1020F31D11DE0BCF1110F17D066
:100D3000BCF1120F2AD119E0B8F5881F19D006DCD2
:100D4000B8F5803F15D0B8F5801F1FD111E0B8F578
:100D5000001F0ED0B8F5041F18D10AE0CB6815E0CB
:100D6000CB681B1D12E0CB6808330FE0CB680C3357
:100D70000CE08B682BB1012B4FF0080303D04561C9
:100D800004E0042302E0056100E00023FF2A01D80B
:100D9000064601E000F104064FEA840501D9A5F1F9
:100DA0002005D6F8008007FA05FC28EA0C0803FAAB
:100DB00005F548EA0508C6F800804D68ED0062D5E3
:100DC000374DAE6946F00106AE61AD6924F0030609
:100DD00005F001050095334D06EB050CDCF80850D5
:100DE000A607360F07FA06F825EA0805DFF8B880E7
:100DF000404503D14FF0000817E044E0DFF8AC8035
:100E0000404502D14FF001080FE0DFF8A4804045D3
:100E100002D14FF0020808E0DFF89880404502D187
:100E20004FF0030801E04FF0040808FA06F848EA1A
:100E30000508CCF808804D68D9F80060ED024D46F1
:100E400001D5164300E096432E604D68DAF8006045
:100E5000AD02554601D5164300E096432E604D681D
:100E6000DBF80060AD035D4601D5164300E0964314
:100E70002E604D68DEF80060ED03754601D516431F
:100E800000E096432E60641C0D682A46E5407FF41E
:100E900031AFBDE8F88F00000804014000001110D8
:100EA000001002400000014000080140000C014019
:100EB0000010014000140140C26821EA02030A4008
:100EC00043EA0241016170470AB1016170470904B8
:100ED000FBE70000014880687047000044000020E4
:100EE000704770472DE9F041016804464A694E6831
:100EF00090F83E000025D743FA050BD4F243D20503
:100F000008D46FF4807201254A6121680A6842F4AE
:100F100000420A60B90508D4F143C90505D4226826
:100F20006FF4007145F002055161790525D4F14354
:100F3000C90522D4638D94F83D10226B202808D176
:100F40003BB9212910D029290ED0282901D1212AE5
:100F50000AD022686FF48061516145F004051028C1
:100F600006D0402804D008E0204602F05FF904E0F3
:100F70002068016841F400710160380508D4F0432D
:100F8000C00505D421686FF4006045F0080548618C
:100F9000002D07D0206C284320642046BDE8F04196
:100FA00001F0A8BDBDE8F0812DE9F04702680021FD
:100FB0005368C66A90F83E4090F83D50102C12D00D
:100FC000402C10D0046C002C7DD05469E443A6075B
:100FD0007AD4DE43B60577D4036C03B19169BDE8DA
:100FE000F04702F0FFB8976951694FF42A0CC943E2
:100FF0005FEAC1784FF02A4904D066452AD04E45B1
:1010000028D010E0DE43B6050DD4C16A614501D198
:10101000012103E0C16A494501D10821C162BDE84F
:10102000F04702F045B80E0716D4DE43B60513D4D8
:10103000416CC9B21161416B09B1896A29B9816BEF
:10104000002907D0896A002904D00068416841F46A
:1010500000614160BDE8F0878E0706D4DE43B60527
:1010600003D4BDE8F04701F077BFFE43526876072E
:101070004FEA02521DD4002AECDB0A0608D4DA43F8
:10108000520505D4490705D5BDE8F04701F008BF72
:101090004907DFD4D9438905DCD4212D05D0402C64
:1010A000D8D1BDE8F04702F049B8BDE8F04701F0FB
:1010B000B5BE002ACEDB4A060BD4DA43520508D46B
:1010C000490708D501E00DE00EE0BDE8F04701F06A
:1010D0002BBE4907BED4D9438905BBD4BDE8F04730
:1010E00001F0B4BD916970E7E10606D4D9438905E2
:1010F00003D4BDE8F04702F0E1B82821212D27D024
:10110000292D25D0650655D4DD436D0552D46407DD
:1011100052D590F83D30448D002C9BD01269446A22
:101120002270426A521C4262428D521E4285428D9A
:10113000002A8FD12A2B8DD10268536823F4806353
:1011400053602222026380F83D1000F081F981E7AC
:10115000250623D4DD436D0520D4640720D590F8FF
:101160003D30448D002CF2D0446A24781461426AE8
:10117000521C4262428D521E4285428D002AE6D1A7
:10118000292BE4D10268536823F480635360212241
:10119000026380F83D1000F05CF95BE76107D6D48C
:1011A000D9438905D3D4418D0029D0D0416A09782B
:1011B00011610AE06107CAD4D9438905C7D4418DBA
:1011C0000029C4D01169426A1170416A491C416208
:1011D000418D491E41853DE77047000070B5040010
:1011E00025D094F83D00002520B984F83C502046D5
:1011F00000F0BEF8242084F83D002068016821F04A
:10120000010101602068016841F40041016020682B
:10121000016821F40041016000F04AFA4D4A61681A
:10122000914201D84C4900E04C49884201D201204A
:1012300070BD4B492368B0FBF1F15E6826F03F06B4
:101240000E435E606368934206D94FF49673594328
:101250004FF47A73B1FBF3F12368491C1E6A26F040
:101260003F06314319626168914210D84900401E1F
:10127000B0FBF1F2521CC2F30B02042A01D204208B
:1012800022E0B0FBF1F0401CC0F30B001CE0A268B0
:10129000F2B301EBC10303EB0116431EB3FBF6F3FC
:1012A0005B1C43F480431B0549D092B301EBC102A0
:1012B00002EB0111401EB0FBF1F0401CC0F30B002B
:1012C00040F4804040F400402168CA694CF6FF7346
:1012D0009A431043C861D4E90710014320680268AB
:1012E00022F0C00211430160D4E9030101432068E8
:1012F000826848F2FF339A4311438160D4E90501C3
:1013000008432168CA6822F0FF021043C86001E068
:101310000EE016E02068016841F0010101602564DB
:10132000202084F83D00256384F83E50002070BDE5
:1013300001EB4106431EB3FBF6F35B1CB3E7012050
:10134000C2E701EB4101401EB0FBF1F0401CC0F3CD
:101350000B00B7E7A086010080841E0000093D0055
:1013600040420F0070477047704770477047000059
:101370002DE9F04186B000240646009401940294C1
:10138000039400682D49884255D12D4DA86940F03D
:101390000800A861A869694600F008000490C02010
:1013A000009012200190032003902648FFF794FC40
:1013B000E86940F40010E861E869244D00F4001089
:1013C00004902148C5E900044FF08008C5E90248AF
:1013D0002C6187146C61C5E906472846FFF704FCB9
:1013E00008B1FFF7E1FAB5636E62184D164844354F
:1013F000143801C51020A5E81101144845F810491A
:1014000044306C61C5E90647FFF7EEFB08B1FFF712
:10141000CBFA7563002211461F206E6200F080F83F
:101420001F2000F06FF800221146202000F078F80D
:10143000202000F067F806B0BDE8F08100540040BD
:1014400000100240000C014080000240D400002047
:101450007047704702488168027811448160704784
:1014600044000020074810B5016841F010010160F8
:10147000032000F075F80F2000F006F800F024F8C3
:10148000002010BD0020024070B50D4D04464FF401
:101490007A712878B1FBF0F00A490968B1FBF0F0E5
:1014A00000F008FE48B9102C07D200222146501E39
:1014B00000F036F800206C6070BD012070BD0000A7
:1014C00044000020500000200C4808B5816941F01C
:1014D00001018161816901F001010091C16941F05F
:1014E0008051C161C06900F080500090044841689B
:1014F00021F0E06141F00071416008BD0010024040
:1015000000000140002809DB00F01F02012191408A
:101510004009800000F1E020C0F800117047000091
:10152000F0B40E4B1B680C46C3F30223C3F107054E
:10153000042D00D90425191D072901D2002300E03C
:10154000DB1E012606FA05F1491E214099409E4006
:10155000761E16403143F0BC02F03BBF0CED00E0BC
:10156000064900F0070208684FF6FF03184040EAFA
:101570000220034A10430860704700000CED00E0B1
:101580000000FA052DE9F0470F46050061D0434EF3
:10159000306800F00700B84209D2306820F0070038
:1015A00038433060306800F00700B84251D12868F5
:1015B0003B4C810712D5400703D5606840F4E060DA
:1015C00060602878000703D5606840F46050606070
:1015D0006068A96820F0F000084360602878C007C0
:1015E00028D06868012810D02168022810D0890707
:1015F00000292EDA616821F0030101436160FFF7E1
:1016000069FC804641F288390DE021688903EFE7E3
:101610008901EDE7FFF75EFCA0EB0801494502D91F
:101620000320BDE8F0876068696800F00C00B0EB4B
:10163000810FEFD1306800F00700B8420BD9306855
:1016400020F0070038433060306800F00700B842EF
:1016500001D00120E5E72878400705D56068E968F2
:1016600020F4E060084360602878000706D56068D1
:10167000296920F4605040EAC100606000F038F849
:101680006168084AC1F30311515CC840064908600B
:1016900006480068FFF7F8FE0020C2E7002002407D
:1016A000001002402C490008500000204800002093
:1016B0000448054900684968044AC1F30221515CA5
:1016C000C840704750000020001002403C4900080C
:1016D0000448054900684968044AC1F3C221515CC5
:1016E000C840704750000020001002403C490008EC
:1016F0000E4A51680E4801F00C03042B11D0082B40
:101700000FD10C48C1F38343C903C05C0AD55168AB
:10171000084AC1F34041921E515C054A5043B0FB58
:10172000F1F0704704494843704700000010024040
:1017300000127A001C49000800093D002DE9F84F0D
:10174000040070D02078C04DC00749D06868C0F34D
:101750008100012807D06868C0F38100022809D100
:101760006868C00306D52868800339D560680028FA
:10177000E7D035E06068B0F5803F0BD010B1B0F530
:10178000A02F11D0286820F480302860286820F429
:10179000802002E0286840F480302860606890B1C2
:1017A000FFF798FB06460AE0286840F4802028608E
:1017B000F0E700BFFFF78EFB801B642873D8286812
:1017C0008003F7D50CE0FFF785FB064605E000BF78
:1017D000FFF780FB801B6428F0D828688003F7D4CB
:1017E00020789A4E80074FF001094FF0000839D554
:1017F000686810F00C0F07D06868C0F381000228F9
:1018000009D16868C00306D42868800714D5206908
:10181000012808D110E02069B0B1C6F80090FFF7A8
:1018200059FB074605E00AE1FFF754FBC01B0228FD
:10183000C4D828688007F7D52868616920F0F800C7
:1018400040EAC10028600DE0C6F80080FFF742FBC7
:10185000074604E0FFF73EFBC01B022823D8286898
:101860008007F7D4207800072CD57948A169D9B131
:10187000C0F80090FFF72EFB074604E0FFF72AFBB5
:10188000C01B02280FD8686A8007F7D571484FF44B
:10189000FA510068B0FBF1F0009000BF0098411EC3
:1018A0000091FAD20EE080E0C0F80080FFF712FB52
:1018B000074604E0FFF70EFBC01B022875D8686AD4
:1018C0008007F7D42078400760D5E8690027C0007A
:1018D00008D4E86940F08050E861E869012700F029
:1018E000805000905C480168C90513D401688346A4
:1018F00041F480710160FFF7EDFA824606E000BF17
:10190000FFF7E8FAA0EB0A0064284ED8DBF80000E5
:10191000C005F5D5E06801280AD008B1052813D024
:10192000286A20F001002862286A20F0040002E002
:10193000286A40F001002862E06841F2883B98B1D3
:10194000FFF7C8FA82460BE0286A40F004002862DC
:10195000EEE700BFFFF7BEFAA0EB0A0159455AD8DF
:10196000286A8007F6D50CE0FFF7B4FA824605E056
:10197000FFF7B0FAA0EB0A0159454CD8286A800756
:10198000F6D41FB1E86920F08050E861E06988B3BF
:101990006968C1F38101022944D00228C6F8608039
:1019A00004D0FFF797FA044638E034E0FFF792FAE4
:1019B000074604E0FFF78EFAC01B02282BD82868E0
:1019C0008001F7D4206AB0F5803F05D16868A1682E
:1019D00020F4003008436860D4E9080108436968CE
:1019E00021F4741108436860C6F86090FFF772FA3A
:1019F000044606E025E000BFFFF76CFA001B022852
:101A000009D828688001F7D51BE000BFFFF762FA0C
:101A1000001B022802D90320BDE8F88F2868800146
:101A2000F4D40EE00128F7D06868226A00F480310F
:101A3000914204D1616A00F47010884201D0012003
:101A4000EAE70020E8E70000001002400000424200
:101A5000800442425000002000700040704790F81F
:101A60005100704738B50446006842688168C94330
:101A70004B0606D5CB0704D1D3435B0601D4216CBA
:101A800005E08B0708D4D3431B0605D4616C01B075
:101A90002046BDE8304008478B0601D54B0646D4AA
:101AA000D3439B0643D44B060AD494F85130032BFE
:101AB0003ED0636D43F004036365C368836800939D
:101AC000890609D4616D41F0010161658168009169
:101AD000016821F040010160606D002827D0206876
:101AE000416821F0E0014160012084F85100900735
:101AF00022D02068416821F003014160104DE06C64
:101B000040B14563E06CFEF775FF18B1606D40F0C1
:101B100040006065A06C002809D04563A06CFEF70A
:101B200069FF002803D0606D40F04000606538BD5B
:101B3000C1688068009038BD2046FFF78FFF38BD30
:101B4000693C000870B5040009D0606A002540B106
:101B500025616561A56294F8510040B10CE0012057
:101B600070BD6068B0F5827FF4D0E561F2E784F87B
:101B70005050204600F040F8022084F851002068C0
:101B8000016821F040010160A088218900F4827081
:101B900001F404410843A18901F400610843217C58
:101BA00001F002010843217D01F001010843218B6E
:101BB00001F400710843217F01F03801084394F8D3
:101BC000201001F080010843218D01F400510843E9
:101BD00021680860A069042101EA1040216848607A
:101BE0002068C16921F40061C1616565012084F844
:101BF0005100002070BD00002DE9F04186B00024A6
:101C00000646009401940294039400682E49884289
:101C100057D12E48816941F480518161816901F475
:101C200080510491816941F0040181618069284DEE
:101C300000F004000490A0200090022001900320F6
:101C4000039069462846FFF747F84020CDE9000495
:101C5000694628460294FFF73FF81F4D1D484FF094
:101C60008008C5E90004C5E902482C614FF400571B
:101C70006C61C5E906472846FEF7B6FF08B1FEF7D6
:101C800093FEF5646E62144D12484435143001C55C
:101C90001020A5E81101104845F8104944306C6146
:101CA000C5E90647FEF7A0FF08B1FEF77DFEB56463
:101CB0000022114623206E62FFF732FC2320FFF73B
:101CC00021FC06B0BDE8F081003001400010024068
:101CD000000801401C000240B4010020704770471A
:101CE0002DE9FF4F81B01D46934604464FF0010990
:101CF0000E9EFFF7EFF8074694F85100616801283F
:101D000006D0B1F5827F3CD1A168C9BB042838D187
:101D10000298002871D0BBF1000FFBD0002DF9D044
:101D200094F8500001282CD04FF0010A84F850A0FC
:101D300094F85100042802D0052084F851004FF097
:101D40000008C4F85480C4F838B0E587A587029924
:101D50002163E586A586C4F84080C4F844802068E5
:101D60000168490603D4016841F040010160E06860
:101D7000B0F5006F606808D0F0B3012D49D081E064
:101D8000FFE7022005B0BDE8F08F08B1012D39D181
:101D9000206B21680088C860206B801C2063E08E67
:101DA000401EE0862EE02068816889070FD5E18E0D
:101DB00069B1B9F1010F0AD1216B0988C160206BAB
:101DC000801C2063E08E401EE0864FF000092068F2
:101DD0008168C9070CD0E18F51B1C068A16B088040
:101DE000A06B801CA063E08F401EE0874FF00109CC
:101DF000FFF770F8C01B01E00BE067E0B04201D3D1
:101E0000701C50D1E08E0028CDD1E08F0028CAD1BF
:101E10003EE0206B216800780873206B401C206333
:101E2000E08E401EE0862DE02068816889070FD58E
:101E3000E18E69B1B9F1010F0AD1216B0978017303
:101E4000206B401C2063E08E401EE0864FF00009AE
:101E500020688168C9070CD0E18F51B1C068A16BBF
:101E60000870A06B401CA063E08F401EE0874FF01D
:101E70000109FFF72FF8C01BB04202D3701C01D03C
:101E800011E086B1E08E0028CED1E08F0028CBD1C2
:101E90003A463146204601F0D1FF50B1202060651E
:101EA00084F8508012E084F851A084F85080032018
:101EB00068E7A06818B92068C1688068009084F855
:101EC00051A084F85080606D0028F1D0012059E7BE
:101ED00070B5044690F851006568012806D0B5F544
:101EE000827F3AD1A568A5BB042836D191B38AB3C5
:101EF00083B394F8500001282FD0012084F85000BB
:101F000094F85100042802D0052084F851000025DF
:101F100065652163A386E386A263A387E3872564BF
:101F2000656494F85100042819D0E16C2748C86210
:101F30002748E16C8862E16C26480863E06C4563E1
:101F4000E38F2168A26B0C31E06CFEF77BFE00BBD7
:101F50000AE002E0FFE7012070BD022070BDE16CE5
:101F60001D48C8621D48E4E72068416841F001014E
:101F70004160A06CC562A06C8562A06C0563A06C1A
:101F80004563E38E2268216B0C32A06CFEF75AFE8B
:101F900030B1606D40F01000606584F85050DAE7B1
:101FA00020680168490603D4016841F040010160DE
:101FB00084F850502068416841F020014160206859
:101FC000416841F002014160002070BDAF3C000853
:101FD000873D0008793C00089B3C0008B93C00089C
:101FE00070B5044690F8510001281CD1C9B1C2B1A6
:101FF00094F85000012816D0012084F850000320E6
:1020000084F85100002565652163A286E286A563F8
:1020100065642564A587E587A068B0F5004F04D006
:102020000DE0012070BD022070BD2068016821F024
:10203000400101602068016841F480410160A16CA9
:102040001748C862A16C17488862A16C16480863DB
:10205000A06C4563E38E2268216B0C32A06CFEF706
:10206000F1FD30B1606D40F01000606584F85050B3
:10207000D7E720680168490603D4016841F04001B0
:10208000016084F850502068416841F020014160AF
:102090002068416841F002014160002070BD0000ED
:1020A000A53C0008233D0008793C000870477047B4
:1020B0007047704710B5401EB0F1807F01D30120FA
:1020C00010BD4FF0E02460610F21601702F081F92C
:1020D0000020A06107202061002010BD70477047DC
:1020E00070B590F83C20012A26D0012480F83C40AD
:1020F000022280F83D2003685A689D6822F070062D
:102100000A6832435A600D4B02689A4208D0B2F115
:10211000804F05D00A4B9A4202D00A4B9A4204D112
:10212000496825F080031943916080F83D40002103
:1021300080F83C10084670BD022070BD002C0140A4
:10214000000400400008004010B5040003D094F8DB
:102150003D0010B107E0012010BD002084F83C00D4
:10216000204600F01FF8022084F83D00211D206861
:1021700001F01AFF012084F8460084F83E0084F83C
:102180003F0084F8400084F8410084F8420084F85D
:10219000430084F8440084F8450084F83D000020A2
:1021A00010BD000038B5054600681F4A1F4990421F
:1021B0000ED1886940F4006088618869002200F4CB
:1021C0000060009011461920FFF7AAF9192026E0B7
:1021D000B0F1804F27D1C86940F00100C861C869DB
:1021E000144C00F001000090114820600020802174
:1021F0006060C4E90201490021618900C4E9051059
:10220000E0612046FEF7F0FC08B1FEF7CDFB6C6202
:10221000002211461C206562FFF782F91C20BDE8F0
:102220003840FFF76FB938BD002C01400010024064
:1022300058000240CC02002090F83D10012901D046
:1022400001207047022180F83D100168CA6842F001
:102250000102CA6000680B49884208D0B0F1804F83
:1022600005D00949884202D00849884204D18168D2
:1022700001F00701062903D0016841F00101016066
:1022800000207047002C014000040040000800407E
:1022900070B5044690F83C000025012817D00126AF
:1022A00084F83C60022084F83D002068826822F0B7
:1022B000770222F47F4282600868502838D00DDC13
:1022C00020284FD005DC90B3102811D14AE002201D
:1022D00070BD302846D040280AD13BE060282FD07E
:1022E00070280DD0B0F5805F03D0B0F5005F12D03C
:1022F000012584F83D60002084F83C00284670BD2C
:10230000CB68D1E90121206801F097FE206881683F
:1023100041F0770109E0CB68D1E90121206801F0A3
:102320008CFE2068816841F480418160E1E719E01A
:10233000CA684968206801F035FF5021206806E02E
:10234000CA684968206801F03EFF6021206801F0FA
:102350007EFECEE7CA684968206801F023FF40216D
:102360002068F4E7226801461046F0E770472DE93F
:10237000F04104460068C66805694FF00007A907E8
:1023800013D5B10711D5F91E01610120207720680E
:1023900080698007204602D0FFF7E8FF04E000F0E4
:1023A000A3F8204600F035F92777680716D570079F
:1023B00014D521686FF0040008610220207720689E
:1023C000806910F4407F204602D0FFF7CFFF04E081
:1023D00000F08AF8204600F01CF92777280715D569
:1023E000300713D521686FF00800086104202077BA
:1023F0002068C0698007204602D0FFF7B7FF04E0DD
:1024000000F072F8204600F004F92777E80616D5A8
:10241000F00614D521686FF01000086108202077BD
:102420002068C06910F4407F204602D0FFF79EFF6D
:1024300004E000F059F8204600F0EBF82777E807B1
:1024400008D0F00706D021686FF00100086120462F
:1024500000F02EF9280608D5300606D521686FF061
:10246000800008612046FFF739FE680608D570062F
:1024700006D521686FF040000861204600F019F988
:10248000A8060AD5B00608D521686FF020000861BB
:102490002046BDE8F041FFF722BEBDE8F081000014
:1024A00000B585B00021009101910291039100686F
:1024B000B0F1804F11D10A48816941F00401816176
:1024C0008069694600F0040004900F20009002200B
:1024D000019003900348FEF7FFFB05B000BD00002C
:1024E0000010024000080140704770B5044690F8A3
:1024F0003C0000260D4601280FD0012084F83C0046
:102500006AB1042A1DD0082A2FD00C2A3FD00126F8
:10251000002084F83C00304670BD022070BD206869
:1025200001F09EFD2068816941F008018161206809
:10253000816921F004018161206881692A69114360
:1025400011E0206801F0B4FD2068816941F4006168
:1025500081612068816921F48061816120688169DD
:102560002A6941EA02218161D2E7206801F0CCFDAD
:102570002068C16941F00801C1612068C16921F08A
:102580000401C1612068C1692A69114311E0206812
:1025900001F0E6FD2068C16941F40061C161206875
:1025A000C16921F48061C1612068C1692A6941EA79
:1025B0000221C161ACE710B5040003D094F83D00DE
:1025C00010B107E0012010BD002084F83C00204637
:1025D00000F01EF8022084F83D00211D206801F063
:1025E000E3FC012084F8460084F83E0084F83F00B4
:1025F00084F8400084F8410084F8420084F84300E5
:1026000084F8440084F8450084F83D00002010BDA3
:102610007047704710B50446022249B104290ED014
:10262000082913D094F84100012816D0012010BDCC
:1026300094F83E000128F9D184F83E200FE094F888
:102640003F000128F2D184F83F2008E094F84000D0
:102650000128EBD184F8402001E084F841200122D8
:10266000206801F0DDFC0F492068884203D1426CEC
:1026700042F4004242642068884208D0B0F1804FA2
:1026800005D00949884202D00849884204D18168AE
:1026900001F00701062903D0016841F00101016042
:1026A000002010BD002C0140000400400008004044
:1026B0007047704770477047F8B50168044608686E
:1026C000CA684B6910F00F0F4FF0000559D003F0A6
:1026D000010602F49077374365D0C10705D0D105D4
:1026E00003D5616C41F001016164410705D5D9074B
:1026F00003D0616C41F002016164810705D5D907FF
:1027000003D0616C41F004016164010707D502F058
:102710002001314303D0616C41F008016164616CB8
:1027200000293AD0800604D5900602D5204601F053
:102730008BFD20684069616CC0F38010090700D4EC
:1027400060B3204601F059FD20684069400621D55C
:102750002068143050E8001F21F0400140E80012CA
:10276000002AF5D1E06BA8B16D494163E06BFEF73B
:1027700041F9002811D0E06B416B01B0BDE8F04099
:10278000084783060FD593060DD52046BDE8F840CF
:1027900001F05ABD2046FFF78EFFF8BD2046FFF737
:1027A0008AFF6564F8BD266B2023012E7CD1C60606
:1027B0007AD5D60678D508684868009048694FF001
:1027C0000206400640D5E16B086840680004000C32
:1027D000E8D0A28D8242E5D9E085886920282DD0F5
:1027E00020680C3050E8001F21F4807140E800128E
:1027F000002AF5D12068143050E8001F21F00101B3
:1028000040E80012002AF5D12068143050E8001F7B
:1028100021F0400140E80012002AF5D184F842304E
:10282000256320680C3050E8001F21F0100140E8BB
:102830000012002AF5D1E06BFEF7B8F86663A08DB0
:10284000E18D401A81B22AE0A08DE18D401A81B25B
:10285000E08D0028A6D00029A4D022680C3252E8CE
:10286000000F20F4907042E80007002FF5D1206897
:10287000143050E8002F22F0010240E80027002F1A
:10288000F5D184F84230256320680C3050E8002FE1
:1028900022F0100240E80023002BF5D166632046A9
:1028A000FFF708FFF8BDFFE705062BD5150629D56C
:1028B00094F841002128F5D1A068B0F5805F01D1DE
:1028C0002069B0B1206A411C21622168007848600B
:1028D000E08C401E0004000CE084E3D12068C16855
:1028E00021F08001C1602068C16841F04001C160F1
:1028F000D8E7206A0088C0F308004860206A801C7E
:102900002062E5E74006CDD55006CBD5CA68204603
:1029100022F04002CA6084F8413000F076F8C1E746
:10292000EB41000870B5040004D094F84100002584
:1029300010B106E0012070BD84F84050204600F040
:1029400023F8242084F841002068C16821F4005154
:10295000C160204601F0DAFC2068016921F4904151
:1029600001612068416921F02A0141612068C16844
:1029700041F40051C1606564202084F8410084F86E
:1029800042006563002070BD30B585B0002400941E
:102990000194029403940068184988422CD1184885
:1029A000816941F480418161816901F48041049130
:1029B000816941F0040181618069124D00F00400D9
:1029C00004904FF4007000900220019003200390C7
:1029D00069462846FEF780F92815CDE900046946C6
:1029E00028460294FEF778F9002211462520FEF7CA
:1029F00097FD2520FEF786FD05B030BD003801406B
:102A0000001002400008014070477047FEE70000D8
:102A10000148FEF767BA0000800000200148FEF779
:102A2000C3BA00008000002038B5406A002190F849
:102A30003D202B4B46F2A8141B68B3FBF4F3C3EB09
:102A4000C30303EB830300933BB15B1E0093036856
:102A50001B689B0505D5009BF6E7036C43F020033C
:102A60000364436B03B19962836B03B1996203689A
:102A70001C6824F480641C604185436B03B1596376
:102A8000836B03B1596303681C6824F001041C6064
:102A900090F83D402023602C0BD0282434EA020219
:102AA0000FD080F83D3080F83E1000BFFEF794FB59
:102AB00038BD80F83D3080F83E100164FEF710FA12
:102AC00038BD0268136843F001031360026813689D
:102AD00043F480631360016380F83D40E6E7000043
:102AE0005000002000684169C943090601D4002153
:102AF0000161704770B5044690F83D0094F83E10AF
:102B0000102901D0402906D1222804D121680A6861
:102B100022F400620A60282131EA00024FF0000529
:102B20004FF0200626D021684968090505D46028A1
:102B300003D084F83D6084F83E50256320684168E6
:102B4000090537D5416821F400614160606B90F858
:102B500021203C49012A11D04163606BFDF74AFFF7
:102B600038B32068016821F00101016084F83D60FC
:102B7000606B1CE0256384F83D10DFE7A06B4163C8
:102B8000A06BFDF737FFA0B120684169C943490632
:102B900005D40069616A0870606A401C6062206840
:102BA000016821F00101016084F83D60A06B416B78
:102BB000884710E094F83D10602910D04169C9435E
:102BC000490605D40069616A0870606A401C606249
:102BD0002046FEF701FB206CC1071CD115E084F8EC
:102BE0003D6025644169C943490605D40069616AAD
:102BF0000870606A401C60622068016821F0010171
:102C000001602046FEF76CF9E5E7810703D4410730
:102C100001D4000704D52068416821F4E0614160D7
:102C200094F83D00216C49070BD5282809D10648A6
:102C3000E062256384F83D6084F83E502046FEF74C
:102C400091FB70BD292A00080000FFFF10B5C26A81
:102C5000438D0168042B06D0438D032B08D0438D90
:102C6000022B1DD012E04A6822F480624A600CE018
:102C70004B6823F480634B60042A06D0022A04D0F8
:102C800001680A6822F480620A6001680969426A80
:102C90001170416A491C4162418D491E418510BD38
:102CA000012A34D0102A32D0042A34D0022A32D059
:102CB0000B6843F400730B6001680969436A19707B
:102CC000416A491C4162438D5B1E438503681B6951
:102CD0000B70416A491C4162418D491E4185016862
:102CE0004B6823F440734B60202180F83D1090F82E
:102CF0003E300021402B80F83E1010D0082A02D030
:102D0000202A00D012210163FEF72DFB10BD0B68B5
:102D100023F48063CFE70B6843F48063CBE7016360
:102D2000FEF723FB10BD000038B590F83D102229B6
:102D300010D1C36A418D03290DD901680969426A1E
:102D40001170416A491C4162418D491E4185418D86
:102D5000032906D038BDC26A022A02D0012906D052
:102D600029B10068416821F48061416038BD2A4A78
:102D700046F2A81400211268B2FBF4F202EB8202C0
:102D8000009202682024009D6D1E009526D01568D3
:102D9000AD05F8D4156825F480651560026855689E
:102DA00025F4E065556002681269456A2A70426A36
:102DB000521C4262428D521E428580F83D4090F87E
:102DC0003E2080F83E10402A21D0082B02D0202B34
:102DD00000D012210163FEF7C6FA38BD036C43F040
:102DE00020030364536823F4E063536002681269AC
:102DF000436A1A70426A521C4262428D521E4285D8
:102E000080F83D4080F83E10FEF7E6F938BD0163DA
:102E1000FEF7ABFA38BD00005000002010B5C26AC2
:102E200090F83D1021290BD1418D51B1416A0268C2
:102E300009781161416A491C4162418D491E4185F1
:102E400010BD20230021082A13D0202A11D012F50A
:102E5000803F0ED00268546824F4E064546011226C
:102E6000026380F83E1080F83D3000BFFEF77CFA28
:102E700010BD0268546824F4E06454600268146869
:102E800044F400741460016380F83D3090F83E20F3
:102E900080F83E10402AE9D1FEF768FA10BD000024
:102EA00010B590F83D1090F83E30C26A048DB4B170
:102EB000212903D0402B11D122290FD1418DE1B31B
:102EC00090F83E10402942D0416A026809781161A9
:102ED000416A491C4162418D491E418510BD21292D
:102EE000E8D120230021082A13D0202A11D012F57E
:102EF000803F0ED00268546824F4E06454601122CC
:102F0000026380F83E1080F83D3000BFFEF72CFAD7
:102F100010BD0268546824F4E064546002681468C8
:102F200044F400741460016380F83D3090F83E2052
:102F300080F83E10402AE9D100E002E0FEF716FAE0
:102F400010BD0068416821F48061416010BDBDE89A
:102F5000104000F0F3B8000078B590F83E50C26A17
:102F6000046B90F83D6000230168222E73D1066D3A
:102F70000EB9402D6FD0056D1DB90569B5F5404FEF
:102F80001BD0458D95B3468D484D012E20D0448DE4
:102F9000022C4DD00C6844F480640C6001684C68CD
:102FA000240579D5AA4273D0012A71D0082A6FD09E
:102FB000102A6DD0202A6BD06EE04A698A6900928F
:102FC0000A6842F480720A60016D491C016578BD8F
:102FD000AA4214D10A6822F480620A6001684A6831
:102FE000120504D50A6822F4806217E0FFE74A69F7
:102FF0008A6900920A6842F400720A6050E0082A66
:1030000010D0202A0ED0122C0AD0042A03D0022A73
:1030100001D0102AE6D10A6842F480620A603BE0DF
:10302000012ADFD00A6822F480620A600168DEE7C4
:10303000042A11D0022A0FD0102A0DD00C6844F4B3
:1030400000640C6001684C698C6900940C6824F47D
:1030500080640C6008E025E00C6844F480640C6037
:1030600001684C698969009101684C68240517D58D
:10307000AA4207D0012A05D0082A03D0102A01D07D
:10308000202A0DD14A6842F480524A6008E0FFE7E6
:103090004A6842F480524A6001684A69896900912D
:1030A000036578BD48698869009078BD0000FFFF1E
:1030B00090F83E10402910D00169B1F5804F19D029
:1030C000016DA9B3016D012910D1416C5FF0F102CE
:1030D00001F4407142EAD11106E0016D0029416C12
:1030E00005D0C9B241F0010100680161704701F0EB
:1030F000FE01F9E790F83D102129416C09D0C9B2D1
:1031000041F0010102681161416B29B1896A49B935
:1031100002E001F0FE01F5E7816B0029E6D0896A43
:103120000029E3D00068416841F4006141607047C4
:10313000FFE7416CF02201F44071CBE710B590F845
:103140003D10026D4AB1026D012A14D0026D022AAF
:1031500016D0BDE81040FFF7C5BCC16C0129816CD9
:1031600002D0C1F3072108E00268C9B21161016D04
:10317000891C016510BD816CC9B20268116123E030
:1031800022291CD0428D0AB1212920D0428D002A4B
:10319000F0D12129EED101684A6822F4E0624A6048
:1031A00001680A6842F400720A600021016320226B
:1031B00080F83D2080F83E10FEF7D8F810BD016879
:1031C0000A6842F480720A60016D491CD1E7416AC5
:1031D000026809781161416A491C4162418D491EAA
:1031E000418510BD38B50C4690F83D2000212825BA
:1031F000954302680B4605D051699169009180F8AA
:103200003C3038BD556825F480655560E24354076D
:1032100000D50121120601D5828900E0028B80F8D9
:103220003C3092B2FDF75DFE38BD00002DE9F04163
:1032300090F83D300446C26A002120261E4F0068E7
:103240006FF48065082A01D0202A01D1282B04D0F0
:10325000212B17D04561BDE8F081E762426822F476
:10326000E0624260206845612068026822F4806262
:103270000260216384F83D6084F83E102046FEF72A
:1032800071F8E8E7E7622122226384F83D6084F860
:103290003E10416821F4E06141602068456120688A
:1032A000016821F4806101602046FFF71BFC204685
:1032B000FEF7CFF8CFE700000000FFFFF8B590F869
:1032C0003D6004460068416821F4E0614160206887
:1032D000002541690091016841F001010160206809
:1032E000016821F48061016020684168090520D5EA
:1032F000474F222E48D02A2E46D0616B0968496874
:103300006185618D19B1216C41F00401216441682E
:1033100021F400614160606BFDF7B8FB012808D023
:10332000606B4763606BFDF765FB10B1606B416BD1
:103330008847608D08B320684169C943490708D4AC
:103340000069616A0870606A401C6062608D401E9E
:10335000608520684169C943490608D40069616AEB
:103360000870606A401C6062608D401E6085608DE0
:1033700018B1206C40F004002064206C00B320469B
:10338000BDE8F840FFF7B6BBA16B096849686185E5
:10339000618D19B1216C41F004012164416821F46F
:1033A00000614160A06BFDF771FB0128C1D0A06BEB
:1033B0004763A06BFDF71EFB0028BAD0A06BB6E7F1
:1033C0002A2E06D12563282084F83D002046FEF7EA
:1033D0003FF894F83D10202028290DD0216B222998
:1033E00001D0222E07D1256384F83D0084F83E5099
:1033F0002046FEF72DF8F8BD0649E162256384F802
:103400003D0084F83E502046FDF7ACFFF8BD0000BB
:10341000292A00080000FFFF194808B5416941F05A
:10342000010141614069002200F001000090114655
:103430000C20FEF775F80C20FEF764F80022114608
:103440000D20FEF76DF80D20FEF75CF80022114606
:103450000F20FEF765F80F20FEF754F80022114602
:103460001020FEF75DF81020FEF74CF80022114600
:103470001120FEF755F8BDE808401120FEF742B8CC
:10348000001002402DE9F04186B000243848009435
:10349000019402940394816941F010018161816972
:1034A00001F010010491816941F02001816181697D
:1034B00001F020010491816941F004018161816979
:1034C00001F004010491816941F008018161806982
:1034D000284F00F008004FF40055049000222946C0
:1034E0003846FDF7F1FCDFF89080012203214046C9
:1034F000FDF7EAFC00224FF4A0614046FDF7E4FC32
:103500000095022601250396CDE901546946384607
:10351000FDF7E2FB10208DE8310069461748FDF702
:10352000DBFB0320CDE90005CDE9024069464046BA
:10353000FDF7D2FBA802CDE90005CDE902466946B8
:103540004046FDF7C9FB18208DE83100694640462A
:10355000FDF7C2FB2802009001AA112082E8610059
:1035600069464046FDF7B8FB06B0BDE8F0810000B3
:103570000010024000100140000C01400008014012
:103580000D4810B50B4901600C49416000214FF412
:1035900080428160C0E9031241618161C1610162C1
:1035A000FDF71CFE002803D0BDE81040FDF7FCB974
:1035B00010BD00000054004080000020801A06006A
:1035C000104810B50E4901604FF48271416000212E
:1035D0008160C1604FF400720161C0E905121822D8
:1035E000C0E90721416281620A21C162FEF7AAFA9D
:1035F000002803D0BDE81040FDF7D6B910BD00008B
:10360000003001405C01002010B586B0002418484D
:103610000094019402940394049414490594016065
:1036200041F6FF01C0E9011442F20F71C0E9031431
:103630008021C0E90541FEF787FD08B1FDF7B4F927
:103640004FF48050009069460948FEF721FE08B10A
:10365000FDF7AAF9049404A905480594FEF740FD76
:10366000002801D0FDF7A0F906B010BD002C0140E4
:103670003C02002030B58DB00024079408940994D2
:103680000A940B941C2168460C94FCF776FD2E4896
:103690004FF08041C0E9001440F67F41C0E902418B
:1036A000802104618161FEF74FFD08B1FDF77CF9CF
:1036B0004FF48050079007A92348FEF7E9FD08B1B1
:1036C000FDF772F92048FEF776FF08B1FDF76CF9B7
:1036D0000B940BA91C480C94FEF702FD08B1FDF7F2
:1036E00063F91A4D602000902888CDE90104042078
:1036F0000490002269461448FEF7F7FE08B1FDF772
:1037000053F968880190042269460F48FEF7EDFEE0
:1037100008B1FDF749F9A8880190082269460A48CE
:10372000FEF7E3FE08B1FDF73FF9E88801900C22AF
:1037300069460548FEF7D9FE08B1FDF735F902489C
:10374000FEF7AEFE0DB030BD840200200000002068
:103750000C4810B50A4901604FF4E1314160002185
:1037600081600C22C160C0E904128161C161FFF770
:10377000D9F8002803D0BDE81040FDF715B910BDF9
:103780000038014010030020FEE7FEE770B500F0AE
:10379000700400F083F80B4E0546002202213046EB
:1037A000FDF792FB272000F061FE45EA040000F0DF
:1037B0005DFE012202213046FDF786FBBDE8704028
:1037C00000F06CB8000C014010B50B4C0122114602
:1037D0002046FDF779FB012210210848FDF774FB14
:1037E000002201212046FDF76FFB20460122BDE8A3
:1037F00010400221FDF768BB000C014000080140A9
:1038000070B590B014460D468DF80000FF22214699
:103810000DF10100FCF7AAFC0B4E002202213046FC
:10382000FDF752FB621C08A9684600F00DFE224617
:103830000DF121012846FCF787FC012202213046C8
:10384000FDF742FB10B070BD000C01401CB510A18B
:10385000104C096800918DF800000020024601908C
:1038600002212046FDF730FB022301AA69460A48DF
:10387000FEF72EFB0848FEF7F2F80128FAD10122E4
:1038800002212046FDF720FB9DF805001CBD00002D
:1038900000FF0000000C01405C01002070B5084DE5
:1038A000002202212846FDF70FFB072000F0DEFD75
:1038B0000446012202212846FDF706FB204670BD82
:1038C000000C014070B50546FDF704FB1F4E044691
:1038D000002202213046FDF7F7FAE22000F0D6FD83
:1038E000012202213046FDF7EFFA194E10E000BF29
:1038F000FDF7F0FA001B642807D9FFF765FF00F019
:1039000015F9012000F062F905E00120FDF7D2F978
:103910003068C006ECD40720FFF798FF0446014644
:10392000072000F06BF860060ED56020FFF78EFFD1
:103930000446024629466120FFF762FFFF21E2208C
:1039400000F05CF8204670BD002070BD000C014006
:10395000080801407CB5052A00D90522144605282F
:1039600000D905200A3040F020008DF800000DF14C
:103970000100FCF7E9FB0B4D002202212846FDF770
:10398000A3FA621C69460848FEF72AFB0648FEF7C0
:1039900066F80128FAD1012202212846FDF794FA9F
:1039A0007CBD0000000C01405C0100207CB50529B5
:1039B00000D905210C4630218DF800100146224621
:1039C0000DF10100FCF7C0FB0A4D00220221284640
:1039D000FDF77AFA621C69460748FEF701FB0648C4
:1039E000FEF73DF80128FAD1012202212846FDF711
:1039F0006BFA7CBD000C01405C01002038B540F042
:103A000020008DF800000C4C8DF8011000220221DE
:103A10002046FDF759FA022269460848FEF7E0FA07
:103A20000648FEF71CF80128FAD10122022120469F
:103A3000FDF74AFA38BD0000000C01405C0100208F
:103A4000F0B534A187B0D1E90001CDE90201FDF75D
:103A500041FA324C054630268DF800600298CDF8C8
:103A600001009DF80C008DF805000022022120467F
:103A7000FDF72AFA062269462948FEF7B1FA2848D6
:103A8000FDF7EDFF0128FAD1012202212046FDF7C2
:103A90001BFA10208DF80000FF2205210DF1010016
:103AA000FCF764FB002202212046FDF70DFA0623F5
:103AB00004AA69461A48FEF70BFA1948FDF7CFFF2A
:103AC0000128FAD1012202212046FDF7FDF900204C
:103AD00002A904AA17180B5C7F78BB4203D1401CD3
:103AE000C0B20528F6D3052809D0FDF7F3F9401B2D
:103AF00041F28831884204D9002007B0F0BD01208E
:103B0000FBE74FF400510748FDF7D6F96420FDF7B5
:103B1000D1F8A1E7A5A5A5A5A5000000000C0140CE
:103B20005C0100200010014070470000FEB522A19A
:103B3000234ED1E90001CDE90001012211463046B2
:103B4000FDF7C2F97020FFF721FE1E4D002400BFD3
:103B500015F81400002240F020008DF8080005EB55
:103B60004400022140788DF809003046FDF7ACF999
:103B7000022202A91448FEF733FA1348FDF76FFF3B
:103B80000128FAD1012202213046FDF79DF915F8EE
:103B9000140008B1062802D10120FDF78BF8641C3F
:103BA000092CD5D305216846FFF700FF0522694699
:103BB0000020FFF7CFFEFEBD3443101001000000CF
:103BC000000C0140084900085C0100207CB5044657
:103BD00000208DF80000FF201E4D8DF8010000220E
:103BE00002212846FDF770F9022301AA69461A4806
:103BF000FEF76EF91848FDF732FF0128FAD10122CD
:103C000002212846FDF760F99DF8051014B1012C3A
:103C100003D004E021F0010101E041F00101202086
:103C20008DF800008DF80110002202212846FDF7D2
:103C30004BF9022269460848FEF7D2F90648FDF71B
:103C40000EFF0128FAD1012202212846FDF73CF996
:103C50007CBD0000000C01405C0100200148FDF724
:103C600001BF00005C01002010B5406A0021C1873F
:103C7000C186FDF7F3FE10BD10B5406A01684A68C1
:103C800022F003024A60416D41F0100141650121BB
:103C900080F85110FDF7E2FE10BD10B5406AFEF746
:103CA0001EF810BD10B5406AFEF701FA10BD10B540
:103CB000406AFEF7FEF910BD70B50546446AFDF78F
:103CC00009F9024628680068800626D42068416801
:103CD00021F020014160A06818B96068B0F5827FCA
:103CE00016D02068416821F001014160642120461E
:103CF00000F076F808B1202060650020E087012000
:103D000084F85100606D40B12046FDF7A7FE70BDFC
:103D10002068416821F00301E7E72046FDF7DEFF58
:103D200070BD38B50546446AFDF7D4F802462868E8
:103D30000068800623D42068416821F0200141609A
:103D40002068416821F0020141606421204600F0B2
:103D500075F818B1606D40F020006065A068002122
:103D600018B92068C26880680090E186012084F854
:103D70005100606D18B12046FDF770FE38BD204639
:103D8000FEF794F938BD70B50546446AFDF7A2F810
:103D900002462868006880061ED42068416821F029
:103DA000200141606421204600F048F818B1606DA0
:103DB00040F0200060652068416821F00301416007
:103DC0000020E086E087012084F85100606D18B182
:103DD0002046FDF743FE70BD2046FEF769F970BD31
:103DE000F8B5044640684FF48273984217D1A06832
:103DF0004FF48065B0F5004F01D0A8420FD1206884
:103E0000066826F0400606606068984207D1A06800
:103E1000A84204D100920B460022012103E0009247
:103E20000B4600228021204600F022F8002804D012
:103E3000606D40F0200060650320F8BDF8B51546C0
:103E40000E460B46009204460122022100F010F8B3
:103E500040B93346002280212046009500F008F842
:103E6000002804D0606D40F0200060650320F8BD9C
:103E70002DE9F8431E46914688460446089DFDF705
:103E800029F8401B351AFDF725F807462548006834
:103E9000C0F3CB30684338E0701C37D0FDF71AF818
:103EA000C01BA84203D215B1009860B32CE0206873
:103EB000416821F0E00141606068B0F5827F0BD17C
:103EC000A068B0F5004F02D0B0F5806F04D1206833
:103ED000016821F040010160A06AB0F5005F09D1DE
:103EE0002068016821F4005101602068016841F4F4
:103EF00000510160012084F85100002084F8500036
:103F00000320BDE8F8830025401E009020688168EA
:103F100038EA010004D000214945BDD10020F0E776
:103F20000121F9E7500000207047FDF793BA30B542
:103F30008FB028216846FCF720F914210AA8FCF765
:103F40001CF901210804CDE9001000240294022587
:103F50000491CDE907504FF4C01009906846FDF771
:103F6000EDFB08B172B6FEE70F20CDE90A054FF46C
:103F70008060CDE90C4002210AA80E94FDF702FBF7
:103F8000002801D072B6FEE70FB030BD70470000C8
:103F90000148FEF7ECB900003C0200200148FEF7A2
:103FA000E6B9000084020020F0B50268194B1A4CF3
:103FB0001A4D4FF08047984205D0B84203D0A04236
:103FC00001D0A84203D122F070064A6832439842D9
:103FD00005D0B84203D0A04201D0A84203D122F4B8
:103FE0004074CA6822434C6922F080022243026076
:103FF0008A68C2620A688262984201D109690163D3
:10400000012141610169C90703D0016921F0010162
:104010000161F0BD002C0140000400400008004098
:1040200010B501F01F030121046A99408C4304621A
:10403000016A9A401143016210BD10B5846842EADA
:10404000032224F47F440A432243826010BD826825
:1040500022F070020A4342F00701816070470000BD
:1040600030B5036A026A22F0010202624268846982
:1040700024F073050C682C4323F002058B682B4356
:104080000A4DA8420BD123F00805CB6822F44072F8
:104090002B434D6923F0040315438A692A43426088
:1040A000846149684163036230BD0000002C014017
:1040B00030B5026A036A23F010030362436884691F
:1040C0000D6824F4E64444EA05248D6822F02002B9
:1040D00042EA05120B4DA8420ED1CD6822F08002B3
:1040E00042EA05124D6923F4406343EA85038D6972
:1040F00022F0400243EA850343608461496881639A
:10410000026230BD002C014030B5036A026A22F41D
:10411000807202624268C46923F4007324F073055C
:104120000C682C438D6843EA05230C4DA8420ED140
:10413000CD6823F4006343EA05234D6922F440521D
:1041400042EA05128D6923F4806342EA0512426057
:10415000C4614968C163036230BD0000002C0140A6
:1041600030B5046A026A22F4805202624268C3696E
:104170000D6823F4E64343EA05238D6824F40054D4
:1041800044EA0534064DA84204D14D6922F4804228
:1041900042EA85124260C36149680164046230BD2D
:1041A000002C014010B5036A046A24F00104046283
:1041B000846924F0F00444EA021423F00A020A435A
:1041C0008461026210BD10B5036A046A24F0100411
:1041D0000462846923F0A00324F4704444EA0232A8
:1041E00043EA01118261016210BD10B5406A0021ED
:1041F000C185C184FEF75FFA10BD01680C3151E83A
:10420000002F22F4907241E80023002BF5D10168C1
:10421000143151E8002F22F0010241E80023002B65
:10422000F5D1016B012909D101680C3151E8002F4A
:1042300022F0100241E80023002BF5D1202180F864
:10424000421000210163704708B590F842102229FE
:1042500001D0022008BD82684FF480539A4201D1F8
:10426000016921B1816A9A421BD04AB10AE0026811
:10427000816A5268C2F308020A80816A891C08E0D8
:10428000026972B10268526802F07F020A70816AA4
:10429000491C8162C18D491E0904090CC18503D0E6
:1042A0001BE002685268F1E70168CA6822F0200248
:1042B000CA600168CA6822F48072CA6001684A69EB
:1042C00022F001024A61202180F84210002141635E
:1042D000026B012A03D0FEF797FB002008BD0163A3
:1042E00001680C3151E8002F22F0100241E8002350
:1042F000002BF5D101680A68D20602D50A68496820
:104300000091818DFEF7D6F9E7E7000070B504460D
:1043100000680169E26821F440511143016121699B
:10432000A0680843616908432168CA6841F20C63C8
:104330009A430243CA6020684169A26921F440712E
:10434000114341611E492068884202D1FDF7C0F93E
:1043500001E0FDF7ADF900EBC00101EB0012606870
:1043600064218000B2FBF0F3B3FBF1F36FF01806A9
:104370007343B2FBF0F5B2FBF0F605EB8305322395
:1043800003EB0515B5FBF1F5B6FBF1F605F0F0050D
:1043900005EB0615B2FBF0F6B2FBF0F0B0FBF1F066
:1043A0006FF01802504306EB800003EB0010B0FBE7
:1043B000F1F0216800F00F002844886070BD000013
:1043C000003801400148FEF777B9000010030020D3
:1043D000FEE70907090E002804DB00F1E02080F861
:1043E0000014704700F00F0000F1E02080F8141D69
:1043F00070470000004870475800002002E008C8DD
:10440000121F08C1002AFAD170477047002001E04E
:1044100001C1121F002AFBD170470860B0F500628D
:1044200000D55242C82A02DC4FF4006002E0142892
:1044300002DC00200860704740F6EC729042FADB24
:104440004FF48050F6E7000013460A4610B50146C7
:104450000548FDF73DFD04460348FDF700FB012834
:10446000FAD1204610BD00005C01002001B582B0E9
:104470004FF0FF300090012301AA02A90248FDF786
:104480002FFC9DF804000EBD5C01002001B582B038
:1044900001236A4602A90748FDF71AFD08B1FCF797
:1044A00083FA0448FDF7DBFA0128FAD19DF80000F1
:1044B0000EBD00005C01002070B50C460546FCF7FF
:1044C0002FF900F07040B0F1005F07D024F00040F9
:1044D000C0F1FF40C00F04BF204670BD284670BD2C
:1044E00070B50C460546FCF71BF900F07040B0F1C2
:1044F000004F07D024F00040C0F1FF40C00F04BFC0
:10450000204670BD284670BDFCF7ACFFFFF70FFDDD
:10451000FEF7B8FFFEF780FFFFF732F8FFF750F81D
:10452000FFF716F9FFF770F8FFF7A4F82048FDF73A
:1045300083FE00211F48FEF76DF804211D48FEF799
:1045400069F808211B48FEF765F80C211948FEF7A9
:1045500061F8184900200A6850630A6890630A6885
:10456000D06309680864FFF72FF900BFFFF768FA06
:104570000028FBD0FFF7DAFA0120FFF727FB0E4DEA
:104580004FF400540D48FFF79DF968B10B490B48F3
:10459000103900F0ABF80948103800F017F921463F
:1045A0002846FCF789FCEDE700F0B8F8EAE70000E0
:1045B0003C02002084020020001001406C0000201A
:1045C0002DE9F041044621F000404FF4000700259A
:1045D0000E46B84201DA284612E04FF07E51FBF752
:1045E00058FE3E49FBF78DFE3D49FBF758FE3D491D
:1045F000FBF7FDFDFBF7F7FE00F09EF8FBF7D4FE9E
:1046000039490968B94252DB16F1FF4F27D2616977
:1046100089B1042913D008292169096813D00D64D0
:10462000A16991B1042914D008292169096814D01D
:104630000864BDE8F081216909684D63F0E72169EC
:1046400009688D63ECE7CD63EAE72169096848638F
:10465000EFE7216909688863EBE7C863E9E7BE42D1
:10466000E7DA616939B1042909D0082921690968A3
:1046700009D0086424E021690968486320E02169C1
:10468000096888631CE0C8631AE020690068456314
:10469000CFE7042805D008282069006805D0056404
:1046A000C7E7206900688563C3E7C563C1E7606940
:1046B00050B104280CD00828206900680CD005648B
:1046C000A0690028E5D1E0E7206900684563F7E7C5
:1046D000206900688563F3E7C563F1E70000C6421F
:1046E00000008C4200C014440800002070B50D4644
:1046F00009A1FBF74DFD00240BE000BFFBF76AFDAD
:1047000045F8240004A10020FBF742FD641C042CA2
:1047100001DA0028F2D170BD2C00000010B5002194
:104720000448FFF74DFF03480021BDE810401C304E
:10473000FFF746BF0C0000202DE9F04D07460E465E
:10474000FBF77AFF04460D463A463346FBF771FF06
:10475000DFF86CA0DFF86CB01B4B0746884616F0FC
:10476000004F4FF000020AD0FBF7AAFF0AD900223F
:104770005B4638464146FBF7BBFF1BD212E0FBF716
:104780009FFF08D20022534620462946FBF74EFFE2
:1047900004460D460EE000225B4638464146FBF7D4
:1047A000A7FF07D80022534620462946FBF79DFE67
:1047B00004460D463146204665F31E01BDE8F08DE6
:1047C0000000F03F0000E03F0000E0BF2DE9FC47A3
:1047D000044600686946FFF720FE01A96068FFF7FC
:1047E0001CFE0098A0F50060FBF7D5FD414E314658
:1047F000FBF787FD05460198A0F50060FBF7CBFDB0
:104800003146FBF77EFD294606464FF07E55284689
:10481000FFF766FE384F01463846FFF74DFE8246E9
:1048200031462846FFF75CFE01463846FFF744FE56
:104830008146A06840F2EB72A0F601012F4E304C89
:1048400091420DD2481CFBF7A6FD6FF00A01FBF761
:1048500096FD2C49FBF723FD2946FBF7C8FC09E030
:1048600040F6EC71884201DB266004E0B0F5006F91
:1048700001DC00202060B04630462168FFF730FEA2
:1048800001460020FFF718FE0646206051464846C4
:10489000FBF7ADFC3146FBF702FD4146FBF731FD6E
:1048A000044651464846FBF7F4FC3146FBF7F7FC5B
:1048B0004146FBF726FD064621462846FFF710FE37
:1048C00001463846FFF7F8FD044631462846FFF713
:1048D00007FE01463846FFF7EFFD0546084821462A
:1048E000001DFFF76DFE064829462030FFF768FEE1
:1048F000BDE8FC870080FD44000080BF0000C84286
:10490000080000200000C6421C011D07000A01012A
:104910000201030304FF053C06260102020304050D
:10492000060708090A0B0C0D0E0F101000000000FE
:10493000000000000102030406070809000000004F
:10494000010203040040404040404040404041419B
:104950004141414040404040404040404040404054
:1049600040404040400502020202020202020202EE
:1049700002020202022020202020202020202002EB
:10498000020202020202909090909090101010107B
:104990001010101010101010101010101010101017
:1049A00002020202020288888888888808080808AB
:1049B0000808080808080808080808080808080877
:1049C000020202024000000045490008EC490008CC
:1049D000000000205C000000FC430008484A00087A
:1049E0005C000020FC0600000C44000800000000F1
:1049F000000000000000000000080140010000006D
:104A000000080140020000008402002000000000B5
:104A100004000000000801400400000000080140FC
:104A20000800000084020020080000000C000000C4
:104A300001000000100000000000000000127A00D9
:084A400000000000000000006E
:04000005080000ED02
:00000001FF
