:020000040800F2
:100000007809002005010008933A0008CD2B00086C
:10001000913A0008250900084D4900080000000039
:10002000000000000000000000000000A5440008DF
:100030008F09000800000000ED3F0008A7440008F9
:100040001F0100081F0100081F0100081F01000810
:100050001F0100081F0100081F0100081F01000800
:100060001F0100081F0100081F0100081F010008F0
:1000700029090008350900081F0100084109000886
:100080004D090008590900081F0100081F01000858
:100090001F0100081F0100081F0100081F010008C0
:1000A0001F0100080D4500081F0100081F0100087E
:1000B000194500081F0100081F010008DD2B00087A
:1000C000D12B00081F0100081F010008D9410008BA
:1000D0001F010008414900081F0100081F01000816
:1000E0001F0100081F0100081F010008DFF810D0E1
:1000F00000F026FB00480047854A0008AFF3008067
:10010000780900200648804706480047FEE7FEE7DA
:10011000FEE7FEE7FEE7FEE7FEE7FEE7FEE7FEE7B7
:1001200009450008ED000008202A04DB203A21FAE6
:1001300002F00021704721FA02F3D040C2F1200200
:10014000914008431946704740EA01039B0703D0DA
:1001500009E008C9121F08C0042AFAD203E011F806
:10016000013B00F8013B521EF9D27047D2B201E0C8
:1001700000F8012B491EFBD270470022F6E710B5AC
:1001800013460A4604461946FFF7F0FF204610BD05
:1001900070B50F4D00B92868002412E00A4602E04D
:1001A0009E4203D0521C1378002BF9D1DAB22243BD
:1001B00005D02BB124B1002100F8011B04E0044656
:1001C000401C0678002EE9D12860204670BD000052
:1001D0006800002070B5064604F0CAFB04680546B6
:1001E0000A220021304600F005F92C6070BDF0B401
:1001F00080EA0102D40F4200B2EB410F02D2024664
:10020000084611464A0042D0C30DDDB2C1F3C752C1
:10021000AD1A202D35DAC1F3160141F4000204B104
:100220005242C5F1200602FA06F12A411044B3EB0E
:10023000D05F23D0C4B1012DA0EBC35009DCF0BCCA
:100240004FF0004202EAC352DBB200F5000000F0BA
:1002500012B9400000F1807000EBC350A0F1807033
:1002600040EAD170490009E0490841EAC071A0EBB9
:10027000C35000F50000400800EBC350F0BC00F094
:10028000F1B86142012202EB4101001BF6E7F0BC2C
:10029000704781F00041AAE780F00040A7E780EABC
:1002A000010210B502F00043400022D04A001FD0E6
:1002B000010E01EB1261C0F35600C2F3560240F486
:1002C000000042F40002A0FB022000047F39140465
:1002D00000D0401C50EA124001D44000491EC2B276
:1002E0000C0604EBD010401C4008802A02D003E02A
:1002F000002010BD20F00100002900DA0020184382
:1003000010BD30B480EA010202F0004530F0004236
:1003100021F0004013D090B1C30DD40DC2F31601EB
:10032000C0F31600E41A41F4000140F400027D34E9
:10033000914201D3641C00E04900002C02DA30BC79
:10034000002070474FF400000023914201D3891A26
:10035000034340084FEA4101F7D151B1914202D124
:100360004FF0004105E002D24FF0010101E06FF0D3
:10037000010103EBC450284430BC00F073B8C10F36
:1003800080EAE0700844CA079623002100F073B8A1
:1003900070B5C1F30A5201F000450024C1F3130106
:1003A00040F2FF3341F480119A4201DA002070BD1F
:1003B00040F233439A42A2F2334203DC5242FFF747
:1003C000B3FE00E090402C43F1D0404270BD00F0FD
:1003D000004230F000400AD0C10D01F56071C0F359
:1003E000160042EA0151C20840071143704700203D
:1003F000014670472DE9F04791460F468046044676
:10040000002614F8015B2DB100F0CEF90068405DC4
:10041000C007F6D12B2D02D02D2D18D0641E4A46D0
:100420003946204600F0C4F927B13968A14201D10C
:10043000C7F8008071054FF002040BD54042002838
:1004400003DD04F095FA0460A007BDE8F08746F4E8
:100450008066E4E70028F8DA04F08AFA04606FF0B6
:100460000040F2E70029A8BF7047401C490008BFC0
:1004700020F00100704710B4B0FA80FC00FA0CF0D4
:1004800050EA010404BF10BC704749B1CCF120040C
:1004900021FA04F411FA0CF118BF01212143084399
:1004A000A3EB0C01CB1D4FEA00614FEA102042BFC5
:1004B000002010BC704700EBC35010440029A4BFBB
:1004C00010BC7047401C490008BF20F0010010BC60
:1004D00070472DE9FE4F804681EA0300C00F0C46AD
:1004E000009021F0004123F00045B8EB0200A94143
:1004F00005D24046214690461C460B46024623F054
:100500000040104347D0270DC7F30A00C3F30A5138
:100510000290401A019040286BDAC3F3130040F4B4
:10052000801B0098924620B10023D2EB030A63EBB4
:100530000B0B01985946C0F14002504600F012F9E9
:1005400006460D4650465946019A00F01AF910EB3E
:1005500008006141002487EA115284EAE7731A43D4
:1005600040D0009A62B3019A012A4FEA075215DC83
:10057000001B61EB02014FF0004202EA0752CDE995
:100580000042001C41F5801132462B4600F06EF906
:1005900003B0BDE8F08F40462146F9E7001B61EB50
:1005A0000201001C41F5801300185B412018A2F5E0
:1005B000001747EB030140EAD570B6196D4111E011
:1005C0006D084FEA360645EAC0754FEA0752001B30
:1005D00061EB0201001C41F5801149084FEA30002F
:1005E0000019514132462B4603B0BDE8F04F00F0F0
:1005F0002EB90098012240000023D0EB020263EBE9
:10060000E073009821464FEAE074B8EB000061EB1C
:100610000401E9E783F000435BE781F0004158E71C
:100620002DE9F041054621F000400C46284309D051
:10063000C4F30A5040F23341884205DD2846214682
:10064000BDE8F0812846FBE740F2FE31884210DC2D
:100650000CDB4FEA043040EA155050EA053105D072
:10066000104804F0004101430020E9E70020014662
:10067000E6E7A0F233404642C6F140022846214652
:1006800000F070F807468846284621463246FFF7B4
:100690004BFD43463A4600F0DAF83246BDE8F041F9
:1006A00000F060B80000F03F30B5041E71F10004A6
:1006B00004DB4FF00044404264EB0101141E73F16F
:1006C000000405DB1C464FF00043524263EB040379
:1006D0008B4208BF824230BD30B5041E71F1000468
:1006E00004DB4FF00044404264EB0101141E73F13F
:1006F000000405DB1C464FF00043524263EB040349
:10070000994208BF904230BD002801DBC0F1004093
:10071000002901DBC1F10041814202D24FF00040CB
:1007200004E04FF0005001D14FF0C0404FEA20628A
:10073000EFF3008162F31F6181F3008870470000CE
:10074000064C074D06E0E06840F0010394E807001E
:1007500098471034AC42F6D3FFF7CCFC3C57000866
:100760005C570008202A04DB203A00FA02F100203E
:1007700070479140C2F1200320FA03F319439040DF
:100780007047202A06DBCB17203A41FA02F043EAF1
:10079000E07306E041FA02F3D040C2F1200291403A
:1007A0000843194670470000004870473857000852
:1007B0002DE9F05F82460078002715468B460AF146
:1007C0000104B946302801D09DB113E014F8010BA3
:1007D0000127782803D0582801D045B10AE00DB18F
:1007E000102D07D10027102514F8010B02E0082571
:1007F00000E00A250026B0460EE005FB080005FBD8
:1008000006F1012701EB10461FFA80F8B6F5803F8C
:1008100000D3B94614F8010B294600F075F80028FA
:10082000EBDABBF1000F05D00FB1641E00E05446B7
:10083000CBF80040B9F1000F06D004F099F802217E
:100840000160C81EBDE8F09F48EA0640FAE710B50F
:10085000141E73F1000408DA401C41F100019218E3
:100860005B411A4301D120F0010010BD2DE9F04D8C
:1008700092469B4611B1B1FA81F202E0B0FA80F2E1
:1008800020329046FFF76EFF04460F4640EA0A000A
:1008900041EA0B0153465A46084313D0114653EA26
:1008A000010019D0C8F140025046FFF73DFC054653
:1008B0000E46504659464246FFF754FF084305D0BE
:1008C000012004E020463946BDE8F08D00200543B4
:1008D00046EAE0762C4337430A986305E40AA0EB26
:1008E00008000022FD0A44EA47540A3002D50020DD
:1008F0000146E9E7010510196941DDE908450019DC
:100900006941BDE8F04DA2E73A2800D2303820F026
:100910002002412A01D3A2F13700884201D34FF0CF
:10092000FF307047FEE70000014800F0A7B8000064
:10093000D0010020014800F0A1B8000014020020FE
:10094000014800F09BB80000E8020020014800F0D8
:1009500095B8000034010020014800F08FB8000075
:10096000F000002030B590F840500124AC40C56B39
:100970006C60046863604368102B036803D099605F
:100980000068C26030BD9A600068C16030BD7047C9
:1009900072B6FEE710B590F821100022022905D0AA
:1009A0000421816380F82020012010BD01680B68BC
:1009B00023F00E030B6001680B6823F001030B604A
:1009C00090F84030C46B012101FA03F3636080F8B2
:1009D000211080F82020104610BD000010B590F8BE
:1009E00021100024022903D00421816301243DE069
:1009F00001680A6822F00E020A6001680A6822F0A3
:100A000001020A601A4A0168914201D1012121E0E4
:100A1000174A1432914201D110211BE0144A2832A6
:100A2000914201D1891515E0114A3C32914201D120
:100A300089140FE00E4A5032914202D14FF48031B6
:100A400008E00B4A6432914202D14FF4801101E078
:100A50004FF08071064A083A5160012180F8211058
:100A6000002180F82010416B01B18847204610BD5D
:100A70000800024090F82100704700002DE9F05F67
:100A8000C16B0C6801680B68D0F840C0042202FA00
:100A90000CF2494DDFF824A1494E4A4FDFF828B146
:100AA000DFF828E122422CD05A072AD50A6892069C
:100AB00003D40A6822F004020A600168A94201D145
:100AC000042219E0514501D1402215E0B14202D182
:100AD0004FF4806210E0B94202D14FF480420BE043
:100AE000594502D14FF4802206E0714502D14FF4FE
:100AF000800201E04FF080622F4908394A60C16AE4
:100B00003BE04FF0020808FA0CF818EA040F4FF027
:100B100000094FF0010235D05FEA837832D50B68C7
:100B20009B0605D40B6823F00A030B6080F8212094
:100B30000168A94201D1022219E0514501D12022C8
:100B400015E0B14202D14FF4007210E0B94202D177
:100B50004FF400520BE0594502D14FF4003206E049
:100B6000714502D14FF4001201E04FF000721249BA
:100B700008394A6080F82090816A00291AD0BDE8BF
:100B8000F05F0847082505FA0CF5254212D01B072F
:100B900010D50B6823F00E030B6090F84010C36B68
:100BA00002FA01F15960826380F8212080F82090D8
:100BB000016BE2E7BDE8F09F080002401C00024024
:100BC0003000024044000240580002406C000240E5
:100BD00030B528B308C8134914221944B1FBF2F107
:100BE0008900C16310498163022141771A6843F685
:100BF000F0718A43D0E900142143D0E902452C4327
:100C000021430469214344692143846921431143F9
:100C1000196000214163012242770177084630BD07
:100C2000012030BDF8FFFDBF0000024070B5044652
:100C300090F82000002501280CD0012084F8200025
:100C400094F821600020012E06D084F820000225AF
:100C5000284670BD022070BD022684F82160A06382
:100C60002068066826F0010606602046FFF77AFE37
:100C7000E06A00282068016802D041F00E0106E019
:100C800021F0040101602068016841F00A0101605F
:100C90002068016841F001010160D9E770B50446A0
:100CA00000F00CF90546601C02D0044800780444AA
:100CB00000F004F9401BA042FAD370BD40000020B0
:100CC0002DE9F84FDFF8B8910024A9F1040B234671
:100CD0000F2709F1040AABF1040EC9E00125A54074
:100CE0002A40AA427DD1674ED1F804C0ACEB060879
:100CF000B44532D014DCBCF1030F3AD009DCBCF1AE
:100D0000000F2AD0BCF1010F1CD0BCF1020F31D171
:100D10001DE0BCF1110F17D0BCF1120F2AD119E060
:100D2000B8F5881F19D006DCB8F5803F15D0B8F5A6
:100D3000801F1FD111E0B8F5001F0ED0B8F5041FB9
:100D400018D10AE0CB6815E0CB681B1D12E0CB6818
:100D500008330FE0CB680C330CE08B682BB1012B10
:100D60004FF0080303D0456104E0042302E005616D
:100D700000E00023FF2A01D8064601E000F1040646
:100D80004FEA840501D9A5F12005D6F8008007FABD
:100D900005FC28EA0C0803FA05F548EA0508C6F838
:100DA00000804D68ED0062D5374DAE6946F0010612
:100DB000AE61AD6924F0030605F001050095334DE1
:100DC00006EB050CDCF80850A607360F07FA06F804
:100DD00025EA0805DFF8B880404503D14FF0000848
:100DE00017E044E0DFF8AC80404502D14FF0010845
:100DF0000FE0DFF8A480404502D14FF0020808E080
:100E0000DFF89880404502D14FF0030801E04FF031
:100E1000040808FA06F848EA0508CCF808804D6886
:100E2000D9F80060ED024D4601D5164300E0964327
:100E30002E604D68DAF80060AD02554601D51643C4
:100E400000E096432E604D68DBF80060AD035D4620
:100E500001D5164300E096432E604D68DEF8006031
:100E6000ED03754601D5164300E096432E60641CE1
:100E70000D682A46E5407FF431AFBDE8F88F0000E9
:100E80000804014000001110001002400000014061
:100E900000080140000C0140001001400014014016
:100EA000C26821EA02030A4043EA02410161704735
:100EB0000AB1016170470904FBE70000014880683E
:100EC0007047000040000020704770472DE9F04156
:100ED000016804464A694E6890F83E000025D743F1
:100EE000FA050BD4F243D20508D46FF480720125C1
:100EF0004A6121680A6842F400420A60B90508D4D0
:100F0000F143C90505D422686FF4007145F002056C
:100F10005161790525D4F143C90522D4638D94F834
:100F20003D10226B202808D13BB9212910D0292956
:100F30000ED0282901D1212A0AD022686FF48061BD
:100F4000516145F00405102806D0402804D008E07F
:100F5000204602F0EFFA04E02068016841F40071D5
:100F60000160380508D4F043C00505D421686FF44A
:100F7000006045F008054861002D07D0206C28432B
:100F800020642046BDE8F04101F038BFBDE8F081A3
:100F90002DE9F047026800215368C66A90F83E4088
:100FA00090F83D50102C12D0402C10D0046C002C26
:100FB0007DD05469E443A6077AD4DE43B60577D4DE
:100FC000036C03B19169BDE8F04702F08FBA9769ED
:100FD00051694FF42A0CC9435FEAC1784FF02A499E
:100FE00004D066452AD04E4528D010E0DE43B60531
:100FF0000DD4C16A614501D1012103E0C16A4945AF
:1010000001D10821C162BDE8F04702F0D5B90E0751
:1010100016D4DE43B60513D4416CC9B21161416BDD
:1010200009B1896A29B9816B002907D0896A002929
:1010300004D00068416841F400614160BDE8F08778
:101040008E0706D4DE43B60503D4BDE8F04702F0B0
:1010500007B9FE43526876074FEA02521DD4002AB0
:10106000ECDB0A0608D4DA43520505D4490705D556
:10107000BDE8F04702F098B84907DFD4D9438905A5
:10108000DCD4212D05D0402CD8D1BDE8F04702F0AA
:10109000D9B9BDE8F04702F045B8002ACEDB4A06D0
:1010A0000BD4DA43520508D4490708D501E00DE016
:1010B0000EE0BDE8F04701F0BBBF4907BED4D943FD
:1010C0008905BBD4BDE8F04701F044BF916970E7E2
:1010D000E10606D4D943890503D4BDE8F04702F000
:1010E00071BA2821212D27D0292D25D0650655D468
:1010F000DD436D0552D4640752D590F83D30448DE0
:10110000002C9BD01269446A2270426A521C4262CF
:10111000428D521E4285428D002A8FD12A2B8DD1BD
:101120000268536823F4806353602222026380F8CC
:101130003D1000F02DFA81E7250623D4DD436D052F
:1011400020D4640720D590F83D30448D002CF2D097
:10115000446A24781461426A521C4262428D521ED3
:101160004285428D002AE6D1292BE4D102685368DA
:1011700023F4806353602122026380F83D1000F065
:1011800008FA5BE76107D6D4D9438905D3D4418DEA
:101190000029D0D0416A097811610AE06107CAD4F8
:1011A000D9438905C7D4418D0029C4D01169426A49
:1011B0001170416A491C4162418D491E41853DE7DC
:1011C000704790F83D00704770B5040025D094F842
:1011D0003D00002520B984F83C50204600F068F915
:1011E000242084F83D002068016821F0010101609D
:1011F0002068016841F4004101602068016821F421
:101200000041016000F034FB4D4A6168914201D811
:101210004C4900E04C49884201D2012070BD4B4945
:101220002368B0FBF1F15E6826F03F060E435E6076
:101230006368934206D94FF4967359434FF47A7317
:10124000B1FBF3F12368491C1E6A26F03F063143C7
:1012500019626168914210D84900401EB0FBF1F25A
:10126000521CC2F30B02042A01D2042022E0B0FB7C
:10127000F1F0401CC0F30B001CE0A268F2B301EBDC
:10128000C10303EB0116431EB3FBF6F35B1C43F4EF
:1012900080431B0549D092B301EBC10202EB01115F
:1012A000401EB0FBF1F0401CC0F30B0040F4804046
:1012B00040F400402168CA694CF6FF739A4310431A
:1012C000C861D4E9071001432068026822F0C00217
:1012D00011430160D4E9030101432068826848F2A8
:1012E000FF339A4311438160D4E905010843216823
:1012F000CA6822F0FF021043C86001E00EE016E069
:101300002068016841F0010101602564202084F813
:101310003D00256384F83E50002070BD01EB41067E
:10132000431EB3FBF6F35B1CB3E70120C2E701EBFE
:101330004101401EB0FBF1F0401CC0F30B00B7E7C9
:10134000A086010080841E0000093D0040420F007D
:101350007047704770470000F8B5002504460095B7
:1013600090F83D00202828D14C4846F2A816006885
:10137000B0FBF6F000EBC00606EB00102026009054
:101380000098401E009010D020688069C0438007FC
:10139000F6D594F83C0001280FD0012084F83C00D9
:1013A00020680768FF070AD00DE044F8305F6673D5
:1013B000A573206940F0200020610220F8BD076875
:1013C00047F0010707602068076827F40067076097
:1013D000212084F83D00102084F83E0025646262DC
:1013E0006385608D20852E48E0626164208DE8B3BE
:1013F000606BF0B12B498162616B2B480863606BB5
:10140000C562606B45632268238D1032616A606B30
:10141000FFF70CFCB0B184F83D6084F83E5054F8FE
:10142000400F40F0100000BF44F80409012025706F
:10143000F8BD84F83D6084F83E5054F8400F40F009
:101440008000F1E784F83C502068416841F4407125
:1014500041602068416841F4006141602068016892
:1014600041F4806101602068016800E003E041F41C
:101470008071016010E02068016841F480610160C2
:101480002068016841F48071016084F83C50206854
:10149000416841F4E06141600020F8BD4C0000204B
:1014A0000000FFFFDB2C0008A52C000870477047E8
:1014B0002DE9F04186B00024064600940194029480
:1014C000039400682D49884255D12D4DA86940F0FC
:1014D0000800A861A869694600F008000490C020CF
:1014E000009012200190032003902648FFF7E8FBAC
:1014F000E86940F40010E861E869244D00F4001048
:1015000004902148C5E900044FF08008C5E902486D
:101510002C6187146C61C5E906472846FFF758FB24
:1015200008B1FFF735FAB5636E62184D16484435B9
:10153000143801C51020A5E81101144845F81049D8
:1015400044306C61C5E90647FFF742FB08B1FFF77D
:101550001FFA7563002211461F206E6200F0C0F86A
:101560001F2000F0AFF800221146202000F0B8F84C
:10157000202000F0A7F806B0BDE8F081005400403C
:1015800000100240000C014080000240F0000020EA
:101590007047704708B58DF800204FF6FF728DF840
:1015A000013002EA410102236A46FFF7D5FE0348F3
:1015B000FFF707FE2028FAD108BD00009C0000209C
:1015C0002DE9F0478146089C1E4617468846601C58
:1015D00003F0BEFA05460770002004E0315C2A18CB
:1015E000401C5170C0B2A042F8D34FF6FF7101EA1F
:1015F0004801631C2A464846FFF7AEFE0448FFF741
:10160000E0FD2028FAD12846BDE8F04703F012BAE1
:101610009C00002002488168027811448160704774
:1016200040000020074810B5016841F0100101603A
:10163000032000F075F80F2000F006F800F024F801
:10164000002010BD0020024070B50D4D04464FF43F
:101650007A712878B1FBF0F00A490968B1FBF0F023
:1016600000F008FE48B9102C07D200222146501E77
:1016700000F036F800206C6070BD012070BD0000E5
:10168000400000204C0000200C4808B5816941F062
:1016900001018161816901F001010091C16941F09D
:1016A0008051C161C06900F08050009004484168D9
:1016B00021F0E06141F00071416008BD001002407E
:1016C00000000140002809DB00F01F0201219140C9
:1016D0004009800000F1E020C0F8001170470000D0
:1016E000F0B40E4B1B680C46C3F30223C3F107058D
:1016F000042D00D90425191D072901D2002300E07B
:10170000DB1E012606FA05F1491E214099409E4044
:10171000761E16403143F0BC03F019B90CED00E021
:10172000064900F0070208684FF6FF03184040EA38
:101730000220034A10430860704700000CED00E0EF
:101740000000FA052DE9F0470F46050061D0434E31
:10175000306800F00700B84209D2306820F0070076
:1017600038433060306800F00700B84251D1286833
:101770003B4C810712D5400703D5606840F4E06018
:1017800060602878000703D5606840F460506060AE
:101790006068A96820F0F000084360602878C007FE
:1017A00028D06868012810D02168022810D0890745
:1017B00000292EDA616821F0030101436160FFF71F
:1017C0007DFB804641F288390DE021688903EFE70F
:1017D0008901EDE7FFF772FBA0EB0801494502D94B
:1017E0000320BDE8F0876068696800F00C00B0EB8A
:1017F000810FEFD1306800F00700B8420BD9306894
:1018000020F0070038433060306800F00700B8422D
:1018100001D00120E5E72878400705D56068E96830
:1018200020F4E060084360602878000706D560680F
:10183000296920F4605040EAC100606000F038F887
:101840006168084AC1F30311515CC8400649086049
:1018500006480068FFF7F8FE0020C2E700200240BB
:1018600000100240744E00084C000020440000208C
:101870000448054900684968044AC1F30221515CE3
:10188000C84070474C00002000100240844E000801
:101890000448054900684968044AC1F3C221515C03
:1018A000C84070474C00002000100240844E0008E1
:1018B0000E4A51680E4801F00C03042B11D0082B7E
:1018C0000FD10C48C1F38343C903C05C0AD55168EA
:1018D000084AC1F34041921E515C054A5043B0FB97
:1018E000F1F070470449484370470000001002407F
:1018F00000127A00644E000800093D002DE9F84FFF
:10190000040070D02078C04DC00749D06868C0F38B
:101910008100012807D06868C0F38100022809D13E
:101920006868C00306D52868800339D56068002838
:10193000E7D035E06068B0F5803F0BD010B1B0F56E
:10194000A02F11D0286820F480302860286820F467
:10195000802002E0286840F480302860606890B100
:10196000FFF7ACFA06460AE0286840F480202860B9
:10197000F0E700BFFFF7A2FA801B642873D828683D
:101980008003F7D50CE0FFF799FA064605E000BFA3
:10199000FFF794FA801B6428F0D828688003F7D4F6
:1019A00020789A4E80074FF001094FF0000839D592
:1019B000686810F00C0F07D06868C0F38100022837
:1019C00009D16868C00306D42868800714D5206947
:1019D000012808D110E02069B0B1C6F80090FFF7E7
:1019E0006DFA074605E00AE1FFF768FAC01B022816
:1019F000C4D828688007F7D52868616920F0F80006
:101A000040EAC10028600DE0C6F80080FFF756FAF2
:101A1000074604E0FFF752FAC01B022823D82868C3
:101A20008007F7D4207800072CD57948A169D9B16F
:101A3000C0F80090FFF742FA074604E0FFF73EFACD
:101A4000C01B02280FD8686A8007F7D571484FF489
:101A5000FA510068B0FBF1F0009000BF0098411E01
:101A60000091FAD20EE080E0C0F80080FFF726FA7D
:101A7000074604E0FFF722FAC01B022875D8686AFF
:101A80008007F7D42078400760D5E8690027C000B8
:101A900008D4E86940F08050E861E869012700F067
:101AA000805000905C480168C90513D401688346E2
:101AB00041F480710160FFF701FA824606E000BF41
:101AC000FFF7FCF9A0EB0A0064284ED8DBF8000011
:101AD000C005F5D5E06801280AD008B1052813D063
:101AE000286A20F001002862286A20F0040002E041
:101AF000286A40F001002862E06841F2883B98B112
:101B0000FFF7DCF982460BE0286A40F00400286207
:101B1000EEE700BFFFF7D2F9A0EB0A0159455AD80A
:101B2000286A8007F6D50CE0FFF7C8F9824605E081
:101B3000FFF7C4F9A0EB0A0159454CD8286A800781
:101B4000F6D41FB1E86920F08050E861E06988B3FD
:101B50006968C1F38101022944D00228C6F8608077
:101B600004D0FFF7ABF9044638E034E0FFF7A6F9FC
:101B7000074604E0FFF7A2F9C01B02282BD828680B
:101B80008001F7D4206AB0F5803F05D16868A1686C
:101B900020F4003008436860D4E90801084369680C
:101BA00021F4741108436860C6F86090FFF786F965
:101BB000044606E025E000BFFFF780F9001B02287D
:101BC00009D828688001F7D51BE000BFFFF776F938
:101BD000001B022802D90320BDE8F88F2868800185
:101BE000F4D40EE00128F7D06868226A00F480314E
:101BF000914204D1616A00F47010884201D0012042
:101C0000EAE70020E8E7000000100240000042423E
:101C1000800442424C00002000700040704790F861
:101C20005100704738B50446006842688168C9436E
:101C30004B0606D5CB0704D1D3435B0601D4216CF8
:101C400005E08B0708D4D3431B0605D4616C01B0B3
:101C50002046BDE8304008478B0601D54B0646D4E8
:101C6000D3439B0643D44B060AD494F85130032B3C
:101C70003ED0636D43F004036365C36883680093DB
:101C8000890609D4616D41F00101616581680091A7
:101C9000016821F040010160606D002827D02068B4
:101CA000416821F0E0014160012084F85100900773
:101CB00022D02068416821F003014160104DE06CA2
:101CC00040B14563E06CFEF789FE18B1606D40F0ED
:101CD00040006065A06C002809D04563A06CFEF749
:101CE0007DFE002803D0606D40F04000606538BD87
:101CF000C1688068009038BD2046FFF78FFF38BD6F
:101D0000E541000870B5040009D0606A002540B1C3
:101D100025616561A56294F8510040B10CE0012095
:101D200070BD6068B0F5827FF4D0E561F2E784F8B9
:101D30005050204600F040F8022084F851002068FE
:101D4000016821F040010160A088218900F48270BF
:101D500001F404410843A18901F400610843217C96
:101D600001F002010843217D01F001010843218BAC
:101D700001F400710843217F01F03801084394F811
:101D8000201001F080010843218D01F40051084327
:101D900021680860A069042101EA104021684860B8
:101DA0002068C16921F40061C1616565012084F882
:101DB0005100002070BD00002DE9F04186B00024E4
:101DC0000646009401940294039400682E498842C8
:101DD00057D12E48816941F480518161816901F4B4
:101DE00080510491816941F0040181618069284D2D
:101DF00000F004000490A020009002200190032035
:101E0000039069462846FEF75BFF4020CDE90004B9
:101E1000694628460294FEF753FF1F4D1D484FF0B8
:101E20008008C5E90004C5E902482C614FF4005759
:101E30006C61C5E906472846FEF7CAFE08B1FEF701
:101E4000A7FDF5646E62144D12484435143001C587
:101E50001020A5E81101104845F8104944306C6184
:101E6000C5E90647FEF7B4FE08B1FEF791FDB5647B
:101E70000022114623206E62FFF732FC2320FFF779
:101E800021FC06B0BDE8F0810030014000100240A6
:101E9000000801401C000240D0010020704770473C
:101EA0002DE9FF4F81B01D46934604464FF00109CE
:101EB0000E9EFFF703F8074694F851006168012869
:101EC00006D0B1F5827F3CD1A168C9BB042838D1C6
:101ED0000298002871D0BBF1000FFBD0002DF9D083
:101EE00094F8500001282CD04FF0010A84F850A03B
:101EF00094F85100042802D0052084F851004FF0D6
:101F00000008C4F85480C4F838B0E587A587029962
:101F10002163E586A586C4F84080C4F84480206823
:101F20000168490603D4016841F040010160E0689E
:101F3000B0F5006F606808D0F0B3012D49D081E0A2
:101F4000FFE7022005B0BDE8F08F08B1012D39D1BF
:101F5000206B21680088C860206B801C2063E08EA5
:101F6000401EE0862EE02068816889070FD5E18E4B
:101F700069B1B9F1010F0AD1216B0988C160206BE9
:101F8000801C2063E08E401EE0864FF00009206830
:101F90008168C9070CD0E18F51B1C068A16B08807E
:101FA000A06B801CA063E08F401EE0874FF001090A
:101FB000FEF784FFC01B01E00BE067E0B04201D3F5
:101FC000701C50D1E08E0028CDD1E08F0028CAD1FE
:101FD0003EE0206B216800780873206B401C206372
:101FE000E08E401EE0862DE02068816889070FD5CD
:101FF000E18E69B1B9F1010F0AD1216B0978017342
:10200000206B401C2063E08E401EE0864FF00009EC
:1020100020688168C9070CD0E18F51B1C068A16BFD
:102020000870A06B401CA063E08F401EE0874FF05B
:102030000109FEF743FFC01BB04202D3701C01D060
:1020400011E086B1E08E0028CED1E08F0028CBD100
:102050003A463146204602F0AFF950B12020606583
:1020600084F8508012E084F851A084F85080032056
:1020700068E7A06818B92068C1688068009084F893
:1020800051A084F85080606D0028F1D0012059E7FC
:1020900070B5044690F851006568012806D0B5F582
:1020A000827F3AD1A568A5BB042836D191B38AB303
:1020B00083B394F8500001282FD0012084F85000F9
:1020C00094F85100042802D0052084F8510000251E
:1020D00065652163A386E386A263A387E3872564FE
:1020E000656494F85100042819D0E16C2748C8624F
:1020F0002748E16C8862E16C26480863E06C456320
:10210000E38F2168A26B0C31E06CFEF78FFD00BB02
:102110000AE002E0FFE7012070BD022070BDE16C23
:102120001D48C8621D48E4E72068416841F001018C
:102130004160A06CC562A06C8562A06C0563A06C58
:102140004563E38E2268216B0C32A06CFEF76EFDB6
:1021500030B1606D40F01000606584F85050DAE7EF
:1021600020680168490603D4016841F0400101601C
:1021700084F850502068416841F020014160206897
:10218000416841F002014160002070BD2B4200080F
:1021900003430008F54100081742000835420008D3
:1021A00070B5044690F8510001281CD1C9B1C2B1E4
:1021B00094F85000012816D0012084F85000032024
:1021C00084F85100002565652163A286E286A56337
:1021D00065642564A587E587A068B0F5004F04D045
:1021E0000DE0012070BD022070BD2068016821F063
:1021F000400101602068016841F480410160A16CE8
:102200001748C862A16C17488862A16C1648086319
:10221000A06C4563E38E2268216B0C32A06CFEF744
:1022200005FD30B1606D40F01000606584F85050DD
:10223000D7E720680168490603D4016841F04001EE
:10224000016084F850502068416841F020014160ED
:102250002068416841F002014160002070BD00002B
:10226000214200089F420008F5410008704770476E
:102270007047704710B5401EB0F1807F01D3012038
:1022800010BD4FF0E02460610F21601702F05FFB8A
:102290000020A06107202061002010BD704770471A
:1022A00070B590F83C20012A26D0012480F83C40EB
:1022B000022280F83D2003685A689D6822F070066B
:1022C0000A6832435A600D4B02689A4208D0B2F154
:1022D000804F05D00A4B9A4202D00A4B9A4204D151
:1022E000496825F080031943916080F83D40002142
:1022F00080F83C10084670BD022070BD002C0140E3
:10230000000400400008004010B5040003D094F819
:102310003D0010B107E0012010BD002084F83C0012
:10232000204600F01FF8022084F83D00211D20689F
:1023300002F0F8F8012084F8460084F83E0084F8A2
:102340003F0084F8400084F8410084F8420084F89B
:10235000430084F8440084F8450084F83D000020E0
:1023600010BD000038B5054600681F4A1F4990425D
:102370000ED1886940F4006088618869002200F409
:102380000060009011461920FFF7AAF9192026E0F5
:10239000B0F1804F27D1C86940F00100C861C86919
:1023A000144C00F0010000901148206000208021B2
:1023B0006060C4E90201490021618900C4E9051097
:1023C000E0612046FEF704FC08B1FEF7E1FA6C621A
:1023D000002211461C206562FFF782F91C20BDE82F
:1023E0003840FFF76FB938BD002C014000100240A3
:1023F00058000240E802002090F83D10012901D069
:1024000001207047022180F83D100168CA6842F03F
:102410000102CA6000680B49884208D0B0F1804FC1
:1024200005D00949884202D00849884204D1816810
:1024300001F00701062903D0016841F001010160A4
:1024400000207047002C01400004004000080040BC
:1024500070B5044690F83C000025012817D00126ED
:1024600084F83C60022084F83D002068826822F0F5
:10247000770222F47F4282600868502838D00DDC51
:1024800020284FD005DC90B3102811D14AE002205B
:1024900070BD302846D040280AD13BE060282FD0BC
:1024A00070280DD0B0F5805F03D0B0F5005F12D07A
:1024B000012584F83D60002084F83C00284670BD6A
:1024C000CB68D1E90121206802F075F820688168A5
:1024D00041F0770109E0CB68D1E90121206802F0E1
:1024E0006AF82068816841F480418160E1E719E081
:1024F000CA684968206802F013F95021206806E094
:10250000CA684968206802F01CF96021206802F05E
:102510005CF8CEE7CA684968206802F001F94021FA
:102520002068F4E7226801461046F0E770472DE97D
:10253000F04104460068C66805694FF00007A90726
:1025400013D5B10711D5F91E01610120207720684C
:1025500080698007204602D0FFF7E8FF04E000F022
:10256000A3F8204600F035F92777680716D57007DD
:1025700014D521686FF004000861022020772068DC
:10258000806910F4407F204602D0FFF7CFFF04E0BF
:1025900000F08AF8204600F01CF92777280715D5A7
:1025A000300713D521686FF00800086104202077F8
:1025B0002068C0698007204602D0FFF7B7FF04E01B
:1025C00000F072F8204600F004F92777E80616D5E7
:1025D000F00614D521686FF01000086108202077FC
:1025E0002068C06910F4407F204602D0FFF79EFFAC
:1025F00004E000F059F8204600F0EBF82777E807F0
:1026000008D0F00706D021686FF00100086120466D
:1026100000F02EF9280608D5300606D521686FF09F
:10262000800008612046FFF739FE680608D570066D
:1026300006D521686FF040000861204600F019F9C6
:10264000A8060AD5B00608D521686FF020000861F9
:102650002046BDE8F041FFF722BEBDE8F081000052
:1026600000B585B0002100910191029103910068AD
:10267000B0F1804F11D10A48816941F004018161B4
:102680008069694600F0040004900F200090022049
:10269000019003900348FEF713FB05B000BD000056
:1026A0000010024000080140704770B5044690F8E1
:1026B0003C0000260D4601280FD0012084F83C0084
:1026C0006AB1042A1DD0082A2FD00C2A3FD0012637
:1026D000002084F83C00304670BD022070BD2068A8
:1026E00001F07CFF2068816941F008018161206868
:1026F000816921F004018161206881692A6911439F
:1027000011E0206801F092FF2068816941F40061C6
:1027100081612068816921F480618161206881691B
:102720002A6941EA02218161D2E7206801F0AAFF0B
:102730002068C16941F00801C1612068C16921F0C8
:102740000401C1612068C1692A69114311E0206850
:1027500001F0C4FF2068C16941F40061C1612068D3
:10276000C16921F48061C1612068C1692A6941EAB7
:102770000221C161ACE710B5040003D094F83D001C
:1027800010B107E0012010BD002084F83C00204675
:1027900000F01EF8022084F83D00211D206801F0A1
:1027A000C1FE012084F8460084F83E0084F83F0012
:1027B00084F8400084F8410084F8420084F8430023
:1027C00084F8440084F8450084F83D00002010BDE2
:1027D0007047704710B50446022249B104290ED053
:1027E000082913D094F84100012816D0012010BD0B
:1027F00094F83E000128F9D184F83E200FE094F8C7
:102800003F000128F2D184F83F2008E094F840000E
:102810000128EBD184F8402001E084F84120012216
:10282000206801F0BBFE0F492068884203D1426C4A
:1028300042F4004242642068884208D0B0F1804FE0
:1028400005D00949884202D00849884204D18168EC
:1028500001F00701062903D0016841F00101016080
:10286000002010BD002C0140000400400008004082
:102870007047704770477047F8B5016804460868AC
:10288000CA684B6910F00F0F4FF0000559D003F0E4
:10289000010602F49077374365D0C10705D0D10512
:1028A00003D5616C41F001016164410705D5D90789
:1028B00003D0616C41F002016164810705D5D9073D
:1028C00003D0616C41F004016164010707D502F097
:1028D0002001314303D0616C41F008016164616CF7
:1028E00000293AD0800604D5900602D5204601F092
:1028F00069FF20684069616CC0F38010090700D44B
:1029000060B3204601F037FF20684069400621D5BA
:102910002068143050E8001F21F0400140E8001208
:10292000002AF5D1E06BA8B16D494163E06BFEF779
:1029300055F8002811D0E06B416B01B0BDE8F040C4
:10294000084783060FD593060DD52046BDE8F8400D
:1029500001F038BF2046FFF78EFFF8BD2046FFF795
:102960008AFF6564F8BD266B2023012E7CD1C60644
:102970007AD5D60678D508684868009048694FF03F
:102980000206400640D5E16B086840680004000C70
:10299000E8D0A28D8242E5D9E085886920282DD033
:1029A00020680C3050E8001F21F4807140E80012CC
:1029B000002AF5D12068143050E8001F21F00101F1
:1029C00040E80012002AF5D12068143050E8001FBA
:1029D00021F0400140E80012002AF5D184F842308D
:1029E000256320680C3050E8001F21F0100140E8FA
:1029F0000012002AF5D1E06BFDF7CCFF6663A08DD5
:102A0000E18D401A81B22AE0A08DE18D401A81B299
:102A1000E08D0028A6D00029A4D022680C3252E80C
:102A2000000F20F4907042E80007002FF5D12068D5
:102A3000143050E8002F22F0010240E80027002F58
:102A4000F5D184F84230256320680C3050E8002F1F
:102A500022F0100240E80023002BF5D166632046E7
:102A6000FFF708FFF8BDFFE705062BD5150629D5AA
:102A700094F841002128F5D1A068B0F5805F01D11C
:102A80002069B0B1206A411C216221680078486049
:102A9000E08C401E0004000CE084E3D12068C16893
:102AA00021F08001C1602068C16841F04001C1602F
:102AB000D8E7206A0088C0F308004860206A801CBC
:102AC0002062E5E74006CDD55006CBD5CA68204642
:102AD00022F04002CA6084F8413000F076F8C1E785
:102AE0006747000870B5040004D094F84100002541
:102AF00010B106E0012070BD84F84050204600F07F
:102B000023F8242084F841002068C16821F4005192
:102B1000C160204601F0B8FE2068016921F49041AF
:102B200001612068416921F02A0141612068C16882
:102B300041F40051C1606564202084F8410084F8AC
:102B400042006563002070BD30B585B0002400945C
:102B50000194029403940068184988422CD11848C3
:102B6000816941F480418161816901F4804104916E
:102B7000816941F0040181618069124D00F0040017
:102B800004904FF400700090022001900320039005
:102B900069462846FEF794F82815CDE900046946F1
:102BA00028460294FEF78CF8002211462520FEF7F5
:102BB00097FD2520FEF786FD05B030BD00380140A9
:102BC000001002400008014070477047FEE7000017
:102BD0000148FEF77BB900009C0000200148FEF789
:102BE000D7B900009C00002038B5406A002190F859
:102BF0003D202B4B46F2A8141B68B3FBF4F3C3EB48
:102C0000C30303EB830300933BB15B1E0093036894
:102C10001B689B0505D5009BF6E7036C43F020037A
:102C20000364436B03B19962836B03B199620368D8
:102C30001C6824F480641C604185436B03B15963B4
:102C4000836B03B1596303681C6824F001041C60A2
:102C500090F83D402023602C0BD0282434EA020257
:102C60000FD080F83D3080F83E1000BFFEF7A8FA84
:102C700038BD80F83D3080F83E100164FEF724F93D
:102C800038BD0268136843F00103136002681368DB
:102C900043F480631360016380F83D40E6E7000081
:102CA0004C00002010B5406A0021426B02B19162D5
:102CB000826B02B191620268136823F4806313602F
:102CC0004185202280F83D2080F83E10016C41F0C3
:102CD00010010164FEF774FA10BD2DE9F041446A59
:102CE00094F83D2094F83E50E16A2068436823F44C
:102CF00040734360636B002003B19862A36B03B120
:102D00009862212333EA02074FF022060CD036EAFC
:102D1000020701D1202D07D094F83E20002A21D0AF
:102D2000628D012A20D024E021684D6825F40065D9
:102D30004D6060852820292A02D02A2A07D00CE07D
:102D4000236384F83D002046FEF723FC05E026635C
:102D500084F83D002046FEF71BFC2068416841F4E2
:102D600040714160BDE8F0812268136823F48063FC
:102D700013602268536823F44073536011F5803F59
:102D800006D0082904D0B1F12A4F01D0202904D15E
:102D90002268136843F4007313602268536823F4B5
:102DA000805353602268536823F400635360608546
:102DB000226C1AB12046FEF703FAD3E7202284F8EA
:102DC0003D2094F83E2084F83E00402A09D008298E
:102DD00002D0202900D0122020632046FEF7B9FA45
:102DE000C0E720632046FEF761FBBBE7006841694E
:102DF000C943090601D400210161704770B504463A
:102E000090F83D0094F83E10102901D0402906D1D9
:102E1000222804D121680A6822F400620A6028216D
:102E200031EA00024FF000054FF0200626D021685D
:102E30004968090505D4602803D084F83D6084F80A
:102E40003E50256320684168090537D5416821F463
:102E500000614160606B90F821203C49012A11D04B
:102E60004163606BFDF7BAFD38B32068016821F05B
:102E70000101016084F83D60606B1CE0256384F80B
:102E80003D10DFE7A06B4163A06BFDF7A7FDA0B18C
:102E900020684169C943490605D40069616A087020
:102EA000606A401C60622068016821F001010160D5
:102EB00084F83D60A06B416B884710E094F83D10AA
:102EC000602910D04169C943490605D40069616A87
:102ED0000870606A401C60622046FEF771F9206C41
:102EE000C1071CD115E084F83D6025644169C943E0
:102EF000490605D40069616A0870606A401C606216
:102F00002068016821F0010101602046FDF7DCFF27
:102F1000E5E7810703D4410701D4000704D5206801
:102F2000416821F4E061416094F83D00216C49075B
:102F30000BD5282809D10648E062256384F83D6056
:102F400084F83E502046FEF703FA70BDE92B0008D6
:102F50000000FFFF10B5C26A438D0168042B06D044
:102F6000438D032B08D0438D022B1DD012E04A68FD
:102F700022F480624A600CE04B6823F480634B606B
:102F8000042A06D0022A04D001680A6822F480626A
:102F90000A6001680969426A1170416A491C41620C
:102FA000418D491E418510BD012A34D0102A32D0EE
:102FB000042A34D0022A32D00B6843F400730B6029
:102FC00001680969436A1970416A491C4162438D6D
:102FD0005B1E438503681B690B70416A491C416293
:102FE000418D491E418501684B6823F440734B6055
:102FF000202180F83D1090F83E300021402B80F8D1
:103000003E1010D0082A02D0202A00D012210163DD
:10301000FEF79FF910BD0B6823F48063CFE70B68C0
:1030200043F48063CBE70163FEF740FA10BD000074
:1030300038B590F83D10222910D1C36A418D03297B
:103040000DD901680969426A1170416A491C4162DF
:10305000418D491E4185418D032906D038BDC26A84
:10306000022A02D0012906D029B10068416821F462
:103070008061416038BD2A4A46F2A81400211268D6
:10308000B2FBF4F202EB8202009202682024009D5F
:103090006D1E009526D01568AD05F8D4156825F489
:1030A000806515600268556825F4E0655560026822
:1030B0001269456A2A70426A521C4262428D521E4F
:1030C000428580F83D4090F83E2080F83E10402A2E
:1030D00021D0082B02D0202B00D012210163FEF753
:1030E00038F938BD036C43F020030364536823F4BC
:1030F000E063536002681269436A1A70426A521CA4
:103100004262428D521E428580F83D4080F83E105A
:10311000FEF756F838BD0163FEF7C8F938BD000068
:103120004C00002010B5C26A90F83D1021290BD147
:10313000418D51B1416A026809781161416A491CA7
:103140004162418D491E418510BD20230021082A7E
:1031500013D0202A11D012F5803F0ED00268546897
:1031600024F4E06454601122026380F83E1080F879
:103170003D3000BFFEF7EEF810BD0268546824F43D
:10318000E06454600268146844F4007414600163DD
:1031900080F83D3090F83E2080F83E10402AE9D17A
:1031A000FEF785F910BD000010B590F83D1090F8BD
:1031B0003E30C26A048DB4B1212903D0402B11D115
:1031C00022290FD1418DE1B390F83E10402942D021
:1031D000416A026809781161416A491C4162418D66
:1031E000491E418510BD2129E8D120230021082A4C
:1031F00013D0202A11D012F5803F0ED002685468F7
:1032000024F4E06454601122026380F83E1080F8D8
:103210003D3000BFFEF79EF810BD0268546824F4EC
:10322000E06454600268146844F40074146001633C
:1032300080F83D3090F83E2080F83E10402AE9D1D9
:1032400000E002E0FEF733F910BD0068416821F4A8
:103250008061416010BDBDE8104000F0F3B800008F
:1032600078B590F83E50C26A046B90F83D60002338
:103270000168222E73D1066D0EB9402D6FD0056DF9
:103280001DB90569B5F5404F1BD0458D95B3468DE9
:10329000484D012E20D0448D022C4DD00C6844F4B2
:1032A00080640C6001684C68240579D5AA4273D00B
:1032B000012A71D0082A6FD0102A6DD0202A6BD035
:1032C0006EE04A698A6900920A6842F480720A6074
:1032D000016D491C016578BDAA4214D10A6822F427
:1032E00080620A6001684A68120504D50A6822F4FF
:1032F000806217E0FFE74A698A6900920A6842F42F
:1033000000720A6050E0082A10D0202A0ED0122C39
:103310000AD0042A03D0022A01D0102AE6D10A6872
:1033200042F480620A603BE0012ADFD00A6822F49E
:1033300080620A600168DEE7042A11D0022A0FD0F9
:10334000102A0DD00C6844F400640C6001684C69CC
:103350008C6900940C6824F480640C6008E025E01B
:103360000C6844F480640C6001684C6989690091C0
:1033700001684C68240517D5AA4207D0012A05D058
:10338000082A03D0102A01D0202A0DD14A6842F41D
:1033900080524A6008E0FFE74A6842F480524A607F
:1033A00001684A6989690091036578BD486988693F
:1033B000009078BD0000FFFF90F83E10402910D02B
:1033C0000169B1F5804F19D0016DA9B3016D0129D3
:1033D00010D1416C5FF0F10201F4407142EAD11169
:1033E00006E0016D0029416C05D0C9B241F0010130
:1033F00000680161704701F0FE01F9E790F83D10A7
:103400002129416C09D0C9B241F001010268116162
:10341000416B29B1896A49B902E001F0FE01F5E783
:10342000816B0029E6D0896A0029E3D000684168F1
:1034300041F4006141607047FFE7416CF02201F404
:103440004071CBE710B590F83D10026D4AB1026DA6
:10345000012A14D0026D022A16D0BDE81040FFF7F1
:10346000C5BCC16C0129816C02D0C1F3072108E001
:103470000268C9B21161016D891C016510BD816CC2
:10348000C9B20268116123E022291CD0428D0AB121
:10349000212920D0428D002AF0D12129EED10168C6
:1034A0004A6822F4E0624A6001680A6842F40072E5
:1034B0000A6000210163202280F83D2080F83E1040
:1034C000FDF7F5FF10BD01680A6842F480720A60DA
:1034D000016D491CD1E7416A026809781161416AAE
:1034E000491C4162418D491E418510BD38B50C46CD
:1034F00090F83D2000212825954302680B4605D011
:1035000051699169009180F83C3038BD556825F4C7
:1035100080655560E243540700D50121120601D5AC
:10352000828900E0028B80F83C3092B2FDF7CDFC3E
:1035300038BD00002DE9F04190F83D300446C26AE4
:10354000002120261E4F00686FF48065082A01D0F4
:10355000202A01D1282B04D0212B17D04561BDE8AA
:10356000F081E762426822F4E062426020684561CF
:103570002068026822F480620260216384F83D6062
:1035800084F83E102046FDF7E3FEE8E7E7622122DB
:10359000226384F83D6084F83E10416821F4E061C4
:1035A0004160206845612068016821F48061016004
:1035B0002046FFF71BFC2046FDF7EBFFCFE700009E
:1035C0000000FFFFF8B590F83D60044600684168D0
:1035D00021F4E061416020680025416900910168A3
:1035E00041F0010101602068016821F480610160FF
:1035F00020684168090520D5474F222E48D02A2E41
:1036000046D0616B096849686185618D19B1216C8B
:1036100041F004012164416821F400614160606B64
:10362000FDF728FA012808D0606B4763606BFDF74F
:10363000D5F910B1606B416B8847608D08B3206885
:103640004169C943490708D40069616A0870606A22
:10365000401C6062608D401E608520684169C943DE
:10366000490608D40069616A0870606A401C60629B
:10367000608D401E6085608D18B1206C40F00400A4
:103680002064206C00B32046BDE8F840FFF7B6BBCD
:10369000A16B096849686185618D19B1216C41F0A0
:1036A00004012164416821F400614160A06BFDF7D1
:1036B000E1F90128C1D0A06B4763A06BFDF78EF93B
:1036C0000028BAD0A06BB6E72A2E06D125632820A1
:1036D00084F83D002046FDF75BFF94F83D10202064
:1036E00028290DD0216B222901D0222E07D1256354
:1036F00084F83D0084F83E502046FDF749FFF8BDB0
:103700000649E162256384F83D0084F83E50204676
:10371000FDF71EFEF8BD0000E92B00080000FFFFCA
:10372000194808B5416941F0010141614069002231
:1037300000F00100009011460C20FDF7D1FF0C2095
:10374000FDF7C0FF002211460D20FDF7C9FF0D2037
:10375000FDF7B8FF002211460F20FDF7C1FF0F2033
:10376000FDF7B0FF002211461020FDF7B9FF102031
:10377000FDF7A8FF002211461120FDF7B1FFBDE8BB
:1037800008401120FDF79EBF001002402DE9F041D6
:1037900086B000243848009401940294039481690F
:1037A00041F010018161816901F01001049181698A
:1037B00041F020018161816901F02001049181695A
:1037C00041F004018161816901F004010491816982
:1037D00041F0080181618069284F00F008004FF432
:1037E00000550490002229463846FDF761FBDFF8BA
:1037F0009080012203214046FDF75AFB00224FF43E
:10380000A0614046FDF754FB009502260125039672
:10381000CDE9015469463846FDF752FA10208DE88B
:10382000310069461748FDF74BFA0320CDE9000542
:10383000CDE9024069464046FDF742FAA802CDE9CB
:103840000005CDE9024669464046FDF739FA1820E1
:103850008DE8310069464046FDF732FA28020090B3
:1038600001AA112082E8610069464046FDF728FA66
:1038700006B0BDE8F08100000010024000100140D9
:10388000000C0140000801400D4810B50B490160D3
:103890000C49416000214FF480428160C0E903126D
:1038A00041618161C1610162FDF78EFC002803D096
:1038B000BDE81040FDF76CB810BD0000005400409A
:1038C0009C000020801A0600104810B50E490160C7
:1038D0004FF48271416000218160C1604FF4007239
:1038E0000161C0E905121822C0E907214162816225
:1038F0000A21C162FEF706FA002803D0BDE8104095
:10390000FDF746B810BD00000030014078010020EE
:1039100010B586B0002418480094019402940394D2
:10392000049414490594016041F6FF01C0E90114B3
:1039300042F20F71C0E903148021C0E90541FEF78E
:10394000E3FC08B1FDF724F84FF48050009069467D
:103950000948FEF77DFD08B1FDF71AF8049404A9A3
:1039600005480594FEF79CFC002801D0FDF710F8EF
:1039700006B010BD002C01405802002030B58DB0BB
:1039800000240794089409940A940B941C21684617
:103990000C94FCF7F2FB2E484FF08041C0E9001474
:1039A00040F67F41C0E90241802104618161FEF758
:1039B000ABFC08B1FCF7ECFF4FF48050079007A96F
:1039C0002348FEF745FD08B1FCF7E2FF2048FEF76B
:1039D000D2FE08B1FCF7DCFF0B940BA91C480C9439
:1039E000FEF75EFC08B1FCF7D3FF1A4D6020009093
:1039F0002888CDE901040420049000226946144877
:103A0000FEF753FE08B1FCF7C3FF6888019004225B
:103A100069460F48FEF749FE08B1FCF7B9FFA888D0
:103A20000190082269460A48FEF73FFE08B1FCF7FC
:103A3000AFFFE88801900C2269460548FEF735FE85
:103A400008B1FCF7A5FF0248FEF70AFE0DB030BD35
:103A5000A0020020000000200C4810B50A490160B7
:103A60004FF4E1314160002181600C22C160C0E966
:103A700004128161C161FFF735F8002803D0BDE869
:103A80001040FCF785BF10BD003801402C0300201A
:103A9000FEE7FEE770B500F0700400F06FF80B4E23
:103AA0000546002202213046FDF702FA272000F0E9
:103AB00089FF45EA040000F085FF0122022130461B
:103AC000FDF7F6F9BDE8704000F058B8000C014071
:103AD00010B50B4C012211462046FDF7E9F90122F1
:103AE00010210848FDF7E4F9002201212046FDF7E6
:103AF000DFF920460122BDE810400221FDF7D8B9C8
:103B0000000C0140000801402DE9F0410E4F154620
:103B10000E460446002202213846FDF7C9F9204628
:103B200000F050FF002405E0FF2000F04BFF30556F
:103B3000641CE4B2AC42F7D33846BDE8F041012240
:103B40000221FDF7B5B90000000C014070B50A4D27
:103B50000446002202212846FDF7AAF9204600F07B
:103B600031FFFF2000F02EFF0446012202212846EB
:103B7000FDF79EF9204670BD000C014010B50022F3
:103B800002210448FDF794F9BDE81040072000F039
:103B900019BF0000000C014070B5214E05460024FD
:103BA000224602213046FDF783F9E22000F00AFFA9
:103BB000012202213046FDF77BF91A4E07E064200E
:103BC000FDF76CF82046641CE4B21E281DD0306856
:103BD00040F30010401CF2D00720FFF7B7FF044667
:103BE0000146072000F0A8F8600616D56020FFF710
:103BF000ADFF0446024629466120FFF785FFFF21FD
:103C0000E22000F099F8204670BDFFF761FF00F058
:103C1000EFF9012000F084FADEE7002070BD00001B
:103C2000000C014008080140052A00D9052205289A
:103C300000D905200A30C0B200F05CB87CB5052A76
:103C400000D905221446052800D905200A3040F085
:103C500020008DF800000DF10100FCF775FA0B4D06
:103C6000002202212846FDF723F9621C6946084814
:103C7000FEF796FA0648FDF7D2FF0128FAD1012295
:103C800002212846FDF714F97CBD0000000C01401C
:103C900078010020052900D905210A460146102097
:103CA00000F028B87CB5052900D905210C46302143
:103CB0008DF80010014622460DF10100FCF744FA90
:103CC0000A4D002202212846FDF7F2F8621C6946DF
:103CD0000748FEF765FA0648FDF7A1FF0128FAD16B
:103CE000012202212846FDF7E3F87CBD000C0140CB
:103CF000780100202DE9F0410E4F15460E4604468E
:103D0000002202213846FDF7D3F844F0200000F0ED
:103D100059FE002404E0305D00F054FE641CE4B25F
:103D2000AC42F8D33846BDE8F04101220221FDF74C
:103D3000BFB80000000C014070B50B4D0E460446A4
:103D4000002202212846FDF7B3F844F0200000F0DD
:103D500039FE304600F036FE2846BDE870400122AC
:103D60000221FDF7A5B80000000C0140F0B532A11A
:103D700087B0D1E90001CDE90201FDF79FF8304C91
:103D8000054630268DF800600298CDF801009DF8B8
:103D90000C008DF80500002202212046FDF788F86E
:103DA000062269462748FEF7FBF92648FDF737FF4C
:103DB0000128FAD1012202212046FDF779F81020CE
:103DC0008DF80000FF2205210DF10100FCF7CEF96E
:103DD000002202212046FDF76BF8062304AA69465B
:103DE0001848FEF755F91748FDF719FF0128FAD1D1
:103DF000012202212046FDF75BF8002002AA04A957
:103E00000F18135C7F78BB4203D1401CC0B2052859
:103E1000F6D305280DD0FDF751F8401BB0F5FA7F19
:103E2000B0D94FF400510848FDF73AF8002007B028
:103E3000F0BD0120FBE70000A5A5A5A5A500000099
:103E4000000C0140780100200010014070B50024F2
:103E500004F1B000C0B200F0B3F8002000F0B0F8F8
:103E6000102000F0ADF82E2000F0AAF80025002068
:103E700000F0AEF86D1CEDB2802DF8D3641CE4B2F6
:103E8000082CE5D370BD000070B5064D0024285DF8
:103E900000F096F8641CE4B2172CF8D3BDE870402B
:103EA000FFF7D4BF5000002010B50446B031C8B2AF
:103EB00000F086F8102040EA141000F081F804F0B9
:103EC0000F00BDE8104000F07BB800002DE9F0477E
:103ED000203A0024089E0F468146D5B27F2803D998
:103EE00000208F1C8146FFB2102B394612D0FFF7FD
:103EF000DBFF1B4905EB450001EB4005285D0EB1DA
:103F0000C043C0B200F064F8641CE4B2062CF5D3E0
:103F1000BDE8F087FFF7C8FFDFF8488004EB051124
:103F200018F801000EB1C043C0B200F051F8641C93
:103F3000E4B2082CF2D37F1CF9B24846FFF7B4FF75
:103F40000024474604EB05103844007A0EB1C04304
:103F5000C0B200F03DF8641CE4B2082CF2D3D7E7FD
:103F60008C4E0008B45000082DE9F8431E46174651
:103F7000894604460025DDF8208014E03346494692
:103F80002046CDF80080FFF7A1FF0C2E10D008349A
:103F9000E4B27A2C01D90C2E0CD0782C01D9102E39
:103FA00008D06D1CEDB27A5D002AE7D1BDE8F88338
:103FB000A41DEDE709F10100002400F0FF09F0E77E
:103FC000034600223C210148FDF7E4BA9C00002092
:103FD00001B582B00120009002AB40223C21024892
:103FE000FDF7EEFA0EBD00009C00002070470000B7
:103FF0001CB520A10122D1E90001CDE90001114643
:104000001E48FCF755FF7020FFF744FD01211C20DE
:10401000FFF792FE07211D20FFF78EFE1C20FFF701
:1040200095FD1D20FFF792FD0A210020FFF784FE79
:1040300001210846FFF780FE01210220FFF77CFEE8
:1040400003210846FFF778FEFF210420FFF774FEE6
:104050003C210520FFF770FE26210620FFF76CFEAD
:1040600005216846FFF716FE052269460020FFF786
:10407000DBFD1CBD3443101001000000000C0140AA
:10408000FEB522A1234ED1E90001CDE900010122B4
:1040900011463046FCF70CFF7020FFF7FBFC1E4D6D
:1040A000002400BF15F81400002240F020008DF815
:1040B000080005EB4400022140788DF809003046E5
:1040C000FCF7F6FE022202A91448FEF769F813482D
:1040D000FDF7A5FD0128FAD1012202213046FCF7A7
:1040E000E7FE15F8140008B1062802D10120FCF7FC
:1040F000D5FD641C092CD5D305216846FFF7D2FDF8
:10410000052269460020FFF799FDFEBD34431010DB
:1041100001000000000C0140504E00087801002012
:1041200010B504460020FFF711FD014614B1012C23
:1041300003D004E020F0010101E040F00101BDE8FE
:1041400010400020FFF7F8BD7CB5044600208DF834
:104150000000FF201E4D8DF801000022022128469C
:10416000FCF7A6FE022301AA69461A48FDF790FF54
:104170001848FDF754FD0128FAD1012202212846F2
:10418000FCF796FE9DF8051014B1012C03D004E055
:1041900021F0010101E041F0010120208DF8000033
:1041A0008DF80110002202212846FCF781FE022230
:1041B00069460848FDF7F4FF0648FDF730FD012881
:1041C000FAD1012202212846FCF772FE7CBD0000D4
:1041D000000C0140780100200148FDF723BD0000DC
:1041E0007801002010B5406A0021C187C186FDF723
:1041F00015FD10BD10B5406A01684A6822F003023F
:104200004A60416D41F010014165012180F8511073
:10421000FDF704FD10BD10B5406AFDF740FE10BD6E
:1042200010B5406AFEF723F810BD10B5406AFEF7DE
:1042300020F810BD70B50546446AFCF73FFE024603
:1042400028680068800626D42068416821F0200193
:104250004160A06818B96068B0F5827F16D0206808
:10426000416821F0010141606421204600F076F8A8
:1042700008B1202060650020E087012084F851000B
:10428000606D40B12046FDF7C9FC70BD20684168F3
:1042900021F00301E7E72046FDF700FE70BD38B5C9
:1042A0000546446AFCF70AFE024628680068800654
:1042B00023D42068416821F02001416020684168D2
:1042C00021F0020141606421204600F075F818B128
:1042D000606D40F020006065A068002118B920687A
:1042E000C26880680090E186012084F85100606D0A
:1042F00018B12046FDF792FC38BD2046FDF7B6FF09
:1043000038BD70B50546446AFCF7D8FD02462868FA
:10431000006880061ED42068416821F020014160B9
:104320006421204600F048F818B1606D40F020008C
:1043300060652068416821F0030141600020E0864B
:10434000E087012084F85100606D18B12046FDF728
:1043500065FC70BD2046FDF78BFF70BDF8B50446C7
:1043600040684FF48273984217D1A0684FF480657B
:10437000B0F5004F01D0A8420FD12068066826F0A2
:10438000400606606068984207D1A068A84204D140
:1043900000920B460022012103E000920B4600220E
:1043A0008021204600F022F8002804D0606D40F003
:1043B000200060650320F8BDF8B515460E460B4693
:1043C000009204460122022100F010F840B9334661
:1043D000002280212046009500F008F8002804D033
:1043E000606D40F0200060650320F8BD2DE9F843C2
:1043F0001E46914688460446089DFCF75FFD401B1B
:10440000351AFCF75BFD074625480068C0F3CB3042
:10441000684338E0701C37D0FCF750FDC01BA84241
:1044200003D215B1009860B32CE02068416821F0F8
:10443000E00141606068B0F5827F0BD1A068B0F503
:10444000004F02D0B0F5806F04D12068016821F0E0
:1044500040010160A06AB0F5005F09D120680168E1
:1044600021F4005101602068016841F400510160AD
:10447000012084F85100002084F850000320BDE89A
:10448000F8830025401E00902068816838EA01000A
:1044900004D000214945BDD10020F0E70121F9E712
:1044A0004C0000207047FDF7B5B830B58FB028211B
:1044B0006846FBF762FE14210AA8FBF75EFE0121A5
:1044C0000804CDE900100024029402250491CDE9EE
:1044D00007504FF4C01009906846FDF70FFA08B175
:1044E00072B6FEE70F20CDE90A054FF48060CDE9F2
:1044F0000C4002210AA80E94FDF724F9002801D0EF
:1045000072B6FEE70FB030BD704700000148FEF7FD
:104510000EB80000580200200148FEF708B800005D
:10452000A0020020F0B50268194B1A4C1A4D4FF04A
:104530008047984205D0B84203D0A04201D0A8429B
:1045400003D122F070064A683243984205D0B8423F
:1045500003D0A04201D0A84203D122F44074CA681B
:1045600022434C6922F08002224302608A68C262C0
:104570000A688262984201D109690163012141619F
:104580000169C90703D0016921F001010161F0BD92
:10459000002C0140000400400008004010B501F06C
:1045A0001F030121046A99408C430462016A9A4006
:1045B0001143016210BD10B5846842EA032224F45D
:1045C0007F440A432243826010BD826822F0700259
:1045D0000A4342F0070181607047000030B5036A6A
:1045E000026A22F0010202624268846924F07305C3
:1045F0000C682C4323F002058B682B430A4DA8421C
:104600000BD123F00805CB6822F440722B434D698F
:1046100023F0040315438A692A4342608461496890
:104620004163036230BD0000002C014030B5026AD6
:10463000036A23F010030362436884690D6824F45D
:10464000E64444EA05248D6822F0200242EA05127D
:104650000B4DA8420ED1CD6822F0800242EA05122D
:104660004D6923F4406343EA85038D6922F04002DB
:1046700043EA85034360846149688163026230BD17
:10468000002C014030B5036A026A22F48072026293
:104690004268C46923F4007324F073050C682C434A
:1046A0008D6843EA05230C4DA8420ED1CD6823F452
:1046B000006343EA05234D6922F4405242EA0512A1
:1046C0008D6923F4806342EA05124260C46149683F
:1046D000C163036230BD0000002C014030B5046AA4
:1046E000026A22F4805202624268C3690D6823F4B0
:1046F000E64343EA05238D6824F4005444EA053474
:10470000064DA84204D14D6922F4804242EA851246
:104710004260C36149680164046230BD002C0140FD
:1047200010B5036A046A24F001040462846924F069
:10473000F00444EA021423F00A020A43846102628C
:1047400010BD10B5036A046A24F010040462846981
:1047500023F0A00324F4704444EA023243EA011136
:104760008261016210BD10B5406A0021C185C1841B
:10477000FEF781F810BD01680C3151E8002F22F4DA
:10478000907241E80023002BF5D10168143151E803
:10479000002F22F0010241E80023002BF5D1016B2C
:1047A000012909D101680C3151E8002F22F01002D3
:1047B00041E80023002BF5D1202180F84210002190
:1047C0000163704708B590F84210222901D00220F9
:1047D00008BD82684FF480539A4201D1016921B12A
:1047E000816A9A421BD04AB10AE00268816A526823
:1047F000C2F308020A80816A891C08E0026972B16A
:104800000268526802F07F020A70816A491C816264
:10481000C18D491E0904090CC18503D01BE0026843
:104820005268F1E70168CA6822F02002CA60016894
:10483000CA6822F48072CA6001684A6922F00102E3
:104840004A61202180F8421000214163026B012A55
:1048500003D0FEF7B9F9002008BD016301680C31EF
:1048600051E8002F22F0100241E80023002BF5D17F
:1048700001680A68D20602D50A6849680091818DEC
:10488000FDF7F8FFE7E7000070B50446006801692E
:10489000E26821F44051114301612169A068084395
:1048A000616908432168CA6841F20C639A43024374
:1048B000CA6020684169A26921F4407111434161D5
:1048C0001E492068884202D1FCF7E2FF01E0FCF7B4
:1048D000CFFF00EBC00101EB001260686421800093
:1048E000B2FBF0F3B3FBF1F36FF018067343B2FBC6
:1048F000F0F5B2FBF0F605EB8305322303EB05156B
:10490000B5FBF1F5B6FBF1F605F0F00505EB061584
:10491000B2FBF0F6B2FBF0F0B0FBF1F06FF0180272
:10492000504306EB800003EB0010B0FBF1F0216870
:1049300000F00F002844886070BD0000003801407E
:104940000148FDF799BF00002C030020FEE709078E
:10495000090E002804DB00F1E02080F80014704705
:1049600000F00F0000F1E02080F8141D70470000F7
:10497000004870477400002002E008C8121F08C1F8
:10498000002AFAD170477047002001E001C1121FD0
:10499000002AFBD170470860B0F5006200D5524292
:1049A000C82A02DC4FF4006003E0B0F5967F02DC19
:1049B00000200860704740F6D4629042FADB4FF462
:1049C0008050F6E701B582B04FF0FF300090012330
:1049D00001AA02A90248FDF763FA9DF804000EBD82
:1049E0007801002070B50C460546FBF78DFE00F0FF
:1049F0007040B0F1005F07D024F00040C0F1FF40EC
:104A0000C00F04BF204670BD284670BD70B50C466F
:104A10000546FBF779FE00F07040B0F1004F07D07B
:104A200024F00040C0F1FF40C00F04BF204670BD1D
:104A3000284670BD10B5002821D0114B0022001F60
:104A4000196803E0814203D80A4649680029F9D170
:104A500052B11368841A9C4204D100681844106053
:104A6000104602E0506000E0186039B102680B1A8D
:104A7000934203D10B681A4402604968416010BD3B
:104A80006C00002008B50024FCF7CCFDFFF70DFDFD
:104A9000FEF77CFEFEF744FEFEF7F6FEFEF714FF7F
:104AA000FEF7DAFFFEF734FFFEF768FF2448FDF754
:104AB000A3FCFFF7E9F9FFF70BF800BFFFF756F982
:104AC0000028FBD0FFF7DCFA0120FFF73DFB0021B7
:104AD0001C48FDF77FFE04211A48FDF77BFE0821E4
:104AE0001848FDF777FE0C211648FDF773FE0122EA
:104AF000154E550329463046FCF7DAF900271348CE
:104B0000FFF74AF80028FAD010491048103900F091
:104B1000C3F80E48103800F021F9641CE4B2FFF726
:104B200095F91023094A214600200097FFF71CFA47
:104B3000072C00D1FF2429463046FCF7B1F9DEE707
:104B400058020020A0020020001001408800002030
:104B5000F0B50B30154D20F007010024144A0FE08A
:104B600003688B420BD38B4205D95E1A4318476802
:104B7000C3E9006700E04368136002C004E0021D5F
:104B800010680028ECD12046002802D1286808B11E
:104B90000020F0BD064A07481060074A121A22F0AA
:104BA0000702C0E9002401202860D7E77000002038
:104BB0006C0000207C030020780500202DE9F041E6
:104BC000044621F000404FF4000700250E46B8428D
:104BD00001DA294613E04FF07E51FBF75AFB2B49CF
:104BE000FBF78FFB2A49FBF75AFB2A49FBF7FFFA31
:104BF000FBF7EDFB00F068F8FBF7CAFB0146206904
:104C00006269BE42006820DB7AB1042A0FD0082A0C
:104C10000FD00564A06970B1042810D0082820695D
:104C2000006810D00164BDE8F0814563F2E7856358
:104C3000F0E7C563EEE7206900684163F3E72069A8
:104C400000688163EFE7C163EDE772B1042A0ED01B
:104C5000082A0ED00564A06968B104280FD008287E
:104C6000206900680FD00564DDE74563F3E78563DD
:104C7000F1E7C563EFE7206900684563D3E7206982
:104C800000688563CFE7C563CDE700000000C6423A
:104C900000008C4200C0144470B50D4609A1FBF71A
:104CA00077FA00240BE000BFFBF794FA45F82400E4
:104CB00004A10020FBF76CFA641C042C01DA002824
:104CC000F2D170BD2C0000002DE9F04D07460E46D4
:104CD000FBF7A6FC04460D463A463346FBF79DFC1F
:104CE000DFF86CA0DFF86CB01B4B0746884616F067
:104CF000004F4FF000020AD0FBF7D6FC0AD9002281
:104D00005B4638464146FBF7E7FC1BD212E0FBF757
:104D1000CBFC08D20022534620462946FBF77AFCFA
:104D200004460D460EE000225B4638464146FBF73E
:104D3000D3FC07D80022534620462946FBF7C9FB7F
:104D400004460D463146204665F31E01BDE8F08D50
:104D50000000F03F0000E03F0000E0BF2DE9FC470D
:104D6000044600686946FFF716FE01A96068FFF770
:104D700012FE0098A0F50060FBF701FB304E3146B3
:104D8000FBF7BFFA05460198A0F50060FBF7F7FABC
:104D90003146FBF7B6FA294606464FF07E552846BF
:104DA000FFF734FEDFF89C80014647464046FFF798
:104DB00019FE824631462846FFF728FE014638464E
:104DC000FFF710FE0646E0681F4FB0F5805F01DC7C
:104DD000002400E03C4651463046FBF708FA2146E5
:104DE000FBF75DFAB9463946FBF78BFA07465146A1
:104DF0003046FBF74EFA2146FBF751FA4946FBF7DE
:104E000080FA044639462846FFF700FE0146474629
:104E10004046FFF7E7FD064621462846FFF7F6FD28
:104E200001463846FFF7DEFD044631460748FFF7E6
:104E3000C5FE064821461C30FFF7C0FEBDE8FC87D2
:104E40000080DA44000080BF0000C8420800002053
:104E50001C011D07000A01010201030304FF053CB8
:104E60000626010202030405060708090A0B0C0DB9
:104E70000E0F1010000000000000000001020304EB
:104E800006070809000000000102030400000000FA
:104E900000000000002F00000000070007000014C1
:104EA0007F147F1400242A7F2A12006264081323CF
:104EB00000364955225000000503000000001C2266
:104EC0004100000041221C000014083E08140008A4
:104ED000083E0808000000A0600000080808080854
:104EE000000060600000002010080402003E5149EC
:104EF000453E0000427F400000426151494600218A
:104F000041454B31001814127F10002745454539A3
:104F1000003C4A49493000017109050300364949FE
:104F2000493600064949291E0000363600000000B7
:104F30005636000000081422410000141414141402
:104F400000004122140800020151090600324959AB
:104F5000513E007C1211127C007F49494936003EC7
:104F600041414122007F4141221C007F4949494182
:104F7000007F09090901003E4149497A007F08087C
:104F8000087F0000417F4100002040413F01007F39
:104F900008142241007F40404040007F020C027F05
:104FA000007F0408107F003E4141413E007F090917
:104FB0000906003E4151215E007F0919294600463D
:104FC000494949310001017F0101003F4040403F14
:104FD000001F2040201F003F4038403F006314085E
:104FE0001463000708700807006151494543000039
:104FF0007F41410000552A552A55000041417F005C
:105000000004020102040040404040400000010250
:105010000400002054545478007F48444438003839
:105020004444442000384444487F003854545418C1
:1050300000087E0901020018A4A4A47C007F0804D3
:1050400004780000447D4000004080847D00007FA3
:10505000102844000000417F4000007C04180478C0
:10506000007C0804047800384444443800FC2424BC
:1050700024180018242418FC007C080404080048A4
:105080005454542000043F444020003C4040207CC5
:10509000001C2040201C003C4030403C00442810B4
:1050A0002844001CA0A0A07C004464544C44141468
:1050B00014141414000000000000000000000000A0
:1050C00000000000000000F80000000000000033B5
:1050D0003000000000100C06100C0600000000005C
:1050E0000000000040C07840C0784000043F040445
:1050F0003F040400007088FC08300000001820FF06
:10510000211E0000F008F000E018000000211C0340
:105110001E211E0000F00888700000001E212324BC
:105120001927211010160E000000000000000000DA
:1051300000000000000000E018040200000000076A
:105140001820400000020418E00000000040201871
:1051500007000000404080F0804040000202010F44
:1051600001020200000000F0000000000101011F28
:1051700001010100000000000000000080B070008C
:10518000000000000000000000000000000101011C
:1051900001010101000000000000000000303000AB
:1051A0000000000000000000806018040060180685
:1051B0000100000000E010080810E000000F1020BF
:1051C00020100F00001010F8000000000020203F09
:1051D0002020000000700808088870000030282493
:1051E0002221300000300888884830000018202034
:1051F00020110E000000C02010F800000007042459
:10520000243F240000F8088888080800001921209D
:1052100020110E0000E0108888180000000F1120F7
:1052200020110E0000380808C83808000000003FB0
:10523000000000000070880808887000001C22210F
:1052400021221C0000E010080810E00000003122BC
:1052500022110F00000000C0C0000000000000305C
:1052600030000000000000800000000000008060AE
:10527000000000000000804020100800000102042F
:105280000810200040404040404040000404040416
:1052900004040400000810204080000000201008D2
:1052A00004020100007048080808F0000000003007
:1052B00036010000C030C828E810E0000718272495
:1052C00023140B000000C038E0000000203C230243
:1052D0000227382008F8888888700000203F2020A6
:1052E00020110E00C03008080808380007182020D8
:1052F0002010080008F808080810E000203F2020CF
:1053000020100F0008F88888E8081000203F2020AF
:105310002320180008F88888E8081000203F2000A3
:1053200003000000C03008080838000007182020DB
:10533000221E020008F808000008F808203F21019A
:1053400001213F20000808F8080800000020203F45
:105350002020000000000808F8080800C0808080B5
:105360007F00000008F888C028180800203F2001AE
:105370002638200008F8080000000000203F202008
:105380002020300008F8F800F8F80800203F003F1F
:10539000003F200008F830C00008F808203F200037
:1053A00007183F00E01008080810E0000F10202048
:1053B00020100F0008F808080808F000203F21011D
:1053C00001010000E01008080810E0000F18242474
:1053D00038504F0008F8888888887000203F2000E7
:1053E000030C30200070880808083800003820219D
:1053F00021221C00180808F8080818000000203FA7
:105400002000000008F808000008F808001F20200D
:1054100020201F000878880000C8380800000738DE
:105420000E010000F80800F80008F800033C07002F
:10543000073C0300081868808068180820302C0397
:10544000032C30200838C800C83808000000203F6E
:105450002000000010080808C8380800203826215D
:1054600020201800000000FE020202000000007F61
:1054700040404000000C30C000000000000000016F
:105480000638C00000020202FE000000004040405A
:105490007F0000000000040202020400000000007F
:1054A00000000000000000000000000080808080FC
:1054B00080808080000202040000000000000000E4
:1054C000000000000000808080800000001924227D
:1054D00022223F2008F8008080000000003F1120B9
:1054E00020110E000000008080800000000E1120BE
:1054F00020201100000000808088F800000E11209C
:1055000020103F200000808080800000001F2222A9
:1055100022221300008080F0888888180020203F15
:10552000202000000000808080808000006B949428
:105530009493600008F8008080800000203F2100E4
:1055400000203F2000809898000000000020203FAD
:1055500020200000000000809898000000C080809B
:10556000807F000008F8000080808000203F240237
:105570002D302000000808F8000000000020203F27
:10558000202000008080808080808000203F2000DC
:105590003F20003F8080008080800000203F21006D
:1055A00000203F200000808080800000001F20201D
:1055B00020201F00808000808000000080FFA1204C
:1055C00020110E000000008080808000000E11205D
:1055D00020A0FF80808080008080800020203F21EC
:1055E000200001000000808080808000003324249F
:1055F00024241900008080E0808000000000001F4B
:10560000202000008080000000808000001F2020FB
:1056100020103F20808080000080808000010E30BC
:105620000806010080800080008080800F300C031D
:105630000C300F0000808000808080000020312E20
:105640000E312000808080000080808080818E70FC
:105650001806010000808080808080000021302CAE
:105660002221300000000000807C020200000000C7
:10567000003F40400002027C800000000040403FAC
:105680000000000000000000FF000000000000001B
:10569000FF0000000000000000000000000000000B
:1056A00000000000000000000000000000000000FA
:1056B0000000000000404040404040404040414128
:1056C00041414140404040404040404040404040D7
:1056D0004040404040050202020202020202020271
:1056E000020202020220202020202020202020026E
:1056F00002020202020290909090909010101010FE
:105700001010101010101010101010101010101099
:10571000020202020202888888888888080808082D
:1057200008080808080808080808080808080808F9
:105730000202020240000000B55600085C57000853
:10574000000000207800000078490008D4570008C5
:1057500078000020000900008849000800000000CF
:1057600000000000000801400100000000080140A6
:1057700002000000A0020020000000000400000061
:10578000000801400400000000080140080000007B
:10579000A0020020080000000C0000000100000032
:1057A000100000000000000000127A00AED580A8B2
:1057B0003FD30040A1C8DA1281CFD9F1DB30A4A6D3
:1057C0008D14AF0000000000000000000000000089
:0457D00000000000D5
:04000005080000ED02
:00000001FF
